000301OPNZA00001ANAINP013302020-09-02T13:01+02:00
103C2020-09-02T13:01+02:00                                                                           139 22631 09-20               00001OPNZA                                                      BAEC 27993974                Hartnick                                                                                                                                               AV                  00000003380000000000NOPNZAMMDPS          8110 J Joseph - (R229 - 30GB Anytime + 30GB Night 
103C2020-09-02T13:01+02:00                                                                           139 86 09-20                  00001OPNZA                                                      BAEC 61608378                Wright                                                                                                                                                 AV                  00000020000000000000NOPNZAFIBRT          7894 test 09-20                                   
103C2020-09-02T13:01+02:00                                                                           139 20244 09-20 Monthly       00001OPNZA                                                      BAEC 17715301                Nijland                                                                                                                                                AV                  00000000920000000000NOPNZAMMDPS          0  09-20 Monthly                                  
103C2020-09-02T13:01+02:00                                                                           139 19521 09-20               00001OPNZA                                                      BAEC 12570957                Wright                                                                                                                                                 AV                  00000003390000000000NOPNZAFIBMR          7194 R989 - 40Mbps Fibre Line Rental + 300GB Cappe
103C2020-09-02T13:01+02:00                                                                           139 20095 09-20               00001OPNZA                                                      BAEC 19569120                Coetzee                                                                                                                                                AV                  00000000900000000000NOPNZAMMDPS          7966 Johan Coetzee (R539 - 100GB LTE-A Mobile Wifi
103C2020-09-02T13:01+02:00                                                                           139 22157 09-20               00001OPNZA                                                      BAEC 3081471040373978        Greeff                                                                                                                                                 AV                  00000000580000000000NOPNZAMMDPS          7975 Dominique Greeff (R349 - 45GB Anytime + 45GB 
103C2020-09-02T13:01+02:00                                                                           139 19805 09-20               00001OPNZA                                                      BAEC Owen.clark              Clark                                                                                                                                                  AV                  00000000580000000000NOPNZAMMDPS          7967 Owen Clark (R345 - 50GB LTE-A Mobile Wifi) (D
103C2020-09-02T13:01+02:00                                                                           139 19448 09-20 Monthly       00001OPNZA                                                      BAEC 22595299                Schoeman                                                                                                                                               AV                  00000001970000000000NOPNZAUBFMR          0  09-20 Monthly                                  
103C2020-09-02T13:01+02:00                                                                           139 20966 09-20 Monthly       00001OPNZA                                                      BAEC 98585487                Makalima                                                                                                                                               AV                  00000001970000000000NOPNZAFIBMR          0  09-20 Monthly                                  
103C2020-09-02T13:01+02:00                                                                           139 21029 09-20 Monthly       00001OPNZA                                                      BAEC 24751479                Weber                                                                                                                                                  AV                  00000000900000000000NOPNZAMMDPS          0  09-20 Monthly                                  
103C2020-09-02T13:01+02:00                                                                           139 19911 09-20 Monthly       00001OPNZA                                                      BAEC 45464915                Lopes                                                                                                                                                  AV                  00000003600000000000NOPNZAFIBMR          0  09-20 Monthly                                  
103C2020-09-02T13:01+02:00                                                                           139 21919 09-20 Monthly       00001OPNZA                                                      BAEC 18474548                Nel                                                                                                                                                    AV                  00000001370000000000NOPNZAFIBMR          0  09-20 Monthly                                  
103C2020-09-02T13:01+02:00                                                                           139 20263 09-20 Monthly       00001OPNZA                                                      BAEC 24758050                Steyn                                                                                                                                                  AV                  00000001750000000000NOPNZAUBFMR          0  09-20 Monthly                                  
103C2020-09-02T13:01+02:00                                                                           139 20431 09-20               00001OPNZA                                                      BAEC 15508122                Africa                                                                                                                                                 AV                  00000002480000000000NOPNZAMMDPS          8053 Alizan Africa (R1489 - 450GB Anytime + 450GB 
103C2020-09-02T13:01+02:00                                                                           139 20399 09-20 Monthly       00001OPNZA                                                      BAEC 17098787                Botes                                                                                                                                                  AV                  00000000920000000000NOPNZAMMDPS          0  09-20 Monthly                                  
103C2020-09-02T13:01+02:00                                                                           139 18611 09-20               00001OPNZA                                                      BAEC 27952680                Rogers                                                                                                                                                 AV                  00000000410000000000NOPNZAUBAMR          7782 Eugene Rogers (Client) (R289 - 4Mbps Premium 
103C2020-09-02T13:01+02:00                                                                           139 20011 09-20               00001OPNZA                                                      BAEC 203168453               Kedian                                                                                                                                                 AV                  00000002120000000000NOPNZAFIBRT          09-20                                             
103C2020-09-02T13:01+02:00                                                                           139 20150 09-20 Monthly       00001OPNZA                                                      BAEC 17666373                Swart                                                                                                                                                  AV                  00000000750000000000NOPNZAMMDPS          0  09-20 Monthly                                  
103C2020-09-02T13:01+02:00                                                                           139 20197 09-20 Monthly       00001OPNZA                                                      BAEC 61028655                Thrussell                                                                                                                                              AV                  00000000580000000000NOPNZAMMDPS          0  09-20 Monthly                                  
90000001900000019000000000000000000004857