000301OPNZA00001ANAINP001102018-01-29T16:18+02:00
103C2018-01-29T16:18+02:00                                                                           16 13046 01-18 admin          00001OPNZA                                                      BAEC 25922325                Barnard                                                                                                                                                AV                  00000010000000000000NOPNZAFIBRT          7777 admin reward 01-18 admin                     
103C2018-01-29T16:18+02:00                                                                           16 19450 01-18 admin          00001OPNZA                                                      AVIOS3081471026768282        Fritz                                                                                                                                                  AV                  00000005000000000000NOPNZABO500          7777 admin reward 01-18 admin                     
103C2018-01-29T16:18+02:00                                                                           16 19471 01-18 admin          00001OPNZA                                                      BAEC 10081618                Small                                                                                                                                                  AV                  00000005000000000000NOPNZABO500          7777 admin reward 01-18 admin                     
90000000300000003000000000000000000002000