000301OPNZA00001ANAINP008802019-05-01T19:05+02:00
103C2019-05-01T19:05+02:00                                                                           94 20239 05-19                00001OPNZA                                                      AVIOS3081471041605485        Joubert                                                                                                                                                AV                  00000000390000000000NOPNZAFIBRT          7039 8Mbps Premium Uncapped 05-19                 
103C2019-05-01T19:05+02:00                                                                           94 18296 05-19                00001OPNZA                                                      AVIOS3081471042556448        Davids                                                                                                                                                 AV                  00000000440000000000NOPNZAFIBRT          7367 Yusiry Davids (R439 - 10Mbps Premium Uncapped
103C2019-05-01T19:05+02:00                                                                           94 20262 05-19 Monthly        00001OPNZA                                                      AVIOS3081471031097602        Aaron                                                                                                                                                  AV                  00000000580000000000NOPNZAMMDPS          0  05-19 Monthly                                  
103C2019-05-01T19:05+02:00                                                                           94 19410 05-19 Monthly        00001OPNZA                                                      BAEC 64809343                Wright                                                                                                                                                 AV                  00000002250000000000NOPNZAMMDPS          0  05-19 Monthly                                  
103C2019-05-01T19:05+02:00                                                                           94 20334 05-19 Monthly        00001OPNZA                                                      AVIOS3081471142989754        Chemaly                                                                                                                                                AV                  00000002250000000000NOPNZAMMDPS          0  05-19 Monthly                                  
103C2019-05-01T19:05+02:00                                                                           94 19668 05-19 Monthly        00001OPNZA                                                      AVIOS3081472029688584        Smith                                                                                                                                                  AV                  00000000920000000000NOPNZAMMDPS          0  05-19 Monthly                                  
103C2019-05-01T19:05+02:00                                                                           94 191 05-19 Monthly          00001OPNZA                                                      AVIOS1234562                 tew12                                                                                                                                                  AV                  00000000250000000000NOPNZAUBFMR          0  05-19 Monthly                                  
103C2019-05-01T19:05+02:00                                                                           94 20320 05-19 Monthly        00001OPNZA                                                      AVIOS3081471043063212        Esterhuizen                                                                                                                                            AV                  00000001150000000000NOPNZAMMDPS          0  05-19 Monthly                                  
103C2019-05-01T19:05+02:00                                                                           94 21271 05-19 Monthly        00001OPNZA                                                      AVIOS25235434                de klerk                                                                                                                                               AV                  00000000900000000000NOPNZAMMDPS          0  05-19 Monthly                                  
103C2019-05-01T19:05+02:00                                                                           94 20244 05-19 Monthly        00001OPNZA                                                      BAEC 17715301                Nijland                                                                                                                                                AV                  00000000920000000000NOPNZAMMDPS          0  05-19 Monthly                                  
103C2019-05-01T19:05+02:00                                                                           94 20218 05-19                00001OPNZA                                                      AVIOS3081471029026811        Arendse                                                                                                                                                AV                  00000000410000000000NOPNZAUBAMR          7038 4Mbps Premium Uncapped 05-19                 
103C2019-05-01T19:05+02:00                                                                           94 15208 05-19 Monthly        00001OPNZA                                                      AVIOS3081471037262895        Badenhorst                                                                                                                                             AV                  00000001670000000000NOPNZAMMDPS          0  05-19 Monthly                                  
103C2019-05-01T19:05+02:00                                                                           94 19348 05-19 Monthly        00001OPNZA                                                      BAEC 21273431                Thompson                                                                                                                                               AV                  00000001650000000000NOPNZAFIBRT          0  05-19 Monthly                                  
103C2019-05-01T19:05+02:00                                                                           94 19422 05-19                00001OPNZA                                                      BAEC 19282203                Steenkamp                                                                                                                                              AV                  00000000560000000000NOPNZAUBAMR          7038 4Mbps Premium Uncapped 05-19                 
103C2019-05-01T19:05+02:00                                                                           94 19521 05-19                00001OPNZA                                                      BAEC 12570957                Wright                                                                                                                                                 AV                  00000003390000000000NOPNZAFIBMR          7194 R989 - 40Mbps Fibre Line Rental + 300GB Cappe
103C2019-05-01T19:05+02:00                                                                           94 13046 05-19 Monthly        00001OPNZA                                                      BAEC 25922325                Barnard                                                                                                                                                AV                  00000004720000000000NOPNZAUBFMR          0  05-19 Monthly                                  
103C2019-05-01T19:05+02:00                                                                           94 19206 05-19 Monthly        00001OPNZA                                                      BAEC 24286035                McPhail                                                                                                                                                AV                  00000000920000000000NOPNZAMMDPS          0  05-19 Monthly                                  
103C2019-05-01T19:05+02:00                                                                           94 17942 05-19 Monthly        00001OPNZA                                                      AVIOS3081472030080649        Venter                                                                                                                                                 AV                  00000000500000000000NOPNZAMMDPS          0  05-19 Monthly                                  
103C2019-05-01T19:05+02:00                                                                           94 19488 05-19 Monthly        00001OPNZA                                                      AVIOS3081472024934512        brink                                                                                                                                                  AV                  00000000500000000000NOPNZAMMDPS          0  05-19 Monthly                                  
103C2019-05-01T19:05+02:00                                                                           94 19154 05-19 Monthly        00001OPNZA                                                      AVIOS3081471040231200        Magee                                                                                                                                                  AV                  00000000500000000000NOPNZAMMDPS          0  05-19 Monthly                                  
103C2019-05-01T19:05+02:00                                                                           94 19266 05-19 Monthly        00001OPNZA                                                      AVIOS3081471036135324        Kubheka                                                                                                                                                AV                  00000000500000000000NOPNZAMMDPS          0  05-19 Monthly                                  
103C2019-05-01T19:05+02:00                                                                           94 19111 05-19 Monthly        00001OPNZA                                                      AVIOS3081471022641129        Sonbadhar                                                                                                                                              AV                  00000000920000000000NOPNZAMMDPS          0  05-19 Monthly                                  
103C2019-05-01T19:05+02:00                                                                           94 19238 05-19 Monthly        00001OPNZA                                                      BAEC 18336986                Arnab                                                                                                                                                  AV                  00000001670000000000NOPNZAMMDPS          0  05-19 Monthly                                  
103C2019-05-01T19:05+02:00                                                                           94 19634 05-19 Monthly        00001OPNZA                                                      BAEC 15420269                Kyzer                                                                                                                                                  AV                  00000000920000000000NOPNZAMMDPS          0  05-19 Monthly                                  
103C2019-05-01T19:05+02:00                                                                           94 19237 05-19 Monthly        00001OPNZA                                                      AVIOS3081471043993590        Wahlstrand                                                                                                                                             AV                  00000000500000000000NOPNZAMMDPS          0  05-19 Monthly                                  
103C2019-05-01T19:05+02:00                                                                           94 19758 05-19 Monthly        00001OPNZA                                                      AVIOS202943850               Pather                                                                                                                                                 AV                  00000000900000000000NOPNZAMMDPS          0  05-19 Monthly                                  
103C2019-05-01T19:05+02:00                                                                           94 19850 05-19 Monthly        00001OPNZA                                                      BAEC 24270685                Hague                                                                                                                                                  AV                  00000001420000000000NOPNZAMMDPS          0  05-19 Monthly                                  
103C2019-05-01T19:05+02:00                                                                           94 13218 05-19 Monthly        00001OPNZA                                                      BAEC 49929245                Kurgan                                                                                                                                                 AV                  00000004470000000000NOPNZAUBFMR          0  05-19 Monthly                                  
103C2019-05-01T19:05+02:00                                                                           94 20254 05-19 Monthly        00001OPNZA                                                      AVIOS3081471043219335        Leeuw                                                                                                                                                  AV                  00000000900000000000NOPNZAFIBRT          0  05-19 Monthly                                  
103C2019-05-01T19:05+02:00                                                                           94 19935 05-19                00001OPNZA                                                      AVIOS3081471037262309        Martins                                                                                                                                                AV                  00000000980000000000NOPNZAUBAMR          7188 4Mbps Business Uncapped + 1 Static IP 05-19  
103C2019-05-01T19:05+02:00                                                                           94 19949 05-19 Monthly        00001OPNZA                                                      AVIOS3081471039379036        Janse van Rensburg                                                                                                                                     AV                  00000001970000000000NOPNZAUBFMR          0  05-19 Monthly                                  
103C2019-05-01T19:05+02:00                                                                           94 19851 05-19 Monthly        00001OPNZA                                                      AVIOS3081471038860341        van Jaarsveld                                                                                                                                          AV                  00000001970000000000NOPNZAUBFMR          0  05-19 Monthly                                  
103C2019-05-01T19:05+02:00                                                                           94 20042 05-19 Monthly        00001OPNZA                                                      AVIOS3081471041387167        Swanepoel                                                                                                                                              AV                  00000000580000000000NOPNZAFIBRT          0  05-19 Monthly                                  
103C2019-05-01T19:05+02:00                                                                           94 20070 05-19 Monthly        00001OPNZA                                                      AVIOS3081471041561159        Macaskill                                                                                                                                              AV                  00000000920000000000NOPNZAMMDPS          0  05-19 Monthly                                  
103C2019-05-01T19:05+02:00                                                                           94 20065 05-19 Monthly        00001OPNZA                                                      AVIOS3081471042246263        Kirby                                                                                                                                                  AV                  00000001420000000000NOPNZAMMDPS          0  05-19 Monthly                                  
103C2019-05-01T19:05+02:00                                                                           94 20095 05-19 Monthly        00001OPNZA                                                      BAEC 19569120                Coetzee                                                                                                                                                AV                  00000000900000000000NOPNZAMMDPS          0  05-19 Monthly                                  
103C2019-05-01T19:05+02:00                                                                           94 20123 05-19 Monthly        00001OPNZA                                                      AVIOS3081471142756617        October                                                                                                                                                AV                  00000000900000000000NOPNZAFIBRT          0  05-19 Monthly                                  
103C2019-05-01T19:05+02:00                                                                           94 20124 05-19 Monthly        00001OPNZA                                                      AVIOS3081471043826956        Slabbert                                                                                                                                               AV                  00000000580000000000NOPNZAMMDPS          0  05-19 Monthly                                  
103C2019-05-01T19:05+02:00                                                                           94 20140 05-19 Monthly        00001OPNZA                                                      AVIOS3081471042241983        Mcwatts                                                                                                                                                AV                  00000000900000000000NOPNZAMMDPS          0  05-19 Monthly                                  
103C2019-05-01T19:05+02:00                                                                           94 20150 05-19 Monthly        00001OPNZA                                                      BAEC 17666373                Swart                                                                                                                                                  AV                  00000000580000000000NOPNZAMMDPS          0  05-19 Monthly                                  
103C2019-05-01T19:05+02:00                                                                           94 20151 05-19 Monthly        00001OPNZA                                                      AVIOS3081471041970806        van Rooyen                                                                                                                                             AV                  00000001420000000000NOPNZAMMDPS          0  05-19 Monthly                                  
103C2019-05-01T19:05+02:00                                                                           94 20153 05-19 Monthly        00001OPNZA                                                      AVIOS3081471037202404        Hugo                                                                                                                                                   AV                  00000000580000000000NOPNZAMMDPS          0  05-19 Monthly                                  
103C2019-05-01T19:05+02:00                                                                           94 20200 05-19 Monthly        00001OPNZA                                                      AVIOS3081472030503699        Logan                                                                                                                                                  AV                  00000000580000000000NOPNZAMMDPS          0  05-19 Monthly                                  
103C2019-05-01T19:05+02:00                                                                           94 20263 05-19 Monthly        00001OPNZA                                                      AVIOS3081471042586114        Steyn                                                                                                                                                  AV                  00000000900000000000NOPNZAFIBRT          0  05-19 Monthly                                  
103C2019-05-01T19:05+02:00                                                                           94 20049 05-19                00001OPNZA                                                      AVIOS3081471041398883        van Wyk                                                                                                                                                AV                  00000003600000000000NOPNZAUBFMR          05-19                                             
103C2019-05-01T19:05+02:00                                                                           94 20285 05-19 Monthly        00001OPNZA                                                      AVIOS3081471042743525        van Jaarsveld                                                                                                                                          AV                  00000000900000000000NOPNZAMMDPS          0  05-19 Monthly                                  
103C2019-05-01T19:05+02:00                                                                           94 19821 05-19 Monthly        00001OPNZA                                                      AVIOS3081471042887967        Carreira                                                                                                                                               AV                  00000001450000000000NOPNZAUBFMR          0  05-19 Monthly                                  
103C2019-05-01T19:05+02:00                                                                           94 20346 05-19 Monthly        00001OPNZA                                                      AVIOS3081471210086079        Naidoo                                                                                                                                                 AV                  00000001420000000000NOPNZAMMDPS          0  05-19 Monthly                                  
103C2019-05-01T19:05+02:00                                                                           94 20354 05-19 Monthly        00001OPNZA                                                      AVIOS3081471044306735        Zeelie                                                                                                                                                 AV                  00000000900000000000NOPNZAMMDPS          0  05-19 Monthly                                  
103C2019-05-01T19:05+02:00                                                                           94 19439 05-19 Monthly        00001OPNZA                                                      AVIOS3081472024211697        Neve                                                                                                                                                   AV                  00000000920000000000NOPNZAFIBRT          0  05-19 Monthly                                  
103C2019-05-01T19:05+02:00                                                                           94 20240 05-19 Monthly        00001OPNZA                                                      BAEC 60277048                Myburgh                                                                                                                                                AV                  00000001420000000000NOPNZAMMDPS          0  05-19 Monthly                                  
103C2019-05-01T19:05+02:00                                                                           94 20509 05-19 Monthly        00001OPNZA                                                      AVIOS3081471044498334        Nunes                                                                                                                                                  AV                  00000000580000000000NOPNZAFIBRT          0  05-19 Monthly                                  
103C2019-05-01T19:05+02:00                                                                           94 20399 05-19 Monthly        00001OPNZA                                                      BAEC 17098787                Botes                                                                                                                                                  AV                  00000000580000000000NOPNZAMMDPS          0  05-19 Monthly                                  
103C2019-05-01T19:05+02:00                                                                           94 20431 05-19 Monthly        00001OPNZA                                                      BAEC 15508122                Africa                                                                                                                                                 AV                  00000000420000000000NOPNZAFIBRT          0  05-19 Monthly                                  
103C2019-05-01T19:05+02:00                                                                           94 19805 05-19 Monthly        00001OPNZA                                                      AVIOSOwen.clark              Clark                                                                                                                                                  AV                  00000000580000000000NOPNZAMMDPS          0  05-19 Monthly                                  
103C2019-05-01T19:05+02:00                                                                           94 20197 05-19 Monthly        00001OPNZA                                                      BAEC 61028655                Thrussell                                                                                                                                              AV                  00000000920000000000NOPNZAMMDPS          0  05-19 Monthly                                  
103C2019-05-01T19:05+02:00                                                                           94 20511 05-19 Monthly        00001OPNZA                                                      AVIOS3081471044504537        Naidoo                                                                                                                                                 AV                  00000000900000000000NOPNZAMMDPS          0  05-19 Monthly                                  
103C2019-05-01T19:05+02:00                                                                           94 20512 05-19 Monthly        00001OPNZA                                                      AVIOSOW53504                 Ferror                                                                                                                                                 AV                  00000000580000000000NOPNZAMMDPS          0  05-19 Monthly                                  
103C2019-05-01T19:05+02:00                                                                           94 19717 05-19 Monthly        00001OPNZA                                                      AVIOS3081471042843416        waja                                                                                                                                                   AV                  00000000920000000000NOPNZAMMDPS          0  05-19 Monthly                                  
103C2019-05-01T19:05+02:00                                                                           94 20535 05-19 Monthly        00001OPNZA                                                      AVIOS3081471044556123        Brink                                                                                                                                                  AV                  00000000900000000000NOPNZAMMDPS          0  05-19 Monthly                                  
103C2019-05-01T19:05+02:00                                                                           94 20536 05-19 Monthly        00001OPNZA                                                      AVIOS3081472006020710        Grootboom                                                                                                                                              AV                  00000000420000000000NOPNZAFIBRT          0  05-19 Monthly                                  
103C2019-05-01T19:05+02:00                                                                           94 20541 05-19 Monthly        00001OPNZA                                                      AVIOS3081472020472988        Van Zyl                                                                                                                                                AV                  00000000900000000000NOPNZAFIBRT          0  05-19 Monthly                                  
103C2019-05-01T19:05+02:00                                                                           94 20544 05-19 Monthly        00001OPNZA                                                      BAEC 14270517                Patel                                                                                                                                                  AV                  00000000580000000000NOPNZAMMDPS          0  05-19 Monthly                                  
103C2019-05-01T19:05+02:00                                                                           94 20547 05-19 Monthly        00001OPNZA                                                      AVIOS3081471044865979        Abraham                                                                                                                                                AV                  00000001420000000000NOPNZAMMDPS          0  05-19 Monthly                                  
103C2019-05-01T19:05+02:00                                                                           94 20553 05-19 Monthly        00001OPNZA                                                      AVIOS3081471143407475        Geyer                                                                                                                                                  AV                  00000000580000000000NOPNZAMMDPS          0  05-19 Monthly                                  
103C2019-05-01T19:05+02:00                                                                           94 20419 05-19 Monthly        00001OPNZA                                                      AVIOS3081471043695286        Swanepoel                                                                                                                                              AV                  00000001970000000000NOPNZAFIBMR          0  05-19 Monthly                                  
103C2019-05-01T19:05+02:00                                                                           94 20559 05-19 Monthly        00001OPNZA                                                      BAEC 30592397                Barker                                                                                                                                                 AV                  00000000580000000000NOPNZAMMDPS          0  05-19 Monthly                                  
103C2019-05-01T19:05+02:00                                                                           94 20560 05-19 Monthly        00001OPNZA                                                      AVIOS3081471044945565        Haine                                                                                                                                                  AV                  00000000900000000000NOPNZAMMDPS          0  05-19 Monthly                                  
103C2019-05-01T19:05+02:00                                                                           94 20566 05-19 Monthly        00001OPNZA                                                      AVIOS5339160022177011        Meyer                                                                                                                                                  AV                  00000001420000000000NOPNZAMMDPS          0  05-19 Monthly                                  
103C2019-05-01T19:05+02:00                                                                           94 20589 05-19 Monthly        00001OPNZA                                                      BAEC 15973401                Daniels                                                                                                                                                AV                  00000000580000000000NOPNZAMMDPS          0  05-19 Monthly                                  
103C2019-05-01T19:05+02:00                                                                           94 20607 05-19 Monthly        00001OPNZA                                                      BAEC 24346930                Mbusi                                                                                                                                                  AV                  00000000900000000000NOPNZAMMDPS          0  05-19 Monthly                                  
103C2019-05-01T19:05+02:00                                                                           94 20649 05-19 Monthly        00001OPNZA                                                      AVIOS3081472001708236        Aggenbach                                                                                                                                              AV                  00000000900000000000NOPNZAMMDPS          0  05-19 Monthly                                  
103C2019-05-01T19:05+02:00                                                                           94 20657 05-19 Monthly        00001OPNZA                                                      BAEC 15055326                Nicolai (Greystone)                                                                                                                                    AV                  00000001420000000000NOPNZAMMDPS          0  05-19 Monthly                                  
103C2019-05-01T19:05+02:00                                                                           94 20695 05-19 Monthly        00001OPNZA                                                      AVIOS3081471046080791        van der Merwe                                                                                                                                          AV                  00000000900000000000NOPNZAFIBRT          0  05-19 Monthly                                  
103C2019-05-01T19:05+02:00                                                                           94 20676 05-19 Monthly        00001OPNZA                                                      BAEC 23562139                Klopper                                                                                                                                                AV                  00000000900000000000NOPNZAMMDPS          0  05-19 Monthly                                  
103C2019-05-01T19:05+02:00                                                                           94 20686 05-19 Monthly        00001OPNZA                                                      AVIOS3081471025598334        Kershaw                                                                                                                                                AV                  00000001970000000000NOPNZAFIBRT          0  05-19 Monthly                                  
103C2019-05-01T19:05+02:00                                                                           94 19448 05-19 Monthly        00001OPNZA                                                      BAEC 22595299                Schoeman                                                                                                                                               AV                  00000001420000000000NOPNZAFIBRT          0  05-19 Monthly                                  
103C2019-05-01T19:05+02:00                                                                           94 19483 05-19 Monthly        00001OPNZA                                                      AVIOS3081471037672077        Eagar                                                                                                                                                  AV                  00000002740000000000NOPNZAFIBMR          0  05-19 Monthly                                  
103C2019-05-01T19:05+02:00                                                                           94 20784 05-19 Monthly        00001OPNZA                                                      BAEC 628484401               Mincher                                                                                                                                                AV                  00000000900000000000NOPNZAFIBRT          0  05-19 Monthly                                  
103C2019-05-01T19:05+02:00                                                                           94 20789 05-19 Monthly        00001OPNZA                                                      AVIOS3081471019470201        Joubert                                                                                                                                                AV                  00000001420000000000NOPNZAMMDPS          0  05-19 Monthly                                  
103C2019-05-01T19:05+02:00                                                                           94 19481 05-19 Monthly        00001OPNZA                                                      AVIOS3081471046234158        Catzavelos                                                                                                                                             AV                  00000000580000000000NOPNZAMMDPS          0  05-19 Monthly                                  
103C2019-05-01T19:05+02:00                                                                           94 20827 05-19 Monthly        00001OPNZA                                                      BAEC 23965358                Le Roux                                                                                                                                                AV                  00000000900000000000NOPNZAMMDPS          0  05-19 Monthly                                  
103C2019-05-01T19:05+02:00                                                                           94 20853 05-19 Monthly        00001OPNZA                                                      AVIOS3081472023583799        Meissenheimer                                                                                                                                          AV                  00000000580000000000NOPNZAMMDPS          0  05-19 Monthly                                  
103C2019-05-01T19:05+02:00                                                                           94 7473 05-19 Monthly         00001OPNZA                                                      BAEC 23888908                Zacks                                                                                                                                                  AV                  00000000900000000000NOPNZAMMDPS          0  05-19 Monthly                                  
103C2019-05-01T19:05+02:00                                                                           94 20899 05-19 Monthly        00001OPNZA                                                      BAEC 24080495                Theron                                                                                                                                                 AV                  00000000420000000000NOPNZAFIBRT          0  05-19 Monthly                                  
103C2019-05-01T19:05+02:00                                                                           94 20966 05-19 Monthly        00001OPNZA                                                      BAEC 98585487                Makalima                                                                                                                                               AV                  00000001970000000000NOPNZAFIBMR          0  05-19 Monthly                                  
103C2019-05-01T19:05+02:00                                                                           94 20813 05-19 Monthly        00001OPNZA                                                      BAEC 24335373                Ikin                                                                                                                                                   AV                  00000001420000000000NOPNZAMMDPS          0  05-19 Monthly                                  
103C2019-05-01T19:05+02:00                                                                           94 20164 05-19 Monthly        00001OPNZA                                                      AVIOS3081471042065671        Westley                                                                                                                                                AV                  00000000580000000000NOPNZAMMDPS          0  05-19 Monthly                                  
103C2019-05-01T19:05+02:00                                                                           94 20097 05-19 Monthly        00001OPNZA                                                      AVIOS3081471028544178        Marais                                                                                                                                                 AV                  00000001970000000000NOPNZAUBFMR          0  05-19 Monthly                                  
103C2019-05-01T19:05+02:00                                                                           94 21029 05-19 Monthly        00001OPNZA                                                      BAEC 24751479                Weber                                                                                                                                                  AV                  00000000900000000000NOPNZAMMDPS          0  05-19 Monthly                                  
103C2019-05-01T19:05+02:00                                                                           94 19697 05-19 Monthly        00001OPNZA                                                      AVIOS3081471039203137        Ayoob                                                                                                                                                  AV                  00000001480000000000NOPNZAMMDPS          0  05-19 Monthly                                  
103C2019-05-01T19:05+02:00                                                                           94 21057 05-19 Monthly        00001OPNZA                                                      BAEC 13541250                Siko                                                                                                                                                   AV                  00000000580000000000NOPNZAMMDPS          0  05-19 Monthly                                  
103C2019-05-01T19:05+02:00                                                                           94 21081 05-19 Monthly        00001OPNZA                                                      BAEC 97594317                Marais                                                                                                                                                 AV                  00000000580000000000NOPNZAMMDPS          0  05-19 Monthly                                  
103C2019-05-01T19:05+02:00                                                                           94 21102 05-19 Monthly        00001OPNZA                                                      BAEC 20210442                Bester                                                                                                                                                 AV                  00000000920000000000NOPNZAMMDPS          0  05-19 Monthly                                  
103C2019-05-01T19:05+02:00                                                                           94 21152 05-19 Monthly        00001OPNZA                                                      BAEC 24773754                Morris                                                                                                                                                 AV                  00000000900000000000NOPNZAFIBRT          0  05-19 Monthly                                  
103C2019-05-01T19:05+02:00                                                                           94 18350 05-19 Monthly        00001OPNZA                                                      AVIOS3081471144295754        Santos                                                                                                                                                 AV                  00000002670000000000NOPNZAMMDPS          0  05-19 Monthly                                  
103C2019-05-01T19:05+02:00                                                                           94 20092 05-19 Monthly        00001OPNZA                                                      AVIOS3081471041603845        van Pype                                                                                                                                               AV                  00000000900000000000NOPNZAMMDPS          0  05-19 Monthly                                  
103C2019-05-01T19:05+02:00                                                                           94 13292 05-19 Monthly        00001OPNZA                                                      BAEC 10428689                Nefdt                                                                                                                                                  AV                  00000001420000000000NOPNZAMMDPS          0  05-19 Monthly                                  
103C2019-05-01T19:05+02:00                                                                           94 21249 05-19 Monthly        00001OPNZA                                                      AVIOS3081471142746923        Esterhuysen                                                                                                                                            AV                  00000000600000000000NOPNZAMMDPS          0  05-19 Monthly                                  
103C2019-05-01T19:05+02:00                                                                           94 20401 05-19 Monthly        00001OPNZA                                                      AVIOS3081471044023215        Muller                                                                                                                                                 AV                  00000000420000000000NOPNZAMMDPS          0  05-19 Monthly                                  
103C2019-05-01T19:05+02:00                                                                           94 13047 05-19                00001OPNZA                                                      BAEC 19082400                Storer                                                                                                                                                 AV                  00000000630000000000NOPNZAUBAMR          7408 Mark Storer (Client) (R439 - 10Mbps Premium U
103C2019-05-01T19:05+02:00                                                                           94 21080 05-19                00001OPNZA                                                      BAEC 24639846                Bodill                                                                                                                                                 AV                  00000002740000000000NOPNZAFIBRT          7413 Sherri-Ann Bodill (R549 - 20Mbps Premium Unca
90000010200000102000000000000000000011612