000301OPNZA00001ANAINP008502019-04-04T09:37+02:00
103C2019-04-04T09:37+02:00                                                                           91 20239 04-19                00001OPNZA                                                      AVIOS3081471041605485        Joubert                                                                                                                                                AV                  00000000560000000000NOPNZAFIBRT          7039 8Mbps Premium Uncapped 04-19                 
103C2019-04-04T09:37+02:00                                                                           91 18296 04-19                00001OPNZA                                                      AVIOS3081471042556448        Davids                                                                                                                                                 AV                  00000000630000000000NOPNZAFIBRT          7367 Yusiry Davids (R439 - 10Mbps Premium Uncapped
103C2019-04-04T09:37+02:00                                                                           91 19410 04-19 Monthly        00001OPNZA                                                      BAEC 64809343                Wright                                                                                                                                                 AV                  00000002250000000000NOPNZAMMDPS          0  04-19 Monthly                                  
103C2019-04-04T09:37+02:00                                                                           91 20087 04-19 Monthly        00001OPNZA                                                      AVIOS3081471042287762        Mlotshwa                                                                                                                                               AV                  00000000900000000000NOPNZAFIBRT          0  04-19 Monthly                                  
103C2019-04-04T09:37+02:00                                                                           91 20334 04-19 Monthly        00001OPNZA                                                      AVIOS3081471142989754        Chemaly                                                                                                                                                AV                  00000002250000000000NOPNZAMMDPS          0  04-19 Monthly                                  
103C2019-04-04T09:37+02:00                                                                           91 19668 04-19 Monthly        00001OPNZA                                                      AVIOS3081472029688584        Smith                                                                                                                                                  AV                  00000000920000000000NOPNZAMMDPS          0  04-19 Monthly                                  
103C2019-04-04T09:37+02:00                                                                           91 191 04-19 Monthly          00001OPNZA                                                      AVIOS1234562                 tew12                                                                                                                                                  AV                  00000000250000000000NOPNZAUBFMR          0  04-19 Monthly                                  
103C2019-04-04T09:37+02:00                                                                           91 20320 04-19 Monthly        00001OPNZA                                                      AVIOS3081471043063212        Esterhuizen                                                                                                                                            AV                  00000000900000000000NOPNZAFIBRT          0  04-19 Monthly                                  
103C2019-04-04T09:37+02:00                                                                           91 20244 04-19 Monthly        00001OPNZA                                                      BAEC 17715301                Nijland                                                                                                                                                AV                  00000000920000000000NOPNZAMMDPS          0  04-19 Monthly                                  
103C2019-04-04T09:37+02:00                                                                           91 20218 04-19                00001OPNZA                                                      AVIOS3081471029026811        Arendse                                                                                                                                                AV                  00000000410000000000NOPNZAUBAMR          7038 4Mbps Premium Uncapped 04-19                 
103C2019-04-04T09:37+02:00                                                                           91 15208 04-19 Monthly        00001OPNZA                                                      AVIOS3081471037262895        Badenhorst                                                                                                                                             AV                  00000001670000000000NOPNZAMMDPS          0  04-19 Monthly                                  
103C2019-04-04T09:37+02:00                                                                           91 19348 04-19 Monthly        00001OPNZA                                                      BAEC 21273431                Thompson                                                                                                                                               AV                  00000001900000000000NOPNZAFIBMR          0  04-19 Monthly                                  
103C2019-04-04T09:37+02:00                                                                           91 19358 04-19 Monthly        00001OPNZA                                                      AVIOS3081471042147339        Kruger                                                                                                                                                 AV                  00000001420000000000NOPNZAMMDPS          0  04-19 Monthly                                  
103C2019-04-04T09:37+02:00                                                                           91 19422 04-19                00001OPNZA                                                      BAEC 19282203                Steenkamp                                                                                                                                              AV                  00000000560000000000NOPNZAUBAMR          7038 4Mbps Premium Uncapped 04-19                 
103C2019-04-04T09:37+02:00                                                                           91 19521 04-19                00001OPNZA                                                      BAEC 12570957                Wright                                                                                                                                                 AV                  00000003390000000000NOPNZAFIBMR          7194 R989 - 40Mbps Fibre Line Rental + 300GB Cappe
103C2019-04-04T09:37+02:00                                                                           91 13046 04-19 Monthly        00001OPNZA                                                      BAEC 25922325                Barnard                                                                                                                                                AV                  00000004720000000000NOPNZAUBFMR          0  04-19 Monthly                                  
103C2019-04-04T09:37+02:00                                                                           91 19206 04-19 Monthly        00001OPNZA                                                      BAEC 24286035                McPhail                                                                                                                                                AV                  00000000920000000000NOPNZAMMDPS          0  04-19 Monthly                                  
103C2019-04-04T09:37+02:00                                                                           91 17942 04-19 Monthly        00001OPNZA                                                      AVIOS3081472030080649        Venter                                                                                                                                                 AV                  00000000500000000000NOPNZAMMDPS          0  04-19 Monthly                                  
103C2019-04-04T09:37+02:00                                                                           91 19488 04-19 Monthly        00001OPNZA                                                      AVIOS3081472024934512        brink                                                                                                                                                  AV                  00000000500000000000NOPNZAMMDPS          0  04-19 Monthly                                  
103C2019-04-04T09:37+02:00                                                                           91 19154 04-19 Monthly        00001OPNZA                                                      AVIOS3081471040231200        Magee                                                                                                                                                  AV                  00000000500000000000NOPNZAMMDPS          0  04-19 Monthly                                  
103C2019-04-04T09:37+02:00                                                                           91 19266 04-19 Monthly        00001OPNZA                                                      AVIOS3081471036135324        Kubheka                                                                                                                                                AV                  00000000500000000000NOPNZAMMDPS          0  04-19 Monthly                                  
103C2019-04-04T09:37+02:00                                                                           91 19111 04-19 Monthly        00001OPNZA                                                      AVIOS3081471022641129        Sonbadhar                                                                                                                                              AV                  00000000920000000000NOPNZAMMDPS          0  04-19 Monthly                                  
103C2019-04-04T09:37+02:00                                                                           91 19238 04-19 Monthly        00001OPNZA                                                      BAEC 18336986                Arnab                                                                                                                                                  AV                  00000001670000000000NOPNZAMMDPS          0  04-19 Monthly                                  
103C2019-04-04T09:37+02:00                                                                           91 13047 04-19 Monthly        00001OPNZA                                                      BAEC 19082400                Storer                                                                                                                                                 AV                  00000000560000000000NOPNZAUBAMR          7038 4Mbps Premium Uncapped 04-19 Monthly         
103C2019-04-04T09:37+02:00                                                                           91 19634 04-19 Monthly        00001OPNZA                                                      BAEC 15420269                Kyzer                                                                                                                                                  AV                  00000000920000000000NOPNZAMMDPS          0  04-19 Monthly                                  
103C2019-04-04T09:37+02:00                                                                           91 19237 04-19 Monthly        00001OPNZA                                                      AVIOS3081471043993590        Wahlstrand                                                                                                                                             AV                  00000000500000000000NOPNZAMMDPS          0  04-19 Monthly                                  
103C2019-04-04T09:37+02:00                                                                           91 13292 04-19 Monthly        00001OPNZA                                                      BAEC 10428689                Nefdt                                                                                                                                                  AV                  00000001420000000000NOPNZAFIBRT          0  04-19 Monthly                                  
103C2019-04-04T09:37+02:00                                                                           91 19758 04-19 Monthly        00001OPNZA                                                      AVIOS202943850               Pather                                                                                                                                                 AV                  00000000900000000000NOPNZAMMDPS          0  04-19 Monthly                                  
103C2019-04-04T09:37+02:00                                                                           91 19850 04-19 Monthly        00001OPNZA                                                      BAEC 24270685                Hague                                                                                                                                                  AV                  00000001420000000000NOPNZAMMDPS          0  04-19 Monthly                                  
103C2019-04-04T09:37+02:00                                                                           91 13218 04-19 Monthly        00001OPNZA                                                      BAEC 49929245                Kurgan                                                                                                                                                 AV                  00000004470000000000NOPNZAUBFMR          0  04-19 Monthly                                  
103C2019-04-04T09:37+02:00                                                                           91 20254 04-19                00001OPNZA                                                      AVIOS3081471043219335        Leeuw                                                                                                                                                  AV                  00000000900000000000NOPNZAFIBRT          04-19                                             
103C2019-04-04T09:37+02:00                                                                           91 19863 04-19 Monthly        00001OPNZA                                                      AVIOS3081471034482835        Paillard                                                                                                                                               AV                  00000001420000000000NOPNZAMMDPS          0  04-19 Monthly                                  
103C2019-04-04T09:37+02:00                                                                           91 19925 04-19 Monthly        00001OPNZA                                                      AVIOS3081471037418133        Williams                                                                                                                                               AV                  00000002670000000000NOPNZAMMDPS          0  04-19 Monthly                                  
103C2019-04-04T09:37+02:00                                                                           91 19935 04-19                00001OPNZA                                                      AVIOS3081471037262309        Martins                                                                                                                                                AV                  00000000980000000000NOPNZAUBAMR          7188 4Mbps Business Uncapped + 1 Static IP 04-19  
103C2019-04-04T09:37+02:00                                                                           91 19949 04-19                00001OPNZA                                                      AVIOS3081471039379036        Janse van Rensburg                                                                                                                                     AV                  00000001970000000000NOPNZAFIBRT          04-19                                             
103C2019-04-04T09:37+02:00                                                                           91 20011 04-19 Monthly        00001OPNZA                                                      AVIOS203168453               Kedian                                                                                                                                                 AV                  00000001670000000000NOPNZAMMDPS          0  04-19 Monthly                                  
103C2019-04-04T09:37+02:00                                                                           91 20042 04-19 Monthly        00001OPNZA                                                      AVIOS3081471041387167        Swanepoel                                                                                                                                              AV                  00000000820000000000NOPNZAMMDPS          0  04-19 Monthly                                  
103C2019-04-04T09:37+02:00                                                                           91 20069 04-19 Monthly        00001OPNZA                                                      AVIOS3081471040975905        Botha                                                                                                                                                  AV                  00000000900000000000NOPNZAFIBRT          0  04-19 Monthly                                  
103C2019-04-04T09:37+02:00                                                                           91 20070 04-19 Monthly        00001OPNZA                                                      AVIOS3081471041561159        Macaskill                                                                                                                                              AV                  00000000920000000000NOPNZAMMDPS          0  04-19 Monthly                                  
103C2019-04-04T09:37+02:00                                                                           91 20065 04-19 Monthly        00001OPNZA                                                      AVIOS3081471042246263        Kirby                                                                                                                                                  AV                  00000000900000000000NOPNZAMMDPS          0  04-19 Monthly                                  
103C2019-04-04T09:37+02:00                                                                           91 20080 04-19 Monthly        00001OPNZA                                                      AVIOS3081471041622431        Schoevers                                                                                                                                              AV                  00000000900000000000NOPNZAMMDPS          0  04-19 Monthly                                  
103C2019-04-04T09:37+02:00                                                                           91 20095 04-19 Monthly        00001OPNZA                                                      BAEC 19569120                Coetzee                                                                                                                                                AV                  00000000900000000000NOPNZAMMDPS          0  04-19 Monthly                                  
103C2019-04-04T09:37+02:00                                                                           91 20123 04-19 Monthly        00001OPNZA                                                      AVIOS3081471142756617        October                                                                                                                                                AV                  00000001130000000000NOPNZAMMDPS          0  04-19 Monthly                                  
103C2019-04-04T09:37+02:00                                                                           91 20124 04-19 Monthly        00001OPNZA                                                      AVIOS3081471043826956        Slabbert                                                                                                                                               AV                  00000000580000000000NOPNZAMMDPS          0  04-19 Monthly                                  
103C2019-04-04T09:37+02:00                                                                           91 20140 04-19 Monthly        00001OPNZA                                                      AVIOS3081471042241983        Mcwatts                                                                                                                                                AV                  00000000900000000000NOPNZAMMDPS          0  04-19 Monthly                                  
103C2019-04-04T09:37+02:00                                                                           91 20150 04-19 Monthly        00001OPNZA                                                      BAEC 17666373                Swart                                                                                                                                                  AV                  00000000580000000000NOPNZAMMDPS          0  04-19 Monthly                                  
103C2019-04-04T09:37+02:00                                                                           91 20151 04-19 Monthly        00001OPNZA                                                      AVIOS3081471041970806        van Rooyen                                                                                                                                             AV                  00000001420000000000NOPNZAMMDPS          0  04-19 Monthly                                  
103C2019-04-04T09:37+02:00                                                                           91 20153 04-19 Monthly        00001OPNZA                                                      AVIOS3081471037202404        Hugo                                                                                                                                                   AV                  00000000580000000000NOPNZAMMDPS          0  04-19 Monthly                                  
103C2019-04-04T09:37+02:00                                                                           91 20200 04-19 Monthly        00001OPNZA                                                      AVIOS3081472030503699        Logan                                                                                                                                                  AV                  00000000580000000000NOPNZAMMDPS          0  04-19 Monthly                                  
103C2019-04-04T09:37+02:00                                                                           91 20263 04-19 Monthly        00001OPNZA                                                      AVIOS3081471042586114        Steyn                                                                                                                                                  AV                  00000000900000000000NOPNZAFIBRT          0  04-19 Monthly                                  
103C2019-04-04T09:37+02:00                                                                           91 20285 04-19 Monthly        00001OPNZA                                                      AVIOS3081471042743525        van Jaarsveld                                                                                                                                          AV                  00000000900000000000NOPNZAMMDPS          0  04-19 Monthly                                  
103C2019-04-04T09:37+02:00                                                                           91 20047 04-19 Monthly        00001OPNZA                                                      AVIOS3081472027733077        MAHOMEDY                                                                                                                                               AV                  00000000580000000000NOPNZAMMDPS          0  04-19 Monthly                                  
103C2019-04-04T09:37+02:00                                                                           91 19821 04-19                00001OPNZA                                                      AVIOS3081471042887967        Carreira                                                                                                                                               AV                  00000001450000000000NOPNZAFIBRT          04-19                                             
103C2019-04-04T09:37+02:00                                                                           91 20346 04-19 Monthly        00001OPNZA                                                      AVIOS3081471210086079        Naidoo                                                                                                                                                 AV                  00000001420000000000NOPNZAMMDPS          0  04-19 Monthly                                  
103C2019-04-04T09:37+02:00                                                                           91 20354 04-19 Monthly        00001OPNZA                                                      AVIOS3081471044306735        Zeelie                                                                                                                                                 AV                  00000000900000000000NOPNZAMMDPS          0  04-19 Monthly                                  
103C2019-04-04T09:37+02:00                                                                           91 19439 04-19 Monthly        00001OPNZA                                                      AVIOS3081472024211697        Neve                                                                                                                                                   AV                  00000000920000000000NOPNZAFIBRT          0  04-19 Monthly                                  
103C2019-04-04T09:37+02:00                                                                           91 20240 04-19 Monthly        00001OPNZA                                                      BAEC 60277048                Myburgh                                                                                                                                                AV                  00000001420000000000NOPNZAMMDPS          0  04-19 Monthly                                  
103C2019-04-04T09:37+02:00                                                                           91 20509 04-19 Monthly        00001OPNZA                                                      AVIOS3081471044498334        Nunes                                                                                                                                                  AV                  00000000580000000000NOPNZAFIBRT          0  04-19 Monthly                                  
103C2019-04-04T09:37+02:00                                                                           91 20399 04-19 Monthly        00001OPNZA                                                      BAEC 17098787                Botes                                                                                                                                                  AV                  00000000580000000000NOPNZAMMDPS          0  04-19 Monthly                                  
103C2019-04-04T09:37+02:00                                                                           91 20097 04-19                00001OPNZA                                                      AVIOS3081471028544178        Marais                                                                                                                                                 AV                  00000001970000000000NOPNZAUBFMR          04-19                                             
103C2019-04-04T09:37+02:00                                                                           91 20431 04-19 Monthly        00001OPNZA                                                      BAEC 15508122                Africa                                                                                                                                                 AV                  00000000430000000000NOPNZAFIBRT          0  04-19 Monthly                                  
103C2019-04-04T09:37+02:00                                                                           91 19805 04-19                00001OPNZA                                                      AVIOSOwen.clark              Clark                                                                                                                                                  AV                  00000000580000000000NOPNZAFIBRT          04-19                                             
103C2019-04-04T09:37+02:00                                                                           91 20197 04-19 Monthly        00001OPNZA                                                      BAEC 61028655                Thrussell                                                                                                                                              AV                  00000000920000000000NOPNZAMMDPS          0  04-19 Monthly                                  
103C2019-04-04T09:37+02:00                                                                           91 20511 04-19 Monthly        00001OPNZA                                                      AVIOS3081471044504537        Naidoo                                                                                                                                                 AV                  00000000900000000000NOPNZAMMDPS          0  04-19 Monthly                                  
103C2019-04-04T09:37+02:00                                                                           91 20512 04-19 Monthly        00001OPNZA                                                      AVIOSOW53504                 Ferror                                                                                                                                                 AV                  00000000580000000000NOPNZAMMDPS          0  04-19 Monthly                                  
103C2019-04-04T09:37+02:00                                                                           91 19717 04-19 Monthly        00001OPNZA                                                      AVIOS3081471042843416        waja                                                                                                                                                   AV                  00000000920000000000NOPNZAMMDPS          0  04-19 Monthly                                  
103C2019-04-04T09:37+02:00                                                                           91 20536 04-19 Monthly        00001OPNZA                                                      AVIOS3081472006020710        Grootboom                                                                                                                                              AV                  00000000420000000000NOPNZAFIBRT          0  04-19 Monthly                                  
103C2019-04-04T09:37+02:00                                                                           91 20541 04-19 Monthly        00001OPNZA                                                      AVIOS3081472020472988        Van Zyl                                                                                                                                                AV                  00000000900000000000NOPNZAFIBRT          0  04-19 Monthly                                  
103C2019-04-04T09:37+02:00                                                                           91 20544 04-19 Monthly        00001OPNZA                                                      BAEC 14270517                Patel                                                                                                                                                  AV                  00000000580000000000NOPNZAMMDPS          0  04-19 Monthly                                  
103C2019-04-04T09:37+02:00                                                                           91 20547 04-19 Monthly        00001OPNZA                                                      AVIOS3081471044865979        Abraham                                                                                                                                                AV                  00000001420000000000NOPNZAMMDPS          0  04-19 Monthly                                  
103C2019-04-04T09:37+02:00                                                                           91 20553 04-19 Monthly        00001OPNZA                                                      AVIOS3081471143407475        Geyer                                                                                                                                                  AV                  00000000580000000000NOPNZAMMDPS          0  04-19 Monthly                                  
103C2019-04-04T09:37+02:00                                                                           91 20419 04-19 Monthly        00001OPNZA                                                      AVIOS3081471043695286        Swanepoel                                                                                                                                              AV                  00000001970000000000NOPNZAFIBMR          0  04-19 Monthly                                  
103C2019-04-04T09:37+02:00                                                                           91 20559 04-19 Monthly        00001OPNZA                                                      BAEC 30592397                Barker                                                                                                                                                 AV                  00000000580000000000NOPNZAMMDPS          0  04-19 Monthly                                  
103C2019-04-04T09:37+02:00                                                                           91 20566 04-19 Monthly        00001OPNZA                                                      AVIOS5339160022177011        Meyer                                                                                                                                                  AV                  00000001420000000000NOPNZAMMDPS          0  04-19 Monthly                                  
103C2019-04-04T09:37+02:00                                                                           91 20589 04-19 Monthly        00001OPNZA                                                      BAEC 15973401                Daniels                                                                                                                                                AV                  00000000580000000000NOPNZAMMDPS          0  04-19 Monthly                                  
103C2019-04-04T09:37+02:00                                                                           91 20607 04-19 Monthly        00001OPNZA                                                      AVIOS3081471143414760        Mbusi                                                                                                                                                  AV                  00000000580000000000NOPNZAMMDPS          0  04-19 Monthly                                  
103C2019-04-04T09:37+02:00                                                                           91 20649 04-19 Monthly        00001OPNZA                                                      AVIOS3081472001708236        Aggenbach                                                                                                                                              AV                  00000000900000000000NOPNZAMMDPS          0  04-19 Monthly                                  
103C2019-04-04T09:37+02:00                                                                           91 20630 04-19 Monthly        00001OPNZA                                                      AVIOS3081471045505269        Thyssen                                                                                                                                                AV                  00000000900000000000NOPNZAFIBRT          0  04-19 Monthly                                  
103C2019-04-04T09:37+02:00                                                                           91 20657 04-19 Monthly        00001OPNZA                                                      BAEC 15055326                Nicolai (Greystone)                                                                                                                                    AV                  00000001420000000000NOPNZAMMDPS          0  04-19 Monthly                                  
103C2019-04-04T09:37+02:00                                                                           91 20681 04-19 Monthly        00001OPNZA                                                      AVIOS3081471026409812        Ngwane                                                                                                                                                 AV                  00000000420000000000NOPNZAFIBRT          0  04-19 Monthly                                  
103C2019-04-04T09:37+02:00                                                                           91 20695 04-19 Monthly        00001OPNZA                                                      AVIOS3081471046080791        van der Merwe                                                                                                                                          AV                  00000000900000000000NOPNZAFIBRT          0  04-19 Monthly                                  
103C2019-04-04T09:37+02:00                                                                           91 20676 04-19 Monthly        00001OPNZA                                                      BAEC 23562139                Klopper                                                                                                                                                AV                  00000000580000000000NOPNZAMMDPS          0  04-19 Monthly                                  
103C2019-04-04T09:37+02:00                                                                           91 20686 04-19 Monthly        00001OPNZA                                                      AVIOS3081471025598334        Kershaw                                                                                                                                                AV                  00000001970000000000NOPNZAFIBRT          0  04-19 Monthly                                  
103C2019-04-04T09:37+02:00                                                                           91 19483 04-19 Monthly        00001OPNZA                                                      AVIOS3081471037672077        Eagar                                                                                                                                                  AV                  00000002740000000000NOPNZAFIBMR          0  04-19 Monthly                                  
103C2019-04-04T09:37+02:00                                                                           91 20784 04-19 Monthly        00001OPNZA                                                      BAEC 628484401               Mincher                                                                                                                                                AV                  00000000900000000000NOPNZAFIBRT          0  04-19 Monthly                                  
103C2019-04-04T09:37+02:00                                                                           91 20789 04-19 Monthly        00001OPNZA                                                      AVIOS3081471019470201        Joubert                                                                                                                                                AV                  00000001420000000000NOPNZAMMDPS          0  04-19 Monthly                                  
103C2019-04-04T09:37+02:00                                                                           91 19481 04-19 Monthly        00001OPNZA                                                      AVIOS3081471046234158        Catzavelos                                                                                                                                             AV                  00000000580000000000NOPNZAMMDPS          0  04-19 Monthly                                  
103C2019-04-04T09:37+02:00                                                                           91 20827 04-19 Monthly        00001OPNZA                                                      BAEC 23965358                Le Roux                                                                                                                                                AV                  00000000900000000000NOPNZAMMDPS          0  04-19 Monthly                                  
103C2019-04-04T09:37+02:00                                                                           91 20853 04-19 Monthly        00001OPNZA                                                      AVIOS3081472023583799        Meissenheimer                                                                                                                                          AV                  00000000580000000000NOPNZAMMDPS          0  04-19 Monthly                                  
103C2019-04-04T09:37+02:00                                                                           91 7473 04-19 Monthly         00001OPNZA                                                      BAEC 23888908                Zacks                                                                                                                                                  AV                  00000000900000000000NOPNZAMMDPS          0  04-19 Monthly                                  
103C2019-04-04T09:37+02:00                                                                           91 20899 04-19 Monthly        00001OPNZA                                                      BAEC 24080495                Theron                                                                                                                                                 AV                  00000000430000000000NOPNZAFIBRT          0  04-19 Monthly                                  
103C2019-04-04T09:37+02:00                                                                           91 20966 04-19 Monthly        00001OPNZA                                                      BAEC 98585487                Makalima                                                                                                                                               AV                  00000001970000000000NOPNZAFIBMR          0  04-19 Monthly                                  
103C2019-04-04T09:37+02:00                                                                           91 20813 04-19 Monthly        00001OPNZA                                                      BAEC 24335373                Ikin                                                                                                                                                   AV                  00000001420000000000NOPNZAMMDPS          0  04-19 Monthly                                  
103C2019-04-04T09:37+02:00                                                                           91 20164 04-19 Monthly        00001OPNZA                                                      AVIOS3081471042065671        Westley                                                                                                                                                AV                  00000000580000000000NOPNZAMMDPS          0  04-19 Monthly                                  
103C2019-04-04T09:37+02:00                                                                           91 21029 04-19 Monthly        00001OPNZA                                                      BAEC 24751479                Weber                                                                                                                                                  AV                  00000000900000000000NOPNZAMMDPS          0  04-19 Monthly                                  
103C2019-04-04T09:37+02:00                                                                           91 19697 04-19 Monthly        00001OPNZA                                                      AVIOS3081471039203137        Ayoob                                                                                                                                                  AV                  00000001480000000000NOPNZAMMDPS          0  04-19 Monthly                                  
103C2019-04-04T09:37+02:00                                                                           91 21057 04-19 Monthly        00001OPNZA                                                      BAEC 13541250                Siko                                                                                                                                                   AV                  00000000580000000000NOPNZAMMDPS          0  04-19 Monthly                                  
103C2019-04-04T09:37+02:00                                                                           91 21062 04-19 Monthly        00001OPNZA                                                      BAEC 16009714                Meter                                                                                                                                                  AV                  00000000420000000000NOPNZAMMDPS          0  04-19 Monthly                                  
103C2019-04-04T09:37+02:00                                                                           91 21081 04-19 Monthly        00001OPNZA                                                      BAEC 97594317                Marais                                                                                                                                                 AV                  00000000580000000000NOPNZAMMDPS          0  04-19 Monthly                                  
103C2019-04-04T09:37+02:00                                                                           91 21102 04-19 Monthly        00001OPNZA                                                      BAEC 20210442                Bester                                                                                                                                                 AV                  00000000920000000000NOPNZAMMDPS          0  04-19 Monthly                                  
103C2019-04-04T09:37+02:00                                                                           91 21152 04-19 Monthly        00001OPNZA                                                      BAEC 24773754                Morris                                                                                                                                                 AV                  00000000900000000000NOPNZAFIBRT          0  04-19 Monthly                                  
103C2019-04-04T09:37+02:00                                                                           91 21080 04-19                00001OPNZA                                                      BAEC 24639846                Bodill                                                                                                                                                 AV                  00000000850000000000NOPNZAFIBRT          7342 Sherri-Ann Bodill (R849 - 40Mbps Premium Unca
103C2019-04-04T09:37+02:00                                                                           91 20401 04-19                00001OPNZA                                                      AVIOS3081471044023215        Muller                                                                                                                                                 AV                  00000000420000000000NOPNZAMMDPS          04-19                                             
90000010300000103000000000000000000011161