000301OPNZA00001ANAINP001202018-02-02T09:58+02:00
103C2018-02-02T09:58+02:00                                                                           17 13218 02-18                00001OPNZA                                                      BAEC 49929245                Gold                                                                                                                                                   AV                  00000004470000000000NOPNZAFIBMR          02-18                                             
103C2018-02-02T09:58+02:00                                                                           17 7779 02-18                 00001OPNZA                                                      AVIOS3081471037381265        de Wit                                                                                                                                                 AV                  00000000430000000000NOPNZAUBAMR          7061 200GB Capped Unshaped 02-18                  
103C2018-02-02T09:58+02:00                                                                           17 18368 02-18                00001OPNZA                                                      AVIOS3081471021053177        (Pty) Ltd                                                                                                                                              AV                  00000000840000000000NOPNZAUBAMR          7039 8Mbps Premium Uncapped 02-18                 
103C2018-02-02T09:58+02:00                                                                           17 19348 02-18 Monthly        00001OPNZA                                                      BAEC 21273431                Thompson                                                                                                                                               AV                  00000001650000000000NOPNZAFIBMR          0  02-18 Monthly                                  
103C2018-02-02T09:58+02:00                                                                           17 19410 02-18 Monthly        00001OPNZA                                                      BAEC 64809343                Wright                                                                                                                                                 AV                  00000005000000000000NOPNZAFIBMR          0  02-18 Monthly                                  
103C2018-02-02T09:58+02:00                                                                           17 19422 02-18                00001OPNZA                                                      BAEC 19282203                Steenkamp                                                                                                                                              AV                  00000000560000000000NOPNZAUBAMR          7038 4Mbps Premium Uncapped 02-18                 
103C2018-02-02T09:58+02:00                                                                           17 13046 02-18 Monthly        00001OPNZA                                                      BAEC 25922325                Barnard                                                                                                                                                AV                  00000003780000000000NOPNZAUBFMR          0  02-18 Monthly                                  
103C2018-02-02T09:58+02:00                                                                           17 17942 02-18 Monthly        00001OPNZA                                                      AVIOS3081472030080649        Venter                                                                                                                                                 AV                  00000002990000000000NOPNZAMMDPS          0  02-18 Monthly                                  
90000000800000008000000000000000000001972