000301OPNZA00001ANAINP004002018-06-27T16:54+02:00
103C2018-06-27T16:54+02:00                                                                           46 20087 06-18 admin          00001OPNZA                                                      AVIOS3081471042287762        Mlotshwa                                                                                                                                               AV                  00000020000000002000NOPNZAMMDPSOPNZABONUS7777 admin reward 06-18 admin                     
103C2018-06-27T16:54+02:00                                                                           46 20214 06-18 admin          00001OPNZA                                                      AVIOS3081471042032101        Ungerer                                                                                                                                                AV                  00000020000000002000NOPNZAMMDPSOPNZABONUS7777 admin reward 06-18 admin                     
103C2018-06-27T16:54+02:00                                                                           46 20220 06-18 admin          00001OPNZA                                                      AVIOS3081471042381466        Venter                                                                                                                                                 AV                  00000020000000002000NOPNZAMMDPSOPNZABONUS7777 admin reward 06-18 admin                     
90000000300000003000000006000000000006000