000301OPNZA00001ANAINP005702018-09-18T09:53+02:00
103C2018-09-18T09:53+02:00                                                                           63 20545 09-18 admin          00001OPNZA                                                      AVIOS3081472026277571        Nokwe                                                                                                                                                  AV                  00000020000000000000NOPNZAMMDPS          7777 admin reward 09-18 admin                     
103C2018-09-18T09:53+02:00                                                                           63 20504 09-18 admin          00001OPNZA                                                      AVIOS3081471044465051        Maritz                                                                                                                                                 AV                  00000020000000000000NOPNZAMMDPS          7777 admin reward 09-18 admin                     
103C2018-09-18T09:53+02:00                                                                           63 20541 09-18 admin          00001OPNZA                                                      AVIOS3081472020472988        Van Zyl                                                                                                                                                AV                  00000020000000000000NOPNZAMMDPS          7777 admin reward 09-18 admin                     
103C2018-09-18T09:53+02:00                                                                           63 20535 09-18 admin          00001OPNZA                                                      AVIOS3081471044556123        Brink                                                                                                                                                  AV                  00000020000000000000NOPNZAMMDPS          7777 admin reward 09-18 admin                     
103C2018-09-18T09:53+02:00                                                                           63 20503 09-18 admin          00001OPNZA                                                      AVIOS3081471044344819        Neufeld                                                                                                                                                AV                  00000020000000000000NOPNZAMMDPS          7777 admin reward 09-18 admin                     
103C2018-09-18T09:53+02:00                                                                           63 20124 09-18 admin          00001OPNZA                                                      AVIOS3081471043826956        Slabbert                                                                                                                                               AV                  00000020000000000000NOPNZAMMDPS          7777 admin reward 09-18 admin                     
103C2018-09-18T09:53+02:00                                                                           63 20547 09-18 admin          00001OPNZA                                                      AVIOS3081471044865979        Abraham                                                                                                                                                AV                  00000020000000000000NOPNZAMMDPS          7777 admin reward 09-18 admin                     
103C2018-09-18T09:53+02:00                                                                           63 19964 09-18 admin          00001OPNZA                                                      BAEC 23229913                Nkosi                                                                                                                                                  AV                  00000020000000000000NOPNZAMMDPS          7777 admin reward 09-18 admin                     
103C2018-09-18T09:53+02:00                                                                           63 20559 09-18 admin          00001OPNZA                                                      BAEC 30592397                Barker                                                                                                                                                 AV                  00000020000000000000NOPNZAMMDPS          7777 admin reward 09-18 admin                     
103C2018-09-18T09:53+02:00                                                                           63 20560 09-18 admin          00001OPNZA                                                      AVIOS3081471044945565        Haine                                                                                                                                                  AV                  00000020000000000000NOPNZAMMDPS          7777 admin reward 09-18 admin                     
90000001000000010000000000000000000020000