000301OPNZA00001ANAINP009802019-08-02T10:56+02:00
103C2019-08-02T10:56+02:00                                                                           104 19410 08-19 Monthly       00001OPNZA                                                      BAEC 64809343                Wright                                                                                                                                                 AV                  00000002200000000000NOPNZAMMDPS          0  08-19 Monthly                                  
103C2019-08-02T10:56+02:00                                                                           104 20244 08-19 Monthly       00001OPNZA                                                      BAEC 17715301                Nijland                                                                                                                                                AV                  00000000920000000000NOPNZAMMDPS          0  08-19 Monthly                                  
103C2019-08-02T10:56+02:00                                                                           104 19348 08-19 Monthly       00001OPNZA                                                      BAEC 21273431                Thompson                                                                                                                                               AV                  00000001650000000000NOPNZAFIBRT          0  08-19 Monthly                                  
103C2019-08-02T10:56+02:00                                                                           104 19422 08-19               00001OPNZA                                                      BAEC 19282203                Steenkamp                                                                                                                                              AV                  00000000560000000000NOPNZAUBAMR          7038 4Mbps Premium Uncapped 08-19                 
103C2019-08-02T10:56+02:00                                                                           104 19521 08-19               00001OPNZA                                                      BAEC 12570957                Wright                                                                                                                                                 AV                  00000003390000000000NOPNZAFIBMR          7194 R989 - 40Mbps Fibre Line Rental + 300GB Cappe
103C2019-08-02T10:56+02:00                                                                           104 13046 08-19 Monthly       00001OPNZA                                                      BAEC 25922325                Barnard                                                                                                                                                AV                  00000004720000000000NOPNZAUBFMR          0  08-19 Monthly                                  
103C2019-08-02T10:56+02:00                                                                           104 19238 08-19 Monthly       00001OPNZA                                                      BAEC 18336986                Arnab                                                                                                                                                  AV                  00000001670000000000NOPNZAMMDPS          0  08-19 Monthly                                  
103C2019-08-02T10:56+02:00                                                                           104 19634 08-19 Monthly       00001OPNZA                                                      BAEC 15420269                Kyzer                                                                                                                                                  AV                  00000000920000000000NOPNZAMMDPS          0  08-19 Monthly                                  
103C2019-08-02T10:56+02:00                                                                           104 19850 08-19 Monthly       00001OPNZA                                                      BAEC 24270685                Hague                                                                                                                                                  AV                  00000001420000000000NOPNZAMMDPS          0  08-19 Monthly                                  
103C2019-08-02T10:56+02:00                                                                           104 13218 08-19 Monthly       00001OPNZA                                                      BAEC 49929245                Kurgan                                                                                                                                                 AV                  00000004470000000000NOPNZAUBFMR          0  08-19 Monthly                                  
103C2019-08-02T10:56+02:00                                                                           104 20011 08-19 Monthly       00001OPNZA                                                      BAEC 203168453               Kedian                                                                                                                                                 AV                  00000001670000000000NOPNZAMMDPS          0  08-19 Monthly                                  
103C2019-08-02T10:56+02:00                                                                           104 20095 08-19 Monthly       00001OPNZA                                                      BAEC 19569120                Coetzee                                                                                                                                                AV                  00000000900000000000NOPNZAMMDPS          0  08-19 Monthly                                  
103C2019-08-02T10:56+02:00                                                                           104 20240 08-19 Monthly       00001OPNZA                                                      BAEC 60277048                Myburgh                                                                                                                                                AV                  00000001420000000000NOPNZAMMDPS          0  08-19 Monthly                                  
103C2019-08-02T10:56+02:00                                                                           104 20399 08-19 Monthly       00001OPNZA                                                      BAEC 17098787                Botes                                                                                                                                                  AV                  00000000580000000000NOPNZAMMDPS          0  08-19 Monthly                                  
103C2019-08-02T10:56+02:00                                                                           104 20431 08-19 Monthly       00001OPNZA                                                      BAEC 15508122                Africa                                                                                                                                                 AV                  00000000420000000000NOPNZAFIBRT          0  08-19 Monthly                                  
103C2019-08-02T10:56+02:00                                                                           104 19805 08-19 Monthly       00001OPNZA                                                      BAEC Owen.clark              Clark                                                                                                                                                  AV                  00000000580000000000NOPNZAMMDPS          0  08-19 Monthly                                  
103C2019-08-02T10:56+02:00                                                                           104 20197 08-19 Monthly       00001OPNZA                                                      BAEC 61028655                Thrussell                                                                                                                                              AV                  00000000920000000000NOPNZAMMDPS          0  08-19 Monthly                                  
103C2019-08-02T10:56+02:00                                                                           104 20544 08-19 Monthly       00001OPNZA                                                      BAEC 14270517                Patel                                                                                                                                                  AV                  00000000580000000000NOPNZAMMDPS          0  08-19 Monthly                                  
103C2019-08-02T10:56+02:00                                                                           104 20559 08-19 Monthly       00001OPNZA                                                      BAEC 30592397                Barker                                                                                                                                                 AV                  00000000580000000000NOPNZAMMDPS          0  08-19 Monthly                                  
103C2019-08-02T10:56+02:00                                                                           104 20589 08-19 Monthly       00001OPNZA                                                      BAEC 15973401                Daniels                                                                                                                                                AV                  00000000580000000000NOPNZAMMDPS          0  08-19 Monthly                                  
103C2019-08-02T10:56+02:00                                                                           104 20607 08-19 Monthly       00001OPNZA                                                      BAEC 24346930                Mbusi                                                                                                                                                  AV                  00000000900000000000NOPNZAMMDPS          0  08-19 Monthly                                  
103C2019-08-02T10:56+02:00                                                                           104 20657 08-19 Monthly       00001OPNZA                                                      BAEC 15055326                Nicolai (Greystone)                                                                                                                                    AV                  00000001420000000000NOPNZAMMDPS          0  08-19 Monthly                                  
103C2019-08-02T10:56+02:00                                                                           104 20676 08-19 Monthly       00001OPNZA                                                      BAEC 23562139                Klopper                                                                                                                                                AV                  00000000900000000000NOPNZAMMDPS          0  08-19 Monthly                                  
103C2019-08-02T10:56+02:00                                                                           104 19448 08-19 Monthly       00001OPNZA                                                      BAEC 22595299                Schoeman                                                                                                                                               AV                  00000001970000000000NOPNZAUBFMR          0  08-19 Monthly                                  
103C2019-08-02T10:56+02:00                                                                           104 20853 08-19 Monthly       00001OPNZA                                                      BAEC 24581189                Meissenheimer                                                                                                                                          AV                  00000000580000000000NOPNZAMMDPS          0  08-19 Monthly                                  
103C2019-08-02T10:56+02:00                                                                           104 7473 08-19 Monthly        00001OPNZA                                                      BAEC 23888908                Zacks                                                                                                                                                  AV                  00000000900000000000NOPNZAMMDPS          0  08-19 Monthly                                  
103C2019-08-02T10:56+02:00                                                                           104 20899 08-19 Monthly       00001OPNZA                                                      BAEC 24080495                Theron                                                                                                                                                 AV                  00000000420000000000NOPNZAFIBRT          0  08-19 Monthly                                  
103C2019-08-02T10:56+02:00                                                                           104 20966 08-19 Monthly       00001OPNZA                                                      BAEC 98585487                Makalima                                                                                                                                               AV                  00000001970000000000NOPNZAFIBMR          0  08-19 Monthly                                  
103C2019-08-02T10:56+02:00                                                                           104 20813 08-19 Monthly       00001OPNZA                                                      BAEC 24335373                Ikin                                                                                                                                                   AV                  00000001420000000000NOPNZAMMDPS          0  08-19 Monthly                                  
103C2019-08-02T10:56+02:00                                                                           104 20653 08-19               00001OPNZA                                                      BAEC 23906846                Bonthuys                                                                                                                                               AV                  00000001970000000000NOPNZAUBFMR          7243 (R789 - 10Mbps Uncapped Fibre Data + Fibre Li
103C2019-08-02T10:56+02:00                                                                           104 21029 08-19 Monthly       00001OPNZA                                                      BAEC 24751479                Weber                                                                                                                                                  AV                  00000000900000000000NOPNZAMMDPS          0  08-19 Monthly                                  
103C2019-08-02T10:56+02:00                                                                           104 21057 08-19 Monthly       00001OPNZA                                                      BAEC 13541250                Siko                                                                                                                                                   AV                  00000000580000000000NOPNZAMMDPS          0  08-19 Monthly                                  
103C2019-08-02T10:56+02:00                                                                           104 21081 08-19 Monthly       00001OPNZA                                                      BAEC 97594317                Marais                                                                                                                                                 AV                  00000000580000000000NOPNZAMMDPS          0  08-19 Monthly                                  
103C2019-08-02T10:56+02:00                                                                           104 21102 08-19 Monthly       00001OPNZA                                                      BAEC 20210442                Bester                                                                                                                                                 AV                  00000000920000000000NOPNZAMMDPS          0  08-19 Monthly                                  
103C2019-08-02T10:56+02:00                                                                           104 13292 08-19 Monthly       00001OPNZA                                                      BAEC 10428689                Nefdt                                                                                                                                                  AV                  00000001420000000000NOPNZAMMDPS          0  08-19 Monthly                                  
103C2019-08-02T10:56+02:00                                                                           104 21425 08-19 Monthly       00001OPNZA                                                      BAEC 15209015                Barnard                                                                                                                                                AV                  00000000600000000000NOPNZAMMDPS          0  08-19 Monthly                                  
103C2019-08-02T10:56+02:00                                                                           104 21271 08-19 Monthly       00001OPNZA                                                      BAEC 25235434                de klerk                                                                                                                                               AV                  00000001970000000000NOPNZAFIBRT          0  08-19 Monthly                                  
103C2019-08-02T10:56+02:00                                                                           104 21506 08-19 Monthly       00001OPNZA                                                      BAEC 25521336                Brazier                                                                                                                                                AV                  00000001420000000000NOPNZAFIBRT          0  08-19 Monthly                                  
103C2019-08-02T10:56+02:00                                                                           104 21080 08-19               00001OPNZA                                                      BAEC 24639846                Bodill                                                                                                                                                 AV                  00000000920000000000NOPNZAFIBRT          7537 Sherri-Ann Bodill (R549 - 20Mbps Premium Unca
103C2019-08-02T10:56+02:00                                                                           104 21664 08-19 Monthly       00001OPNZA                                                      BAEC 23331127                Mckerry                                                                                                                                                AV                  00000000930000000000NOPNZAMMDPS          0  08-19 Monthly                                  
90000004000000040000000000000000000005284