000301OPNZA00001ANAINP003902018-06-23T10:23+02:00
103C2018-06-23T10:23+02:00                                                                           45 20197 06-18 admin          00001OPNZA                                                      BAEC 61028655                Thrussell                                                                                                                                              AV                  00000020000000002000NOPNZAMMDPSOPNZABONUS7777 admin reward 06-18 admin                     
103C2018-06-23T10:23+02:00                                                                           45 20140 06-18 admin          00001OPNZA                                                      AVIOS3081471042241983        Mcwatts                                                                                                                                                AV                  00000020000000002000NOPNZAMMDPSOPNZABONUS7777 admin reward 06-18 admin                     
103C2018-06-23T10:23+02:00                                                                           45 86 06-18 admin             00001OPNZA                                                      BAEC 61608378                Wright                                                                                                                                                 AV                  00000180000000018000NOPNZAUBAMROPNZABONUS7777 admin reward 06-18 admin                     
90000000300000003000000022000000000022000