000301OPNZA00001ANAINP009402019-07-01T13:58+02:00
103C2019-07-01T13:58+02:00                                                                           100 21376 07-19 Monthly       00001OPNZA                                                      BAEC 25587028                Pillay                                                                                                                                                 AV                  00000000940000000000NOPNZAFIBRT          0  07-19 Monthly                                  
103C2019-07-01T13:58+02:00                                                                           100 19410 07-19 Monthly       00001OPNZA                                                      BAEC 64809343                Wright                                                                                                                                                 AV                  00000007200000000000NOPNZAMMDPS          0  07-19 Monthly                                  
103C2019-07-01T13:58+02:00                                                                           100 21271 07-19 Monthly       00001OPNZA                                                      BAEC 25235434                de klerk                                                                                                                                               AV                  00000002870000000000NOPNZAMMDPS          0  07-19 Monthly                                  
103C2019-07-01T13:58+02:00                                                                           100 20244 07-19 Monthly       00001OPNZA                                                      BAEC 17715301                Nijland                                                                                                                                                AV                  00000000920000000000NOPNZAMMDPS          0  07-19 Monthly                                  
103C2019-07-01T13:58+02:00                                                                           100 19348 07-19 Monthly       00001OPNZA                                                      BAEC 21273431                Thompson                                                                                                                                               AV                  00000001650000000000NOPNZAFIBRT          0  07-19 Monthly                                  
103C2019-07-01T13:58+02:00                                                                           100 19422 07-19               00001OPNZA                                                      BAEC 19282203                Steenkamp                                                                                                                                              AV                  00000000560000000000NOPNZAUBAMR          7038 4Mbps Premium Uncapped 07-19                 
103C2019-07-01T13:58+02:00                                                                           100 19521 07-19               00001OPNZA                                                      BAEC 12570957                Wright                                                                                                                                                 AV                  00000003390000000000NOPNZAFIBMR          7194 R989 - 40Mbps Fibre Line Rental + 300GB Cappe
103C2019-07-01T13:58+02:00                                                                           100 13046 07-19 Monthly       00001OPNZA                                                      BAEC 25922325                Barnard                                                                                                                                                AV                  00000004720000000000NOPNZAUBFMR          0  07-19 Monthly                                  
103C2019-07-01T13:58+02:00                                                                           100 19238 07-19 Monthly       00001OPNZA                                                      BAEC 18336986                Arnab                                                                                                                                                  AV                  00000001670000000000NOPNZAMMDPS          0  07-19 Monthly                                  
103C2019-07-01T13:58+02:00                                                                           100 19634 07-19 Monthly       00001OPNZA                                                      BAEC 15420269                Kyzer                                                                                                                                                  AV                  00000000920000000000NOPNZAMMDPS          0  07-19 Monthly                                  
103C2019-07-01T13:58+02:00                                                                           100 19850 07-19 Monthly       00001OPNZA                                                      BAEC 24270685                Hague                                                                                                                                                  AV                  00000001420000000000NOPNZAMMDPS          0  07-19 Monthly                                  
103C2019-07-01T13:58+02:00                                                                           100 13218 07-19 Monthly       00001OPNZA                                                      BAEC 49929245                Kurgan                                                                                                                                                 AV                  00000004470000000000NOPNZAUBFMR          0  07-19 Monthly                                  
103C2019-07-01T13:58+02:00                                                                           100 20011 07-19 Monthly       00001OPNZA                                                      BAEC 203168453               Kedian                                                                                                                                                 AV                  00000001670000000000NOPNZAMMDPS          0  07-19 Monthly                                  
103C2019-07-01T13:58+02:00                                                                           100 20095 07-19 Monthly       00001OPNZA                                                      BAEC 19569120                Coetzee                                                                                                                                                AV                  00000000900000000000NOPNZAMMDPS          0  07-19 Monthly                                  
103C2019-07-01T13:58+02:00                                                                           100 20150 07-19 Monthly       00001OPNZA                                                      BAEC 17666373                Swart                                                                                                                                                  AV                  00000000580000000000NOPNZAMMDPS          0  07-19 Monthly                                  
103C2019-07-01T13:58+02:00                                                                           100 20173 07-19 Monthly       00001OPNZA                                                      BAEC 25488219                Pieterse                                                                                                                                               AV                  00000000900000000000NOPNZAMMDPS          0  07-19 Monthly                                  
103C2019-07-01T13:58+02:00                                                                           100 20240 07-19 Monthly       00001OPNZA                                                      BAEC 60277048                Myburgh                                                                                                                                                AV                  00000001420000000000NOPNZAMMDPS          0  07-19 Monthly                                  
103C2019-07-01T13:58+02:00                                                                           100 20399 07-19 Monthly       00001OPNZA                                                      BAEC 17098787                Botes                                                                                                                                                  AV                  00000000580000000000NOPNZAMMDPS          0  07-19 Monthly                                  
103C2019-07-01T13:58+02:00                                                                           100 20431 07-19 Monthly       00001OPNZA                                                      BAEC 15508122                Africa                                                                                                                                                 AV                  00000000420000000000NOPNZAFIBRT          0  07-19 Monthly                                  
103C2019-07-01T13:58+02:00                                                                           100 19805 07-19 Monthly       00001OPNZA                                                      BAEC Owen.clark              Clark                                                                                                                                                  AV                  00000000580000000000NOPNZAMMDPS          0  07-19 Monthly                                  
103C2019-07-01T13:58+02:00                                                                           100 20197 07-19 Monthly       00001OPNZA                                                      BAEC 61028655                Thrussell                                                                                                                                              AV                  00000000920000000000NOPNZAMMDPS          0  07-19 Monthly                                  
103C2019-07-01T13:58+02:00                                                                           100 20544 07-19 Monthly       00001OPNZA                                                      BAEC 14270517                Patel                                                                                                                                                  AV                  00000000580000000000NOPNZAMMDPS          0  07-19 Monthly                                  
103C2019-07-01T13:58+02:00                                                                           100 20559 07-19 Monthly       00001OPNZA                                                      BAEC 30592397                Barker                                                                                                                                                 AV                  00000000580000000000NOPNZAMMDPS          0  07-19 Monthly                                  
103C2019-07-01T13:58+02:00                                                                           100 20589 07-19 Monthly       00001OPNZA                                                      BAEC 15973401                Daniels                                                                                                                                                AV                  00000000580000000000NOPNZAMMDPS          0  07-19 Monthly                                  
103C2019-07-01T13:58+02:00                                                                           100 20607 07-19 Monthly       00001OPNZA                                                      BAEC 24346930                Mbusi                                                                                                                                                  AV                  00000000900000000000NOPNZAMMDPS          0  07-19 Monthly                                  
103C2019-07-01T13:58+02:00                                                                           100 20657 07-19 Monthly       00001OPNZA                                                      BAEC 15055326                Nicolai (Greystone)                                                                                                                                    AV                  00000001420000000000NOPNZAMMDPS          0  07-19 Monthly                                  
103C2019-07-01T13:58+02:00                                                                           100 20676 07-19 Monthly       00001OPNZA                                                      BAEC 23562139                Klopper                                                                                                                                                AV                  00000000900000000000NOPNZAMMDPS          0  07-19 Monthly                                  
103C2019-07-01T13:58+02:00                                                                           100 19448 07-19 Monthly       00001OPNZA                                                      BAEC 22595299                Schoeman                                                                                                                                               AV                  00000001970000000000NOPNZAUBFMR          0  07-19 Monthly                                  
103C2019-07-01T13:58+02:00                                                                           100 20784 07-19 Monthly       00001OPNZA                                                      BAEC 628484401               Mincher                                                                                                                                                AV                  00000001420000000000NOPNZAFIBRT          0  07-19 Monthly                                  
103C2019-07-01T13:58+02:00                                                                           100 20853 07-19 Monthly       00001OPNZA                                                      BAEC 24581189                Meissenheimer                                                                                                                                          AV                  00000000580000000000NOPNZAMMDPS          0  07-19 Monthly                                  
103C2019-07-01T13:58+02:00                                                                           100 7473 07-19 Monthly        00001OPNZA                                                      BAEC 23888908                Zacks                                                                                                                                                  AV                  00000000900000000000NOPNZAMMDPS          0  07-19 Monthly                                  
103C2019-07-01T13:58+02:00                                                                           100 20899 07-19 Monthly       00001OPNZA                                                      BAEC 24080495                Theron                                                                                                                                                 AV                  00000000420000000000NOPNZAFIBRT          0  07-19 Monthly                                  
103C2019-07-01T13:58+02:00                                                                           100 20966 07-19 Monthly       00001OPNZA                                                      BAEC 98585487                Makalima                                                                                                                                               AV                  00000001970000000000NOPNZAFIBMR          0  07-19 Monthly                                  
103C2019-07-01T13:58+02:00                                                                           100 20813 07-19 Monthly       00001OPNZA                                                      BAEC 24335373                Ikin                                                                                                                                                   AV                  00000001420000000000NOPNZAMMDPS          0  07-19 Monthly                                  
103C2019-07-01T13:58+02:00                                                                           100 20653 07-19               00001OPNZA                                                      BAEC 23906846                Bonthuys                                                                                                                                               AV                  00000001970000000000NOPNZAUBFMR          7243 (R789 - 10Mbps Uncapped Fibre Data + Fibre Li
103C2019-07-01T13:58+02:00                                                                           100 21029 07-19 Monthly       00001OPNZA                                                      BAEC 24751479                Weber                                                                                                                                                  AV                  00000000900000000000NOPNZAMMDPS          0  07-19 Monthly                                  
103C2019-07-01T13:58+02:00                                                                           100 21057 07-19 Monthly       00001OPNZA                                                      BAEC 13541250                Siko                                                                                                                                                   AV                  00000000580000000000NOPNZAMMDPS          0  07-19 Monthly                                  
103C2019-07-01T13:58+02:00                                                                           100 21081 07-19 Monthly       00001OPNZA                                                      BAEC 97594317                Marais                                                                                                                                                 AV                  00000000580000000000NOPNZAMMDPS          0  07-19 Monthly                                  
103C2019-07-01T13:58+02:00                                                                           100 21102 07-19 Monthly       00001OPNZA                                                      BAEC 20210442                Bester                                                                                                                                                 AV                  00000000920000000000NOPNZAMMDPS          0  07-19 Monthly                                  
103C2019-07-01T13:58+02:00                                                                           100 13292 07-19 Monthly       00001OPNZA                                                      BAEC 10428689                Nefdt                                                                                                                                                  AV                  00000001420000000000NOPNZAMMDPS          0  07-19 Monthly                                  
103C2019-07-01T13:58+02:00                                                                           100 21425 07-19 Monthly       00001OPNZA                                                      BAEC 15209015                Barnard                                                                                                                                                AV                  00000000600000000000NOPNZAMMDPS          0  07-19 Monthly                                  
103C2019-07-01T13:58+02:00                                                                           100 21506 07-19 Monthly       00001OPNZA                                                      BAEC 25521336                Brazier                                                                                                                                                AV                  00000001420000000000NOPNZAFIBRT          0  07-19 Monthly                                  
90000004200000042000000000000000000006073