000301OPNZA00001ANAINP007402019-01-03T17:09+02:00
103C2019-01-03T17:09+02:00                                                                           80 20261 01-19 Monthly        00001OPNZA                                                      AVIOS3081471042339985        Joseph                                                                                                                                                 AV                  00000001420000000000NOPNZAMMDPS          0  01-19 Monthly                                  
103C2019-01-03T17:09+02:00                                                                           80 20239 01-19                00001OPNZA                                                      AVIOS3081471041605485        Joubert                                                                                                                                                AV                  00000000860000000000NOPNZAUBAMR          7038 4Mbps Premium Uncapped 01-19                 
103C2019-01-03T17:09+02:00                                                                           80 18368 01-19                00001OPNZA                                                      AVIOS3081471021053177        (Pty) Ltd                                                                                                                                              AV                  00000000840000000000NOPNZAUBAMR          01-19                                             
103C2019-01-03T17:09+02:00                                                                           80 19410 01-19 Monthly        00001OPNZA                                                      BAEC 64809343                Wright                                                                                                                                                 AV                  00000007250000000000NOPNZAMMDPS          0  01-19 Monthly                                  
103C2019-01-03T17:09+02:00                                                                           80 20092 01-19 Monthly        00001OPNZA                                                      AVIOS3081471041603845        van Pype                                                                                                                                               AV                  00000001150000000000NOPNZAMMDPS          0  01-19 Monthly                                  
103C2019-01-03T17:09+02:00                                                                           80 20087 01-19 Monthly        00001OPNZA                                                      AVIOS3081471042287762        Mlotshwa                                                                                                                                               AV                  00000001150000000000NOPNZAMMDPS          0  01-19 Monthly                                  
103C2019-01-03T17:09+02:00                                                                           80 20334 01-19 Monthly        00001OPNZA                                                      AVIOS3081471142989754        Chemaly                                                                                                                                                AV                  00000002250000000000NOPNZAMMDPS          0  01-19 Monthly                                  
103C2019-01-03T17:09+02:00                                                                           80 20141 01-19 Monthly        00001OPNZA                                                      AVIOS3081471041899039        Henderson                                                                                                                                              AV                  00000000900000000000NOPNZAFIBRT          0  01-19 Monthly                                  
103C2019-01-03T17:09+02:00                                                                           80 19668 01-19 Monthly        00001OPNZA                                                      AVIOS3081472029688584        Smith                                                                                                                                                  AV                  00000000920000000000NOPNZAMMDPS          0  01-19 Monthly                                  
103C2019-01-03T17:09+02:00                                                                           80 12296 01-19                00001OPNZA                                                      AVIOS3081471019673499        Kambanis                                                                                                                                               AV                  00000000000000000000NOPNZAFIBRT          7016 4Mbps Home Uncapped Special 01-19            
103C2019-01-03T17:09+02:00                                                                           80 191 01-19 Monthly          00001OPNZA                                                      AVIOS1234562                 tew12                                                                                                                                                  AV                  00000000250000000000NOPNZAUBFMR          0  01-19 Monthly                                  
103C2019-01-03T17:09+02:00                                                                           80 20320 01-19 Monthly        00001OPNZA                                                      AVIOS3081471043063212        Esterhuizen                                                                                                                                            AV                  00000000900000000000NOPNZAFIBRT          0  01-19 Monthly                                  
103C2019-01-03T17:09+02:00                                                                           80 20014 01-19 Monthly        00001OPNZA                                                      BAEC 23384555                Erasmus                                                                                                                                                AV                  00000000580000000000NOPNZAMMDPS          0  01-19 Monthly                                  
103C2019-01-03T17:09+02:00                                                                           80 19981 01-19 Monthly        00001OPNZA                                                      AVIOS3081471040873464        Cronje                                                                                                                                                 AV                  00000000580000000000NOPNZAMMDPS          0  01-19 Monthly                                  
103C2019-01-03T17:09+02:00                                                                           80 20244 01-19 Monthly        00001OPNZA                                                      BAEC 17715301                Nijland                                                                                                                                                AV                  00000000920000000000NOPNZAMMDPS          0  01-19 Monthly                                  
103C2019-01-03T17:09+02:00                                                                           80 20218 01-19                00001OPNZA                                                      AVIOS3081471029026811        Arendse                                                                                                                                                AV                  00000000410000000000NOPNZAUBAMR          7038 4Mbps Premium Uncapped 01-19                 
103C2019-01-03T17:09+02:00                                                                           80 15208 01-19 Monthly        00001OPNZA                                                      AVIOS3081471037262895        Badenhorst                                                                                                                                             AV                  00000001670000000000NOPNZAMMDPS          0  01-19 Monthly                                  
103C2019-01-03T17:09+02:00                                                                           80 19348 01-19 Monthly        00001OPNZA                                                      BAEC 21273431                Thompson                                                                                                                                               AV                  00000001650000000000NOPNZAFIBRT          0  01-19 Monthly                                  
103C2019-01-03T17:09+02:00                                                                           80 19358 01-19 Monthly        00001OPNZA                                                      AVIOS3081471042147339        Kruger                                                                                                                                                 AV                  00000001420000000000NOPNZAMMDPS          0  01-19 Monthly                                  
103C2019-01-03T17:09+02:00                                                                           80 19320 01-19 Monthly        00001OPNZA                                                      AVIOS3081471035552875        Pelzer                                                                                                                                                 AV                  00000001330000000000NOPNZAMMDPS          0  01-19 Monthly                                  
103C2019-01-03T17:09+02:00                                                                           80 19422 01-19                00001OPNZA                                                      BAEC 19282203                Steenkamp                                                                                                                                              AV                  00000000560000000000NOPNZAUBAMR          7038 4Mbps Premium Uncapped 01-19                 
103C2019-01-03T17:09+02:00                                                                           80 19521 01-19                00001OPNZA                                                      BAEC 12570957                Wright                                                                                                                                                 AV                  00000003390000000000NOPNZAFIBMR          7194 R989 - 40Mbps Fibre Line Rental + 300GB Cappe
103C2019-01-03T17:09+02:00                                                                           80 13046 01-19 Monthly        00001OPNZA                                                      BAEC 25922325                Barnard                                                                                                                                                AV                  00000004720000000000NOPNZAUBFMR          0  01-19 Monthly                                  
103C2019-01-03T17:09+02:00                                                                           80 17942 01-19 Monthly        00001OPNZA                                                      AVIOS3081472030080649        Venter                                                                                                                                                 AV                  00000000500000000000NOPNZAMMDPS          0  01-19 Monthly                                  
103C2019-01-03T17:09+02:00                                                                           80 19488 01-19 Monthly        00001OPNZA                                                      AVIOS3081472024934512        brink                                                                                                                                                  AV                  00000000500000000000NOPNZAMMDPS          0  01-19 Monthly                                  
103C2019-01-03T17:09+02:00                                                                           80 19154 01-19 Monthly        00001OPNZA                                                      AVIOS3081471040231200        Magee                                                                                                                                                  AV                  00000000500000000000NOPNZAMMDPS          0  01-19 Monthly                                  
103C2019-01-03T17:09+02:00                                                                           80 19266 01-19 Monthly        00001OPNZA                                                      AVIOS3081471036135324        Kubheka                                                                                                                                                AV                  00000000500000000000NOPNZAMMDPS          0  01-19 Monthly                                  
103C2019-01-03T17:09+02:00                                                                           80 19111 01-19 Monthly        00001OPNZA                                                      AVIOS3081471022641129        Sonbadhar                                                                                                                                              AV                  00000000920000000000NOPNZAMMDPS          0  01-19 Monthly                                  
103C2019-01-03T17:09+02:00                                                                           80 19238 01-19 Monthly        00001OPNZA                                                      BAEC 18336986                Arnab                                                                                                                                                  AV                  00000001670000000000NOPNZAMMDPS          0  01-19 Monthly                                  
103C2019-01-03T17:09+02:00                                                                           80 19542 01-19 Monthly        00001OPNZA                                                      AVIOS3081472008507086        du Plessis                                                                                                                                             AV                  00000000500000000000NOPNZAMMDPS          0  01-19 Monthly                                  
103C2019-01-03T17:09+02:00                                                                           80 13047 01-19 Monthly        00001OPNZA                                                      BAEC 19082400                Storer                                                                                                                                                 AV                  00000000560000000000NOPNZAUBAMR          7038 4Mbps Premium Uncapped 01-19 Monthly         
103C2019-01-03T17:09+02:00                                                                           80 19634 01-19 Monthly        00001OPNZA                                                      BAEC 15420269                Kyzer                                                                                                                                                  AV                  00000000920000000000NOPNZAMMDPS          0  01-19 Monthly                                  
103C2019-01-03T17:09+02:00                                                                           80 19699 01-19 Monthly        00001OPNZA                                                      AVIOS3081471038661319        Blignaut                                                                                                                                               AV                  00000000900000000000NOPNZAMMDPS          0  01-19 Monthly                                  
103C2019-01-03T17:09+02:00                                                                           80 19697 01-19 Monthly        00001OPNZA                                                      AVIOS3081471039203137        Ayoob                                                                                                                                                  AV                  00000001160000000000NOPNZAFIBRT          0  01-19 Monthly                                  
103C2019-01-03T17:09+02:00                                                                           80 19237 01-19 Monthly        00001OPNZA                                                      AVIOS3081471043993590        Wahlstrand                                                                                                                                             AV                  00000000500000000000NOPNZAMMDPS          0  01-19 Monthly                                  
103C2019-01-03T17:09+02:00                                                                           80 19708 01-19 Monthly        00001OPNZA                                                      AVIOS3081471039161616        Geel                                                                                                                                                   AV                  00000001420000000000NOPNZAFIBRT          0  01-19 Monthly                                  
103C2019-01-03T17:09+02:00                                                                           80 13292 01-19 Monthly        00001OPNZA                                                      BAEC 10428689                Nefdt                                                                                                                                                  AV                  00000001420000000000NOPNZAFIBRT          0  01-19 Monthly                                  
103C2019-01-03T17:09+02:00                                                                           80 19702 01-19 Monthly        00001OPNZA                                                      AVIOS3081471039103089        Ribombo                                                                                                                                                AV                  00000000500000000000NOPNZAMMDPS          0  01-19 Monthly                                  
103C2019-01-03T17:09+02:00                                                                           80 19758 01-19                00001OPNZA                                                      AVIOS202943850               Pather                                                                                                                                                 AV                  00000000580000000000NOPNZAMMDPS          01-19                                             
103C2019-01-03T17:09+02:00                                                                           80 13218 01-19 Monthly        00001OPNZA                                                      BAEC 49929245                Kurgan                                                                                                                                                 AV                  00000004470000000000NOPNZAUBFMR          0  01-19 Monthly                                  
103C2019-01-03T17:09+02:00                                                                           80 20254 01-19 Monthly        00001OPNZA                                                      AVIOS3081471043219335        Leeuw                                                                                                                                                  AV                  00000000900000000000NOPNZAFIBRT          0  01-19 Monthly                                  
103C2019-01-03T17:09+02:00                                                                           80 19863 01-19 Monthly        00001OPNZA                                                      AVIOS3081471034482835        Paillard                                                                                                                                               AV                  00000001420000000000NOPNZAMMDPS          0  01-19 Monthly                                  
103C2019-01-03T17:09+02:00                                                                           80 19925 01-19 Monthly        00001OPNZA                                                      AVIOS3081471037418133        Williams                                                                                                                                               AV                  00000002670000000000NOPNZAMMDPS          0  01-19 Monthly                                  
103C2019-01-03T17:09+02:00                                                                           80 19935 01-19                00001OPNZA                                                      AVIOS3081471037262309        Martins                                                                                                                                                AV                  00000000980000000000NOPNZAUBAMR          7188 4Mbps Business Uncapped + 1 Static IP 01-19  
103C2019-01-03T17:09+02:00                                                                           80 19944 01-19 Monthly        00001OPNZA                                                      AVIOS3081471041410746        Slabber                                                                                                                                                AV                  00000000000000000000NOPNZAFIBRT          0  01-19 Monthly                                  
103C2019-01-03T17:09+02:00                                                                           80 19949 01-19 Monthly        00001OPNZA                                                      AVIOS3081471039379036        Janse van Rensburg                                                                                                                                     AV                  00000001970000000000NOPNZAFIBRT          0  01-19 Monthly                                  
103C2019-01-03T17:09+02:00                                                                           80 19970 01-19 Monthly        00001OPNZA                                                      AVIOS3081471044111879        Duffy                                                                                                                                                  AV                  00000000580000000000NOPNZAMMDPS          0  01-19 Monthly                                  
103C2019-01-03T17:09+02:00                                                                           80 20011 01-19 Monthly        00001OPNZA                                                      AVIOS203168453               Kedian                                                                                                                                                 AV                  00000000000000000000NOPNZAFIBRT          0  01-19 Monthly                                  
103C2019-01-03T17:09+02:00                                                                           80 20024 01-19                00001OPNZA                                                      BAEC 30146109                Ismail                                                                                                                                                 AV                  00000000000000000000NOPNZAFIBRT          7019 20Mbps Home Uncapped Special 01-19           
103C2019-01-03T17:09+02:00                                                                           80 20042 01-19 Monthly        00001OPNZA                                                      AVIOS3081471041387167        Swanepoel                                                                                                                                              AV                  00000000580000000000NOPNZAFIBRT          0  01-19 Monthly                                  
103C2019-01-03T17:09+02:00                                                                           80 20069 01-19 Monthly        00001OPNZA                                                      AVIOS3081471040975905        Botha                                                                                                                                                  AV                  00000000900000000000NOPNZAFIBRT          0  01-19 Monthly                                  
103C2019-01-03T17:09+02:00                                                                           80 20070 01-19 Monthly        00001OPNZA                                                      AVIOS3081471041561159        Macaskill                                                                                                                                              AV                  00000000920000000000NOPNZAMMDPS          0  01-19 Monthly                                  
103C2019-01-03T17:09+02:00                                                                           80 20065 01-19 Monthly        00001OPNZA                                                      AVIOS3081471042246263        Kirby                                                                                                                                                  AV                  00000000900000000000NOPNZAMMDPS          0  01-19 Monthly                                  
103C2019-01-03T17:09+02:00                                                                           80 20080 01-19 Monthly        00001OPNZA                                                      AVIOS3081471041622431        Schoevers                                                                                                                                              AV                  00000000900000000000NOPNZAMMDPS          0  01-19 Monthly                                  
103C2019-01-03T17:09+02:00                                                                           80 16473 01-19                00001OPNZA                                                      BAEC 14073664                Riddle                                                                                                                                                 AV                  00000001260000000000NOPNZAUBAMR          7046 10Mbps Business Uncapped 01-19               
103C2019-01-03T17:09+02:00                                                                           80 20095 01-19 Monthly        00001OPNZA                                                      BAEC 19569120                Coetzee                                                                                                                                                AV                  00000000900000000000NOPNZAMMDPS          0  01-19 Monthly                                  
103C2019-01-03T17:09+02:00                                                                           80 20112 01-19 Monthly        00001OPNZA                                                      BAEC 15842738                Banwell                                                                                                                                                AV                  00000001420000000000NOPNZAMMDPS          0  01-19 Monthly                                  
103C2019-01-03T17:09+02:00                                                                           80 20123 01-19 Monthly        00001OPNZA                                                      AVIOS3081471142756617        October                                                                                                                                                AV                  00000000900000000000NOPNZAFIBRT          0  01-19 Monthly                                  
103C2019-01-03T17:09+02:00                                                                           80 20124 01-19 Monthly        00001OPNZA                                                      AVIOS3081471043826956        Slabbert                                                                                                                                               AV                  00000000580000000000NOPNZAMMDPS          0  01-19 Monthly                                  
103C2019-01-03T17:09+02:00                                                                           80 20140 01-19 Monthly        00001OPNZA                                                      AVIOS3081471042241983        Mcwatts                                                                                                                                                AV                  00000000580000000000NOPNZAMMDPS          0  01-19 Monthly                                  
103C2019-01-03T17:09+02:00                                                                           80 20150 01-19 Monthly        00001OPNZA                                                      BAEC 17666373                Swart                                                                                                                                                  AV                  00000000580000000000NOPNZAMMDPS          0  01-19 Monthly                                  
103C2019-01-03T17:09+02:00                                                                           80 20151 01-19 Monthly        00001OPNZA                                                      AVIOS3081471041970806        van Rooyen                                                                                                                                             AV                  00000001420000000000NOPNZAMMDPS          0  01-19 Monthly                                  
103C2019-01-03T17:09+02:00                                                                           80 20153 01-19 Monthly        00001OPNZA                                                      AVIOS3081471037202404        Hugo                                                                                                                                                   AV                  00000000580000000000NOPNZAMMDPS          0  01-19 Monthly                                  
103C2019-01-03T17:09+02:00                                                                           80 20164 01-19 Monthly        00001OPNZA                                                      AVIOS3081471042065671        Westley                                                                                                                                                AV                  00000000580000000000NOPNZAMMDPS          0  01-19 Monthly                                  
103C2019-01-03T17:09+02:00                                                                           80 20186 01-19 Monthly        00001OPNZA                                                      AVIOS3081471042178243        Loots                                                                                                                                                  AV                  00000001420000000000NOPNZAMMDPS          0  01-19 Monthly                                  
103C2019-01-03T17:09+02:00                                                                           80 20200 01-19 Monthly        00001OPNZA                                                      AVIOS3081472030503699        Logan                                                                                                                                                  AV                  00000000580000000000NOPNZAMMDPS          0  01-19 Monthly                                  
103C2019-01-03T17:09+02:00                                                                           80 20262 01-19 Monthly        00001OPNZA                                                      AVIOS3081471031097602        Aaron                                                                                                                                                  AV                  00000000000000000000NOPNZAFIBRT          0  01-19 Monthly                                  
103C2019-01-03T17:09+02:00                                                                           80 20263 01-19 Monthly        00001OPNZA                                                      AVIOS3081471042586114        Steyn                                                                                                                                                  AV                  00000000580000000000NOPNZAFIBRT          0  01-19 Monthly                                  
103C2019-01-03T17:09+02:00                                                                           80 20049 01-19 Monthly        00001OPNZA                                                      AVIOS3081471041398883        van Wyk                                                                                                                                                AV                  00000002150000000000NOPNZAFIBRT          0  01-19 Monthly                                  
103C2019-01-03T17:09+02:00                                                                           80 20386 01-19 Monthly        00001OPNZA                                                      AVIOS3081471043227031        Pretorius                                                                                                                                              AV                  00000000900000000000NOPNZAFIBRT          0  01-19 Monthly                                  
103C2019-01-03T17:09+02:00                                                                           80 20285 01-19 Monthly        00001OPNZA                                                      AVIOS3081471042743525        van Jaarsveld                                                                                                                                          AV                  00000000900000000000NOPNZAMMDPS          0  01-19 Monthly                                  
103C2019-01-03T17:09+02:00                                                                           80 20047 01-19 Monthly        00001OPNZA                                                      AVIOS3081472027733077        MAHOMEDY                                                                                                                                               AV                  00000000580000000000NOPNZAMMDPS          0  01-19 Monthly                                  
103C2019-01-03T17:09+02:00                                                                           80 19821 01-19 Monthly        00001OPNZA                                                      AVIOS3081471042887967        Carreira                                                                                                                                               AV                  00000001700000000000NOPNZAUBFMR          0  01-19 Monthly                                  
103C2019-01-03T17:09+02:00                                                                           80 20345 01-19 Monthly        00001OPNZA                                                      BAEC 97901448                Cloete                                                                                                                                                 AV                  00000000900000000000NOPNZAMMDPS          0  01-19 Monthly                                  
103C2019-01-03T17:09+02:00                                                                           80 20346 01-19 Monthly        00001OPNZA                                                      AVIOS3081471210086079        Naidoo                                                                                                                                                 AV                  00000001420000000000NOPNZAMMDPS          0  01-19 Monthly                                  
103C2019-01-03T17:09+02:00                                                                           80 20354 01-19 Monthly        00001OPNZA                                                      AVIOS3081471044306735        Zeelie                                                                                                                                                 AV                  00000002420000000000NOPNZAMMDPS          0  01-19 Monthly                                  
103C2019-01-03T17:09+02:00                                                                           80 19439 01-19 Monthly        00001OPNZA                                                      AVIOS3081472024211697        Neve                                                                                                                                                   AV                  00000000920000000000NOPNZAFIBRT          0  01-19 Monthly                                  
103C2019-01-03T17:09+02:00                                                                           80 20240 01-19 Monthly        00001OPNZA                                                      BAEC 60277048                Myburgh                                                                                                                                                AV                  00000001420000000000NOPNZAMMDPS          0  01-19 Monthly                                  
103C2019-01-03T17:09+02:00                                                                           80 20382 01-19 Monthly        00001OPNZA                                                      AVIOS3081471026640010        Mtolo                                                                                                                                                  AV                  00000001420000000000NOPNZAMMDPS          0  01-19 Monthly                                  
103C2019-01-03T17:09+02:00                                                                           80 20509 01-19 Monthly        00001OPNZA                                                      AVIOS3081471044498334        Nunes                                                                                                                                                  AV                  00000000580000000000NOPNZAFIBRT          0  01-19 Monthly                                  
103C2019-01-03T17:09+02:00                                                                           80 20399 01-19 Monthly        00001OPNZA                                                      AVIOS3081471019643930        Botes                                                                                                                                                  AV                  00000000580000000000NOPNZAMMDPS          0  01-19 Monthly                                  
103C2019-01-03T17:09+02:00                                                                           80 20400 01-19 Monthly        00001OPNZA                                                      AVIOS3081471044212347        Jordaan                                                                                                                                                AV                  00000000000000000000NOPNZAFIBRT          0  01-19 Monthly                                  
103C2019-01-03T17:09+02:00                                                                           80 20401 01-19 Monthly        00001OPNZA                                                      AVIOS3081471044023215        Muller                                                                                                                                                 AV                  00000000580000000000NOPNZAMMDPS          0  01-19 Monthly                                  
103C2019-01-03T17:09+02:00                                                                           80 20097 01-19 Monthly        00001OPNZA                                                      AVIOS3081471028544178        Marais                                                                                                                                                 AV                  00000001970000000000NOPNZAUBFMR          0  01-19 Monthly                                  
103C2019-01-03T17:09+02:00                                                                           80 20431 01-19 Monthly        00001OPNZA                                                      BAEC 15508122                Africa                                                                                                                                                 AV                  00000000420000000000NOPNZAFIBRT          0  01-19 Monthly                                  
103C2019-01-03T17:09+02:00                                                                           80 20435 01-19 Monthly        00001OPNZA                                                      AVIOS3081471043915205        LeRoux                                                                                                                                                 AV                  00000000000000000000NOPNZAFIBRT          0  01-19 Monthly                                  
103C2019-01-03T17:09+02:00                                                                           80 20460 01-19                00001OPNZA                                                      AVIOS3081471044187630        Schepetin                                                                                                                                              AV                  00000000000000000000NOPNZAFIBRT          7016 4Mbps Home Uncapped Special 01-19            
103C2019-01-03T17:09+02:00                                                                           80 19805 01-19 Monthly        00001OPNZA                                                      AVIOSOwen.clark              Clark                                                                                                                                                  AV                  00000000580000000000NOPNZAFIBRT          0  01-19 Monthly                                  
103C2019-01-03T17:09+02:00                                                                           80 20197 01-19 Monthly        00001OPNZA                                                      BAEC 61028655                Thrussell                                                                                                                                              AV                  00000000920000000000NOPNZAMMDPS          0  01-19 Monthly                                  
103C2019-01-03T17:09+02:00                                                                           80 20495 01-19 Monthly        00001OPNZA                                                      AVIOS3081471023839383        Govender                                                                                                                                               AV                  00000000580000000000NOPNZAMMDPS          0  01-19 Monthly                                  
103C2019-01-03T17:09+02:00                                                                           80 20504 01-19 Monthly        00001OPNZA                                                      AVIOS3081471044465051        Maritz                                                                                                                                                 AV                  00000000580000000000NOPNZAFIBRT          0  01-19 Monthly                                  
103C2019-01-03T17:09+02:00                                                                           80 20511 01-19 Monthly        00001OPNZA                                                      AVIOS3081471044504537        Naidoo                                                                                                                                                 AV                  00000000900000000000NOPNZAMMDPS          0  01-19 Monthly                                  
103C2019-01-03T17:09+02:00                                                                           80 20512 01-19 Monthly        00001OPNZA                                                      AVIOSOW53504                 Ferror                                                                                                                                                 AV                  00000000580000000000NOPNZAMMDPS          0  01-19 Monthly                                  
103C2019-01-03T17:09+02:00                                                                           80 19717 01-19 Monthly        00001OPNZA                                                      AVIOS3081471042843416        waja                                                                                                                                                   AV                  00000000920000000000NOPNZAMMDPS          0  01-19 Monthly                                  
103C2019-01-03T17:09+02:00                                                                           80 20535 01-19 Monthly        00001OPNZA                                                      AVIOS3081471044556123        Brink                                                                                                                                                  AV                  00000000900000000000NOPNZAMMDPS          0  01-19 Monthly                                  
103C2019-01-03T17:09+02:00                                                                           80 20536 01-19 Monthly        00001OPNZA                                                      AVIOS3081472006020710        Grootboom                                                                                                                                              AV                  00000000420000000000NOPNZAFIBRT          0  01-19 Monthly                                  
103C2019-01-03T17:09+02:00                                                                           80 5911 01-19 Monthly         00001OPNZA                                                      BAEC 44250817                Adam                                                                                                                                                   AV                  00000000580000000000NOPNZAMMDPS          0  01-19 Monthly                                  
103C2019-01-03T17:09+02:00                                                                           80 20541 01-19 Monthly        00001OPNZA                                                      AVIOS3081472020472988        Van Zyl                                                                                                                                                AV                  00000000900000000000NOPNZAFIBRT          0  01-19 Monthly                                  
103C2019-01-03T17:09+02:00                                                                           80 20544 01-19 Monthly        00001OPNZA                                                      BAEC 14270517                Patel                                                                                                                                                  AV                  00000000580000000000NOPNZAMMDPS          0  01-19 Monthly                                  
103C2019-01-03T17:09+02:00                                                                           80 20545 01-19 Monthly        00001OPNZA                                                      AVIOS3081472026277571        Nokwe                                                                                                                                                  AV                  00000000900000000000NOPNZAMMDPS          0  01-19 Monthly                                  
103C2019-01-03T17:09+02:00                                                                           80 20547 01-19 Monthly        00001OPNZA                                                      AVIOS3081471044865979        Abraham                                                                                                                                                AV                  00000001420000000000NOPNZAMMDPS          0  01-19 Monthly                                  
103C2019-01-03T17:09+02:00                                                                           80 20553 01-19 Monthly        00001OPNZA                                                      AVIOS3081471143407475        Geyer                                                                                                                                                  AV                  00000000580000000000NOPNZAMMDPS          0  01-19 Monthly                                  
103C2019-01-03T17:09+02:00                                                                           80 19964 01-19 Monthly        00001OPNZA                                                      BAEC 23229913                Nkosi                                                                                                                                                  AV                  00000000580000000000NOPNZAMMDPS          0  01-19 Monthly                                  
103C2019-01-03T17:09+02:00                                                                           80 20419 01-19 Monthly        00001OPNZA                                                      AVIOS3081471043695286        Swanepoel                                                                                                                                              AV                  00000001970000000000NOPNZAFIBMR          0  01-19 Monthly                                  
103C2019-01-03T17:09+02:00                                                                           80 20559 01-19 Monthly        00001OPNZA                                                      BAEC 30592397                Barker                                                                                                                                                 AV                  00000000580000000000NOPNZAMMDPS          0  01-19 Monthly                                  
103C2019-01-03T17:09+02:00                                                                           80 20560 01-19 Monthly        00001OPNZA                                                      AVIOS3081471044945565        Haine                                                                                                                                                  AV                  00000000900000000000NOPNZAMMDPS          0  01-19 Monthly                                  
103C2019-01-03T17:09+02:00                                                                           80 20561 01-19                00001OPNZA                                                      BAEC 11074395                Parker                                                                                                                                                 AV                  00000000980000000000NOPNZAUBAMR          7044 4Mbps Business Uncapped 01-19                
103C2019-01-03T17:09+02:00                                                                           80 20566 01-19 Monthly        00001OPNZA                                                      AVIOS5339160022177011        Meyer                                                                                                                                                  AV                  00000001420000000000NOPNZAMMDPS          0  01-19 Monthly                                  
103C2019-01-03T17:09+02:00                                                                           80 20589 01-19 Monthly        00001OPNZA                                                      BAEC 15973401                Daniels                                                                                                                                                AV                  00000000580000000000NOPNZAMMDPS          0  01-19 Monthly                                  
103C2019-01-03T17:09+02:00                                                                           80 20607 01-19 Monthly        00001OPNZA                                                      AVIOS3081471143414760        Mbusi                                                                                                                                                  AV                  00000000580000000000NOPNZAMMDPS          0  01-19 Monthly                                  
103C2019-01-03T17:09+02:00                                                                           80 20609 01-19 Monthly        00001OPNZA                                                      AVIOS3081471045688982        Van Schalkwyk                                                                                                                                          AV                  00000000580000000000NOPNZAFIBRT          0  01-19 Monthly                                  
103C2019-01-03T17:09+02:00                                                                           80 20649 01-19 Monthly        00001OPNZA                                                      AVIOS3081472001708236        Aggenbach                                                                                                                                              AV                  00000000900000000000NOPNZAMMDPS          0  01-19 Monthly                                  
103C2019-01-03T17:09+02:00                                                                           80 20630 01-19 Monthly        00001OPNZA                                                      AVIOS3081471045505269        Thyssen                                                                                                                                                AV                  00000000900000000000NOPNZAFIBRT          0  01-19 Monthly                                  
103C2019-01-03T17:09+02:00                                                                           80 20657 01-19 Monthly        00001OPNZA                                                      BAEC 15055326                Nicolai (Greystone)                                                                                                                                    AV                  00000001420000000000NOPNZAMMDPS          0  01-19 Monthly                                  
103C2019-01-03T17:09+02:00                                                                           80 20681 01-19 Monthly        00001OPNZA                                                      AVIOS3081471026409812        Ngwane                                                                                                                                                 AV                  00000000420000000000NOPNZAFIBRT          0  01-19 Monthly                                  
103C2019-01-03T17:09+02:00                                                                           80 20695 01-19 Monthly        00001OPNZA                                                      AVIOS3081471046080791        van der Merwe                                                                                                                                          AV                  00000000900000000000NOPNZAFIBRT          0  01-19 Monthly                                  
103C2019-01-03T17:09+02:00                                                                           80 20676 01-19 Monthly        00001OPNZA                                                      BAEC 23562139                Klopper                                                                                                                                                AV                  00000000900000000000NOPNZAMMDPS          0  01-19 Monthly                                  
103C2019-01-03T17:09+02:00                                                                           80 20714 01-19 Monthly        00001OPNZA                                                      BAEC 18609349                Rahiman                                                                                                                                                AV                  00000000500000000000NOPNZAMMDPS          0  01-19 Monthly                                  
103C2019-01-03T17:09+02:00                                                                           80 20716 01-19 Monthly        00001OPNZA                                                      BAEC 23698000                Jordaan                                                                                                                                                AV                  00000000580000000000NOPNZAMMDPS          0  01-19 Monthly                                  
103C2019-01-03T17:09+02:00                                                                           80 20718 01-19 Monthly        00001OPNZA                                                      AVIOS3081471046208590        Jansen                                                                                                                                                 AV                  00000000900000000000NOPNZAMMDPS          0  01-19 Monthly                                  
103C2019-01-03T17:09+02:00                                                                           80 20735 01-19 Monthly        00001OPNZA                                                      AVIOS3081472027292553        Nell                                                                                                                                                   AV                  00000000000000000000NOPNZAFIBRT          0  01-19 Monthly                                  
103C2019-01-03T17:09+02:00                                                                           80 20686 01-19 Monthly        00001OPNZA                                                      AVIOS3081471025598334        Kershaw                                                                                                                                                AV                  00000001970000000000NOPNZAFIBRT          0  01-19 Monthly                                  
103C2019-01-03T17:09+02:00                                                                           80 19448 01-19 Monthly        00001OPNZA                                                      BAEC 22595299                Schoeman                                                                                                                                               AV                  00000000000000000000NOPNZAFIBRT          0  01-19 Monthly                                  
103C2019-01-03T17:09+02:00                                                                           80 19483 01-19 Monthly        00001OPNZA                                                      AVIOS3081471037672077        Eagar                                                                                                                                                  AV                  00000002740000000000NOPNZAFIBMR          0  01-19 Monthly                                  
103C2019-01-03T17:09+02:00                                                                           80 20784 01-19 Monthly        00001OPNZA                                                      BAEC 628484401               Mincher                                                                                                                                                AV                  00000000900000000000NOPNZAFIBRT          0  01-19 Monthly                                  
103C2019-01-03T17:09+02:00                                                                           80 20789 01-19 Monthly        00001OPNZA                                                      AVIOS3081471019470201        Joubert                                                                                                                                                AV                  00000001420000000000NOPNZAMMDPS          0  01-19 Monthly                                  
103C2019-01-03T17:09+02:00                                                                           80 20813 01-19 Monthly        00001OPNZA                                                      AVIOS3081471143829504        Ikin                                                                                                                                                   AV                  00000000900000000000NOPNZAMMDPS          0  01-19 Monthly                                  
103C2019-01-03T17:09+02:00                                                                           80 19481 01-19 Monthly        00001OPNZA                                                      AVIOS3081471046234158        Catzavelos                                                                                                                                             AV                  00000000580000000000NOPNZAMMDPS          0  01-19 Monthly                                  
103C2019-01-03T17:09+02:00                                                                           80 20827 01-19 Monthly        00001OPNZA                                                      BAEC 23965358                Le Roux                                                                                                                                                AV                  00000000580000000000NOPNZAMMDPS          0  01-19 Monthly                                  
103C2019-01-03T17:09+02:00                                                                           80 20853 01-19 Monthly        00001OPNZA                                                      AVIOS3081472023583799        Meissenheimer                                                                                                                                          AV                  00000000580000000000NOPNZAMMDPS          0  01-19 Monthly                                  
103C2019-01-03T17:09+02:00                                                                           80 7473 01-19 Monthly         00001OPNZA                                                      BAEC 23888908                Zacks                                                                                                                                                  AV                  00000000900000000000NOPNZAMMDPS          0  01-19 Monthly                                  
103C2019-01-03T17:09+02:00                                                                           80 20899 01-19 admin          00001OPNZA                                                      BAEC 24080495                Theron                                                                                                                                                 AV                  00000020000000000000NOPNZAMMDPS          7777 admin reward 01-19 admin                     
90000013200000132000000000000000000015310