000301OPNZA00001ANAINP001502018-03-06T09:33+02:00
103C2018-03-06T09:33+02:00                                                                           21 19661 03-18 admin          00001OPNZA                                                      AVIOS202497855               Richards                                                                                                                                               AV                  00000005580000000000NOPNZABO500          7777 admin reward 03-18 admin                     
103C2018-03-06T09:33+02:00                                                                           21 12490 03-18                00001OPNZA                                                      BAEC 61128708                Croker                                                                                                                                                 AV                  00000000980000000000NOPNZAUBAMR          5111 4Mbps Home Uncapped Unshaped Premium 03-18   
103C2018-03-06T09:33+02:00                                                                           21 18368 03-18                00001OPNZA                                                      AVIOS3081471021053177        (Pty) Ltd                                                                                                                                              AV                  00000000840000000000NOPNZAUBAMR          7039 8Mbps Premium Uncapped 03-18                 
103C2018-03-06T09:33+02:00                                                                           21 15208 03-18 Monthly        00001OPNZA                                                      AVIOS3081471037262895        Badenhorst                                                                                                                                             AV                  00000001670000000000NOPNZAMMDPS          0  03-18 Monthly                                  
103C2018-03-06T09:33+02:00                                                                           21 19336 03-18 Monthly        00001OPNZA                                                      BAEC 202616686               Mashugane                                                                                                                                              AV                  00000000920000000000NOPNZAMMDPS          0  03-18 Monthly                                  
103C2018-03-06T09:33+02:00                                                                           21 19348 03-18 Monthly        00001OPNZA                                                      BAEC 21273431                Thompson                                                                                                                                               AV                  00000001650000000000NOPNZAFIBMR          0  03-18 Monthly                                  
103C2018-03-06T09:33+02:00                                                                           21 19320 03-18 Monthly        00001OPNZA                                                      AVIOS3081471035552875        Pelzer                                                                                                                                                 AV                  00000001330000000000NOPNZAMMDPS          0  03-18 Monthly                                  
103C2018-03-06T09:33+02:00                                                                           21 19410 03-18 Monthly        00001OPNZA                                                      BAEC 64809343                Wright                                                                                                                                                 AV                  00000005000000000000NOPNZAFIBMR          0  03-18 Monthly                                  
103C2018-03-06T09:33+02:00                                                                           21 19422 03-18                00001OPNZA                                                      BAEC 19282203                Steenkamp                                                                                                                                              AV                  00000000560000000000NOPNZAUBAMR          7038 4Mbps Premium Uncapped 03-18                 
103C2018-03-06T09:33+02:00                                                                           21 19521 03-18 Monthly        00001OPNZA                                                      BAEC 12570957                Wright                                                                                                                                                 AV                  00000003220000000000NOPNZAFIBMR          0  03-18 Monthly                                  
103C2018-03-06T09:33+02:00                                                                           21 19238 03-18 Monthly        00001OPNZA                                                      BAEC 18336986                Arnab                                                                                                                                                  AV                  00000001670000000000NOPNZAMMDPS          0  03-18 Monthly                                  
103C2018-03-06T09:33+02:00                                                                           21 17942 03-18 Monthly        00001OPNZA                                                      AVIOS3081472030080649        Venter                                                                                                                                                 AV                  00000000500000000000NOPNZAMMDPS          0  03-18 Monthly                                  
103C2018-03-06T09:33+02:00                                                                           21 19477 03-18 Monthly        00001OPNZA                                                      AVIOS7706105203082           Earle                                                                                                                                                  AV                  00000000570000000000NOPNZAUBAMR          5110 2Mbps Home Uncapped Unshaped Premium 03-18 Mo
103C2018-03-06T09:33+02:00                                                                           21 19266 03-18 Monthly        00001OPNZA                                                      AVIOS3081471036135324        Kubheka                                                                                                                                                AV                  00000000500000000000NOPNZAMMDPS          0  03-18 Monthly                                  
103C2018-03-06T09:33+02:00                                                                           21 19111 03-18 Monthly        00001OPNZA                                                      AVIOS3081471022641129        Sonbadhar                                                                                                                                              AV                  00000000920000000000NOPNZAMMDPS          0  03-18 Monthly                                  
103C2018-03-06T09:33+02:00                                                                           21 19497 03-18                00001OPNZA                                                      AVIOS200914543               Ferreira                                                                                                                                               AV                  00000000560000000000NOPNZAUBAMR          7038 4Mbps Premium Uncapped 03-18                 
103C2018-03-06T09:33+02:00                                                                           21 8524 03-18 Monthly         00001OPNZA                                                      AVIOS3081471037241238        Goncalves                                                                                                                                              AV                  00000001720000000000NOPNZAFIBMR          0  03-18 Monthly                                  
103C2018-03-06T09:33+02:00                                                                           21 13047 03-18 Monthly        00001OPNZA                                                      BAEC 19082400                Storer                                                                                                                                                 AV                  00000000560000000000NOPNZAUBAMR          7038 4Mbps Premium Uncapped 03-18 Monthly         
103C2018-03-06T09:33+02:00                                                                           21 19634 03-18 Monthly        00001OPNZA                                                      BAEC 15420269                Kyzer                                                                                                                                                  AV                  00000000920000000000NOPNZAMMDPS          0  03-18 Monthly                                  
103C2018-03-06T09:33+02:00                                                                           21 19651 03-18                00001OPNZA                                                      BAEC 202428297               Mqingwana                                                                                                                                              AV                  00000000400000000000NOPNZAUBAMR          7038 4Mbps Premium Uncapped 03-18                 
103C2018-03-06T09:33+02:00                                                                           21 9224 03-18 admin           00001OPNZA                                                      AVIOS3081471037262093        Coetzee (staff)                                                                                                                                        AV                  00000035000000000000NOPNZAMMDPS          7777 admin reward 03-18 admin                     
90000002100000021000000000000000000006507