000301OPNZA00001ANAINP007802019-02-04T16:23+02:00
103C2019-02-04T16:23+02:00                                                                           84 20239 02-19                00001OPNZA                                                      AVIOS3081471041605485        Joubert                                                                                                                                                AV                  00000000560000000000NOPNZAFIBRT          7039 8Mbps Premium Uncapped 02-19                 
103C2019-02-04T16:23+02:00                                                                           84 20262 02-19 Monthly        00001OPNZA                                                      AVIOS3081471031097602        Aaron                                                                                                                                                  AV                  00000000580000000000NOPNZAMMDPS          0  02-19 Monthly                                  
103C2019-02-04T16:23+02:00                                                                           84 19410 02-19 Monthly        00001OPNZA                                                      BAEC 64809343                Wright                                                                                                                                                 AV                  00000002250000000000NOPNZAMMDPS          0  02-19 Monthly                                  
103C2019-02-04T16:23+02:00                                                                           84 20092 02-19 Monthly        00001OPNZA                                                      AVIOS3081471041603845        van Pype                                                                                                                                               AV                  00000000900000000000NOPNZAFIBRT          0  02-19 Monthly                                  
103C2019-02-04T16:23+02:00                                                                           84 20087 02-19 Monthly        00001OPNZA                                                      AVIOS3081471042287762        Mlotshwa                                                                                                                                               AV                  00000000900000000000NOPNZAFIBRT          0  02-19 Monthly                                  
103C2019-02-04T16:23+02:00                                                                           84 20334 02-19 Monthly        00001OPNZA                                                      AVIOS3081471142989754        Chemaly                                                                                                                                                AV                  00000002250000000000NOPNZAMMDPS          0  02-19 Monthly                                  
103C2019-02-04T16:23+02:00                                                                           84 20141 02-19 Monthly        00001OPNZA                                                      AVIOS3081471041899039        Henderson                                                                                                                                              AV                  00000000900000000000NOPNZAFIBRT          0  02-19 Monthly                                  
103C2019-02-04T16:23+02:00                                                                           84 19668 02-19 Monthly        00001OPNZA                                                      AVIOS3081472029688584        Smith                                                                                                                                                  AV                  00000000920000000000NOPNZAMMDPS          0  02-19 Monthly                                  
103C2019-02-04T16:23+02:00                                                                           84 191 02-19 Monthly          00001OPNZA                                                      AVIOS1234562                 tew12                                                                                                                                                  AV                  00000000250000000000NOPNZAUBFMR          0  02-19 Monthly                                  
103C2019-02-04T16:23+02:00                                                                           84 20320 02-19 Monthly        00001OPNZA                                                      AVIOS3081471043063212        Esterhuizen                                                                                                                                            AV                  00000000900000000000NOPNZAFIBRT          0  02-19 Monthly                                  
103C2019-02-04T16:23+02:00                                                                           84 20244 02-19 Monthly        00001OPNZA                                                      BAEC 17715301                Nijland                                                                                                                                                AV                  00000000920000000000NOPNZAMMDPS          0  02-19 Monthly                                  
103C2019-02-04T16:23+02:00                                                                           84 20218 02-19                00001OPNZA                                                      AVIOS3081471029026811        Arendse                                                                                                                                                AV                  00000000410000000000NOPNZAUBAMR          7038 4Mbps Premium Uncapped 02-19                 
103C2019-02-04T16:23+02:00                                                                           84 15208 02-19 Monthly        00001OPNZA                                                      AVIOS3081471037262895        Badenhorst                                                                                                                                             AV                  00000001670000000000NOPNZAMMDPS          0  02-19 Monthly                                  
103C2019-02-04T16:23+02:00                                                                           84 19348 02-19 Monthly        00001OPNZA                                                      BAEC 21273431                Thompson                                                                                                                                               AV                  00000001650000000000NOPNZAFIBRT          0  02-19 Monthly                                  
103C2019-02-04T16:23+02:00                                                                           84 19358 02-19 Monthly        00001OPNZA                                                      AVIOS3081471042147339        Kruger                                                                                                                                                 AV                  00000001420000000000NOPNZAMMDPS          0  02-19 Monthly                                  
103C2019-02-04T16:23+02:00                                                                           84 19422 02-19                00001OPNZA                                                      BAEC 19282203                Steenkamp                                                                                                                                              AV                  00000000560000000000NOPNZAUBAMR          7038 4Mbps Premium Uncapped 02-19                 
103C2019-02-04T16:23+02:00                                                                           84 19521 02-19                00001OPNZA                                                      BAEC 12570957                Wright                                                                                                                                                 AV                  00000003390000000000NOPNZAFIBMR          7194 R989 - 40Mbps Fibre Line Rental + 300GB Cappe
103C2019-02-04T16:23+02:00                                                                           84 13046 02-19 Monthly        00001OPNZA                                                      BAEC 25922325                Barnard                                                                                                                                                AV                  00000004720000000000NOPNZAUBFMR          0  02-19 Monthly                                  
103C2019-02-04T16:23+02:00                                                                           84 19206 02-19 Monthly        00001OPNZA                                                      BAEC 24286035                McPhail                                                                                                                                                AV                  00000000920000000000NOPNZAMMDPS          0  02-19 Monthly                                  
103C2019-02-04T16:23+02:00                                                                           84 17942 02-19 Monthly        00001OPNZA                                                      AVIOS3081472030080649        Venter                                                                                                                                                 AV                  00000000500000000000NOPNZAMMDPS          0  02-19 Monthly                                  
103C2019-02-04T16:23+02:00                                                                           84 19488 02-19 Monthly        00001OPNZA                                                      AVIOS3081472024934512        brink                                                                                                                                                  AV                  00000000500000000000NOPNZAMMDPS          0  02-19 Monthly                                  
103C2019-02-04T16:23+02:00                                                                           84 19154 02-19 Monthly        00001OPNZA                                                      AVIOS3081471040231200        Magee                                                                                                                                                  AV                  00000000500000000000NOPNZAMMDPS          0  02-19 Monthly                                  
103C2019-02-04T16:23+02:00                                                                           84 19266 02-19 Monthly        00001OPNZA                                                      AVIOS3081471036135324        Kubheka                                                                                                                                                AV                  00000000500000000000NOPNZAMMDPS          0  02-19 Monthly                                  
103C2019-02-04T16:23+02:00                                                                           84 19111 02-19 Monthly        00001OPNZA                                                      AVIOS3081471022641129        Sonbadhar                                                                                                                                              AV                  00000000920000000000NOPNZAMMDPS          0  02-19 Monthly                                  
103C2019-02-04T16:23+02:00                                                                           84 19238 02-19 Monthly        00001OPNZA                                                      BAEC 18336986                Arnab                                                                                                                                                  AV                  00000001670000000000NOPNZAMMDPS          0  02-19 Monthly                                  
103C2019-02-04T16:23+02:00                                                                           84 19542 02-19 Monthly        00001OPNZA                                                      AVIOS3081472008507086        du Plessis                                                                                                                                             AV                  00000000500000000000NOPNZAMMDPS          0  02-19 Monthly                                  
103C2019-02-04T16:23+02:00                                                                           84 13047 02-19 Monthly        00001OPNZA                                                      BAEC 19082400                Storer                                                                                                                                                 AV                  00000000560000000000NOPNZAUBAMR          7038 4Mbps Premium Uncapped 02-19 Monthly         
103C2019-02-04T16:23+02:00                                                                           84 19634 02-19 Monthly        00001OPNZA                                                      BAEC 15420269                Kyzer                                                                                                                                                  AV                  00000000920000000000NOPNZAMMDPS          0  02-19 Monthly                                  
103C2019-02-04T16:23+02:00                                                                           84 19697 02-19 Monthly        00001OPNZA                                                      AVIOS3081471039203137        Ayoob                                                                                                                                                  AV                  00000001160000000000NOPNZAFIBRT          0  02-19 Monthly                                  
103C2019-02-04T16:23+02:00                                                                           84 13292 02-19 Monthly        00001OPNZA                                                      BAEC 10428689                Nefdt                                                                                                                                                  AV                  00000001420000000000NOPNZAFIBRT          0  02-19 Monthly                                  
103C2019-02-04T16:23+02:00                                                                           84 19702 02-19 Monthly        00001OPNZA                                                      AVIOS3081471039103089        Ribombo                                                                                                                                                AV                  00000000500000000000NOPNZAMMDPS          0  02-19 Monthly                                  
103C2019-02-04T16:23+02:00                                                                           84 19758 02-19 Monthly        00001OPNZA                                                      AVIOS202943850               Pather                                                                                                                                                 AV                  00000000900000000000NOPNZAMMDPS          0  02-19 Monthly                                  
103C2019-02-04T16:23+02:00                                                                           84 19850 02-19 Monthly        00001OPNZA                                                      BAEC 24270685                Hague                                                                                                                                                  AV                  00000001420000000000NOPNZAMMDPS          0  02-19 Monthly                                  
103C2019-02-04T16:23+02:00                                                                           84 13218 02-19 Monthly        00001OPNZA                                                      BAEC 49929245                Kurgan                                                                                                                                                 AV                  00000004470000000000NOPNZAUBFMR          0  02-19 Monthly                                  
103C2019-02-04T16:23+02:00                                                                           84 19863 02-19 Monthly        00001OPNZA                                                      AVIOS3081471034482835        Paillard                                                                                                                                               AV                  00000001420000000000NOPNZAMMDPS          0  02-19 Monthly                                  
103C2019-02-04T16:23+02:00                                                                           84 19925 02-19 Monthly        00001OPNZA                                                      AVIOS3081471037418133        Williams                                                                                                                                               AV                  00000002670000000000NOPNZAMMDPS          0  02-19 Monthly                                  
103C2019-02-04T16:23+02:00                                                                           84 19935 02-19                00001OPNZA                                                      AVIOS3081471037262309        Martins                                                                                                                                                AV                  00000000980000000000NOPNZAUBAMR          7188 4Mbps Business Uncapped + 1 Static IP 02-19  
103C2019-02-04T16:23+02:00                                                                           84 19949 02-19 Monthly        00001OPNZA                                                      AVIOS3081471039379036        Janse van Rensburg                                                                                                                                     AV                  00000001970000000000NOPNZAFIBRT          0  02-19 Monthly                                  
103C2019-02-04T16:23+02:00                                                                           84 19970 02-19 Monthly        00001OPNZA                                                      AVIOS3081471044111879        Duffy                                                                                                                                                  AV                  00000000580000000000NOPNZAMMDPS          0  02-19 Monthly                                  
103C2019-02-04T16:23+02:00                                                                           84 20042 02-19 Monthly        00001OPNZA                                                      AVIOS3081471041387167        Swanepoel                                                                                                                                              AV                  00000000580000000000NOPNZAFIBRT          0  02-19 Monthly                                  
103C2019-02-04T16:23+02:00                                                                           84 20069 02-19 Monthly        00001OPNZA                                                      AVIOS3081471040975905        Botha                                                                                                                                                  AV                  00000000900000000000NOPNZAFIBRT          0  02-19 Monthly                                  
103C2019-02-04T16:23+02:00                                                                           84 20070 02-19 Monthly        00001OPNZA                                                      AVIOS3081471041561159        Macaskill                                                                                                                                              AV                  00000000920000000000NOPNZAMMDPS          0  02-19 Monthly                                  
103C2019-02-04T16:23+02:00                                                                           84 20065 02-19 Monthly        00001OPNZA                                                      AVIOS3081471042246263        Kirby                                                                                                                                                  AV                  00000000900000000000NOPNZAMMDPS          0  02-19 Monthly                                  
103C2019-02-04T16:23+02:00                                                                           84 20080 02-19 Monthly        00001OPNZA                                                      AVIOS3081471041622431        Schoevers                                                                                                                                              AV                  00000000900000000000NOPNZAMMDPS          0  02-19 Monthly                                  
103C2019-02-04T16:23+02:00                                                                           84 16473 02-19                00001OPNZA                                                      BAEC 14073664                Riddle                                                                                                                                                 AV                  00000001260000000000NOPNZAUBAMR          7046 10Mbps Business Uncapped 02-19               
103C2019-02-04T16:23+02:00                                                                           84 20095 02-19 Monthly        00001OPNZA                                                      BAEC 19569120                Coetzee                                                                                                                                                AV                  00000000900000000000NOPNZAMMDPS          0  02-19 Monthly                                  
103C2019-02-04T16:23+02:00                                                                           84 20112 02-19 Monthly        00001OPNZA                                                      BAEC 15842738                Banwell                                                                                                                                                AV                  00000001420000000000NOPNZAMMDPS          0  02-19 Monthly                                  
103C2019-02-04T16:23+02:00                                                                           84 20123 02-19 Monthly        00001OPNZA                                                      AVIOS3081471142756617        October                                                                                                                                                AV                  00000000900000000000NOPNZAFIBRT          0  02-19 Monthly                                  
103C2019-02-04T16:23+02:00                                                                           84 20124 02-19 Monthly        00001OPNZA                                                      AVIOS3081471043826956        Slabbert                                                                                                                                               AV                  00000000580000000000NOPNZAMMDPS          0  02-19 Monthly                                  
103C2019-02-04T16:23+02:00                                                                           84 20140 02-19 Monthly        00001OPNZA                                                      AVIOS3081471042241983        Mcwatts                                                                                                                                                AV                  00000000900000000000NOPNZAMMDPS          0  02-19 Monthly                                  
103C2019-02-04T16:23+02:00                                                                           84 20150 02-19 Monthly        00001OPNZA                                                      BAEC 17666373                Swart                                                                                                                                                  AV                  00000000580000000000NOPNZAMMDPS          0  02-19 Monthly                                  
103C2019-02-04T16:23+02:00                                                                           84 20151 02-19 Monthly        00001OPNZA                                                      AVIOS3081471041970806        van Rooyen                                                                                                                                             AV                  00000001420000000000NOPNZAMMDPS          0  02-19 Monthly                                  
103C2019-02-04T16:23+02:00                                                                           84 20153 02-19 Monthly        00001OPNZA                                                      AVIOS3081471037202404        Hugo                                                                                                                                                   AV                  00000000580000000000NOPNZAMMDPS          0  02-19 Monthly                                  
103C2019-02-04T16:23+02:00                                                                           84 20164 02-19 Monthly        00001OPNZA                                                      AVIOS3081471042065671        Westley                                                                                                                                                AV                  00000000580000000000NOPNZAMMDPS          0  02-19 Monthly                                  
103C2019-02-04T16:23+02:00                                                                           84 20186 02-19 Monthly        00001OPNZA                                                      AVIOS3081471042178243        Loots                                                                                                                                                  AV                  00000001420000000000NOPNZAMMDPS          0  02-19 Monthly                                  
103C2019-02-04T16:23+02:00                                                                           84 20200 02-19 Monthly        00001OPNZA                                                      AVIOS3081472030503699        Logan                                                                                                                                                  AV                  00000000580000000000NOPNZAMMDPS          0  02-19 Monthly                                  
103C2019-02-04T16:23+02:00                                                                           84 20263 02-19 Monthly        00001OPNZA                                                      AVIOS3081471042586114        Steyn                                                                                                                                                  AV                  00000000900000000000NOPNZAFIBRT          0  02-19 Monthly                                  
103C2019-02-04T16:23+02:00                                                                           84 20049 02-19 Monthly        00001OPNZA                                                      AVIOS3081471041398883        van Wyk                                                                                                                                                AV                  00000003230000000000NOPNZAFIBRT          0  02-19 Monthly                                  
103C2019-02-04T16:23+02:00                                                                           84 20386 02-19 Monthly        00001OPNZA                                                      AVIOS3081471043227031        Pretorius                                                                                                                                              AV                  00000000900000000000NOPNZAFIBRT          0  02-19 Monthly                                  
103C2019-02-04T16:23+02:00                                                                           84 20285 02-19 Monthly        00001OPNZA                                                      AVIOS3081471042743525        van Jaarsveld                                                                                                                                          AV                  00000000900000000000NOPNZAMMDPS          0  02-19 Monthly                                  
103C2019-02-04T16:23+02:00                                                                           84 20047 02-19 Monthly        00001OPNZA                                                      AVIOS3081472027733077        MAHOMEDY                                                                                                                                               AV                  00000000580000000000NOPNZAMMDPS          0  02-19 Monthly                                  
103C2019-02-04T16:23+02:00                                                                           84 19821 02-19                00001OPNZA                                                      AVIOS3081471042887967        Carreira                                                                                                                                               AV                  00000001450000000000NOPNZAFIBRT          02-19                                             
103C2019-02-04T16:23+02:00                                                                           84 20345 02-19 Monthly        00001OPNZA                                                      BAEC 97901448                Cloete                                                                                                                                                 AV                  00000000000000000000NOPNZAFIBRT          0  02-19 Monthly                                  
103C2019-02-04T16:23+02:00                                                                           84 20346 02-19 Monthly        00001OPNZA                                                      AVIOS3081471210086079        Naidoo                                                                                                                                                 AV                  00000001420000000000NOPNZAMMDPS          0  02-19 Monthly                                  
103C2019-02-04T16:23+02:00                                                                           84 20354 02-19 Monthly        00001OPNZA                                                      AVIOS3081471044306735        Zeelie                                                                                                                                                 AV                  00000000900000000000NOPNZAMMDPS          0  02-19 Monthly                                  
103C2019-02-04T16:23+02:00                                                                           84 19439 02-19 Monthly        00001OPNZA                                                      AVIOS3081472024211697        Neve                                                                                                                                                   AV                  00000000920000000000NOPNZAFIBRT          0  02-19 Monthly                                  
103C2019-02-04T16:23+02:00                                                                           84 20240 02-19 Monthly        00001OPNZA                                                      BAEC 60277048                Myburgh                                                                                                                                                AV                  00000001420000000000NOPNZAMMDPS          0  02-19 Monthly                                  
103C2019-02-04T16:23+02:00                                                                           84 20509 02-19 Monthly        00001OPNZA                                                      AVIOS3081471044498334        Nunes                                                                                                                                                  AV                  00000000820000000000NOPNZAMMDPS          0  02-19 Monthly                                  
103C2019-02-04T16:23+02:00                                                                           84 20399 02-19 Monthly        00001OPNZA                                                      AVIOS3081471019643930        Botes                                                                                                                                                  AV                  00000000580000000000NOPNZAMMDPS          0  02-19 Monthly                                  
103C2019-02-04T16:23+02:00                                                                           84 20401 02-19 Monthly        00001OPNZA                                                      AVIOS3081471044023215        Muller                                                                                                                                                 AV                  00000000580000000000NOPNZAMMDPS          0  02-19 Monthly                                  
103C2019-02-04T16:23+02:00                                                                           84 20097 02-19                00001OPNZA                                                      AVIOS3081471028544178        Marais                                                                                                                                                 AV                  00000001970000000000NOPNZAUBFMR          02-19                                             
103C2019-02-04T16:23+02:00                                                                           84 20431 02-19 Monthly        00001OPNZA                                                      BAEC 15508122                Africa                                                                                                                                                 AV                  00000000420000000000NOPNZAFIBRT          0  02-19 Monthly                                  
103C2019-02-04T16:23+02:00                                                                           84 19805 02-19 Monthly        00001OPNZA                                                      AVIOSOwen.clark              Clark                                                                                                                                                  AV                  00000000580000000000NOPNZAFIBRT          0  02-19 Monthly                                  
103C2019-02-04T16:23+02:00                                                                           84 20197 02-19 Monthly        00001OPNZA                                                      BAEC 61028655                Thrussell                                                                                                                                              AV                  00000000920000000000NOPNZAMMDPS          0  02-19 Monthly                                  
103C2019-02-04T16:23+02:00                                                                           84 20511 02-19 Monthly        00001OPNZA                                                      AVIOS3081471044504537        Naidoo                                                                                                                                                 AV                  00000000900000000000NOPNZAMMDPS          0  02-19 Monthly                                  
103C2019-02-04T16:23+02:00                                                                           84 20512 02-19 Monthly        00001OPNZA                                                      AVIOSOW53504                 Ferror                                                                                                                                                 AV                  00000000580000000000NOPNZAMMDPS          0  02-19 Monthly                                  
103C2019-02-04T16:23+02:00                                                                           84 19717 02-19 Monthly        00001OPNZA                                                      AVIOS3081471042843416        waja                                                                                                                                                   AV                  00000000920000000000NOPNZAMMDPS          0  02-19 Monthly                                  
103C2019-02-04T16:23+02:00                                                                           84 20535 02-19 Monthly        00001OPNZA                                                      AVIOS3081471044556123        Brink                                                                                                                                                  AV                  00000000900000000000NOPNZAMMDPS          0  02-19 Monthly                                  
103C2019-02-04T16:23+02:00                                                                           84 20536 02-19 Monthly        00001OPNZA                                                      AVIOS3081472006020710        Grootboom                                                                                                                                              AV                  00000000420000000000NOPNZAFIBRT          0  02-19 Monthly                                  
103C2019-02-04T16:23+02:00                                                                           84 5911 02-19 Monthly         00001OPNZA                                                      BAEC 44250817                Adam                                                                                                                                                   AV                  00000000580000000000NOPNZAMMDPS          0  02-19 Monthly                                  
103C2019-02-04T16:23+02:00                                                                           84 20541 02-19 Monthly        00001OPNZA                                                      AVIOS3081472020472988        Van Zyl                                                                                                                                                AV                  00000000900000000000NOPNZAFIBRT          0  02-19 Monthly                                  
103C2019-02-04T16:23+02:00                                                                           84 20544 02-19 Monthly        00001OPNZA                                                      BAEC 14270517                Patel                                                                                                                                                  AV                  00000000580000000000NOPNZAMMDPS          0  02-19 Monthly                                  
103C2019-02-04T16:23+02:00                                                                           84 20545 02-19 Monthly        00001OPNZA                                                      AVIOS3081472026277571        Nokwe                                                                                                                                                  AV                  00000000900000000000NOPNZAMMDPS          0  02-19 Monthly                                  
103C2019-02-04T16:23+02:00                                                                           84 20547 02-19 Monthly        00001OPNZA                                                      AVIOS3081471044865979        Abraham                                                                                                                                                AV                  00000001420000000000NOPNZAMMDPS          0  02-19 Monthly                                  
103C2019-02-04T16:23+02:00                                                                           84 20553 02-19 Monthly        00001OPNZA                                                      AVIOS3081471143407475        Geyer                                                                                                                                                  AV                  00000000580000000000NOPNZAMMDPS          0  02-19 Monthly                                  
103C2019-02-04T16:23+02:00                                                                           84 19964 02-19 Monthly        00001OPNZA                                                      BAEC 23229913                Nkosi                                                                                                                                                  AV                  00000000580000000000NOPNZAMMDPS          0  02-19 Monthly                                  
103C2019-02-04T16:23+02:00                                                                           84 20419 02-19 Monthly        00001OPNZA                                                      AVIOS3081471043695286        Swanepoel                                                                                                                                              AV                  00000001970000000000NOPNZAFIBMR          0  02-19 Monthly                                  
103C2019-02-04T16:23+02:00                                                                           84 20559 02-19 Monthly        00001OPNZA                                                      BAEC 30592397                Barker                                                                                                                                                 AV                  00000000580000000000NOPNZAMMDPS          0  02-19 Monthly                                  
103C2019-02-04T16:23+02:00                                                                           84 20560 02-19 Monthly        00001OPNZA                                                      AVIOS3081471044945565        Haine                                                                                                                                                  AV                  00000000900000000000NOPNZAMMDPS          0  02-19 Monthly                                  
103C2019-02-04T16:23+02:00                                                                           84 20566 02-19 Monthly        00001OPNZA                                                      AVIOS5339160022177011        Meyer                                                                                                                                                  AV                  00000001420000000000NOPNZAMMDPS          0  02-19 Monthly                                  
103C2019-02-04T16:23+02:00                                                                           84 20589 02-19 Monthly        00001OPNZA                                                      BAEC 15973401                Daniels                                                                                                                                                AV                  00000000580000000000NOPNZAMMDPS          0  02-19 Monthly                                  
103C2019-02-04T16:23+02:00                                                                           84 20607 02-19 Monthly        00001OPNZA                                                      AVIOS3081471143414760        Mbusi                                                                                                                                                  AV                  00000000580000000000NOPNZAMMDPS          0  02-19 Monthly                                  
103C2019-02-04T16:23+02:00                                                                           84 20649 02-19 Monthly        00001OPNZA                                                      AVIOS3081472001708236        Aggenbach                                                                                                                                              AV                  00000000900000000000NOPNZAMMDPS          0  02-19 Monthly                                  
103C2019-02-04T16:23+02:00                                                                           84 20630 02-19 Monthly        00001OPNZA                                                      AVIOS3081471045505269        Thyssen                                                                                                                                                AV                  00000000900000000000NOPNZAFIBRT          0  02-19 Monthly                                  
103C2019-02-04T16:23+02:00                                                                           84 20657 02-19 Monthly        00001OPNZA                                                      BAEC 15055326                Nicolai (Greystone)                                                                                                                                    AV                  00000001420000000000NOPNZAMMDPS          0  02-19 Monthly                                  
103C2019-02-04T16:23+02:00                                                                           84 20695 02-19 Monthly        00001OPNZA                                                      AVIOS3081471046080791        van der Merwe                                                                                                                                          AV                  00000000900000000000NOPNZAFIBRT          0  02-19 Monthly                                  
103C2019-02-04T16:23+02:00                                                                           84 20676 02-19 Monthly        00001OPNZA                                                      BAEC 23562139                Klopper                                                                                                                                                AV                  00000000900000000000NOPNZAMMDPS          0  02-19 Monthly                                  
103C2019-02-04T16:23+02:00                                                                           84 20716 02-19 Monthly        00001OPNZA                                                      BAEC 23698000                Jordaan                                                                                                                                                AV                  00000000580000000000NOPNZAMMDPS          0  02-19 Monthly                                  
103C2019-02-04T16:23+02:00                                                                           84 20718 02-19 Monthly        00001OPNZA                                                      AVIOS3081471046208590        Jansen                                                                                                                                                 AV                  00000000000000000000NOPNZAFIBRT          0  02-19 Monthly                                  
103C2019-02-04T16:23+02:00                                                                           84 20686 02-19 Monthly        00001OPNZA                                                      AVIOS3081471025598334        Kershaw                                                                                                                                                AV                  00000001970000000000NOPNZAFIBRT          0  02-19 Monthly                                  
103C2019-02-04T16:23+02:00                                                                           84 19483 02-19 Monthly        00001OPNZA                                                      AVIOS3081471037672077        Eagar                                                                                                                                                  AV                  00000002740000000000NOPNZAFIBMR          0  02-19 Monthly                                  
103C2019-02-04T16:23+02:00                                                                           84 20784 02-19 Monthly        00001OPNZA                                                      BAEC 628484401               Mincher                                                                                                                                                AV                  00000000900000000000NOPNZAFIBRT          0  02-19 Monthly                                  
103C2019-02-04T16:23+02:00                                                                           84 20789 02-19 Monthly        00001OPNZA                                                      AVIOS3081471019470201        Joubert                                                                                                                                                AV                  00000001420000000000NOPNZAMMDPS          0  02-19 Monthly                                  
103C2019-02-04T16:23+02:00                                                                           84 20813 02-19 Monthly        00001OPNZA                                                      BAEC 24335373                Ikin                                                                                                                                                   AV                  00000001420000000000NOPNZAMMDPS          0  02-19 Monthly                                  
103C2019-02-04T16:23+02:00                                                                           84 19481 02-19 Monthly        00001OPNZA                                                      AVIOS3081471046234158        Catzavelos                                                                                                                                             AV                  00000000580000000000NOPNZAMMDPS          0  02-19 Monthly                                  
103C2019-02-04T16:23+02:00                                                                           84 20827 02-19 Monthly        00001OPNZA                                                      BAEC 23965358                Le Roux                                                                                                                                                AV                  00000000900000000000NOPNZAMMDPS          0  02-19 Monthly                                  
103C2019-02-04T16:23+02:00                                                                           84 20853 02-19 Monthly        00001OPNZA                                                      AVIOS3081472023583799        Meissenheimer                                                                                                                                          AV                  00000000580000000000NOPNZAMMDPS          0  02-19 Monthly                                  
103C2019-02-04T16:23+02:00                                                                           84 20866 02-19 Monthly        00001OPNZA                                                      AVIOS24105290                Botha                                                                                                                                                  AV                  00000000900000000000NOPNZAMMDPS          0  02-19 Monthly                                  
103C2019-02-04T16:23+02:00                                                                           84 7473 02-19 Monthly         00001OPNZA                                                      BAEC 23888908                Zacks                                                                                                                                                  AV                  00000000900000000000NOPNZAMMDPS          0  02-19 Monthly                                  
103C2019-02-04T16:23+02:00                                                                           84 20899 02-19 Monthly        00001OPNZA                                                      BAEC 24080495                Theron                                                                                                                                                 AV                  00000000420000000000NOPNZAFIBRT          0  02-19 Monthly                                  
103C2019-02-04T16:23+02:00                                                                           84 20966 02-19 Monthly        00001OPNZA                                                      BAEC 98585487                Makalima                                                                                                                                               AV                  00000001970000000000NOPNZAFIBMR          0  02-19 Monthly                                  
103C2019-02-04T16:23+02:00                                                                           84 20799 02-19                00001OPNZA                                                      AVIOS3081471021866826        Hooseria                                                                                                                                               AV                  00000000500000000000NOPNZAFIBRT          7231 R299 - 20Mbps Home Uncapped Special + R149 - 
90000011200000112000000000000000000012003