000301OPNZA00001ANAINP012702020-07-02T13:02+02:00
103C2020-07-02T13:02+02:00                                                                           133 86 07-20                  00001OPNZA                                                      BAEC 61608378                Wright                                                                                                                                                 AV                  00000110000000000000NOPNZAFIBRT          7904 test 07-20                                   
103C2020-07-02T13:02+02:00                                                                           133 20244 07-20 Monthly       00001OPNZA                                                      BAEC 17715301                Nijland                                                                                                                                                AV                  00000000920000000000NOPNZAMMDPS          0  07-20 Monthly                                  
103C2020-07-02T13:02+02:00                                                                           133 19521 07-20               00001OPNZA                                                      BAEC 12570957                Wright                                                                                                                                                 AV                  00000003390000000000NOPNZAFIBMR          7194 R989 - 40Mbps Fibre Line Rental + 300GB Cappe
103C2020-07-02T13:02+02:00                                                                           133 20095 07-20               00001OPNZA                                                      BAEC 19569120                Coetzee                                                                                                                                                AV                  00000000900000000000NOPNZAMMDPS          07-20                                             
103C2020-07-02T13:02+02:00                                                                           133 19805 07-20               00001OPNZA                                                      BAEC Owen.clark              Clark                                                                                                                                                  AV                  00000000580000000000NOPNZAMMDPS          07-20                                             
103C2020-07-02T13:02+02:00                                                                           133 20544 07-20               00001OPNZA                                                      BAEC 14270517                Patel                                                                                                                                                  AV                  00000000580000000000NOPNZAMMDPS          7870 Shenazbanu Patel (R345 - 50GB LTE-A Mobile Wi
103C2020-07-02T13:02+02:00                                                                           133 20559 07-20 Monthly       00001OPNZA                                                      BAEC 30592397                Barker                                                                                                                                                 AV                  00000000580000000000NOPNZAMMDPS          0  07-20 Monthly                                  
103C2020-07-02T13:02+02:00                                                                           133 19448 07-20 Monthly       00001OPNZA                                                      BAEC 22595299                Schoeman                                                                                                                                               AV                  00000001970000000000NOPNZAUBFMR          0  07-20 Monthly                                  
103C2020-07-02T13:02+02:00                                                                           133 21029 07-20 Monthly       00001OPNZA                                                      BAEC 24751479                Weber                                                                                                                                                  AV                  00000000900000000000NOPNZAMMDPS          0  07-20 Monthly                                  
103C2020-07-02T13:02+02:00                                                                           133 19911 07-20 Monthly       00001OPNZA                                                      BAEC 45464915                Lopes                                                                                                                                                  AV                  00000003600000000000NOPNZAFIBMR          0  07-20 Monthly                                  
103C2020-07-02T13:02+02:00                                                                           133 21919 07-20 Monthly       00001OPNZA                                                      BAEC 18474548                Nel                                                                                                                                                    AV                  00000001370000000000NOPNZAFIBMR          0  07-20 Monthly                                  
103C2020-07-02T13:02+02:00                                                                           133 20263 07-20 Monthly       00001OPNZA                                                      BAEC 24758050                Steyn                                                                                                                                                  AV                  00000001750000000000NOPNZAUBFMR          0  07-20 Monthly                                  
103C2020-07-02T13:02+02:00                                                                           133 21425 07-20 Monthly       00001OPNZA                                                      BAEC 15209015                Barnard                                                                                                                                                AV                  00000000580000000000NOPNZAMMDPS          0  07-20 Monthly                                  
103C2020-07-02T13:02+02:00                                                                           133 22233 07-20               00001OPNZA                                                      BAEC 27093338                Clarke                                                                                                                                                 AV                  00000000400000000000NOPNZAMMDPS          07-20                                             
103C2020-07-02T13:02+02:00                                                                           133 20431 07-20 Monthly       00001OPNZA                                                      BAEC 15508122                Africa                                                                                                                                                 AV                  00000002480000000000NOPNZAFIBRT          0  07-20 Monthly                                  
103C2020-07-02T13:02+02:00                                                                           133 22329 07-20 Monthly       00001OPNZA                                                      BAEC 92985545                Rodrigues                                                                                                                                              AV                  00000001500000000000NOPNZAMMDPS          0  07-20 Monthly                                  
103C2020-07-02T13:02+02:00                                                                           133 22357 07-20 Monthly       00001OPNZA                                                      BAEC 24926011                White                                                                                                                                                  AV                  00000001640000000000NOPNZAFIBRT          0  07-20 Monthly                                  
103C2020-07-02T13:02+02:00                                                                           133 22370 07-20 Monthly       00001OPNZA                                                      BAEC 17923482                Mangweni                                                                                                                                               AV                  00000000670000000000NOPNZAMMDPS          0  07-20 Monthly                                  
103C2020-07-02T13:02+02:00                                                                           133 19390 07-20 Monthly       00001OPNZA                                                      BAEC 24191231                Grobler                                                                                                                                                AV                  00000000920000000000NOPNZAMMDPS          0  07-20 Monthly                                  
103C2020-07-02T13:02+02:00                                                                           133 20399 07-20 Monthly       00001OPNZA                                                      BAEC 17098787                Botes                                                                                                                                                  AV                  00000000920000000000NOPNZAMMDPS          0  07-20 Monthly                                  
103C2020-07-02T13:02+02:00                                                                           133 22476 07-20 Monthly       00001OPNZA                                                      BAEC 27940589                Ngwenya                                                                                                                                                AV                  00000000920000000000NOPNZAMMDPS          0  07-20 Monthly                                  
103C2020-07-02T13:02+02:00                                                                           133 18611 07-20               00001OPNZA                                                      BAEC 27952680                Rogers                                                                                                                                                 AV                  00000000410000000000NOPNZAUBAMR          7782 Eugene Rogers (Client) (R289 - 4Mbps Premium 
103C2020-07-02T13:02+02:00                                                                           133 20011 07-20 Monthly       00001OPNZA                                                      BAEC 203168453               Kedian                                                                                                                                                 AV                  00000000450000000000NOPNZAMMDPS          0  07-20 Monthly                                  
103C2020-07-02T13:02+02:00                                                                           133 20150 07-20 Monthly       00001OPNZA                                                      BAEC 17666373                Swart                                                                                                                                                  AV                  00000000750000000000NOPNZAMMDPS          0  07-20 Monthly                                  
103C2020-07-02T13:02+02:00                                                                           133 20197 07-20 Monthly       00001OPNZA                                                      BAEC 61028655                Thrussell                                                                                                                                              AV                  00000000580000000000NOPNZAMMDPS          0  07-20 Monthly                                  
90000002500000025000000000000000000013876