000301OPNZA00001ANAINP010702019-10-02T09:49+02:00
103C2019-10-02T09:49+02:00                                                                           113 19410 10-19 Monthly       00001OPNZA                                                      BAEC 64809343                Wright                                                                                                                                                 AV                  00000002200000000000NOPNZAMMDPS          0  10-19 Monthly                                  
103C2019-10-02T09:49+02:00                                                                           113 20244 10-19 Monthly       00001OPNZA                                                      BAEC 17715301                Nijland                                                                                                                                                AV                  00000000920000000000NOPNZAMMDPS          0  10-19 Monthly                                  
103C2019-10-02T09:49+02:00                                                                           113 19348 10-19 Monthly       00001OPNZA                                                      BAEC 21273431                Thompson                                                                                                                                               AV                  00000001650000000000NOPNZAUBFMR          0  10-19 Monthly                                  
103C2019-10-02T09:49+02:00                                                                           113 19404 10-19 Monthly       00001OPNZA                                                      BAEC 26505918                Morland                                                                                                                                                AV                  00000001670000000000NOPNZAMMDPS          0  10-19 Monthly                                  
103C2019-10-02T09:49+02:00                                                                           113 19422 10-19               00001OPNZA                                                      BAEC 19282203                Steenkamp                                                                                                                                              AV                  00000000560000000000NOPNZAUBAMR          7038 4Mbps Premium Uncapped 10-19                 
103C2019-10-02T09:49+02:00                                                                           113 19521 10-19               00001OPNZA                                                      BAEC 12570957                Wright                                                                                                                                                 AV                  00000003390000000000NOPNZAFIBMR          7194 R989 - 40Mbps Fibre Line Rental + 300GB Cappe
103C2019-10-02T09:49+02:00                                                                           113 13046 10-19 Monthly       00001OPNZA                                                      BAEC 25922325                Barnard                                                                                                                                                AV                  00000004720000000000NOPNZAUBFMR          0  10-19 Monthly                                  
103C2019-10-02T09:49+02:00                                                                           113 19634 10-19 Monthly       00001OPNZA                                                      BAEC 15420269                Kyzer                                                                                                                                                  AV                  00000000920000000000NOPNZAMMDPS          0  10-19 Monthly                                  
103C2019-10-02T09:49+02:00                                                                           113 19850 10-19 Monthly       00001OPNZA                                                      BAEC 24270685                Hague                                                                                                                                                  AV                  00000001420000000000NOPNZAMMDPS          0  10-19 Monthly                                  
103C2019-10-02T09:49+02:00                                                                           113 13218 10-19 Monthly       00001OPNZA                                                      BAEC 49929245                Gold                                                                                                                                                   AV                  00000004470000000000NOPNZAUBFMR          0  10-19 Monthly                                  
103C2019-10-02T09:49+02:00                                                                           113 20011 10-19 Monthly       00001OPNZA                                                      BAEC 203168453               Kedian                                                                                                                                                 AV                  00000001670000000000NOPNZAMMDPS          0  10-19 Monthly                                  
103C2019-10-02T09:49+02:00                                                                           113 20095 10-19 Monthly       00001OPNZA                                                      BAEC 19569120                Coetzee                                                                                                                                                AV                  00000000900000000000NOPNZAMMDPS          0  10-19 Monthly                                  
103C2019-10-02T09:49+02:00                                                                           113 20173 10-19 Monthly       00001OPNZA                                                      BAEC 25488219                Pieterse                                                                                                                                               AV                  00000000900000000000NOPNZAMMDPS          0  10-19 Monthly                                  
103C2019-10-02T09:49+02:00                                                                           113 20240 10-19 Monthly       00001OPNZA                                                      BAEC 60277048                Myburgh                                                                                                                                                AV                  00000001420000000000NOPNZAMMDPS          0  10-19 Monthly                                  
103C2019-10-02T09:49+02:00                                                                           113 20399 10-19 Monthly       00001OPNZA                                                      BAEC 17098787                Botes                                                                                                                                                  AV                  00000000580000000000NOPNZAMMDPS          0  10-19 Monthly                                  
103C2019-10-02T09:49+02:00                                                                           113 20197 10-19 Monthly       00001OPNZA                                                      BAEC 61028655                Thrussell                                                                                                                                              AV                  00000000920000000000NOPNZAMMDPS          0  10-19 Monthly                                  
103C2019-10-02T09:49+02:00                                                                           113 20544 10-19 Monthly       00001OPNZA                                                      BAEC 14270517                Patel                                                                                                                                                  AV                  00000000580000000000NOPNZAMMDPS          0  10-19 Monthly                                  
103C2019-10-02T09:49+02:00                                                                           113 20559 10-19 Monthly       00001OPNZA                                                      BAEC 30592397                Barker                                                                                                                                                 AV                  00000000580000000000NOPNZAMMDPS          0  10-19 Monthly                                  
103C2019-10-02T09:49+02:00                                                                           113 20589 10-19 Monthly       00001OPNZA                                                      BAEC 15973401                Daniels                                                                                                                                                AV                  00000000580000000000NOPNZAMMDPS          0  10-19 Monthly                                  
103C2019-10-02T09:49+02:00                                                                           113 20607 10-19 Monthly       00001OPNZA                                                      BAEC 24346930                Mbusi                                                                                                                                                  AV                  00000000900000000000NOPNZAMMDPS          0  10-19 Monthly                                  
103C2019-10-02T09:49+02:00                                                                           113 20657 10-19 Monthly       00001OPNZA                                                      BAEC 15055326                Nicolai (Greystone)                                                                                                                                    AV                  00000001420000000000NOPNZAMMDPS          0  10-19 Monthly                                  
103C2019-10-02T09:49+02:00                                                                           113 20676 10-19 Monthly       00001OPNZA                                                      BAEC 23562139                Klopper                                                                                                                                                AV                  00000000900000000000NOPNZAMMDPS          0  10-19 Monthly                                  
103C2019-10-02T09:49+02:00                                                                           113 19448 10-19 Monthly       00001OPNZA                                                      BAEC 22595299                Schoeman                                                                                                                                               AV                  00000001970000000000NOPNZAUBFMR          0  10-19 Monthly                                  
103C2019-10-02T09:49+02:00                                                                           113 20784 10-19 Monthly       00001OPNZA                                                      BAEC 628484401               Mincher                                                                                                                                                AV                  00000001420000000000NOPNZAUBFMR          0  10-19 Monthly                                  
103C2019-10-02T09:49+02:00                                                                           113 20853 10-19 Monthly       00001OPNZA                                                      BAEC 24581189                Meissenheimer                                                                                                                                          AV                  00000000580000000000NOPNZAMMDPS          0  10-19 Monthly                                  
103C2019-10-02T09:49+02:00                                                                           113 7473 10-19 Monthly        00001OPNZA                                                      BAEC 23888908                Zacks                                                                                                                                                  AV                  00000000900000000000NOPNZAMMDPS          0  10-19 Monthly                                  
103C2019-10-02T09:49+02:00                                                                           113 20899 10-19 Monthly       00001OPNZA                                                      BAEC 24080495                Theron                                                                                                                                                 AV                  00000000420000000000NOPNZAUBFMR          0  10-19 Monthly                                  
103C2019-10-02T09:49+02:00                                                                           113 20966 10-19 Monthly       00001OPNZA                                                      BAEC 98585487                Makalima                                                                                                                                               AV                  00000001970000000000NOPNZAFIBMR          0  10-19 Monthly                                  
103C2019-10-02T09:49+02:00                                                                           113 20813 10-19 Monthly       00001OPNZA                                                      BAEC 24335373                Ikin                                                                                                                                                   AV                  00000001420000000000NOPNZAMMDPS          0  10-19 Monthly                                  
103C2019-10-02T09:49+02:00                                                                           113 20653 10-19               00001OPNZA                                                      BAEC 23906846                Bonthuys                                                                                                                                               AV                  00000001970000000000NOPNZAUBFMR          7243 (R789 - 10Mbps Uncapped Fibre Data + Fibre Li
103C2019-10-02T09:49+02:00                                                                           113 21029 10-19 Monthly       00001OPNZA                                                      BAEC 24751479                Weber                                                                                                                                                  AV                  00000000900000000000NOPNZAMMDPS          0  10-19 Monthly                                  
103C2019-10-02T09:49+02:00                                                                           113 21081 10-19 Monthly       00001OPNZA                                                      BAEC 97594317                Marais                                                                                                                                                 AV                  00000000580000000000NOPNZAMMDPS          0  10-19 Monthly                                  
103C2019-10-02T09:49+02:00                                                                           113 21102 10-19 Monthly       00001OPNZA                                                      BAEC 20210442                Bester                                                                                                                                                 AV                  00000000920000000000NOPNZAMMDPS          0  10-19 Monthly                                  
103C2019-10-02T09:49+02:00                                                                           113 21425 10-19 Monthly       00001OPNZA                                                      BAEC 15209015                Barnard                                                                                                                                                AV                  00000000600000000000NOPNZAMMDPS          0  10-19 Monthly                                  
103C2019-10-02T09:49+02:00                                                                           113 21506 10-19 Monthly       00001OPNZA                                                      BAEC 25521336                Brazier                                                                                                                                                AV                  00000001420000000000NOPNZAUBFMR          0  10-19 Monthly                                  
103C2019-10-02T09:49+02:00                                                                           113 21691 10-19 Monthly       00001OPNZA                                                      BAEC 62549155                Jansen                                                                                                                                                 AV                  00000000930000000000NOPNZAMMDPS          0  10-19 Monthly                                  
103C2019-10-02T09:49+02:00                                                                           113 20431 10-19 Monthly       00001OPNZA                                                      BAEC 15508122                Africa                                                                                                                                                 AV                  00000000600000000000NOPNZAUBFMR          0  10-19 Monthly                                  
103C2019-10-02T09:49+02:00                                                                           113 14305 10-19 Monthly       00001OPNZA                                                      BAEC 26723268                van Rooi                                                                                                                                               AV                  00000000930000000000NOPNZAMMDPS          0  10-19 Monthly                                  
103C2019-10-02T09:49+02:00                                                                           113 19911 10-19 Monthly       00001OPNZA                                                      BAEC 45464915                Lopes                                                                                                                                                  AV                  00000003550000000000NOPNZAUBFMR          0  10-19 Monthly                                  
90000003900000039000000000000000000005435