000301OPNZA00001ANAINP012402020-06-02T11:06+02:00
103C2020-06-02T11:06+02:00                                                                           130 20244 06-20 Monthly       00001OPNZA                                                      BAEC 17715301                Nijland                                                                                                                                                AV                  00000000920000000000NOPNZAMMDPS          0  06-20 Monthly                                  
103C2020-06-02T11:06+02:00                                                                           130 19521 06-20               00001OPNZA                                                      BAEC 12570957                Wright                                                                                                                                                 AV                  00000003390000000000NOPNZAFIBMR          7194 R989 - 40Mbps Fibre Line Rental + 300GB Cappe
103C2020-06-02T11:06+02:00                                                                           130 20095 06-20 Monthly       00001OPNZA                                                      BAEC 19569120                Coetzee                                                                                                                                                AV                  00000000900000000000NOPNZAMMDPS          0  06-20 Monthly                                  
103C2020-06-02T11:06+02:00                                                                           130 19805 06-20 Monthly       00001OPNZA                                                      BAEC Owen.clark              Clark                                                                                                                                                  AV                  00000000580000000000NOPNZAMMDPS          0  06-20 Monthly                                  
103C2020-06-02T11:06+02:00                                                                           130 20559 06-20 Monthly       00001OPNZA                                                      BAEC 30592397                Barker                                                                                                                                                 AV                  00000000580000000000NOPNZAMMDPS          0  06-20 Monthly                                  
103C2020-06-02T11:06+02:00                                                                           130 19448 06-20 Monthly       00001OPNZA                                                      BAEC 22595299                Schoeman                                                                                                                                               AV                  00000001970000000000NOPNZAUBFMR          0  06-20 Monthly                                  
103C2020-06-02T11:06+02:00                                                                           130 20966 06-20 Monthly       00001OPNZA                                                      BAEC 98585487                Makalima                                                                                                                                               AV                  00000001970000000000NOPNZAFIBMR          0  06-20 Monthly                                  
103C2020-06-02T11:06+02:00                                                                           130 21029 06-20 Monthly       00001OPNZA                                                      BAEC 24751479                Weber                                                                                                                                                  AV                  00000000900000000000NOPNZAMMDPS          0  06-20 Monthly                                  
103C2020-06-02T11:06+02:00                                                                           130 19911 06-20 Monthly       00001OPNZA                                                      BAEC 45464915                Lopes                                                                                                                                                  AV                  00000003600000000000NOPNZAFIBMR          0  06-20 Monthly                                  
103C2020-06-02T11:06+02:00                                                                           130 21919 06-20 Monthly       00001OPNZA                                                      BAEC 18474548                Nel                                                                                                                                                    AV                  00000001370000000000NOPNZAFIBMR          0  06-20 Monthly                                  
103C2020-06-02T11:06+02:00                                                                           130 20263 06-20 Monthly       00001OPNZA                                                      BAEC 24758050                Steyn                                                                                                                                                  AV                  00000001750000000000NOPNZAUBFMR          0  06-20 Monthly                                  
103C2020-06-02T11:06+02:00                                                                           130 21425 06-20 Monthly       00001OPNZA                                                      BAEC 15209015                Barnard                                                                                                                                                AV                  00000000580000000000NOPNZAMMDPS          0  06-20 Monthly                                  
103C2020-06-02T11:06+02:00                                                                           130 20431 06-20 Monthly       00001OPNZA                                                      BAEC 15508122                Africa                                                                                                                                                 AV                  00000002480000000000NOPNZAFIBRT          0  06-20 Monthly                                  
103C2020-06-02T11:06+02:00                                                                           130 22244 06-20 Monthly       00001OPNZA                                                      BAEC 26093950                Barnard                                                                                                                                                AV                  00000001330000000000NOPNZAFIBRT          0  06-20 Monthly                                  
103C2020-06-02T11:06+02:00                                                                           130 22329 06-20 Monthly       00001OPNZA                                                      BAEC 92985545                Rodrigues                                                                                                                                              AV                  00000001500000000000NOPNZAMMDPS          0  06-20 Monthly                                  
103C2020-06-02T11:06+02:00                                                                           130 22274 06-20 Monthly       00001OPNZA                                                      BAEC 27752915                Hawkins                                                                                                                                                AV                  00000000580000000000NOPNZAMMDPS          0  06-20 Monthly                                  
103C2020-06-02T11:06+02:00                                                                           130 22357 06-20 Monthly       00001OPNZA                                                      BAEC 24926011                White                                                                                                                                                  AV                  00000001650000000000NOPNZAFIBRT          0  06-20 Monthly                                  
103C2020-06-02T11:06+02:00                                                                           130 19390 06-20 Monthly       00001OPNZA                                                      BAEC 24191231                Grobler                                                                                                                                                AV                  00000000920000000000NOPNZAMMDPS          0  06-20 Monthly                                  
103C2020-06-02T11:06+02:00                                                                           130 20399 06-20 Monthly       00001OPNZA                                                      BAEC 17098787                Botes                                                                                                                                                  AV                  00000000920000000000NOPNZAMMDPS          0  06-20 Monthly                                  
103C2020-06-02T11:06+02:00                                                                           130 22476 06-20 Monthly       00001OPNZA                                                      BAEC 27940589                Ngwenya                                                                                                                                                AV                  00000000920000000000NOPNZAMMDPS          0  06-20 Monthly                                  
103C2020-06-02T11:06+02:00                                                                           130 18611 06-20               00001OPNZA                                                      BAEC 27952680                Rogers                                                                                                                                                 AV                  00000000410000000000NOPNZAUBAMR          7782 Eugene Rogers (Client) (R289 - 4Mbps Premium 
103C2020-06-02T11:06+02:00                                                                           130 20011 06-20 Monthly       00001OPNZA                                                      BAEC 203168453               Kedian                                                                                                                                                 AV                  00000010450000001000NOPNZAMMDPS          0  06-20 Monthly                                  
103C2020-06-02T11:06+02:00                                                                           130 22486 06-20 Monthly       00001OPNZA                                                      BAEC 27689119                Rossouw                                                                                                                                                AV                  00000000750000000000NOPNZAMMDPS          0  06-20 Monthly                                  
103C2020-06-02T11:06+02:00                                                                           130 20150 06-20 Monthly       00001OPNZA                                                      BAEC 17666373                Swart                                                                                                                                                  AV                  00000000750000000000NOPNZAMMDPS          0  06-20 Monthly                                  
103C2020-06-02T11:06+02:00                                                                           130 20197 06-20 Monthly       00001OPNZA                                                      BAEC 61028655                Thrussell                                                                                                                                              AV                  00000000580000000000NOPNZAMMDPS          0  06-20 Monthly                                  
90000002500000025000000001000000000004175