000301OPNZA00001ANAINP002502018-05-09T19:46+02:00
103C2018-05-09T19:46+02:00                                                                           31 19994 05-18 admin          00001OPNZA                                                      AVIOS30811471040975905       Botha                                                                                                                                                  AV                  00000001130000000000NOPNZAMMDPS          7777 admin reward 05-18 admin                     
103C2018-05-09T19:46+02:00                                                                           31 19410 05-18 admin          00001OPNZA                                                      BAEC 64809343                Wright                                                                                                                                                 AV                  00000002240000000000NOPNZAMMDPS          7777 admin reward 05-18 admin                     
103C2018-05-09T19:46+02:00                                                                           31 9715 05-18 admin           00001OPNZA                                                      BAEC 61939351                Grobler                                                                                                                                                AV                  00000029140000000000NOPNZAMMDPS          7777 admin reward 05-18 admin                     
90000000300000003000000000000000000003251