000301OPNZA00001ANAINP006402018-11-02T19:59+02:00
103C2018-11-02T19:59+02:00                                                                           70 20676 11-18 admin          00001OPNZA                                                      BAEC 23562139                Klopper                                                                                                                                                AV                  00000020900000000000NOPNZAMMDPS          7777 admin reward 11-18 admin                     
103C2018-11-02T19:59+02:00                                                                           70 20240 11-18 Monthly        00001OPNZA                                                      BAEC 60277048                Myburgh                                                                                                                                                AV                  00000000900000000000NOPNZAMMDPS          0  11-18 Monthly                                  
103C2018-11-02T19:59+02:00                                                                           70 18368 11-18                00001OPNZA                                                      AVIOS3081471021053177        (Pty) Ltd                                                                                                                                              AV                  00000000840000000000NOPNZAUBAMR          7039 8Mbps Premium Uncapped 11-18                 
103C2018-11-02T19:59+02:00                                                                           70 19410 11-18 Monthly        00001OPNZA                                                      BAEC 64809343                Wright                                                                                                                                                 AV                  00000007250000000000NOPNZAMMDPS          0  11-18 Monthly                                  
103C2018-11-02T19:59+02:00                                                                           70 20047 11-18 Monthly        00001OPNZA                                                      AVIOS3081472027733077        MAHOMEDY                                                                                                                                               AV                  00000002000000000000NOPNZAMMDPS          0  11-18 Monthly                                  
103C2018-11-02T19:59+02:00                                                                           70 20092 11-18 Monthly        00001OPNZA                                                      AVIOS3081471041603845        van Pype                                                                                                                                               AV                  00000000900000000000NOPNZAFIBRT          0  11-18 Monthly                                  
103C2018-11-02T19:59+02:00                                                                           70 20087 11-18 Monthly        00001OPNZA                                                      AVIOS3081471042287762        Mlotshwa                                                                                                                                               AV                  00000000900000000000NOPNZAFIBRT          0  11-18 Monthly                                  
103C2018-11-02T19:59+02:00                                                                           70 20334 11-18 Monthly        00001OPNZA                                                      AVIOS3081471142989754        Chemaly                                                                                                                                                AV                  00000002250000000000NOPNZAMMDPS          0  11-18 Monthly                                  
103C2018-11-02T19:59+02:00                                                                           70 19668 11-18 Monthly        00001OPNZA                                                      AVIOS3081472029688584        Smith                                                                                                                                                  AV                  00000000920000000000NOPNZAMMDPS          0  11-18 Monthly                                  
103C2018-11-02T19:59+02:00                                                                           70 191 11-18 Monthly          00001OPNZA                                                      AVIOS1234562                 tew12                                                                                                                                                  AV                  00000000250000000000NOPNZAUBFMR          0  11-18 Monthly                                  
103C2018-11-02T19:59+02:00                                                                           70 20320 11-18 Monthly        00001OPNZA                                                      AVIOS3081471043063212        Esterhuizen                                                                                                                                            AV                  00000000900000000000NOPNZAFIBRT          0  11-18 Monthly                                  
103C2018-11-02T19:59+02:00                                                                           70 20014 11-18 Monthly        00001OPNZA                                                      BAEC 23384555                Erasmus                                                                                                                                                AV                  00000000580000000000NOPNZAMMDPS          0  11-18 Monthly                                  
103C2018-11-02T19:59+02:00                                                                           70 20244 11-18 Monthly        00001OPNZA                                                      BAEC 17715301                Nijland                                                                                                                                                AV                  00000000920000000000NOPNZAMMDPS          0  11-18 Monthly                                  
103C2018-11-02T19:59+02:00                                                                           70 20218 11-18                00001OPNZA                                                      AVIOS3081471029026811        Arendse                                                                                                                                                AV                  00000000410000000000NOPNZAUBAMR          7038 4Mbps Premium Uncapped 11-18                 
103C2018-11-02T19:59+02:00                                                                           70 15208 11-18 Monthly        00001OPNZA                                                      AVIOS3081471037262895        Badenhorst                                                                                                                                             AV                  00000001670000000000NOPNZAMMDPS          0  11-18 Monthly                                  
103C2018-11-02T19:59+02:00                                                                           70 19348 11-18 Monthly        00001OPNZA                                                      BAEC 21273431                Thompson                                                                                                                                               AV                  00000001720000000000NOPNZAFIBRT          0  11-18 Monthly                                  
103C2018-11-02T19:59+02:00                                                                           70 19320 11-18 Monthly        00001OPNZA                                                      AVIOS3081471035552875        Pelzer                                                                                                                                                 AV                  00000001330000000000NOPNZAMMDPS          0  11-18 Monthly                                  
103C2018-11-02T19:59+02:00                                                                           70 19422 11-18                00001OPNZA                                                      BAEC 19282203                Steenkamp                                                                                                                                              AV                  00000000560000000000NOPNZAUBAMR          7038 4Mbps Premium Uncapped 11-18                 
103C2018-11-02T19:59+02:00                                                                           70 19521 11-18                00001OPNZA                                                      BAEC 12570957                Wright                                                                                                                                                 AV                  00000003390000000000NOPNZAFIBMR          7194 R989 - 40Mbps Fibre Line Rental + 300GB Cappe
103C2018-11-02T19:59+02:00                                                                           70 13046 11-18 Monthly        00001OPNZA                                                      BAEC 25922325                Barnard                                                                                                                                                AV                  00000004720000000000NOPNZAUBFMR          0  11-18 Monthly                                  
103C2018-11-02T19:59+02:00                                                                           70 17942 11-18 Monthly        00001OPNZA                                                      AVIOS3081472030080649        Venter                                                                                                                                                 AV                  00000000500000000000NOPNZAMMDPS          0  11-18 Monthly                                  
103C2018-11-02T19:59+02:00                                                                           70 19488 11-18 Monthly        00001OPNZA                                                      AVIOS3081472024934512        brink                                                                                                                                                  AV                  00000000500000000000NOPNZAMMDPS          0  11-18 Monthly                                  
103C2018-11-02T19:59+02:00                                                                           70 19154 11-18 Monthly        00001OPNZA                                                      AVIOS3081471040231200        Magee                                                                                                                                                  AV                  00000000500000000000NOPNZAMMDPS          0  11-18 Monthly                                  
103C2018-11-02T19:59+02:00                                                                           70 19266 11-18 Monthly        00001OPNZA                                                      AVIOS3081471036135324        Kubheka                                                                                                                                                AV                  00000000500000000000NOPNZAMMDPS          0  11-18 Monthly                                  
103C2018-11-02T19:59+02:00                                                                           70 19111 11-18 Monthly        00001OPNZA                                                      AVIOS3081471022641129        Sonbadhar                                                                                                                                              AV                  00000000920000000000NOPNZAMMDPS          0  11-18 Monthly                                  
103C2018-11-02T19:59+02:00                                                                           70 8524 11-18 Monthly         00001OPNZA                                                      AVIOS3081471037241238        Goncalves                                                                                                                                              AV                  00000001720000000000NOPNZAFIBMR          0  11-18 Monthly                                  
103C2018-11-02T19:59+02:00                                                                           70 19238 11-18 Monthly        00001OPNZA                                                      BAEC 18336986                Arnab                                                                                                                                                  AV                  00000001670000000000NOPNZAMMDPS          0  11-18 Monthly                                  
103C2018-11-02T19:59+02:00                                                                           70 19542 11-18 Monthly        00001OPNZA                                                      AVIOS3081472008507086        du Plessis                                                                                                                                             AV                  00000000500000000000NOPNZAMMDPS          0  11-18 Monthly                                  
103C2018-11-02T19:59+02:00                                                                           70 13047 11-18 Monthly        00001OPNZA                                                      BAEC 19082400                Storer                                                                                                                                                 AV                  00000000560000000000NOPNZAUBAMR          7038 4Mbps Premium Uncapped 11-18 Monthly         
103C2018-11-02T19:59+02:00                                                                           70 19634 11-18 Monthly        00001OPNZA                                                      BAEC 15420269                Kyzer                                                                                                                                                  AV                  00000000920000000000NOPNZAMMDPS          0  11-18 Monthly                                  
103C2018-11-02T19:59+02:00                                                                           70 19699 11-18 Monthly        00001OPNZA                                                      AVIOS3081471038661319        Blignaut                                                                                                                                               AV                  00000000900000000000NOPNZAMMDPS          0  11-18 Monthly                                  
103C2018-11-02T19:59+02:00                                                                           70 19697 11-18 Monthly        00001OPNZA                                                      AVIOS3081471039203137        Ayoob                                                                                                                                                  AV                  00000000580000000000NOPNZAFIBRT          0  11-18 Monthly                                  
103C2018-11-02T19:59+02:00                                                                           70 13292 11-18 Monthly        00001OPNZA                                                      BAEC 10428689                Nefdt                                                                                                                                                  AV                  00000001420000000000NOPNZAFIBRT          0  11-18 Monthly                                  
103C2018-11-02T19:59+02:00                                                                           70 19702 11-18 Monthly        00001OPNZA                                                      AVIOS3081471039103089        Ribombo                                                                                                                                                AV                  00000000500000000000NOPNZAMMDPS          0  11-18 Monthly                                  
103C2018-11-02T19:59+02:00                                                                           70 19758 11-18 Monthly        00001OPNZA                                                      AVIOS202943850               Pather                                                                                                                                                 AV                  00000000580000000000NOPNZAMMDPS          0  11-18 Monthly                                  
103C2018-11-02T19:59+02:00                                                                           70 13218 11-18 Monthly        00001OPNZA                                                      BAEC 49929245                Kurgan                                                                                                                                                 AV                  00000004470000000000NOPNZAUBFMR          0  11-18 Monthly                                  
103C2018-11-02T19:59+02:00                                                                           70 20254 11-18 Monthly        00001OPNZA                                                      AVIOS3081471043219335        Leeuw                                                                                                                                                  AV                  00000000900000000000NOPNZAFIBRT          0  11-18 Monthly                                  
103C2018-11-02T19:59+02:00                                                                           70 19863 11-18 Monthly        00001OPNZA                                                      AVIOS3081471034482835        Paillard                                                                                                                                               AV                  00000001420000000000NOPNZAMMDPS          0  11-18 Monthly                                  
103C2018-11-02T19:59+02:00                                                                           70 19925 11-18 Monthly        00001OPNZA                                                      AVIOS3081471037418133        Williams                                                                                                                                               AV                  00000002670000000000NOPNZAMMDPS          0  11-18 Monthly                                  
103C2018-11-02T19:59+02:00                                                                           70 19935 11-18                00001OPNZA                                                      AVIOS3081471037262309        Martins                                                                                                                                                AV                  00000000980000000000NOPNZAUBAMR          7188 4Mbps Business Uncapped + 1 Static IP 11-18  
103C2018-11-02T19:59+02:00                                                                           70 19944 11-18 Monthly        00001OPNZA                                                      AVIOS3081471041410746        Slabber                                                                                                                                                AV                  00000000900000000000NOPNZAFIBRT          0  11-18 Monthly                                  
103C2018-11-02T19:59+02:00                                                                           70 19949 11-18 Monthly        00001OPNZA                                                      AVIOS3081471039379036        Janse van Rensburg                                                                                                                                     AV                  00000001970000000000NOPNZAFIBRT          0  11-18 Monthly                                  
103C2018-11-02T19:59+02:00                                                                           70 19970 11-18 Monthly        00001OPNZA                                                      AVIOS3081471044111879        Duffy                                                                                                                                                  AV                  00000000580000000000NOPNZAMMDPS          0  11-18 Monthly                                  
103C2018-11-02T19:59+02:00                                                                           70 20031 11-18                00001OPNZA                                                      AVIOS3081471038471198        Diedericks                                                                                                                                             AV                  00000000410000000000NOPNZAUBAMR          7038 4Mbps Premium Uncapped 11-18                 
103C2018-11-02T19:59+02:00                                                                           70 20042 11-18 Monthly        00001OPNZA                                                      AVIOS3081471041387167        Swanepoel                                                                                                                                              AV                  00000000580000000000NOPNZAFIBRT          0  11-18 Monthly                                  
103C2018-11-02T19:59+02:00                                                                           70 20069 11-18 Monthly        00001OPNZA                                                      AVIOS3081471040975905        Botha                                                                                                                                                  AV                  00000000900000000000NOPNZAFIBRT          0  11-18 Monthly                                  
103C2018-11-02T19:59+02:00                                                                           70 20070 11-18 Monthly        00001OPNZA                                                      AVIOS3081471041561159        Macaskill                                                                                                                                              AV                  00000000920000000000NOPNZAMMDPS          0  11-18 Monthly                                  
103C2018-11-02T19:59+02:00                                                                           70 20065 11-18 Monthly        00001OPNZA                                                      AVIOS3081471042246263        Kirby                                                                                                                                                  AV                  00000000900000000000NOPNZAMMDPS          0  11-18 Monthly                                  
103C2018-11-02T19:59+02:00                                                                           70 20080 11-18 Monthly        00001OPNZA                                                      AVIOS3081471041622431        Schoevers                                                                                                                                              AV                  00000000900000000000NOPNZAMMDPS          0  11-18 Monthly                                  
103C2018-11-02T19:59+02:00                                                                           70 16473 11-18                00001OPNZA                                                      BAEC 14073664                Riddle                                                                                                                                                 AV                  00000001260000000000NOPNZAUBAMR          7046 10Mbps Business Uncapped 11-18               
103C2018-11-02T19:59+02:00                                                                           70 20095 11-18 Monthly        00001OPNZA                                                      BAEC 19569120                Coetzee                                                                                                                                                AV                  00000000900000000000NOPNZAMMDPS          0  11-18 Monthly                                  
103C2018-11-02T19:59+02:00                                                                           70 20093 11-18                00001OPNZA                                                      AVIOS3081471041578088        Klinker                                                                                                                                                AV                  00000000630000000000NOPNZAUBAMR          7040 10Mbps Premium Uncapped 11-18                
103C2018-11-02T19:59+02:00                                                                           70 20112 11-18 Monthly        00001OPNZA                                                      BAEC 15842738                Banwell                                                                                                                                                AV                  00000001420000000000NOPNZAMMDPS          0  11-18 Monthly                                  
103C2018-11-02T19:59+02:00                                                                           70 20123 11-18 Monthly        00001OPNZA                                                      AVIOS3081471142756617        October                                                                                                                                                AV                  00000000900000000000NOPNZAFIBRT          0  11-18 Monthly                                  
103C2018-11-02T19:59+02:00                                                                           70 20124 11-18 Monthly        00001OPNZA                                                      AVIOS3081471043826956        Slabbert                                                                                                                                               AV                  00000000580000000000NOPNZAMMDPS          0  11-18 Monthly                                  
103C2018-11-02T19:59+02:00                                                                           70 20140 11-18 Monthly        00001OPNZA                                                      AVIOS3081471042241983        Mcwatts                                                                                                                                                AV                  00000000580000000000NOPNZAMMDPS          0  11-18 Monthly                                  
103C2018-11-02T19:59+02:00                                                                           70 20150 11-18 Monthly        00001OPNZA                                                      BAEC 17666373                Swart                                                                                                                                                  AV                  00000000580000000000NOPNZAMMDPS          0  11-18 Monthly                                  
103C2018-11-02T19:59+02:00                                                                           70 20151 11-18 Monthly        00001OPNZA                                                      AVIOS3081471041970806        van Rooyen                                                                                                                                             AV                  00000001420000000000NOPNZAMMDPS          0  11-18 Monthly                                  
103C2018-11-02T19:59+02:00                                                                           70 20153 11-18 Monthly        00001OPNZA                                                      AVIOS3081471037202404        Hugo                                                                                                                                                   AV                  00000000580000000000NOPNZAMMDPS          0  11-18 Monthly                                  
103C2018-11-02T19:59+02:00                                                                           70 20164 11-18 Monthly        00001OPNZA                                                      AVIOS3081471042065671        Westley                                                                                                                                                AV                  00000000580000000000NOPNZAMMDPS          0  11-18 Monthly                                  
103C2018-11-02T19:59+02:00                                                                           70 20186 11-18 Monthly        00001OPNZA                                                      AVIOS3081471042178243        Loots                                                                                                                                                  AV                  00000001420000000000NOPNZAMMDPS          0  11-18 Monthly                                  
103C2018-11-02T19:59+02:00                                                                           70 20200 11-18 Monthly        00001OPNZA                                                      AVIOS3081472030503699        Logan                                                                                                                                                  AV                  00000000580000000000NOPNZAMMDPS          0  11-18 Monthly                                  
103C2018-11-02T19:59+02:00                                                                           70 20263 11-18 Monthly        00001OPNZA                                                      AVIOS3081471042586114        Steyn                                                                                                                                                  AV                  00000000820000000000NOPNZAMMDPS          0  11-18 Monthly                                  
103C2018-11-02T19:59+02:00                                                                           70 20214 11-18 Monthly        00001OPNZA                                                      AVIOS3081471042032101        Ungerer                                                                                                                                                AV                  00000002250000000000NOPNZAFIBRT          0  11-18 Monthly                                  
103C2018-11-02T19:59+02:00                                                                           70 20220 11-18 Monthly        00001OPNZA                                                      AVIOS3081471042381466        Venter                                                                                                                                                 AV                  00000001420000000000NOPNZAFIBRT          0  11-18 Monthly                                  
103C2018-11-02T19:59+02:00                                                                           70 20049 11-18 Monthly        00001OPNZA                                                      AVIOS3081471041398883        van Wyk                                                                                                                                                AV                  00000003230000000000NOPNZAFIBRT          0  11-18 Monthly                                  
103C2018-11-02T19:59+02:00                                                                           70 20386 11-18 Monthly        00001OPNZA                                                      AVIOS3081471043227031        Pretorius                                                                                                                                              AV                  00000000890000000000NOPNZAFIBRT          0  11-18 Monthly                                  
103C2018-11-02T19:59+02:00                                                                           70 20285 11-18 Monthly        00001OPNZA                                                      AVIOS3081471042743525        van Jaarsveld                                                                                                                                          AV                  00000000900000000000NOPNZAMMDPS          0  11-18 Monthly                                  
103C2018-11-02T19:59+02:00                                                                           70 19821 11-18 Monthly        00001OPNZA                                                      AVIOS3081471042887967        Carreira                                                                                                                                               AV                  00000001450000000000NOPNZAFIBRT          0  11-18 Monthly                                  
103C2018-11-02T19:59+02:00                                                                           70 20345 11-18 Monthly        00001OPNZA                                                      BAEC 97901448                Cloete                                                                                                                                                 AV                  00000000900000000000NOPNZAMMDPS          0  11-18 Monthly                                  
103C2018-11-02T19:59+02:00                                                                           70 20346 11-18 Monthly        00001OPNZA                                                      AVIOS3081471210086079        Naidoo                                                                                                                                                 AV                  00000001420000000000NOPNZAMMDPS          0  11-18 Monthly                                  
103C2018-11-02T19:59+02:00                                                                           70 20354 11-18 Monthly        00001OPNZA                                                      AVIOS3081471044306735        Zeelie                                                                                                                                                 AV                  00000002420000000000NOPNZAMMDPS          0  11-18 Monthly                                  
103C2018-11-02T19:59+02:00                                                                           70 19439 11-18 Monthly        00001OPNZA                                                      AVIOS3081472024211697        Neve                                                                                                                                                   AV                  00000000920000000000NOPNZAFIBRT          0  11-18 Monthly                                  
103C2018-11-02T19:59+02:00                                                                           70 20509 11-18 Monthly        00001OPNZA                                                      AVIOS3081471044498334        Nunes                                                                                                                                                  AV                  00000000820000000000NOPNZAMMDPS          0  11-18 Monthly                                  
103C2018-11-02T19:59+02:00                                                                           70 20399 11-18 Monthly        00001OPNZA                                                      AVIOS3081471019643930        Botes                                                                                                                                                  AV                  00000000580000000000NOPNZAMMDPS          0  11-18 Monthly                                  
103C2018-11-02T19:59+02:00                                                                           70 20401 11-18 Monthly        00001OPNZA                                                      AVIOS3081471044023215        Muller                                                                                                                                                 AV                  00000000580000000000NOPNZAMMDPS          0  11-18 Monthly                                  
103C2018-11-02T19:59+02:00                                                                           70 20402 11-18 Monthly        00001OPNZA                                                      AVIOS3081472028838677        Fakoe                                                                                                                                                  AV                  00000000580000000000NOPNZAMMDPS          0  11-18 Monthly                                  
103C2018-11-02T19:59+02:00                                                                           70 20097 11-18 Monthly        00001OPNZA                                                      AVIOS3081471028544178        Marais                                                                                                                                                 AV                  00000001970000000000NOPNZAUBFMR          0  11-18 Monthly                                  
103C2018-11-02T19:59+02:00                                                                           70 20431 11-18 Monthly        00001OPNZA                                                      BAEC 15508122                Africa                                                                                                                                                 AV                  00000000420000000000NOPNZAFIBRT          0  11-18 Monthly                                  
103C2018-11-02T19:59+02:00                                                                           70 20435 11-18 Monthly        00001OPNZA                                                      AVIOS3081471043915205        LeRoux                                                                                                                                                 AV                  00000000580000000000NOPNZAFIBRT          0  11-18 Monthly                                  
103C2018-11-02T19:59+02:00                                                                           70 20460 11-18                00001OPNZA                                                      AVIOS3081471044187630        Schepetin                                                                                                                                              AV                  00000000400000000000NOPNZAUBAMR          7016 4Mbps Home Uncapped Special 11-18            
103C2018-11-02T19:59+02:00                                                                           70 19805 11-18 Monthly        00001OPNZA                                                      AVIOSOwen.clark              Clark                                                                                                                                                  AV                  00000000580000000000NOPNZAFIBRT          0  11-18 Monthly                                  
103C2018-11-02T19:59+02:00                                                                           70 20197 11-18 Monthly        00001OPNZA                                                      BAEC 61028655                Thrussell                                                                                                                                              AV                  00000000920000000000NOPNZAFIBRT          0  11-18 Monthly                                  
103C2018-11-02T19:59+02:00                                                                           70 20495 11-18 Monthly        00001OPNZA                                                      AVIOS3081471023839383        Govender                                                                                                                                               AV                  00000000580000000000NOPNZAMMDPS          0  11-18 Monthly                                  
103C2018-11-02T19:59+02:00                                                                           70 20503 11-18 Monthly        00001OPNZA                                                      AVIOS3081471044344819        Neufeld                                                                                                                                                AV                  00000000920000000000NOPNZAFIBRT          0  11-18 Monthly                                  
103C2018-11-02T19:59+02:00                                                                           70 20504 11-18 Monthly        00001OPNZA                                                      AVIOS3081471044465051        Maritz                                                                                                                                                 AV                  00000000580000000000NOPNZAFIBRT          0  11-18 Monthly                                  
103C2018-11-02T19:59+02:00                                                                           70 20511 11-18 Monthly        00001OPNZA                                                      AVIOS3081471044504537        Naidoo                                                                                                                                                 AV                  00000000900000000000NOPNZAMMDPS          0  11-18 Monthly                                  
103C2018-11-02T19:59+02:00                                                                           70 19717 11-18 Monthly        00001OPNZA                                                      AVIOS3081471042843416        waja                                                                                                                                                   AV                  00000000920000000000NOPNZAMMDPS          0  11-18 Monthly                                  
103C2018-11-02T19:59+02:00                                                                           70 20535 11-18 Monthly        00001OPNZA                                                      AVIOS3081471044556123        Brink                                                                                                                                                  AV                  00000000900000000000NOPNZAMMDPS          0  11-18 Monthly                                  
103C2018-11-02T19:59+02:00                                                                           70 20536 11-18 Monthly        00001OPNZA                                                      AVIOS3081472006020710        Grootboom                                                                                                                                              AV                  00000000420000000000NOPNZAFIBRT          0  11-18 Monthly                                  
103C2018-11-02T19:59+02:00                                                                           70 5911 11-18 Monthly         00001OPNZA                                                      BAEC 44250817                Adam                                                                                                                                                   AV                  00000000580000000000NOPNZAMMDPS          0  11-18 Monthly                                  
103C2018-11-02T19:59+02:00                                                                           70 20541 11-18 Monthly        00001OPNZA                                                      AVIOS3081472020472988        Van Zyl                                                                                                                                                AV                  00000000420000000000NOPNZAFIBRT          0  11-18 Monthly                                  
103C2018-11-02T19:59+02:00                                                                           70 20544 11-18 Monthly        00001OPNZA                                                      BAEC 14270517                Patel                                                                                                                                                  AV                  00000000580000000000NOPNZAMMDPS          0  11-18 Monthly                                  
103C2018-11-02T19:59+02:00                                                                           70 20545 11-18 Monthly        00001OPNZA                                                      AVIOS3081472026277571        Nokwe                                                                                                                                                  AV                  00000000900000000000NOPNZAMMDPS          0  11-18 Monthly                                  
103C2018-11-02T19:59+02:00                                                                           70 20547 11-18 Monthly        00001OPNZA                                                      AVIOS3081471044865979        Abraham                                                                                                                                                AV                  00000001420000000000NOPNZAMMDPS          0  11-18 Monthly                                  
103C2018-11-02T19:59+02:00                                                                           70 20553 11-18 Monthly        00001OPNZA                                                      AVIOS3081471143407475        Geyer                                                                                                                                                  AV                  00000000580000000000NOPNZAMMDPS          0  11-18 Monthly                                  
103C2018-11-02T19:59+02:00                                                                           70 19964 11-18 Monthly        00001OPNZA                                                      BAEC 23229913                Nkosi                                                                                                                                                  AV                  00000000580000000000NOPNZAMMDPS          0  11-18 Monthly                                  
103C2018-11-02T19:59+02:00                                                                           70 20419 11-18 Monthly        00001OPNZA                                                      AVIOS3081471043695286        Swanepoel                                                                                                                                              AV                  00000001320000000000NOPNZAFIBRT          0  11-18 Monthly                                  
103C2018-11-02T19:59+02:00                                                                           70 20559 11-18 Monthly        00001OPNZA                                                      BAEC 30592397                Barker                                                                                                                                                 AV                  00000000580000000000NOPNZAMMDPS          0  11-18 Monthly                                  
103C2018-11-02T19:59+02:00                                                                           70 20560 11-18 Monthly        00001OPNZA                                                      AVIOS3081471044945565        Haine                                                                                                                                                  AV                  00000000900000000000NOPNZAMMDPS          0  11-18 Monthly                                  
103C2018-11-02T19:59+02:00                                                                           70 20561 11-18                00001OPNZA                                                      BAEC 11074395                Parker                                                                                                                                                 AV                  00000000980000000000NOPNZAUBAMR          7044 4Mbps Business Uncapped 11-18                
103C2018-11-02T19:59+02:00                                                                           70 20566 11-18 Monthly        00001OPNZA                                                      AVIOS5339160022177011        Meyer                                                                                                                                                  AV                  00000001420000000000NOPNZAMMDPS          0  11-18 Monthly                                  
103C2018-11-02T19:59+02:00                                                                           70 20589 11-18 Monthly        00001OPNZA                                                      BAEC 15973401                Daniels                                                                                                                                                AV                  00000000580000000000NOPNZAMMDPS          0  11-18 Monthly                                  
103C2018-11-02T19:59+02:00                                                                           70 20607 11-18 Monthly        00001OPNZA                                                      AVIOS3081471143414760        Mbusi                                                                                                                                                  AV                  00000000580000000000NOPNZAMMDPS          0  11-18 Monthly                                  
103C2018-11-02T19:59+02:00                                                                           70 20609 11-18 Monthly        00001OPNZA                                                      AVIOS3081471045688982        Van Schalkwyk                                                                                                                                          AV                  00000000580000000000NOPNZAFIBRT          0  11-18 Monthly                                  
103C2018-11-02T19:59+02:00                                                                           70 20630 11-18 Monthly        00001OPNZA                                                      AVIOS3081471045505269        Thyssen                                                                                                                                                AV                  00000000580000000000NOPNZAFIBRT          0  11-18 Monthly                                  
103C2018-11-02T19:59+02:00                                                                           70 20649 11-18 Monthly        00001OPNZA                                                      AVIOS3081472001708236        Aggenbach                                                                                                                                              AV                  00000000900000000000NOPNZAMMDPS          0  11-18 Monthly                                  
103C2018-11-02T19:59+02:00                                                                           70 20657 11-18 Monthly        00001OPNZA                                                      BAEC 15055326                Nicolai                                                                                                                                                AV                  00000001420000000000NOPNZAMMDPS          0  11-18 Monthly                                  
103C2018-11-02T19:59+02:00                                                                           70 20681 11-18 Monthly        00001OPNZA                                                      AVIOS3081471026409812        Ngwane                                                                                                                                                 AV                  00000000420000000000NOPNZAFIBRT          0  11-18 Monthly                                  
103C2018-11-02T19:59+02:00                                                                           70 20695 11-18 Monthly        00001OPNZA                                                      AVIOS3081471046080791        van der Merwe                                                                                                                                          AV                  00000000900000000000NOPNZAFIBRT          0  11-18 Monthly                                  
103C2018-11-02T19:59+02:00                                                                           70 20714 11-18 Monthly        00001OPNZA                                                      BAEC 18609349                Rahiman                                                                                                                                                AV                  00000000500000000000NOPNZAMMDPS          0  11-18 Monthly                                  
90000011100000111000000000000000000014150