000301OPNZA00001ANAINP012002020-04-01T19:32+02:00
103C2020-04-01T19:32+02:00                                                                           126 20011 04-20 Monthly       00001OPNZA                                                      BAEC 203168453               Kedian                                                                                                                                                 AV                  00000001670000000000NOPNZAMMDPS          0  04-20 Monthly                                  
103C2020-04-01T19:32+02:00                                                                           126 20244 04-20 Monthly       00001OPNZA                                                      BAEC 17715301                Nijland                                                                                                                                                AV                  00000000920000000000NOPNZAMMDPS          0  04-20 Monthly                                  
103C2020-04-01T19:32+02:00                                                                           126 19521 04-20               00001OPNZA                                                      BAEC 12570957                Wright                                                                                                                                                 AV                  00000003390000000000NOPNZAFIBMR          7194 R989 - 40Mbps Fibre Line Rental + 300GB Cappe
103C2020-04-01T19:32+02:00                                                                           126 13218 04-20 Monthly       00001OPNZA                                                      BAEC 18423570                Gold                                                                                                                                                   AV                  00000004470000000000NOPNZAUBFMR          0  04-20 Monthly                                  
103C2020-04-01T19:32+02:00                                                                           126 20095 04-20 Monthly       00001OPNZA                                                      BAEC 19569120                Coetzee                                                                                                                                                AV                  00000000900000000000NOPNZAMMDPS          0  04-20 Monthly                                  
103C2020-04-01T19:32+02:00                                                                           126 20399 04-20 Monthly       00001OPNZA                                                      BAEC 17098787                Botes                                                                                                                                                  AV                  00000000580000000000NOPNZAMMDPS          0  04-20 Monthly                                  
103C2020-04-01T19:32+02:00                                                                           126 19805 04-20 Monthly       00001OPNZA                                                      BAEC Owen.clark              Clark                                                                                                                                                  AV                  00000000580000000000NOPNZAMMDPS          0  04-20 Monthly                                  
103C2020-04-01T19:32+02:00                                                                           126 20559 04-20 Monthly       00001OPNZA                                                      BAEC 30592397                Barker                                                                                                                                                 AV                  00000000580000000000NOPNZAMMDPS          0  04-20 Monthly                                  
103C2020-04-01T19:32+02:00                                                                           126 20589 04-20 Monthly       00001OPNZA                                                      BAEC 15973401                Daniels                                                                                                                                                AV                  00000000580000000000NOPNZAMMDPS          0  04-20 Monthly                                  
103C2020-04-01T19:32+02:00                                                                           126 19448 04-20 Monthly       00001OPNZA                                                      BAEC 22595299                Schoeman                                                                                                                                               AV                  00000001970000000000NOPNZAUBFMR          0  04-20 Monthly                                  
103C2020-04-01T19:32+02:00                                                                           126 20653 04-20               00001OPNZA                                                      BAEC 23906846                Bonthuys                                                                                                                                               AV                  00000001970000000000NOPNZAUBFMR          7243 (R789 - 10Mbps Uncapped Fibre Data + Fibre Li
103C2020-04-01T19:32+02:00                                                                           126 21029 04-20 Monthly       00001OPNZA                                                      BAEC 24751479                Weber                                                                                                                                                  AV                  00000000900000000000NOPNZAMMDPS          0  04-20 Monthly                                  
103C2020-04-01T19:32+02:00                                                                           126 22157 04-20 Monthly       00001OPNZA                                                      BAEC 3081471040373978        Greeff                                                                                                                                                 AV                  00000000820000000000NOPNZAMMDPS          0  04-20 Monthly                                  
103C2020-04-01T19:32+02:00                                                                           126 19911 04-20 Monthly       00001OPNZA                                                      BAEC 45464915                Lopes                                                                                                                                                  AV                  00000003600000000000NOPNZAFIBMR          0  04-20 Monthly                                  
103C2020-04-01T19:32+02:00                                                                           126 21919 04-20 Monthly       00001OPNZA                                                      BAEC 18474548                Nel                                                                                                                                                    AV                  00000001370000000000NOPNZAFIBMR          0  04-20 Monthly                                  
103C2020-04-01T19:32+02:00                                                                           126 20263 04-20 Monthly       00001OPNZA                                                      BAEC 24758050                Steyn                                                                                                                                                  AV                  00000001750000000000NOPNZAUBFMR          0  04-20 Monthly                                  
103C2020-04-01T19:32+02:00                                                                           126 21425 04-20 Monthly       00001OPNZA                                                      BAEC 15209015                Barnard                                                                                                                                                AV                  00000000580000000000NOPNZAMMDPS          0  04-20 Monthly                                  
103C2020-04-01T19:32+02:00                                                                           126 22113 04-20 Monthly       00001OPNZA                                                      BAEC 73150052                Flatwell                                                                                                                                               AV                  00000000560000000000NOPNZAMMDPS          0  04-20 Monthly                                  
103C2020-04-01T19:32+02:00                                                                           126 22233 04-20 Monthly       00001OPNZA                                                      BAEC 27093338                Clarke                                                                                                                                                 AV                  00000000400000000000NOPNZAMMDPS          0  04-20 Monthly                                  
103C2020-04-01T19:32+02:00                                                                           126 20431 04-20 Monthly       00001OPNZA                                                      BAEC 15508122                Africa                                                                                                                                                 AV                  00000002730000000000NOPNZAMMDPS          0  04-20 Monthly                                  
103C2020-04-01T19:32+02:00                                                                           126 22244 04-20 Monthly       00001OPNZA                                                      BAEC 26093950                Barnard                                                                                                                                                AV                  00000001500000000000NOPNZAMMDPS          0  04-20 Monthly                                  
103C2020-04-01T19:32+02:00                                                                           126 21786 04-20 Monthly       00001OPNZA                                                      BAEC 26955632                Laas                                                                                                                                                   AV                  00000002500000000000NOPNZAMMDPS          0  04-20 Monthly                                  
103C2020-04-01T19:32+02:00                                                                           126 22370 04-20 Monthly       00001OPNZA                                                      BAEC 17923482                Mangweni                                                                                                                                               AV                  00000000670000000000NOPNZAMMDPS          0  04-20 Monthly                                  
103C2020-04-01T19:32+02:00                                                                           126 19390 04-20 Monthly       00001OPNZA                                                      BAEC 24191231                Grobler                                                                                                                                                AV                  00000000920000000000NOPNZAMMDPS          0  04-20 Monthly                                  
90000002400000024000000000000000000003591