000301OPNZA00001ANAINP005202018-08-24T09:04+02:00
103C2018-08-24T09:04+02:00                                                                           58 20316 08-18 admin          00001OPNZA                                                      AVIOS3081471144532248        Zibula                                                                                                                                                 AV                  00000020000000000000NOPNZAMMDPS          7777 admin reward 08-18 admin                     
103C2018-08-24T09:04+02:00                                                                           58 20401 08-18 admin          00001OPNZA                                                      AVIOS3081471044023215        Muller                                                                                                                                                 AV                  00000020000000000000NOPNZAMMDPS          7777 admin reward 08-18 admin                     
103C2018-08-24T09:04+02:00                                                                           58 20400 08-18 admin          00001OPNZA                                                      AVIOS3081471044212347        Jordaan                                                                                                                                                AV                  00000020000000000000NOPNZAMMDPS          7777 admin reward 08-18 admin                     
90000000300000003000000000000000000006000