000301OPNZA00001ANAINP005802018-10-02T09:41+02:00
103C2018-10-02T09:41+02:00                                                                           64 20240 10-18 Monthly        00001OPNZA                                                      BAEC 60277048                Myburgh                                                                                                                                                AV                  00000000900000000000NOPNZAMMDPS          0  10-18 Monthly                                  
103C2018-10-02T09:41+02:00                                                                           64 20261 10-18 Monthly        00001OPNZA                                                      AVIOS3081471042339985        Joseph                                                                                                                                                 AV                  00000001420000000000NOPNZAMMDPS          0  10-18 Monthly                                  
103C2018-10-02T09:41+02:00                                                                           64 20239 10-18                00001OPNZA                                                      AVIOS3081471041605485        Joubert                                                                                                                                                AV                  00000000860000000000NOPNZAUBAMR          7038 4Mbps Premium Uncapped 10-18                 
103C2018-10-02T09:41+02:00                                                                           64 14785 10-18 Monthly        00001OPNZA                                                      AVIOS3081471038971916        Tsironis                                                                                                                                               AV                  00000012500000000000NOPNZAUBFMR          0  10-18 Monthly                                  
103C2018-10-02T09:41+02:00                                                                           64 18368 10-18                00001OPNZA                                                      AVIOS3081471021053177        (Pty) Ltd                                                                                                                                              AV                  00000000840000000000NOPNZAUBAMR          7039 8Mbps Premium Uncapped 10-18                 
103C2018-10-02T09:41+02:00                                                                           64 19410 10-18 Monthly        00001OPNZA                                                      BAEC 64809343                Wright                                                                                                                                                 AV                  00000007250000000000NOPNZAMMDPS          0  10-18 Monthly                                  
103C2018-10-02T09:41+02:00                                                                           64 20047 10-18 Monthly        00001OPNZA                                                      AVIOS3081472027733077        MAHOMEDY                                                                                                                                               AV                  00000002000000000000NOPNZAMMDPS          0  10-18 Monthly                                  
103C2018-10-02T09:41+02:00                                                                           64 20092 10-18 Monthly        00001OPNZA                                                      AVIOS3081471041603845        van Pype                                                                                                                                               AV                  00000000900000000000NOPNZAFIBRT          0  10-18 Monthly                                  
103C2018-10-02T09:41+02:00                                                                           64 20087 10-18 Monthly        00001OPNZA                                                      AVIOS3081471042287762        Mlotshwa                                                                                                                                               AV                  00000000900000000000NOPNZAFIBRT          0  10-18 Monthly                                  
103C2018-10-02T09:41+02:00                                                                           64 20334 10-18 Monthly        00001OPNZA                                                      AVIOS3081471142989754        Chemaly                                                                                                                                                AV                  00000002250000000000NOPNZAMMDPS          0  10-18 Monthly                                  
103C2018-10-02T09:41+02:00                                                                           64 19668 10-18 Monthly        00001OPNZA                                                      AVIOS3081472029688584        Smith                                                                                                                                                  AV                  00000000920000000000NOPNZAMMDPS          0  10-18 Monthly                                  
103C2018-10-02T09:41+02:00                                                                           64 191 10-18 Monthly          00001OPNZA                                                      AVIOS1234562                 tew12                                                                                                                                                  AV                  00000000250000000000NOPNZAUBFMR          0  10-18 Monthly                                  
103C2018-10-02T09:41+02:00                                                                           64 18996 10-18                00001OPNZA                                                      AVIOS3081471021215214        Vawda                                                                                                                                                  AV                  00000000560000000000NOPNZAUBAMR          7039 8Mbps Premium Uncapped 10-18                 
103C2018-10-02T09:41+02:00                                                                           64 20320 10-18 Monthly        00001OPNZA                                                      AVIOS3081471043063212        Esterhuizen                                                                                                                                            AV                  00000000900000000000NOPNZAFIBRT          0  10-18 Monthly                                  
103C2018-10-02T09:41+02:00                                                                           64 20014 10-18 Monthly        00001OPNZA                                                      BAEC 23384555                Erasmus                                                                                                                                                AV                  00000000580000000000NOPNZAMMDPS          0  10-18 Monthly                                  
103C2018-10-02T09:41+02:00                                                                           64 20244 10-18 Monthly        00001OPNZA                                                      BAEC 17715301                Nijland                                                                                                                                                AV                  00000000920000000000NOPNZAMMDPS          0  10-18 Monthly                                  
103C2018-10-02T09:41+02:00                                                                           64 20218 10-18                00001OPNZA                                                      AVIOS3081471029026811        Arendse                                                                                                                                                AV                  00000000410000000000NOPNZAUBAMR          7038 4Mbps Premium Uncapped 10-18                 
103C2018-10-02T09:41+02:00                                                                           64 15208 10-18 Monthly        00001OPNZA                                                      AVIOS3081471037262895        Badenhorst                                                                                                                                             AV                  00000001670000000000NOPNZAMMDPS          0  10-18 Monthly                                  
103C2018-10-02T09:41+02:00                                                                           64 19348 10-18 Monthly        00001OPNZA                                                      BAEC 21273431                Thompson                                                                                                                                               AV                  00000001650000000000NOPNZAUBFMR          0  10-18 Monthly                                  
103C2018-10-02T09:41+02:00                                                                           64 19320 10-18 Monthly        00001OPNZA                                                      AVIOS3081471035552875        Pelzer                                                                                                                                                 AV                  00000001330000000000NOPNZAMMDPS          0  10-18 Monthly                                  
103C2018-10-02T09:41+02:00                                                                           64 19422 10-18                00001OPNZA                                                      BAEC 19282203                Steenkamp                                                                                                                                              AV                  00000000560000000000NOPNZAUBAMR          7038 4Mbps Premium Uncapped 10-18                 
103C2018-10-02T09:41+02:00                                                                           64 19521 10-18                00001OPNZA                                                      BAEC 12570957                Wright                                                                                                                                                 AV                  00000003390000000000NOPNZAFIBMR          7194 R989 - 40Mbps Fibre Line Rental + 300GB Cappe
103C2018-10-02T09:41+02:00                                                                           64 13046 10-18 Monthly        00001OPNZA                                                      BAEC 25922325                Barnard                                                                                                                                                AV                  00000004720000000000NOPNZAUBFMR          0  10-18 Monthly                                  
103C2018-10-02T09:41+02:00                                                                           64 17942 10-18 Monthly        00001OPNZA                                                      AVIOS3081472030080649        Venter                                                                                                                                                 AV                  00000000500000000000NOPNZAMMDPS          0  10-18 Monthly                                  
103C2018-10-02T09:41+02:00                                                                           64 19488 10-18 Monthly        00001OPNZA                                                      AVIOS3081472024934512        brink                                                                                                                                                  AV                  00000000500000000000NOPNZAMMDPS          0  10-18 Monthly                                  
103C2018-10-02T09:41+02:00                                                                           64 19154 10-18 Monthly        00001OPNZA                                                      AVIOS3081471040231200        Magee                                                                                                                                                  AV                  00000000500000000000NOPNZAMMDPS          0  10-18 Monthly                                  
103C2018-10-02T09:41+02:00                                                                           64 19266 10-18 Monthly        00001OPNZA                                                      AVIOS3081471036135324        Kubheka                                                                                                                                                AV                  00000000500000000000NOPNZAMMDPS          0  10-18 Monthly                                  
103C2018-10-02T09:41+02:00                                                                           64 19111 10-18 Monthly        00001OPNZA                                                      AVIOS3081471022641129        Sonbadhar                                                                                                                                              AV                  00000000920000000000NOPNZAMMDPS          0  10-18 Monthly                                  
103C2018-10-02T09:41+02:00                                                                           64 8524 10-18 Monthly         00001OPNZA                                                      AVIOS3081471037241238        Goncalves                                                                                                                                              AV                  00000001720000000000NOPNZAFIBMR          0  10-18 Monthly                                  
103C2018-10-02T09:41+02:00                                                                           64 19238 10-18 Monthly        00001OPNZA                                                      BAEC 18336986                Arnab                                                                                                                                                  AV                  00000001670000000000NOPNZAMMDPS          0  10-18 Monthly                                  
103C2018-10-02T09:41+02:00                                                                           64 19542 10-18 Monthly        00001OPNZA                                                      AVIOS3081472008507086        du Plessis                                                                                                                                             AV                  00000000500000000000NOPNZAMMDPS          0  10-18 Monthly                                  
103C2018-10-02T09:41+02:00                                                                           64 13047 10-18 Monthly        00001OPNZA                                                      BAEC 19082400                Storer                                                                                                                                                 AV                  00000000560000000000NOPNZAUBAMR          7038 4Mbps Premium Uncapped 10-18 Monthly         
103C2018-10-02T09:41+02:00                                                                           64 19634 10-18 Monthly        00001OPNZA                                                      BAEC 15420269                Kyzer                                                                                                                                                  AV                  00000000920000000000NOPNZAMMDPS          0  10-18 Monthly                                  
103C2018-10-02T09:41+02:00                                                                           64 19699 10-18 Monthly        00001OPNZA                                                      AVIOS3081471038661319        Blignaut                                                                                                                                               AV                  00000000900000000000NOPNZAMMDPS          0  10-18 Monthly                                  
103C2018-10-02T09:41+02:00                                                                           64 19697 10-18 Monthly        00001OPNZA                                                      AVIOS3081471039203137        Ayoob                                                                                                                                                  AV                  00000000580000000000NOPNZAFIBRT          0  10-18 Monthly                                  
103C2018-10-02T09:41+02:00                                                                           64 19237 10-18 Monthly        00001OPNZA                                                      AVIOS3081471043993590        Wahlstrand                                                                                                                                             AV                  00000000500000000000NOPNZAMMDPS          0  10-18 Monthly                                  
103C2018-10-02T09:41+02:00                                                                           64 19708 10-18 Monthly        00001OPNZA                                                      AVIOS3081471039161616        Geel                                                                                                                                                   AV                  00000001420000000000NOPNZAFIBRT          0  10-18 Monthly                                  
103C2018-10-02T09:41+02:00                                                                           64 13292 10-18 Monthly        00001OPNZA                                                      BAEC 10428689                Nefdt                                                                                                                                                  AV                  00000001420000000000NOPNZAFIBRT          0  10-18 Monthly                                  
103C2018-10-02T09:41+02:00                                                                           64 19702 10-18 Monthly        00001OPNZA                                                      AVIOS3081471039103089        Ribombo                                                                                                                                                AV                  00000000500000000000NOPNZAMMDPS          0  10-18 Monthly                                  
103C2018-10-02T09:41+02:00                                                                           64 19758 10-18 Monthly        00001OPNZA                                                      AVIOS202943850               Pather                                                                                                                                                 AV                  00000000580000000000NOPNZAMMDPS          0  10-18 Monthly                                  
103C2018-10-02T09:41+02:00                                                                           64 19806 10-18 Monthly        00001OPNZA                                                      AVIOS3081471039665772        Jordan                                                                                                                                                 AV                  00000000580000000000NOPNZAMMDPS          0  10-18 Monthly                                  
103C2018-10-02T09:41+02:00                                                                           64 13218 10-18 Monthly        00001OPNZA                                                      BAEC 49929245                Kurgan                                                                                                                                                 AV                  00000004470000000000NOPNZAUBFMR          0  10-18 Monthly                                  
103C2018-10-02T09:41+02:00                                                                           64 19863 10-18 Monthly        00001OPNZA                                                      AVIOS3081471034482835        Paillard                                                                                                                                               AV                  00000000900000000000NOPNZAFIBRT          0  10-18 Monthly                                  
103C2018-10-02T09:41+02:00                                                                           64 19925 10-18 Monthly        00001OPNZA                                                      AVIOS3081471037418133        Williams                                                                                                                                               AV                  00000002670000000000NOPNZAMMDPS          0  10-18 Monthly                                  
103C2018-10-02T09:41+02:00                                                                           64 19935 10-18                00001OPNZA                                                      AVIOS3081471037262309        Martins                                                                                                                                                AV                  00000000980000000000NOPNZAUBAMR          7188 4Mbps Business Uncapped + 1 Static IP 10-18  
103C2018-10-02T09:41+02:00                                                                           64 19949 10-18 Monthly        00001OPNZA                                                      AVIOS3081471039379036        Janse van Rensburg                                                                                                                                     AV                  00000001970000000000NOPNZAFIBRT          0  10-18 Monthly                                  
103C2018-10-02T09:41+02:00                                                                           64 19970 10-18 Monthly        00001OPNZA                                                      AVIOS3081471044111879        Duffy                                                                                                                                                  AV                  00000000580000000000NOPNZAMMDPS          0  10-18 Monthly                                  
103C2018-10-02T09:41+02:00                                                                           64 20011 10-18 Monthly        00001OPNZA                                                      AVIOS203168453               Kedian                                                                                                                                                 AV                  00000001670000000000NOPNZAMMDPS          0  10-18 Monthly                                  
103C2018-10-02T09:41+02:00                                                                           64 20031 10-18                00001OPNZA                                                      AVIOS3081471038471198        Diedericks                                                                                                                                             AV                  00000000410000000000NOPNZAUBAMR          7038 4Mbps Premium Uncapped 10-18                 
103C2018-10-02T09:41+02:00                                                                           64 20042 10-18 Monthly        00001OPNZA                                                      AVIOS3081471041387167        Swanepoel                                                                                                                                              AV                  00000000580000000000NOPNZAFIBRT          0  10-18 Monthly                                  
103C2018-10-02T09:41+02:00                                                                           64 20069 10-18 Monthly        00001OPNZA                                                      AVIOS3081471040975905        Botha                                                                                                                                                  AV                  00000000900000000000NOPNZAFIBRT          0  10-18 Monthly                                  
103C2018-10-02T09:41+02:00                                                                           64 20070 10-18 Monthly        00001OPNZA                                                      AVIOS3081471041561159        Macaskill                                                                                                                                              AV                  00000000920000000000NOPNZAMMDPS          0  10-18 Monthly                                  
103C2018-10-02T09:41+02:00                                                                           64 20065 10-18 Monthly        00001OPNZA                                                      AVIOS3081471042246263        Kirby                                                                                                                                                  AV                  00000000900000000000NOPNZAMMDPS          0  10-18 Monthly                                  
103C2018-10-02T09:41+02:00                                                                           64 20080 10-18 Monthly        00001OPNZA                                                      AVIOS3081471041622431        Schoevers                                                                                                                                              AV                  00000000900000000000NOPNZAMMDPS          0  10-18 Monthly                                  
103C2018-10-02T09:41+02:00                                                                           64 16473 10-18                00001OPNZA                                                      BAEC 14073664                Riddle                                                                                                                                                 AV                  00000001260000000000NOPNZAUBAMR          7046 10Mbps Business Uncapped 10-18               
103C2018-10-02T09:41+02:00                                                                           64 20095 10-18 Monthly        00001OPNZA                                                      BAEC 19569120                Coetzee                                                                                                                                                AV                  00000000900000000000NOPNZAMMDPS          0  10-18 Monthly                                  
103C2018-10-02T09:41+02:00                                                                           64 20093 10-18                00001OPNZA                                                      AVIOS3081471041578088        Klinker                                                                                                                                                AV                  00000000630000000000NOPNZAUBAMR          7040 10Mbps Premium Uncapped 10-18                
103C2018-10-02T09:41+02:00                                                                           64 20112 10-18 Monthly        00001OPNZA                                                      BAEC 15842738                Banwell                                                                                                                                                AV                  00000001420000000000NOPNZAMMDPS          0  10-18 Monthly                                  
103C2018-10-02T09:41+02:00                                                                           64 20123 10-18 Monthly        00001OPNZA                                                      AVIOS3081471142756617        October                                                                                                                                                AV                  00000000900000000000NOPNZAFIBRT          0  10-18 Monthly                                  
103C2018-10-02T09:41+02:00                                                                           64 20124 10-18 Monthly        00001OPNZA                                                      AVIOS3081471043826956        Slabbert                                                                                                                                               AV                  00000000580000000000NOPNZAMMDPS          0  10-18 Monthly                                  
103C2018-10-02T09:41+02:00                                                                           64 20140 10-18 Monthly        00001OPNZA                                                      AVIOS3081471042241983        Mcwatts                                                                                                                                                AV                  00000000580000000000NOPNZAMMDPS          0  10-18 Monthly                                  
103C2018-10-02T09:41+02:00                                                                           64 20150 10-18 Monthly        00001OPNZA                                                      BAEC 17666373                Swart                                                                                                                                                  AV                  00000000580000000000NOPNZAMMDPS          0  10-18 Monthly                                  
103C2018-10-02T09:41+02:00                                                                           64 20151 10-18 Monthly        00001OPNZA                                                      AVIOS3081471041970806        van Rooyen                                                                                                                                             AV                  00000001420000000000NOPNZAMMDPS          0  10-18 Monthly                                  
103C2018-10-02T09:41+02:00                                                                           64 20153 10-18 Monthly        00001OPNZA                                                      AVIOS3081471037202404        Hugo                                                                                                                                                   AV                  00000000580000000000NOPNZAMMDPS          0  10-18 Monthly                                  
103C2018-10-02T09:41+02:00                                                                           64 20164 10-18 Monthly        00001OPNZA                                                      AVIOS3081471042065671        Westley                                                                                                                                                AV                  00000000580000000000NOPNZAMMDPS          0  10-18 Monthly                                  
103C2018-10-02T09:41+02:00                                                                           64 20200 10-18 Monthly        00001OPNZA                                                      AVIOS3081472030503699        Logan                                                                                                                                                  AV                  00000000580000000000NOPNZAMMDPS          0  10-18 Monthly                                  
103C2018-10-02T09:41+02:00                                                                           64 20262 10-18 Monthly        00001OPNZA                                                      AVIOS3081471031097602        Aaron                                                                                                                                                  AV                  00000000580000000000NOPNZAMMDPS          0  10-18 Monthly                                  
103C2018-10-02T09:41+02:00                                                                           64 20263 10-18 Monthly        00001OPNZA                                                      AVIOS3081471042586114        Steyn                                                                                                                                                  AV                  00000000580000000000NOPNZAFIBRT          0  10-18 Monthly                                  
103C2018-10-02T09:41+02:00                                                                           64 20214 10-18 Monthly        00001OPNZA                                                      AVIOS3081471042032101        Ungerer                                                                                                                                                AV                  00000002250000000000NOPNZAFIBRT          0  10-18 Monthly                                  
103C2018-10-02T09:41+02:00                                                                           64 20220 10-18 Monthly        00001OPNZA                                                      AVIOS3081471042381466        Venter                                                                                                                                                 AV                  00000001420000000000NOPNZAFIBRT          0  10-18 Monthly                                  
103C2018-10-02T09:41+02:00                                                                           64 20049 10-18 Monthly        00001OPNZA                                                      AVIOS3081471041398883        van Wyk                                                                                                                                                AV                  00000003230000000000NOPNZAFIBRT          0  10-18 Monthly                                  
103C2018-10-02T09:41+02:00                                                                           64 20386 10-18 Monthly        00001OPNZA                                                      AVIOS3081471043227031        Pretorius                                                                                                                                              AV                  00000000900000000000NOPNZAFIBRT          0  10-18 Monthly                                  
103C2018-10-02T09:41+02:00                                                                           64 20285 10-18 Monthly        00001OPNZA                                                      AVIOS3081471042743525        van Jaarsveld                                                                                                                                          AV                  00000000900000000000NOPNZAMMDPS          0  10-18 Monthly                                  
103C2018-10-02T09:41+02:00                                                                           64 19821 10-18 Monthly        00001OPNZA                                                      AVIOS3081471042887967        Carreira                                                                                                                                               AV                  00000001700000000000NOPNZAUBFMR          0  10-18 Monthly                                  
103C2018-10-02T09:41+02:00                                                                           64 20346 10-18 Monthly        00001OPNZA                                                      AVIOS3081471210086079        Naidoo                                                                                                                                                 AV                  00000001420000000000NOPNZAMMDPS          0  10-18 Monthly                                  
103C2018-10-02T09:41+02:00                                                                           64 20354 10-18 Monthly        00001OPNZA                                                      AVIOS3081471044306735        Zeelie                                                                                                                                                 AV                  00000002420000000000NOPNZAMMDPS          0  10-18 Monthly                                  
103C2018-10-02T09:41+02:00                                                                           64 19439 10-18 Monthly        00001OPNZA                                                      AVIOS3081472024211697        Neve                                                                                                                                                   AV                  00000000920000000000NOPNZAFIBRT          0  10-18 Monthly                                  
103C2018-10-02T09:41+02:00                                                                           64 20509 10-18 Monthly        00001OPNZA                                                      AVIOS3081471044498334        Nunes                                                                                                                                                  AV                  00000000580000000000NOPNZAFIBRT          0  10-18 Monthly                                  
103C2018-10-02T09:41+02:00                                                                           64 20399 10-18 Monthly        00001OPNZA                                                      AVIOS3081471019643930        Botes                                                                                                                                                  AV                  00000000580000000000NOPNZAMMDPS          0  10-18 Monthly                                  
103C2018-10-02T09:41+02:00                                                                           64 20400 10-18 Monthly        00001OPNZA                                                      AVIOS3081471044212347        Jordaan                                                                                                                                                AV                  00000000580000000000NOPNZAMMDPS          0  10-18 Monthly                                  
103C2018-10-02T09:41+02:00                                                                           64 20401 10-18 Monthly        00001OPNZA                                                      AVIOS3081471044023215        Muller                                                                                                                                                 AV                  00000000580000000000NOPNZAMMDPS          0  10-18 Monthly                                  
103C2018-10-02T09:41+02:00                                                                           64 20402 10-18 Monthly        00001OPNZA                                                      AVIOS3081472028838677        Fakoe                                                                                                                                                  AV                  00000000580000000000NOPNZAMMDPS          0  10-18 Monthly                                  
103C2018-10-02T09:41+02:00                                                                           64 20409 10-18                00001OPNZA                                                      AVIOS102525341               Botha                                                                                                                                                  AV                  00000000560000000000NOPNZAUBAMR          7039 8Mbps Premium Uncapped 10-18                 
103C2018-10-02T09:41+02:00                                                                           64 20097 10-18 Monthly        00001OPNZA                                                      AVIOS3081471028544178        Marais                                                                                                                                                 AV                  00000001970000000000NOPNZAUBFMR          0  10-18 Monthly                                  
103C2018-10-02T09:41+02:00                                                                           64 20431 10-18 Monthly        00001OPNZA                                                      BAEC 15508122                Africa                                                                                                                                                 AV                  00000000420000000000NOPNZAFIBRT          0  10-18 Monthly                                  
103C2018-10-02T09:41+02:00                                                                           64 20435 10-18 Monthly        00001OPNZA                                                      AVIOS3081471043915205        LeRoux                                                                                                                                                 AV                  00000000820000000000NOPNZAMMDPS          0  10-18 Monthly                                  
103C2018-10-02T09:41+02:00                                                                           64 20316 10-18 Monthly        00001OPNZA                                                      AVIOS3081471144532248        Zibula                                                                                                                                                 AV                  00000000580000000000NOPNZAMMDPS          0  10-18 Monthly                                  
103C2018-10-02T09:41+02:00                                                                           64 19805 10-18 Monthly        00001OPNZA                                                      AVIOSOwen.clark              Clark                                                                                                                                                  AV                  00000000580000000000NOPNZAFIBRT          0  10-18 Monthly                                  
103C2018-10-02T09:41+02:00                                                                           64 20197 10-18 Monthly        00001OPNZA                                                      BAEC 61028655                Thrussell                                                                                                                                              AV                  00000000920000000000NOPNZAMMDPS          0  10-18 Monthly                                  
103C2018-10-02T09:41+02:00                                                                           64 20495 10-18 Monthly        00001OPNZA                                                      AVIOS3081471023839383        Govender                                                                                                                                               AV                  00000000580000000000NOPNZAMMDPS          0  10-18 Monthly                                  
103C2018-10-02T09:41+02:00                                                                           64 20503 10-18 Monthly        00001OPNZA                                                      AVIOS3081471044344819        Neufeld                                                                                                                                                AV                  00000000920000000000NOPNZAMMDPS          0  10-18 Monthly                                  
103C2018-10-02T09:41+02:00                                                                           64 20504 10-18 Monthly        00001OPNZA                                                      AVIOS3081471044465051        Maritz                                                                                                                                                 AV                  00000000580000000000NOPNZAFIBRT          0  10-18 Monthly                                  
103C2018-10-02T09:41+02:00                                                                           64 20511 10-18 Monthly        00001OPNZA                                                      AVIOS3081471044504537        Naidoo                                                                                                                                                 AV                  00000000900000000000NOPNZAMMDPS          0  10-18 Monthly                                  
103C2018-10-02T09:41+02:00                                                                           64 20512 10-18 Monthly        00001OPNZA                                                      AVIOSOW53504                 Ferror                                                                                                                                                 AV                  00000000580000000000NOPNZAMMDPS          0  10-18 Monthly                                  
103C2018-10-02T09:41+02:00                                                                           64 19717 10-18 Monthly        00001OPNZA                                                      AVIOS3081471042843416        waja                                                                                                                                                   AV                  00000000920000000000NOPNZAMMDPS          0  10-18 Monthly                                  
103C2018-10-02T09:41+02:00                                                                           64 20535 10-18 Monthly        00001OPNZA                                                      AVIOS3081471044556123        Brink                                                                                                                                                  AV                  00000000900000000000NOPNZAMMDPS          0  10-18 Monthly                                  
103C2018-10-02T09:41+02:00                                                                           64 20536 10-18 Monthly        00001OPNZA                                                      AVIOS3081472006020710        Grootboom                                                                                                                                              AV                  00000000420000000000NOPNZAFIBRT          0  10-18 Monthly                                  
103C2018-10-02T09:41+02:00                                                                           64 5911 10-18 Monthly         00001OPNZA                                                      BAEC 44250817                Adam                                                                                                                                                   AV                  00000000410000000000NOPNZAFIBRT          0  10-18 Monthly                                  
103C2018-10-02T09:41+02:00                                                                           64 20541 10-18 Monthly        00001OPNZA                                                      AVIOS3081472020472988        Van Zyl                                                                                                                                                AV                  00000000900000000000NOPNZAFIBRT          0  10-18 Monthly                                  
103C2018-10-02T09:41+02:00                                                                           64 20543 10-18 Monthly        00001OPNZA                                                      AVIOS3081471037610994        Huard                                                                                                                                                  AV                  00000001420000000000NOPNZAMMDPS          0  10-18 Monthly                                  
103C2018-10-02T09:41+02:00                                                                           64 20544 10-18 Monthly        00001OPNZA                                                      BAEC 14270517                Patel                                                                                                                                                  AV                  00000000580000000000NOPNZAMMDPS          0  10-18 Monthly                                  
103C2018-10-02T09:41+02:00                                                                           64 20545 10-18 Monthly        00001OPNZA                                                      AVIOS3081472026277571        Nokwe                                                                                                                                                  AV                  00000000900000000000NOPNZAMMDPS          0  10-18 Monthly                                  
103C2018-10-02T09:41+02:00                                                                           64 20547 10-18 Monthly        00001OPNZA                                                      AVIOS3081471044865979        Abraham                                                                                                                                                AV                  00000001420000000000NOPNZAMMDPS          0  10-18 Monthly                                  
103C2018-10-02T09:41+02:00                                                                           64 20553 10-18 Monthly        00001OPNZA                                                      AVIOS3081471143407475        Geyer                                                                                                                                                  AV                  00000000580000000000NOPNZAMMDPS          0  10-18 Monthly                                  
103C2018-10-02T09:41+02:00                                                                           64 19964 10-18 Monthly        00001OPNZA                                                      BAEC 23229913                Nkosi                                                                                                                                                  AV                  00000000580000000000NOPNZAMMDPS          0  10-18 Monthly                                  
103C2018-10-02T09:41+02:00                                                                           64 20419 10-18 Monthly        00001OPNZA                                                      AVIOS3081471043695286        Swanepoel                                                                                                                                              AV                  00000001970000000000NOPNZAFIBMR          0  10-18 Monthly                                  
103C2018-10-02T09:41+02:00                                                                           64 20559 10-18 Monthly        00001OPNZA                                                      BAEC 30592397                Barker                                                                                                                                                 AV                  00000000580000000000NOPNZAMMDPS          0  10-18 Monthly                                  
103C2018-10-02T09:41+02:00                                                                           64 20560 10-18 Monthly        00001OPNZA                                                      AVIOS3081471044945565        Haine                                                                                                                                                  AV                  00000000900000000000NOPNZAMMDPS          0  10-18 Monthly                                  
103C2018-10-02T09:41+02:00                                                                           64 20561 10-18                00001OPNZA                                                      BAEC 11074395                Parker                                                                                                                                                 AV                  00000000780000000000NOPNZAUBAMR          7041 20Mbps Premium Uncapped 10-18                
103C2018-10-02T09:41+02:00                                                                           64 20589 10-18 Monthly        00001OPNZA                                                      BAEC 15973401                Daniels                                                                                                                                                AV                  00000000580000000000NOPNZAMMDPS          0  10-18 Monthly                                  
103C2018-10-02T09:41+02:00                                                                           64 86 10-18 admin             00001OPNZA                                                      BAEC 61608378                Wright                                                                                                                                                 AV                  00000295220000000000NOPNZAMMDPS          7777 admin reward 10-18 admin                     
90000011100000111000000000000000000042800