000301OPNZA00001ANAINP007002018-12-04T16:42+02:00
103C2018-12-04T16:42+02:00                                                                           76 18368 12-18                00001OPNZA                                                      AVIOS3081471021053177        (Pty) Ltd                                                                                                                                              AV                  00000000840000000000NOPNZAUBAMR          7039 8Mbps Premium Uncapped 12-18                 
103C2018-12-04T16:42+02:00                                                                           76 19410 12-18 Monthly        00001OPNZA                                                      BAEC 64809343                Wright                                                                                                                                                 AV                  00000007250000000000NOPNZAMMDPS          0  12-18 Monthly                                  
103C2018-12-04T16:42+02:00                                                                           76 20047 12-18 Monthly        00001OPNZA                                                      AVIOS3081472027733077        MAHOMEDY                                                                                                                                               AV                  00000002000000000000NOPNZAMMDPS          0  12-18 Monthly                                  
103C2018-12-04T16:42+02:00                                                                           76 20092 12-18 Monthly        00001OPNZA                                                      AVIOS3081471041603845        van Pype                                                                                                                                               AV                  00000000900000000000NOPNZAFIBRT          0  12-18 Monthly                                  
103C2018-12-04T16:42+02:00                                                                           76 20087 12-18 Monthly        00001OPNZA                                                      AVIOS3081471042287762        Mlotshwa                                                                                                                                               AV                  00000000900000000000NOPNZAFIBRT          0  12-18 Monthly                                  
103C2018-12-04T16:42+02:00                                                                           76 20334 12-18 Monthly        00001OPNZA                                                      AVIOS3081471142989754        Chemaly                                                                                                                                                AV                  00000002250000000000NOPNZAMMDPS          0  12-18 Monthly                                  
103C2018-12-04T16:42+02:00                                                                           76 19668 12-18 Monthly        00001OPNZA                                                      AVIOS3081472029688584        Smith                                                                                                                                                  AV                  00000000920000000000NOPNZAMMDPS          0  12-18 Monthly                                  
103C2018-12-04T16:42+02:00                                                                           76 191 12-18 Monthly          00001OPNZA                                                      AVIOS1234562                 tew12                                                                                                                                                  AV                  00000000250000000000NOPNZAUBFMR          0  12-18 Monthly                                  
103C2018-12-04T16:42+02:00                                                                           76 20320 12-18 Monthly        00001OPNZA                                                      AVIOS3081471043063212        Esterhuizen                                                                                                                                            AV                  00000000900000000000NOPNZAFIBRT          0  12-18 Monthly                                  
103C2018-12-04T16:42+02:00                                                                           76 20014 12-18 Monthly        00001OPNZA                                                      BAEC 23384555                Erasmus                                                                                                                                                AV                  00000000580000000000NOPNZAMMDPS          0  12-18 Monthly                                  
103C2018-12-04T16:42+02:00                                                                           76 19981 12-18 Monthly        00001OPNZA                                                      AVIOS3081471040873464        Cronje                                                                                                                                                 AV                  00000000580000000000NOPNZAMMDPS          0  12-18 Monthly                                  
103C2018-12-04T16:42+02:00                                                                           76 20244 12-18 Monthly        00001OPNZA                                                      BAEC 17715301                Nijland                                                                                                                                                AV                  00000000920000000000NOPNZAMMDPS          0  12-18 Monthly                                  
103C2018-12-04T16:42+02:00                                                                           76 20218 12-18                00001OPNZA                                                      AVIOS3081471029026811        Arendse                                                                                                                                                AV                  00000000410000000000NOPNZAUBAMR          7038 4Mbps Premium Uncapped 12-18                 
103C2018-12-04T16:42+02:00                                                                           76 15208 12-18 Monthly        00001OPNZA                                                      AVIOS3081471037262895        Badenhorst                                                                                                                                             AV                  00000001670000000000NOPNZAMMDPS          0  12-18 Monthly                                  
103C2018-12-04T16:42+02:00                                                                           76 19348 12-18 Monthly        00001OPNZA                                                      BAEC 21273431                Thompson                                                                                                                                               AV                  00000001650000000000NOPNZAFIBRT          0  12-18 Monthly                                  
103C2018-12-04T16:42+02:00                                                                           76 19358 12-18 Monthly        00001OPNZA                                                      AVIOS3081471042147339        Kruger                                                                                                                                                 AV                  00000002250000000000NOPNZAMMDPS          0  12-18 Monthly                                  
103C2018-12-04T16:42+02:00                                                                           76 19320 12-18 Monthly        00001OPNZA                                                      AVIOS3081471035552875        Pelzer                                                                                                                                                 AV                  00000001330000000000NOPNZAMMDPS          0  12-18 Monthly                                  
103C2018-12-04T16:42+02:00                                                                           76 19422 12-18                00001OPNZA                                                      BAEC 19282203                Steenkamp                                                                                                                                              AV                  00000000560000000000NOPNZAUBAMR          7038 4Mbps Premium Uncapped 12-18                 
103C2018-12-04T16:42+02:00                                                                           76 19521 12-18                00001OPNZA                                                      BAEC 12570957                Wright                                                                                                                                                 AV                  00000003390000000000NOPNZAFIBMR          7194 R989 - 40Mbps Fibre Line Rental + 300GB Cappe
103C2018-12-04T16:42+02:00                                                                           76 13046 12-18 Monthly        00001OPNZA                                                      BAEC 25922325                Barnard                                                                                                                                                AV                  00000004720000000000NOPNZAUBFMR          0  12-18 Monthly                                  
103C2018-12-04T16:42+02:00                                                                           76 17942 12-18 Monthly        00001OPNZA                                                      AVIOS3081472030080649        Venter                                                                                                                                                 AV                  00000000500000000000NOPNZAMMDPS          0  12-18 Monthly                                  
103C2018-12-04T16:42+02:00                                                                           76 19481 12-18 Monthly        00001OPNZA                                                      AVIOS3081471046234158        Catzavelos                                                                                                                                             AV                  00000000580000000000NOPNZAMMDPS          0  12-18 Monthly                                  
103C2018-12-04T16:42+02:00                                                                           76 19488 12-18 Monthly        00001OPNZA                                                      AVIOS3081472024934512        brink                                                                                                                                                  AV                  00000000500000000000NOPNZAMMDPS          0  12-18 Monthly                                  
103C2018-12-04T16:42+02:00                                                                           76 19154 12-18 Monthly        00001OPNZA                                                      AVIOS3081471040231200        Magee                                                                                                                                                  AV                  00000000500000000000NOPNZAMMDPS          0  12-18 Monthly                                  
103C2018-12-04T16:42+02:00                                                                           76 19266 12-18 Monthly        00001OPNZA                                                      AVIOS3081471036135324        Kubheka                                                                                                                                                AV                  00000000500000000000NOPNZAMMDPS          0  12-18 Monthly                                  
103C2018-12-04T16:42+02:00                                                                           76 19111 12-18 Monthly        00001OPNZA                                                      AVIOS3081471022641129        Sonbadhar                                                                                                                                              AV                  00000000920000000000NOPNZAMMDPS          0  12-18 Monthly                                  
103C2018-12-04T16:42+02:00                                                                           76 8524 12-18 Monthly         00001OPNZA                                                      AVIOS3081471037241238        Goncalves                                                                                                                                              AV                  00000001720000000000NOPNZAFIBMR          0  12-18 Monthly                                  
103C2018-12-04T16:42+02:00                                                                           76 19238 12-18 Monthly        00001OPNZA                                                      BAEC 18336986                Arnab                                                                                                                                                  AV                  00000001670000000000NOPNZAMMDPS          0  12-18 Monthly                                  
103C2018-12-04T16:42+02:00                                                                           76 19542 12-18 Monthly        00001OPNZA                                                      AVIOS3081472008507086        du Plessis                                                                                                                                             AV                  00000000640000000000NOPNZAFIBRT          0  12-18 Monthly                                  
103C2018-12-04T16:42+02:00                                                                           76 13047 12-18 Monthly        00001OPNZA                                                      BAEC 19082400                Storer                                                                                                                                                 AV                  00000000560000000000NOPNZAUBAMR          7038 4Mbps Premium Uncapped 12-18 Monthly         
103C2018-12-04T16:42+02:00                                                                           76 19634 12-18 Monthly        00001OPNZA                                                      BAEC 15420269                Kyzer                                                                                                                                                  AV                  00000000920000000000NOPNZAMMDPS          0  12-18 Monthly                                  
103C2018-12-04T16:42+02:00                                                                           76 19699 12-18 Monthly        00001OPNZA                                                      AVIOS3081471038661319        Blignaut                                                                                                                                               AV                  00000000900000000000NOPNZAMMDPS          0  12-18 Monthly                                  
103C2018-12-04T16:42+02:00                                                                           76 19697 12-18 Monthly        00001OPNZA                                                      AVIOS3081471039203137        Ayoob                                                                                                                                                  AV                  00000001480000000000NOPNZAFIBRT          0  12-18 Monthly                                  
103C2018-12-04T16:42+02:00                                                                           76 19237 12-18 Monthly        00001OPNZA                                                      AVIOS3081471043993590        Wahlstrand                                                                                                                                             AV                  00000000500000000000NOPNZAMMDPS          0  12-18 Monthly                                  
103C2018-12-04T16:42+02:00                                                                           76 19708 12-18 Monthly        00001OPNZA                                                      AVIOS3081471039161616        Geel                                                                                                                                                   AV                  00000001420000000000NOPNZAFIBRT          0  12-18 Monthly                                  
103C2018-12-04T16:42+02:00                                                                           76 13292 12-18 Monthly        00001OPNZA                                                      BAEC 10428689                Nefdt                                                                                                                                                  AV                  00000001420000000000NOPNZAFIBRT          0  12-18 Monthly                                  
103C2018-12-04T16:42+02:00                                                                           76 19702 12-18 Monthly        00001OPNZA                                                      AVIOS3081471039103089        Ribombo                                                                                                                                                AV                  00000000500000000000NOPNZAMMDPS          0  12-18 Monthly                                  
103C2018-12-04T16:42+02:00                                                                           76 19758 12-18 Monthly        00001OPNZA                                                      AVIOS202943850               Pather                                                                                                                                                 AV                  00000000580000000000NOPNZAMMDPS          0  12-18 Monthly                                  
103C2018-12-04T16:42+02:00                                                                           76 13218 12-18 Monthly        00001OPNZA                                                      BAEC 49929245                Kurgan                                                                                                                                                 AV                  00000004470000000000NOPNZAUBFMR          0  12-18 Monthly                                  
103C2018-12-04T16:42+02:00                                                                           76 20254 12-18 Monthly        00001OPNZA                                                      AVIOS3081471043219335        Leeuw                                                                                                                                                  AV                  00000000900000000000NOPNZAFIBRT          0  12-18 Monthly                                  
103C2018-12-04T16:42+02:00                                                                           76 19863 12-18 Monthly        00001OPNZA                                                      AVIOS3081471034482835        Paillard                                                                                                                                               AV                  00000001420000000000NOPNZAMMDPS          0  12-18 Monthly                                  
103C2018-12-04T16:42+02:00                                                                           76 19925 12-18 Monthly        00001OPNZA                                                      AVIOS3081471037418133        Williams                                                                                                                                               AV                  00000002670000000000NOPNZAMMDPS          0  12-18 Monthly                                  
103C2018-12-04T16:42+02:00                                                                           76 19935 12-18                00001OPNZA                                                      AVIOS3081471037262309        Martins                                                                                                                                                AV                  00000000980000000000NOPNZAUBAMR          7188 4Mbps Business Uncapped + 1 Static IP 12-18  
103C2018-12-04T16:42+02:00                                                                           76 19949 12-18 Monthly        00001OPNZA                                                      AVIOS3081471039379036        Janse van Rensburg                                                                                                                                     AV                  00000001970000000000NOPNZAFIBRT          0  12-18 Monthly                                  
103C2018-12-04T16:42+02:00                                                                           76 19970 12-18 Monthly        00001OPNZA                                                      AVIOS3081471044111879        Duffy                                                                                                                                                  AV                  00000000580000000000NOPNZAMMDPS          0  12-18 Monthly                                  
103C2018-12-04T16:42+02:00                                                                           76 20011 12-18 Monthly        00001OPNZA                                                      AVIOS203168453               Kedian                                                                                                                                                 AV                  00000001670000000000NOPNZAMMDPS          0  12-18 Monthly                                  
103C2018-12-04T16:42+02:00                                                                           76 20031 12-18                00001OPNZA                                                      AVIOS3081471038471198        Diedericks                                                                                                                                             AV                  00000000410000000000NOPNZAUBAMR          7038 4Mbps Premium Uncapped 12-18                 
103C2018-12-04T16:42+02:00                                                                           76 20042 12-18 Monthly        00001OPNZA                                                      AVIOS3081471041387167        Swanepoel                                                                                                                                              AV                  00000000580000000000NOPNZAFIBRT          0  12-18 Monthly                                  
103C2018-12-04T16:42+02:00                                                                           76 20069 12-18 Monthly        00001OPNZA                                                      AVIOS3081471040975905        Botha                                                                                                                                                  AV                  00000000900000000000NOPNZAFIBRT          0  12-18 Monthly                                  
103C2018-12-04T16:42+02:00                                                                           76 20070 12-18 Monthly        00001OPNZA                                                      AVIOS3081471041561159        Macaskill                                                                                                                                              AV                  00000000920000000000NOPNZAMMDPS          0  12-18 Monthly                                  
103C2018-12-04T16:42+02:00                                                                           76 20065 12-18 Monthly        00001OPNZA                                                      AVIOS3081471042246263        Kirby                                                                                                                                                  AV                  00000000900000000000NOPNZAMMDPS          0  12-18 Monthly                                  
103C2018-12-04T16:42+02:00                                                                           76 20080 12-18 Monthly        00001OPNZA                                                      AVIOS3081471041622431        Schoevers                                                                                                                                              AV                  00000000900000000000NOPNZAMMDPS          0  12-18 Monthly                                  
103C2018-12-04T16:42+02:00                                                                           76 16473 12-18                00001OPNZA                                                      BAEC 14073664                Riddle                                                                                                                                                 AV                  00000001260000000000NOPNZAUBAMR          7046 10Mbps Business Uncapped 12-18               
103C2018-12-04T16:42+02:00                                                                           76 20095 12-18 Monthly        00001OPNZA                                                      BAEC 19569120                Coetzee                                                                                                                                                AV                  00000000900000000000NOPNZAMMDPS          0  12-18 Monthly                                  
103C2018-12-04T16:42+02:00                                                                           76 20093 12-18                00001OPNZA                                                      AVIOS3081471041578088        Klinker                                                                                                                                                AV                  00000000630000000000NOPNZAUBAMR          7040 10Mbps Premium Uncapped 12-18                
103C2018-12-04T16:42+02:00                                                                           76 20112 12-18 Monthly        00001OPNZA                                                      BAEC 15842738                Banwell                                                                                                                                                AV                  00000001420000000000NOPNZAMMDPS          0  12-18 Monthly                                  
103C2018-12-04T16:42+02:00                                                                           76 20123 12-18 Monthly        00001OPNZA                                                      AVIOS3081471142756617        October                                                                                                                                                AV                  00000000900000000000NOPNZAFIBRT          0  12-18 Monthly                                  
103C2018-12-04T16:42+02:00                                                                           76 20124 12-18 Monthly        00001OPNZA                                                      AVIOS3081471043826956        Slabbert                                                                                                                                               AV                  00000000580000000000NOPNZAMMDPS          0  12-18 Monthly                                  
103C2018-12-04T16:42+02:00                                                                           76 20140 12-18 Monthly        00001OPNZA                                                      AVIOS3081471042241983        Mcwatts                                                                                                                                                AV                  00000000580000000000NOPNZAMMDPS          0  12-18 Monthly                                  
103C2018-12-04T16:42+02:00                                                                           76 20150 12-18 Monthly        00001OPNZA                                                      BAEC 17666373                Swart                                                                                                                                                  AV                  00000000580000000000NOPNZAMMDPS          0  12-18 Monthly                                  
103C2018-12-04T16:42+02:00                                                                           76 20151 12-18 Monthly        00001OPNZA                                                      AVIOS3081471041970806        van Rooyen                                                                                                                                             AV                  00000001420000000000NOPNZAMMDPS          0  12-18 Monthly                                  
103C2018-12-04T16:42+02:00                                                                           76 20153 12-18 Monthly        00001OPNZA                                                      AVIOS3081471037202404        Hugo                                                                                                                                                   AV                  00000000580000000000NOPNZAMMDPS          0  12-18 Monthly                                  
103C2018-12-04T16:42+02:00                                                                           76 20164 12-18 Monthly        00001OPNZA                                                      AVIOS3081471042065671        Westley                                                                                                                                                AV                  00000000580000000000NOPNZAMMDPS          0  12-18 Monthly                                  
103C2018-12-04T16:42+02:00                                                                           76 20186 12-18 Monthly        00001OPNZA                                                      AVIOS3081471042178243        Loots                                                                                                                                                  AV                  00000001420000000000NOPNZAMMDPS          0  12-18 Monthly                                  
103C2018-12-04T16:42+02:00                                                                           76 20200 12-18 Monthly        00001OPNZA                                                      AVIOS3081472030503699        Logan                                                                                                                                                  AV                  00000000580000000000NOPNZAMMDPS          0  12-18 Monthly                                  
103C2018-12-04T16:42+02:00                                                                           76 20263 12-18 Monthly        00001OPNZA                                                      AVIOS3081471042586114        Steyn                                                                                                                                                  AV                  00000000580000000000NOPNZAFIBRT          0  12-18 Monthly                                  
103C2018-12-04T16:42+02:00                                                                           76 20220 12-18 Monthly        00001OPNZA                                                      AVIOS3081471042381466        Venter                                                                                                                                                 AV                  00000001420000000000NOPNZAFIBRT          0  12-18 Monthly                                  
103C2018-12-04T16:42+02:00                                                                           76 20049 12-18 Monthly        00001OPNZA                                                      AVIOS3081471041398883        van Wyk                                                                                                                                                AV                  00000003600000000000NOPNZAUBFMR          0  12-18 Monthly                                  
103C2018-12-04T16:42+02:00                                                                           76 20386 12-18 Monthly        00001OPNZA                                                      AVIOS3081471043227031        Pretorius                                                                                                                                              AV                  00000000900000000000NOPNZAFIBRT          0  12-18 Monthly                                  
103C2018-12-04T16:42+02:00                                                                           76 20285 12-18 Monthly        00001OPNZA                                                      AVIOS3081471042743525        van Jaarsveld                                                                                                                                          AV                  00000000900000000000NOPNZAMMDPS          0  12-18 Monthly                                  
103C2018-12-04T16:42+02:00                                                                           76 19821 12-18 Monthly        00001OPNZA                                                      AVIOS3081471042887967        Carreira                                                                                                                                               AV                  00000001700000000000NOPNZAUBFMR          0  12-18 Monthly                                  
103C2018-12-04T16:42+02:00                                                                           76 20345 12-18 Monthly        00001OPNZA                                                      BAEC 97901448                Cloete                                                                                                                                                 AV                  00000000900000000000NOPNZAMMDPS          0  12-18 Monthly                                  
103C2018-12-04T16:42+02:00                                                                           76 20346 12-18 Monthly        00001OPNZA                                                      AVIOS3081471210086079        Naidoo                                                                                                                                                 AV                  00000001420000000000NOPNZAMMDPS          0  12-18 Monthly                                  
103C2018-12-04T16:42+02:00                                                                           76 19439 12-18 Monthly        00001OPNZA                                                      AVIOS3081472024211697        Neve                                                                                                                                                   AV                  00000000920000000000NOPNZAFIBRT          0  12-18 Monthly                                  
103C2018-12-04T16:42+02:00                                                                           76 20240 12-18 Monthly        00001OPNZA                                                      BAEC 60277048                Myburgh                                                                                                                                                AV                  00000001420000000000NOPNZAMMDPS          0  12-18 Monthly                                  
103C2018-12-04T16:42+02:00                                                                           76 20509 12-18 Monthly        00001OPNZA                                                      AVIOS3081471044498334        Nunes                                                                                                                                                  AV                  00000000580000000000NOPNZAFIBRT          0  12-18 Monthly                                  
103C2018-12-04T16:42+02:00                                                                           76 20399 12-18 Monthly        00001OPNZA                                                      AVIOS3081471019643930        Botes                                                                                                                                                  AV                  00000000580000000000NOPNZAMMDPS          0  12-18 Monthly                                  
103C2018-12-04T16:42+02:00                                                                           76 20401 12-18 Monthly        00001OPNZA                                                      AVIOS3081471044023215        Muller                                                                                                                                                 AV                  00000000580000000000NOPNZAMMDPS          0  12-18 Monthly                                  
103C2018-12-04T16:42+02:00                                                                           76 20402 12-18 Monthly        00001OPNZA                                                      AVIOS3081472028838677        Fakoe                                                                                                                                                  AV                  00000000580000000000NOPNZAMMDPS          0  12-18 Monthly                                  
103C2018-12-04T16:42+02:00                                                                           76 20097 12-18 Monthly        00001OPNZA                                                      AVIOS3081471028544178        Marais                                                                                                                                                 AV                  00000001970000000000NOPNZAUBFMR          0  12-18 Monthly                                  
103C2018-12-04T16:42+02:00                                                                           76 20431 12-18 Monthly        00001OPNZA                                                      BAEC 15508122                Africa                                                                                                                                                 AV                  00000000420000000000NOPNZAFIBRT          0  12-18 Monthly                                  
103C2018-12-04T16:42+02:00                                                                           76 20435 12-18 Monthly        00001OPNZA                                                      AVIOS3081471043915205        LeRoux                                                                                                                                                 AV                  00000000580000000000NOPNZAFIBRT          0  12-18 Monthly                                  
103C2018-12-04T16:42+02:00                                                                           76 19805 12-18 Monthly        00001OPNZA                                                      AVIOSOwen.clark              Clark                                                                                                                                                  AV                  00000000580000000000NOPNZAFIBRT          0  12-18 Monthly                                  
103C2018-12-04T16:42+02:00                                                                           76 20197 12-18 Monthly        00001OPNZA                                                      BAEC 61028655                Thrussell                                                                                                                                              AV                  00000000920000000000NOPNZAMMDPS          0  12-18 Monthly                                  
103C2018-12-04T16:42+02:00                                                                           76 20354 12-18 Monthly        00001OPNZA                                                      AVIOS3081471044306735        Zeelie                                                                                                                                                 AV                  00000001840000000000NOPNZAMMDPS          0  12-18 Monthly                                  
103C2018-12-04T16:42+02:00                                                                           76 20495 12-18 Monthly        00001OPNZA                                                      AVIOS3081471023839383        Govender                                                                                                                                               AV                  00000000580000000000NOPNZAMMDPS          0  12-18 Monthly                                  
103C2018-12-04T16:42+02:00                                                                           76 20503 12-18 Monthly        00001OPNZA                                                      AVIOS3081471044344819        Neufeld                                                                                                                                                AV                  00000000920000000000NOPNZAMMDPS          0  12-18 Monthly                                  
103C2018-12-04T16:42+02:00                                                                           76 20511 12-18 Monthly        00001OPNZA                                                      AVIOS3081471044504537        Naidoo                                                                                                                                                 AV                  00000000900000000000NOPNZAMMDPS          0  12-18 Monthly                                  
103C2018-12-04T16:42+02:00                                                                           76 19717 12-18 Monthly        00001OPNZA                                                      AVIOS3081471042843416        waja                                                                                                                                                   AV                  00000000920000000000NOPNZAMMDPS          0  12-18 Monthly                                  
103C2018-12-04T16:42+02:00                                                                           76 20535 12-18 Monthly        00001OPNZA                                                      AVIOS3081471044556123        Brink                                                                                                                                                  AV                  00000000900000000000NOPNZAMMDPS          0  12-18 Monthly                                  
103C2018-12-04T16:42+02:00                                                                           76 20536 12-18 Monthly        00001OPNZA                                                      AVIOS3081472006020710        Grootboom                                                                                                                                              AV                  00000000660000000000NOPNZAMMDPS          0  12-18 Monthly                                  
103C2018-12-04T16:42+02:00                                                                           76 5911 12-18 Monthly         00001OPNZA                                                      BAEC 44250817                Adam                                                                                                                                                   AV                  00000000580000000000NOPNZAMMDPS          0  12-18 Monthly                                  
103C2018-12-04T16:42+02:00                                                                           76 20541 12-18 Monthly        00001OPNZA                                                      AVIOS3081472020472988        Van Zyl                                                                                                                                                AV                  00000000900000000000NOPNZAFIBRT          0  12-18 Monthly                                  
103C2018-12-04T16:42+02:00                                                                           76 20544 12-18 Monthly        00001OPNZA                                                      BAEC 14270517                Patel                                                                                                                                                  AV                  00000000580000000000NOPNZAMMDPS          0  12-18 Monthly                                  
103C2018-12-04T16:42+02:00                                                                           76 20545 12-18 Monthly        00001OPNZA                                                      AVIOS3081472026277571        Nokwe                                                                                                                                                  AV                  00000000900000000000NOPNZAMMDPS          0  12-18 Monthly                                  
103C2018-12-04T16:42+02:00                                                                           76 20547 12-18 Monthly        00001OPNZA                                                      AVIOS3081471044865979        Abraham                                                                                                                                                AV                  00000000900000000000NOPNZAFIBRT          0  12-18 Monthly                                  
103C2018-12-04T16:42+02:00                                                                           76 20553 12-18 Monthly        00001OPNZA                                                      AVIOS3081471143407475        Geyer                                                                                                                                                  AV                  00000000580000000000NOPNZAMMDPS          0  12-18 Monthly                                  
103C2018-12-04T16:42+02:00                                                                           76 19964 12-18 Monthly        00001OPNZA                                                      BAEC 23229913                Nkosi                                                                                                                                                  AV                  00000000580000000000NOPNZAMMDPS          0  12-18 Monthly                                  
103C2018-12-04T16:42+02:00                                                                           76 20419 12-18 Monthly        00001OPNZA                                                      AVIOS3081471043695286        Swanepoel                                                                                                                                              AV                  00000001970000000000NOPNZAFIBMR          0  12-18 Monthly                                  
103C2018-12-04T16:42+02:00                                                                           76 20559 12-18 Monthly        00001OPNZA                                                      BAEC 30592397                Barker                                                                                                                                                 AV                  00000000580000000000NOPNZAMMDPS          0  12-18 Monthly                                  
103C2018-12-04T16:42+02:00                                                                           76 20560 12-18 Monthly        00001OPNZA                                                      AVIOS3081471044945565        Haine                                                                                                                                                  AV                  00000000900000000000NOPNZAMMDPS          0  12-18 Monthly                                  
103C2018-12-04T16:42+02:00                                                                           76 20561 12-18                00001OPNZA                                                      BAEC 11074395                Parker                                                                                                                                                 AV                  00000000980000000000NOPNZAUBAMR          7044 4Mbps Business Uncapped 12-18                
103C2018-12-04T16:42+02:00                                                                           76 20566 12-18 Monthly        00001OPNZA                                                      AVIOS5339160022177011        Meyer                                                                                                                                                  AV                  00000001420000000000NOPNZAMMDPS          0  12-18 Monthly                                  
103C2018-12-04T16:42+02:00                                                                           76 20589 12-18 Monthly        00001OPNZA                                                      BAEC 15973401                Daniels                                                                                                                                                AV                  00000000580000000000NOPNZAMMDPS          0  12-18 Monthly                                  
103C2018-12-04T16:42+02:00                                                                           76 20607 12-18 Monthly        00001OPNZA                                                      AVIOS3081471143414760        Mbusi                                                                                                                                                  AV                  00000000580000000000NOPNZAMMDPS          0  12-18 Monthly                                  
103C2018-12-04T16:42+02:00                                                                           76 20609 12-18 Monthly        00001OPNZA                                                      AVIOS3081471045688982        Van Schalkwyk                                                                                                                                          AV                  00000000580000000000NOPNZAFIBRT          0  12-18 Monthly                                  
103C2018-12-04T16:42+02:00                                                                           76 20649 12-18 Monthly        00001OPNZA                                                      AVIOS3081472001708236        Aggenbach                                                                                                                                              AV                  00000000900000000000NOPNZAMMDPS          0  12-18 Monthly                                  
103C2018-12-04T16:42+02:00                                                                           76 20630 12-18 Monthly        00001OPNZA                                                      AVIOS3081471045505269        Thyssen                                                                                                                                                AV                  00000000900000000000NOPNZAFIBRT          0  12-18 Monthly                                  
103C2018-12-04T16:42+02:00                                                                           76 20657 12-18 Monthly        00001OPNZA                                                      BAEC 15055326                Nicolai (Greystone)                                                                                                                                    AV                  00000001420000000000NOPNZAMMDPS          0  12-18 Monthly                                  
103C2018-12-04T16:42+02:00                                                                           76 20681 12-18 Monthly        00001OPNZA                                                      AVIOS3081471026409812        Ngwane                                                                                                                                                 AV                  00000000420000000000NOPNZAFIBRT          0  12-18 Monthly                                  
103C2018-12-04T16:42+02:00                                                                           76 20695 12-18 Monthly        00001OPNZA                                                      AVIOS3081471046080791        van der Merwe                                                                                                                                          AV                  00000000900000000000NOPNZAFIBRT          0  12-18 Monthly                                  
103C2018-12-04T16:42+02:00                                                                           76 20676 12-18 Monthly        00001OPNZA                                                      BAEC 23562139                Klopper                                                                                                                                                AV                  00000000900000000000NOPNZAMMDPS          0  12-18 Monthly                                  
103C2018-12-04T16:42+02:00                                                                           76 20714 12-18 Monthly        00001OPNZA                                                      BAEC 18609349                Rahiman                                                                                                                                                AV                  00000000500000000000NOPNZAMMDPS          0  12-18 Monthly                                  
103C2018-12-04T16:42+02:00                                                                           76 20716 12-18 Monthly        00001OPNZA                                                      BAEC 23698000                Jordaan                                                                                                                                                AV                  00000000580000000000NOPNZAMMDPS          0  12-18 Monthly                                  
103C2018-12-04T16:42+02:00                                                                           76 20718 12-18 Monthly        00001OPNZA                                                      AVIOS3081471046208590        Jansen                                                                                                                                                 AV                  00000000900000000000NOPNZAMMDPS          0  12-18 Monthly                                  
103C2018-12-04T16:42+02:00                                                                           76 20735 12-18 Monthly        00001OPNZA                                                      AVIOS3081472027292553        Nell                                                                                                                                                   AV                  00000000580000000000NOPNZAFIBRT          0  12-18 Monthly                                  
103C2018-12-04T16:42+02:00                                                                           76 20686 12-18 Monthly        00001OPNZA                                                      AVIOS3081471025598334        Kershaw                                                                                                                                                AV                  00000001970000000000NOPNZAFIBRT          0  12-18 Monthly                                  
103C2018-12-04T16:42+02:00                                                                           76 19448 12-18 Monthly        00001OPNZA                                                      BAEC 22595299                Schoeman                                                                                                                                               AV                  00000001970000000000NOPNZAUBFMR          0  12-18 Monthly                                  
103C2018-12-04T16:42+02:00                                                                           76 19483 12-18 Monthly        00001OPNZA                                                      AVIOS3081471037672077        Eagar                                                                                                                                                  AV                  00000002740000000000NOPNZAFIBMR          0  12-18 Monthly                                  
103C2018-12-04T16:42+02:00                                                                           76 20784 12-18 Monthly        00001OPNZA                                                      BAEC 628484401               Mincher                                                                                                                                                AV                  00000000900000000000NOPNZAFIBRT          0  12-18 Monthly                                  
103C2018-12-04T16:42+02:00                                                                           76 20789 12-18 Monthly        00001OPNZA                                                      AVIOS3081471019470201        Joubert                                                                                                                                                AV                  00000001420000000000NOPNZAMMDPS          0  12-18 Monthly                                  
90000012100000121000000000000000000013766