000301OPNZA00001ANAINP001802018-04-03T18:41+02:00
103C2018-04-03T18:41+02:00                                                                           24 10673 04-18                00001OPNZA                                                      AVIOS3081471036336930        Kinners                                                                                                                                                AV                  00000000300000000000NOPNZAUBAMR          7018 10Mbps Home Uncapped Special 04-18           
103C2018-04-03T18:41+02:00                                                                           24 12490 04-18                00001OPNZA                                                      BAEC 61128708                Croker                                                                                                                                                 AV                  00000000980000000000NOPNZAUBAMR          5111 4Mbps Home Uncapped Unshaped Premium 04-18   
103C2018-04-03T18:41+02:00                                                                           24 18368 04-18                00001OPNZA                                                      AVIOS3081471021053177        (Pty) Ltd                                                                                                                                              AV                  00000000840000000000NOPNZAUBAMR          7039 8Mbps Premium Uncapped 04-18                 
103C2018-04-03T18:41+02:00                                                                           24 15208 04-18 Monthly        00001OPNZA                                                      AVIOS3081471037262895        Badenhorst                                                                                                                                             AV                  00000001670000000000NOPNZAMMDPS          0  04-18 Monthly                                  
103C2018-04-03T18:41+02:00                                                                           24 19348 04-18 Monthly        00001OPNZA                                                      BAEC 21273431                Thompson                                                                                                                                               AV                  00000001650000000000NOPNZAFIBMR          0  04-18 Monthly                                  
103C2018-04-03T18:41+02:00                                                                           24 19439 04-18 Monthly        00001OPNZA                                                      AVIOS3081472024211697        Neve                                                                                                                                                   AV                  00000000920000000000NOPNZAMMDPS          0  04-18 Monthly                                  
103C2018-04-03T18:41+02:00                                                                           24 19320 04-18 Monthly        00001OPNZA                                                      AVIOS3081471035552875        Pelzer                                                                                                                                                 AV                  00000001330000000000NOPNZAMMDPS          0  04-18 Monthly                                  
103C2018-04-03T18:41+02:00                                                                           24 19410 04-18 Monthly        00001OPNZA                                                      BAEC 64809343                Wright                                                                                                                                                 AV                  00000005000000000000NOPNZAFIBMR          0  04-18 Monthly                                  
103C2018-04-03T18:41+02:00                                                                           24 19422 04-18                00001OPNZA                                                      BAEC 19282203                Steenkamp                                                                                                                                              AV                  00000000560000000000NOPNZAUBAMR          7038 4Mbps Premium Uncapped 04-18                 
103C2018-04-03T18:41+02:00                                                                           24 19521 04-18 Monthly        00001OPNZA                                                      BAEC 12570957                Wright                                                                                                                                                 AV                  00000003220000000000NOPNZAFIBMR          0  04-18 Monthly                                  
103C2018-04-03T18:41+02:00                                                                           24 13046 04-18 Monthly        00001OPNZA                                                      BAEC 25922325                Barnard                                                                                                                                                AV                  00000004720000000000NOPNZAUBFMR          0  04-18 Monthly                                  
103C2018-04-03T18:41+02:00                                                                           24 19238 04-18 Monthly        00001OPNZA                                                      BAEC 18336986                Arnab                                                                                                                                                  AV                  00000001670000000000NOPNZAMMDPS          0  04-18 Monthly                                  
103C2018-04-03T18:41+02:00                                                                           24 17942 04-18 Monthly        00001OPNZA                                                      AVIOS3081472030080649        Venter                                                                                                                                                 AV                  00000000500000000000NOPNZAMMDPS          0  04-18 Monthly                                  
103C2018-04-03T18:41+02:00                                                                           24 19477 04-18 Monthly        00001OPNZA                                                      AVIOS7706105203082           Earle                                                                                                                                                  AV                  00000000570000000000NOPNZAUBAMR          5110 2Mbps Home Uncapped Unshaped Premium 04-18 Mo
103C2018-04-03T18:41+02:00                                                                           24 19266 04-18 Monthly        00001OPNZA                                                      AVIOS3081471036135324        Kubheka                                                                                                                                                AV                  00000000500000000000NOPNZAMMDPS          0  04-18 Monthly                                  
103C2018-04-03T18:41+02:00                                                                           24 19111 04-18 Monthly        00001OPNZA                                                      AVIOS3081471022641129        Sonbadhar                                                                                                                                              AV                  00000000920000000000NOPNZAMMDPS          0  04-18 Monthly                                  
103C2018-04-03T18:41+02:00                                                                           24 8524 04-18 Monthly         00001OPNZA                                                      AVIOS3081471037241238        Goncalves                                                                                                                                              AV                  00000001720000000000NOPNZAFIBMR          0  04-18 Monthly                                  
103C2018-04-03T18:41+02:00                                                                           24 13047 04-18 Monthly        00001OPNZA                                                      BAEC 19082400                Storer                                                                                                                                                 AV                  00000000560000000000NOPNZAUBAMR          7038 4Mbps Premium Uncapped 04-18 Monthly         
103C2018-04-03T18:41+02:00                                                                           24 19634 04-18 Monthly        00001OPNZA                                                      BAEC 15420269                Kyzer                                                                                                                                                  AV                  00000000920000000000NOPNZAMMDPS          0  04-18 Monthly                                  
103C2018-04-03T18:41+02:00                                                                           24 19651 04-18                00001OPNZA                                                      BAEC 202428297               Mqingwana                                                                                                                                              AV                  00000000400000000000NOPNZAUBAMR          7038 4Mbps Premium Uncapped 04-18                 
103C2018-04-03T18:41+02:00                                                                           24 19661 04-18                00001OPNZA                                                      AVIOS202497855               Richards                                                                                                                                               AV                  00000000580000000000NOPNZAUBAMR          7040 10Mbps Premium Uncapped 04-18                
103C2018-04-03T18:41+02:00                                                                           24 19699 04-18 Monthly        00001OPNZA                                                      AVIOS3081471038661319        Blignaut                                                                                                                                               AV                  00000000900000000000NOPNZAMMDPS          0  04-18 Monthly                                  
103C2018-04-03T18:41+02:00                                                                           24 191 04-18 Monthly          00001OPNZA                                                      AVIOS123456                  tew12                                                                                                                                                  AV                  00000000110000000000NOPNZAUBFMR          0  04-18 Monthly                                  
103C2018-04-03T18:41+02:00                                                                           24 19697 04-18 Monthly        00001OPNZA                                                      AVIOS3081471039203137        Ayoob                                                                                                                                                  AV                  00000000820000000000NOPNZAMMDPS          0  04-18 Monthly                                  
103C2018-04-03T18:41+02:00                                                                           24 19723 04-18 Monthly        00001OPNZA                                                      AVIOS3081471038860010        Le Roux                                                                                                                                                AV                  00000000920000000000NOPNZAMMDPS          0  04-18 Monthly                                  
103C2018-04-03T18:41+02:00                                                                           24 19708 04-18 Monthly        00001OPNZA                                                      AVIOS3081471039161616        Geel                                                                                                                                                   AV                  00000001130000000000NOPNZAMMDPS          0  04-18 Monthly                                  
103C2018-04-03T18:41+02:00                                                                           24 19702 04-18 Monthly        00001OPNZA                                                      AVIOS3081471039103089        Ribombo                                                                                                                                                AV                  00000000500000000000NOPNZAMMDPS          0  04-18 Monthly                                  
103C2018-04-03T18:41+02:00                                                                           24 19758 04-18 Monthly        00001OPNZA                                                      AVIOS202943850               Pather                                                                                                                                                 AV                  00000000580000000000NOPNZAMMDPS          0  04-18 Monthly                                  
103C2018-04-03T18:41+02:00                                                                           24 19806 04-18 Monthly        00001OPNZA                                                      AVIOS3081471039665772        Jordan                                                                                                                                                 AV                  00000000580000000000NOPNZAMMDPS          0  04-18 Monthly                                  
90000002900000029000000000000000000003507