000301OPNZA00001ANAINP000602018-01-02T18:38+02:00
103C2018-01-02T18:38+02:00                                                                           11 19348 01-18 Monthly        00001OPNZA                                                      BAEC 21273431                Thompson                                                                                                                                               AV                  00000001650000000000NOPNZAFIBMR          0  01-18 Monthly                                  
103C2018-01-02T18:38+02:00                                                                           11 19367 01-18 admin          00001OPNZA                                                      AVIOS3081471143170552        Haasbroek                                                                                                                                              AV                  00000005000000000000NOPNZABO500          7777 admin reward 01-18 admin                     
103C2018-01-02T18:38+02:00                                                                           11 9715 01-18 admin           00001OPNZA                                                      BAEC 61939351                Grobler                                                                                                                                                AV                  00000006150000000000NOPNZAR0050          7777 admin reward 01-18 admin                     
90000000300000003000000000000000000001280