000301OPNZA00001ANAINP008302019-03-02T10:51+02:00
103C2019-03-02T10:51+02:00                                                                           89 20239 03-19                00001OPNZA                                                      AVIOS3081471041605485        Joubert                                                                                                                                                AV                  00000000380000000000NOPNZAFIBRT          7039 8Mbps Premium Uncapped 03-19                 
103C2019-03-02T10:51+02:00                                                                           89 19410 03-19 Monthly        00001OPNZA                                                      BAEC 64809343                Wright                                                                                                                                                 AV                  00000007250000000000NOPNZAMMDPS          0  03-19 Monthly                                  
103C2019-03-02T10:51+02:00                                                                           89 20092 03-19 Monthly        00001OPNZA                                                      AVIOS3081471041603845        van Pype                                                                                                                                               AV                  00000001150000000000NOPNZAMMDPS          0  03-19 Monthly                                  
103C2019-03-02T10:51+02:00                                                                           89 20334 03-19 Monthly        00001OPNZA                                                      AVIOS3081471142989754        Chemaly                                                                                                                                                AV                  00000002250000000000NOPNZAMMDPS          0  03-19 Monthly                                  
103C2019-03-02T10:51+02:00                                                                           89 20141 03-19 Monthly        00001OPNZA                                                      AVIOS3081471041899039        Henderson                                                                                                                                              AV                  00000001150000000000NOPNZAMMDPS          0  03-19 Monthly                                  
103C2019-03-02T10:51+02:00                                                                           89 19668 03-19 Monthly        00001OPNZA                                                      AVIOS3081472029688584        Smith                                                                                                                                                  AV                  00000000920000000000NOPNZAMMDPS          0  03-19 Monthly                                  
103C2019-03-02T10:51+02:00                                                                           89 191 03-19 Monthly          00001OPNZA                                                      AVIOS1234562                 tew12                                                                                                                                                  AV                  00000000250000000000NOPNZAUBFMR          0  03-19 Monthly                                  
103C2019-03-02T10:51+02:00                                                                           89 20320 03-19 Monthly        00001OPNZA                                                      AVIOS3081471043063212        Esterhuizen                                                                                                                                            AV                  00000000900000000000NOPNZAFIBRT          0  03-19 Monthly                                  
103C2019-03-02T10:51+02:00                                                                           89 20014 03-19 Monthly        00001OPNZA                                                      BAEC 23384555                Erasmus                                                                                                                                                AV                  00000000580000000000NOPNZAMMDPS          0  03-19 Monthly                                  
103C2019-03-02T10:51+02:00                                                                           89 20244 03-19 Monthly        00001OPNZA                                                      BAEC 17715301                Nijland                                                                                                                                                AV                  00000000920000000000NOPNZAMMDPS          0  03-19 Monthly                                  
103C2019-03-02T10:51+02:00                                                                           89 20218 03-19                00001OPNZA                                                      AVIOS3081471029026811        Arendse                                                                                                                                                AV                  00000000280000000000NOPNZAFIBRT          7038 4Mbps Premium Uncapped 03-19                 
103C2019-03-02T10:51+02:00                                                                           89 15208 03-19 Monthly        00001OPNZA                                                      AVIOS3081471037262895        Badenhorst                                                                                                                                             AV                  00000001670000000000NOPNZAMMDPS          0  03-19 Monthly                                  
103C2019-03-02T10:51+02:00                                                                           89 19348 03-19 Monthly        00001OPNZA                                                      BAEC 21273431                Thompson                                                                                                                                               AV                  00000001650000000000NOPNZAFIBRT          0  03-19 Monthly                                  
103C2019-03-02T10:51+02:00                                                                           89 19358 03-19 Monthly        00001OPNZA                                                      AVIOS3081471042147339        Kruger                                                                                                                                                 AV                  00000000000000000000NOPNZAFIBRT          0  03-19 Monthly                                  
103C2019-03-02T10:51+02:00                                                                           89 19422 03-19                00001OPNZA                                                      BAEC 19282203                Steenkamp                                                                                                                                              AV                  00000000390000000000NOPNZAFIBRT          7038 4Mbps Premium Uncapped 03-19                 
103C2019-03-02T10:51+02:00                                                                           89 19521 03-19                00001OPNZA                                                      BAEC 12570957                Wright                                                                                                                                                 AV                  00000003390000000000NOPNZAFIBMR          7194 R989 - 40Mbps Fibre Line Rental + 300GB Cappe
103C2019-03-02T10:51+02:00                                                                           89 13046 03-19 Monthly        00001OPNZA                                                      BAEC 25922325                Barnard                                                                                                                                                AV                  00000004720000000000NOPNZAUBFMR          0  03-19 Monthly                                  
103C2019-03-02T10:51+02:00                                                                           89 19206 03-19 Monthly        00001OPNZA                                                      BAEC 24286035                McPhail                                                                                                                                                AV                  00000000920000000000NOPNZAMMDPS          0  03-19 Monthly                                  
103C2019-03-02T10:51+02:00                                                                           89 17942 03-19 Monthly        00001OPNZA                                                      AVIOS3081472030080649        Venter                                                                                                                                                 AV                  00000000500000000000NOPNZAMMDPS          0  03-19 Monthly                                  
103C2019-03-02T10:51+02:00                                                                           89 19488 03-19 Monthly        00001OPNZA                                                      AVIOS3081472024934512        brink                                                                                                                                                  AV                  00000000500000000000NOPNZAMMDPS          0  03-19 Monthly                                  
103C2019-03-02T10:51+02:00                                                                           89 19154 03-19 Monthly        00001OPNZA                                                      AVIOS3081471040231200        Magee                                                                                                                                                  AV                  00000000500000000000NOPNZAMMDPS          0  03-19 Monthly                                  
103C2019-03-02T10:51+02:00                                                                           89 19266 03-19 Monthly        00001OPNZA                                                      AVIOS3081471036135324        Kubheka                                                                                                                                                AV                  00000000500000000000NOPNZAMMDPS          0  03-19 Monthly                                  
103C2019-03-02T10:51+02:00                                                                           89 19111 03-19 Monthly        00001OPNZA                                                      AVIOS3081471022641129        Sonbadhar                                                                                                                                              AV                  00000000920000000000NOPNZAMMDPS          0  03-19 Monthly                                  
103C2019-03-02T10:51+02:00                                                                           89 19238 03-19 Monthly        00001OPNZA                                                      BAEC 18336986                Arnab                                                                                                                                                  AV                  00000001670000000000NOPNZAMMDPS          0  03-19 Monthly                                  
103C2019-03-02T10:51+02:00                                                                           89 13047 03-19 Monthly        00001OPNZA                                                      BAEC 19082400                Storer                                                                                                                                                 AV                  00000000390000000000NOPNZAFIBRT          7038 4Mbps Premium Uncapped 03-19 Monthly         
103C2019-03-02T10:51+02:00                                                                           89 19634 03-19 Monthly        00001OPNZA                                                      BAEC 15420269                Kyzer                                                                                                                                                  AV                  00000000920000000000NOPNZAMMDPS          0  03-19 Monthly                                  
103C2019-03-02T10:51+02:00                                                                           89 19237 03-19 Monthly        00001OPNZA                                                      AVIOS3081471043993590        Wahlstrand                                                                                                                                             AV                  00000000500000000000NOPNZAMMDPS          0  03-19 Monthly                                  
103C2019-03-02T10:51+02:00                                                                           89 13292 03-19 Monthly        00001OPNZA                                                      BAEC 10428689                Nefdt                                                                                                                                                  AV                  00000001420000000000NOPNZAFIBRT          0  03-19 Monthly                                  
103C2019-03-02T10:51+02:00                                                                           89 19758 03-19 Monthly        00001OPNZA                                                      AVIOS202943850               Pather                                                                                                                                                 AV                  00000000900000000000NOPNZAMMDPS          0  03-19 Monthly                                  
103C2019-03-02T10:51+02:00                                                                           89 19850 03-19 Monthly        00001OPNZA                                                      BAEC 24270685                Hague                                                                                                                                                  AV                  00000001420000000000NOPNZAMMDPS          0  03-19 Monthly                                  
103C2019-03-02T10:51+02:00                                                                           89 13218 03-19 Monthly        00001OPNZA                                                      BAEC 49929245                Kurgan                                                                                                                                                 AV                  00000004470000000000NOPNZAUBFMR          0  03-19 Monthly                                  
103C2019-03-02T10:51+02:00                                                                           89 19863 03-19 Monthly        00001OPNZA                                                      AVIOS3081471034482835        Paillard                                                                                                                                               AV                  00000001420000000000NOPNZAMMDPS          0  03-19 Monthly                                  
103C2019-03-02T10:51+02:00                                                                           89 19925 03-19 Monthly        00001OPNZA                                                      AVIOS3081471037418133        Williams                                                                                                                                               AV                  00000002670000000000NOPNZAMMDPS          0  03-19 Monthly                                  
103C2019-03-02T10:51+02:00                                                                           89 19935 03-19                00001OPNZA                                                      AVIOS3081471037262309        Martins                                                                                                                                                AV                  00000000980000000000NOPNZAUBAMR          7188 4Mbps Business Uncapped + 1 Static IP 03-19  
103C2019-03-02T10:51+02:00                                                                           89 19949 03-19 Monthly        00001OPNZA                                                      AVIOS3081471039379036        Janse van Rensburg                                                                                                                                     AV                  00000001970000000000NOPNZAFIBRT          0  03-19 Monthly                                  
103C2019-03-02T10:51+02:00                                                                           89 19970 03-19 Monthly        00001OPNZA                                                      AVIOS3081471044111879        Duffy                                                                                                                                                  AV                  00000000580000000000NOPNZAMMDPS          0  03-19 Monthly                                  
103C2019-03-02T10:51+02:00                                                                           89 20035 03-19 Monthly        00001OPNZA                                                      AVIOS3081471041342089        Sornum                                                                                                                                                 AV                  00000000900000000000NOPNZAMMDPS          0  03-19 Monthly                                  
103C2019-03-02T10:51+02:00                                                                           89 20042 03-19 Monthly        00001OPNZA                                                      AVIOS3081471041387167        Swanepoel                                                                                                                                              AV                  00000000580000000000NOPNZAFIBRT          0  03-19 Monthly                                  
103C2019-03-02T10:51+02:00                                                                           89 20069 03-19 Monthly        00001OPNZA                                                      AVIOS3081471040975905        Botha                                                                                                                                                  AV                  00000000900000000000NOPNZAFIBRT          0  03-19 Monthly                                  
103C2019-03-02T10:51+02:00                                                                           89 20070 03-19 Monthly        00001OPNZA                                                      AVIOS3081471041561159        Macaskill                                                                                                                                              AV                  00000000920000000000NOPNZAMMDPS          0  03-19 Monthly                                  
103C2019-03-02T10:51+02:00                                                                           89 20065 03-19 Monthly        00001OPNZA                                                      AVIOS3081471042246263        Kirby                                                                                                                                                  AV                  00000000900000000000NOPNZAMMDPS          0  03-19 Monthly                                  
103C2019-03-02T10:51+02:00                                                                           89 20080 03-19 Monthly        00001OPNZA                                                      AVIOS3081471041622431        Schoevers                                                                                                                                              AV                  00000000900000000000NOPNZAMMDPS          0  03-19 Monthly                                  
103C2019-03-02T10:51+02:00                                                                           89 16473 03-19                00001OPNZA                                                      BAEC 14073664                Riddle                                                                                                                                                 AV                  00000001260000000000NOPNZAUBAMR          7046 10Mbps Business Uncapped 03-19               
103C2019-03-02T10:51+02:00                                                                           89 20095 03-19 Monthly        00001OPNZA                                                      BAEC 19569120                Coetzee                                                                                                                                                AV                  00000000900000000000NOPNZAMMDPS          0  03-19 Monthly                                  
103C2019-03-02T10:51+02:00                                                                           89 20123 03-19 Monthly        00001OPNZA                                                      AVIOS3081471142756617        October                                                                                                                                                AV                  00000000900000000000NOPNZAFIBRT          0  03-19 Monthly                                  
103C2019-03-02T10:51+02:00                                                                           89 20124 03-19 Monthly        00001OPNZA                                                      AVIOS3081471043826956        Slabbert                                                                                                                                               AV                  00000000580000000000NOPNZAMMDPS          0  03-19 Monthly                                  
103C2019-03-02T10:51+02:00                                                                           89 20140 03-19 Monthly        00001OPNZA                                                      AVIOS3081471042241983        Mcwatts                                                                                                                                                AV                  00000000900000000000NOPNZAMMDPS          0  03-19 Monthly                                  
103C2019-03-02T10:51+02:00                                                                           89 20150 03-19 Monthly        00001OPNZA                                                      BAEC 17666373                Swart                                                                                                                                                  AV                  00000000580000000000NOPNZAMMDPS          0  03-19 Monthly                                  
103C2019-03-02T10:51+02:00                                                                           89 20151 03-19 Monthly        00001OPNZA                                                      AVIOS3081471041970806        van Rooyen                                                                                                                                             AV                  00000001420000000000NOPNZAMMDPS          0  03-19 Monthly                                  
103C2019-03-02T10:51+02:00                                                                           89 20153 03-19 Monthly        00001OPNZA                                                      AVIOS3081471037202404        Hugo                                                                                                                                                   AV                  00000000580000000000NOPNZAMMDPS          0  03-19 Monthly                                  
103C2019-03-02T10:51+02:00                                                                           89 20186 03-19 Monthly        00001OPNZA                                                      AVIOS3081471042178243        Loots                                                                                                                                                  AV                  00000001420000000000NOPNZAMMDPS          0  03-19 Monthly                                  
103C2019-03-02T10:51+02:00                                                                           89 20200 03-19 Monthly        00001OPNZA                                                      AVIOS3081472030503699        Logan                                                                                                                                                  AV                  00000000580000000000NOPNZAMMDPS          0  03-19 Monthly                                  
103C2019-03-02T10:51+02:00                                                                           89 20263 03-19 Monthly        00001OPNZA                                                      AVIOS3081471042586114        Steyn                                                                                                                                                  AV                  00000000900000000000NOPNZAFIBRT          0  03-19 Monthly                                  
103C2019-03-02T10:51+02:00                                                                           89 20049 03-19 Monthly        00001OPNZA                                                      AVIOS3081471041398883        van Wyk                                                                                                                                                AV                  00000003230000000000NOPNZAFIBRT          0  03-19 Monthly                                  
103C2019-03-02T10:51+02:00                                                                           89 20285 03-19 Monthly        00001OPNZA                                                      AVIOS3081471042743525        van Jaarsveld                                                                                                                                          AV                  00000000900000000000NOPNZAMMDPS          0  03-19 Monthly                                  
103C2019-03-02T10:51+02:00                                                                           89 20047 03-19 Monthly        00001OPNZA                                                      AVIOS3081472027733077        MAHOMEDY                                                                                                                                               AV                  00000000580000000000NOPNZAMMDPS          0  03-19 Monthly                                  
103C2019-03-02T10:51+02:00                                                                           89 19821 03-19 Monthly        00001OPNZA                                                      AVIOS3081471042887967        Carreira                                                                                                                                               AV                  00000001450000000000NOPNZAFIBRT          0  03-19 Monthly                                  
103C2019-03-02T10:51+02:00                                                                           89 20346 03-19 Monthly        00001OPNZA                                                      AVIOS3081471210086079        Naidoo                                                                                                                                                 AV                  00000001420000000000NOPNZAMMDPS          0  03-19 Monthly                                  
103C2019-03-02T10:51+02:00                                                                           89 20354 03-19 Monthly        00001OPNZA                                                      AVIOS3081471044306735        Zeelie                                                                                                                                                 AV                  00000000900000000000NOPNZAMMDPS          0  03-19 Monthly                                  
103C2019-03-02T10:51+02:00                                                                           89 19439 03-19 Monthly        00001OPNZA                                                      AVIOS3081472024211697        Neve                                                                                                                                                   AV                  00000000920000000000NOPNZAFIBRT          0  03-19 Monthly                                  
103C2019-03-02T10:51+02:00                                                                           89 20240 03-19 Monthly        00001OPNZA                                                      BAEC 60277048                Myburgh                                                                                                                                                AV                  00000001420000000000NOPNZAMMDPS          0  03-19 Monthly                                  
103C2019-03-02T10:51+02:00                                                                           89 20399 03-19 Monthly        00001OPNZA                                                      AVIOS3081471019643930        Botes                                                                                                                                                  AV                  00000000580000000000NOPNZAMMDPS          0  03-19 Monthly                                  
103C2019-03-02T10:51+02:00                                                                           89 20401 03-19 Monthly        00001OPNZA                                                      AVIOS3081471044023215        Muller                                                                                                                                                 AV                  00000000580000000000NOPNZAMMDPS          0  03-19 Monthly                                  
103C2019-03-02T10:51+02:00                                                                           89 20097 03-19 Monthly        00001OPNZA                                                      AVIOS3081471028544178        Marais                                                                                                                                                 AV                  00000001970000000000NOPNZAUBFMR          0  03-19 Monthly                                  
103C2019-03-02T10:51+02:00                                                                           89 20431 03-19 Monthly        00001OPNZA                                                      BAEC 15508122                Africa                                                                                                                                                 AV                  00000000420000000000NOPNZAFIBRT          0  03-19 Monthly                                  
103C2019-03-02T10:51+02:00                                                                           89 19805 03-19 Monthly        00001OPNZA                                                      AVIOSOwen.clark              Clark                                                                                                                                                  AV                  00000000580000000000NOPNZAFIBRT          0  03-19 Monthly                                  
103C2019-03-02T10:51+02:00                                                                           89 20197 03-19 Monthly        00001OPNZA                                                      BAEC 61028655                Thrussell                                                                                                                                              AV                  00000000920000000000NOPNZAMMDPS          0  03-19 Monthly                                  
103C2019-03-02T10:51+02:00                                                                           89 20511 03-19 Monthly        00001OPNZA                                                      AVIOS3081471044504537        Naidoo                                                                                                                                                 AV                  00000000900000000000NOPNZAMMDPS          0  03-19 Monthly                                  
103C2019-03-02T10:51+02:00                                                                           89 20512 03-19 Monthly        00001OPNZA                                                      AVIOSOW53504                 Ferror                                                                                                                                                 AV                  00000000580000000000NOPNZAMMDPS          0  03-19 Monthly                                  
103C2019-03-02T10:51+02:00                                                                           89 19717 03-19 Monthly        00001OPNZA                                                      AVIOS3081471042843416        waja                                                                                                                                                   AV                  00000000920000000000NOPNZAMMDPS          0  03-19 Monthly                                  
103C2019-03-02T10:51+02:00                                                                           89 20535 03-19 Monthly        00001OPNZA                                                      AVIOS3081471044556123        Brink                                                                                                                                                  AV                  00000000900000000000NOPNZAMMDPS          0  03-19 Monthly                                  
103C2019-03-02T10:51+02:00                                                                           89 20536 03-19 Monthly        00001OPNZA                                                      AVIOS3081472006020710        Grootboom                                                                                                                                              AV                  00000000420000000000NOPNZAFIBRT          0  03-19 Monthly                                  
103C2019-03-02T10:51+02:00                                                                           89 20541 03-19 Monthly        00001OPNZA                                                      AVIOS3081472020472988        Van Zyl                                                                                                                                                AV                  00000001150000000000NOPNZAMMDPS          0  03-19 Monthly                                  
103C2019-03-02T10:51+02:00                                                                           89 20544 03-19 Monthly        00001OPNZA                                                      BAEC 14270517                Patel                                                                                                                                                  AV                  00000000580000000000NOPNZAMMDPS          0  03-19 Monthly                                  
103C2019-03-02T10:51+02:00                                                                           89 20547 03-19 Monthly        00001OPNZA                                                      AVIOS3081471044865979        Abraham                                                                                                                                                AV                  00000001420000000000NOPNZAMMDPS          0  03-19 Monthly                                  
103C2019-03-02T10:51+02:00                                                                           89 20553 03-19 Monthly        00001OPNZA                                                      AVIOS3081471143407475        Geyer                                                                                                                                                  AV                  00000000580000000000NOPNZAMMDPS          0  03-19 Monthly                                  
103C2019-03-02T10:51+02:00                                                                           89 20419 03-19 Monthly        00001OPNZA                                                      AVIOS3081471043695286        Swanepoel                                                                                                                                              AV                  00000001970000000000NOPNZAFIBMR          0  03-19 Monthly                                  
103C2019-03-02T10:51+02:00                                                                           89 20559 03-19 Monthly        00001OPNZA                                                      BAEC 30592397                Barker                                                                                                                                                 AV                  00000000580000000000NOPNZAMMDPS          0  03-19 Monthly                                  
103C2019-03-02T10:51+02:00                                                                           89 20560 03-19 Monthly        00001OPNZA                                                      AVIOS3081471044945565        Haine                                                                                                                                                  AV                  00000000900000000000NOPNZAMMDPS          0  03-19 Monthly                                  
103C2019-03-02T10:51+02:00                                                                           89 20561 03-19                00001OPNZA                                                      BAEC 11074395                Parker                                                                                                                                                 AV                  00000000980000000000NOPNZAUBAMR          7044 4Mbps Business Uncapped 03-19                
103C2019-03-02T10:51+02:00                                                                           89 20566 03-19 Monthly        00001OPNZA                                                      AVIOS5339160022177011        Meyer                                                                                                                                                  AV                  00000001420000000000NOPNZAMMDPS          0  03-19 Monthly                                  
103C2019-03-02T10:51+02:00                                                                           89 20589 03-19 Monthly        00001OPNZA                                                      BAEC 15973401                Daniels                                                                                                                                                AV                  00000000580000000000NOPNZAMMDPS          0  03-19 Monthly                                  
103C2019-03-02T10:51+02:00                                                                           89 20607 03-19 Monthly        00001OPNZA                                                      AVIOS3081471143414760        Mbusi                                                                                                                                                  AV                  00000000580000000000NOPNZAMMDPS          0  03-19 Monthly                                  
103C2019-03-02T10:51+02:00                                                                           89 20649 03-19 Monthly        00001OPNZA                                                      AVIOS3081472001708236        Aggenbach                                                                                                                                              AV                  00000000900000000000NOPNZAMMDPS          0  03-19 Monthly                                  
103C2019-03-02T10:51+02:00                                                                           89 20630 03-19 Monthly        00001OPNZA                                                      AVIOS3081471045505269        Thyssen                                                                                                                                                AV                  00000000900000000000NOPNZAFIBRT          0  03-19 Monthly                                  
103C2019-03-02T10:51+02:00                                                                           89 20657 03-19 Monthly        00001OPNZA                                                      BAEC 15055326                Nicolai (Greystone)                                                                                                                                    AV                  00000001420000000000NOPNZAMMDPS          0  03-19 Monthly                                  
103C2019-03-02T10:51+02:00                                                                           89 20681 03-19 Monthly        00001OPNZA                                                      AVIOS3081471026409812        Ngwane                                                                                                                                                 AV                  00000000420000000000NOPNZAFIBRT          0  03-19 Monthly                                  
103C2019-03-02T10:51+02:00                                                                           89 20695 03-19 Monthly        00001OPNZA                                                      AVIOS3081471046080791        van der Merwe                                                                                                                                          AV                  00000000900000000000NOPNZAFIBRT          0  03-19 Monthly                                  
103C2019-03-02T10:51+02:00                                                                           89 20676 03-19 Monthly        00001OPNZA                                                      BAEC 23562139                Klopper                                                                                                                                                AV                  00000000900000000000NOPNZAMMDPS          0  03-19 Monthly                                  
103C2019-03-02T10:51+02:00                                                                           89 20686 03-19 Monthly        00001OPNZA                                                      AVIOS3081471025598334        Kershaw                                                                                                                                                AV                  00000001970000000000NOPNZAFIBRT          0  03-19 Monthly                                  
103C2019-03-02T10:51+02:00                                                                           89 19483 03-19 Monthly        00001OPNZA                                                      AVIOS3081471037672077        Eagar                                                                                                                                                  AV                  00000002740000000000NOPNZAFIBMR          0  03-19 Monthly                                  
103C2019-03-02T10:51+02:00                                                                           89 20784 03-19 Monthly        00001OPNZA                                                      BAEC 628484401               Mincher                                                                                                                                                AV                  00000000900000000000NOPNZAFIBRT          0  03-19 Monthly                                  
103C2019-03-02T10:51+02:00                                                                           89 20789 03-19 Monthly        00001OPNZA                                                      AVIOS3081471019470201        Joubert                                                                                                                                                AV                  00000001420000000000NOPNZAMMDPS          0  03-19 Monthly                                  
103C2019-03-02T10:51+02:00                                                                           89 20813 03-19 Monthly        00001OPNZA                                                      BAEC 24335373                Ikin                                                                                                                                                   AV                  00000001420000000000NOPNZAMMDPS          0  03-19 Monthly                                  
103C2019-03-02T10:51+02:00                                                                           89 19481 03-19 Monthly        00001OPNZA                                                      AVIOS3081471046234158        Catzavelos                                                                                                                                             AV                  00000000580000000000NOPNZAMMDPS          0  03-19 Monthly                                  
103C2019-03-02T10:51+02:00                                                                           89 20827 03-19 Monthly        00001OPNZA                                                      BAEC 23965358                Le Roux                                                                                                                                                AV                  00000000900000000000NOPNZAMMDPS          0  03-19 Monthly                                  
103C2019-03-02T10:51+02:00                                                                           89 20853 03-19 Monthly        00001OPNZA                                                      AVIOS3081472023583799        Meissenheimer                                                                                                                                          AV                  00000000580000000000NOPNZAMMDPS          0  03-19 Monthly                                  
103C2019-03-02T10:51+02:00                                                                           89 7473 03-19 Monthly         00001OPNZA                                                      BAEC 23888908                Zacks                                                                                                                                                  AV                  00000000900000000000NOPNZAMMDPS          0  03-19 Monthly                                  
103C2019-03-02T10:51+02:00                                                                           89 20899 03-19 Monthly        00001OPNZA                                                      BAEC 24080495                Theron                                                                                                                                                 AV                  00000000420000000000NOPNZAFIBRT          0  03-19 Monthly                                  
103C2019-03-02T10:51+02:00                                                                           89 20966 03-19 Monthly        00001OPNZA                                                      BAEC 98585487                Makalima                                                                                                                                               AV                  00000001970000000000NOPNZAFIBMR          0  03-19 Monthly                                  
103C2019-03-02T10:51+02:00                                                                           89 20164 03-19 Monthly        00001OPNZA                                                      AVIOS3081471042065671        Westley                                                                                                                                                AV                  00000000580000000000NOPNZAMMDPS          0  03-19 Monthly                                  
103C2019-03-02T10:51+02:00                                                                           89 19697 03-19 Monthly        00001OPNZA                                                      AVIOS3081471039203137        Ayoob                                                                                                                                                  AV                  00000001480000000000NOPNZAMMDPS          0  03-19 Monthly                                  
103C2019-03-02T10:51+02:00                                                                           89 21024 03-19 Monthly        00001OPNZA                                                      BAEC 24442979                VOLLENHOVEN                                                                                                                                            AV                  00000000580000000000NOPNZAMMDPS          0  03-19 Monthly                                  
103C2019-03-02T10:51+02:00                                                                           89 21057 03-19 Monthly        00001OPNZA                                                      BAEC 13541250                Siko                                                                                                                                                   AV                  00000000580000000000NOPNZAMMDPS          0  03-19 Monthly                                  
103C2019-03-02T10:51+02:00                                                                           89 21062 03-19 Monthly        00001OPNZA                                                      BAEC 16009714                Meter                                                                                                                                                  AV                  00000000420000000000NOPNZAMMDPS          0  03-19 Monthly                                  
103C2019-03-02T10:51+02:00                                                                           89 21080 03-19                00001OPNZA                                                      BAEC 24639846                Bodill                                                                                                                                                 AV                  00000000550000000000NOPNZAFIBRT          7293 20Mbps Premium Uncapped 03-19                
103C2019-03-02T10:51+02:00                                                                           89 21081 03-19 Monthly        00001OPNZA                                                      BAEC 97594317                Marais                                                                                                                                                 AV                  00000000580000000000NOPNZAMMDPS          0  03-19 Monthly                                  
103C2019-03-02T10:51+02:00                                                                           89 21102 03-19 Monthly        00001OPNZA                                                      BAEC 20210442                Bester                                                                                                                                                 AV                  00000000920000000000NOPNZAMMDPS          0  03-19 Monthly                                  
90000010800000108000000000000000000012138