000301OPNZA00001ANAINP011202020-01-02T09:14+02:00
103C2020-01-02T09:14+02:00                                                                           118 19410 01-20 Monthly       00001OPNZA                                                      BAEC 64809343                Wright                                                                                                                                                 AV                  00000007200000000000NOPNZAMMDPS          0  01-20 Monthly                                  
103C2020-01-02T09:14+02:00                                                                           118 20244 01-20 Monthly       00001OPNZA                                                      BAEC 17715301                Nijland                                                                                                                                                AV                  00000000920000000000NOPNZAMMDPS          0  01-20 Monthly                                  
103C2020-01-02T09:14+02:00                                                                           118 19348 01-20 Monthly       00001OPNZA                                                      BAEC 21273431                Thompson                                                                                                                                               AV                  00000001650000000000NOPNZAFIBRT          0  01-20 Monthly                                  
103C2020-01-02T09:14+02:00                                                                           118 19422 01-20               00001OPNZA                                                      BAEC 19282203                Steenkamp                                                                                                                                              AV                  00000000560000000000NOPNZAUBAMR          7038 4Mbps Premium Uncapped 01-20                 
103C2020-01-02T09:14+02:00                                                                           118 19521 01-20               00001OPNZA                                                      BAEC 12570957                Wright                                                                                                                                                 AV                  00000003390000000000NOPNZAFIBMR          7194 R989 - 40Mbps Fibre Line Rental + 300GB Cappe
103C2020-01-02T09:14+02:00                                                                           118 13046 01-20 Monthly       00001OPNZA                                                      BAEC 25922325                Barnard                                                                                                                                                AV                  00000004720000000000NOPNZAUBFMR          0  01-20 Monthly                                  
103C2020-01-02T09:14+02:00                                                                           118 19634 01-20 Monthly       00001OPNZA                                                      BAEC 15420269                Kyzer                                                                                                                                                  AV                  00000000920000000000NOPNZAMMDPS          0  01-20 Monthly                                  
103C2020-01-02T09:14+02:00                                                                           118 19850 01-20 Monthly       00001OPNZA                                                      BAEC 24270685                Hague                                                                                                                                                  AV                  00000001420000000000NOPNZAMMDPS          0  01-20 Monthly                                  
103C2020-01-02T09:14+02:00                                                                           118 13218 01-20 Monthly       00001OPNZA                                                      BAEC 18423570                Gold                                                                                                                                                   AV                  00000004470000000000NOPNZAUBFMR          0  01-20 Monthly                                  
103C2020-01-02T09:14+02:00                                                                           118 20095 01-20 Monthly       00001OPNZA                                                      BAEC 19569120                Coetzee                                                                                                                                                AV                  00000000900000000000NOPNZAMMDPS          0  01-20 Monthly                                  
103C2020-01-02T09:14+02:00                                                                           118 20263 01-20 Monthly       00001OPNZA                                                      BAEC 24758050                Steyn                                                                                                                                                  AV                  00000000930000000000NOPNZAFIBRT          0  01-20 Monthly                                  
103C2020-01-02T09:14+02:00                                                                           118 20399 01-20 Monthly       00001OPNZA                                                      BAEC 17098787                Botes                                                                                                                                                  AV                  00000000580000000000NOPNZAMMDPS          0  01-20 Monthly                                  
103C2020-01-02T09:14+02:00                                                                           118 20197 01-20 Monthly       00001OPNZA                                                      BAEC 61028655                Thrussell                                                                                                                                              AV                  00000000920000000000NOPNZAMMDPS          0  01-20 Monthly                                  
103C2020-01-02T09:14+02:00                                                                           118 20544 01-20 Monthly       00001OPNZA                                                      BAEC 14270517                Patel                                                                                                                                                  AV                  00000000580000000000NOPNZAMMDPS          0  01-20 Monthly                                  
103C2020-01-02T09:14+02:00                                                                           118 20559 01-20 Monthly       00001OPNZA                                                      BAEC 30592397                Barker                                                                                                                                                 AV                  00000000580000000000NOPNZAMMDPS          0  01-20 Monthly                                  
103C2020-01-02T09:14+02:00                                                                           118 20589 01-20 Monthly       00001OPNZA                                                      BAEC 15973401                Daniels                                                                                                                                                AV                  00000000580000000000NOPNZAMMDPS          0  01-20 Monthly                                  
103C2020-01-02T09:14+02:00                                                                           118 19448 01-20 Monthly       00001OPNZA                                                      BAEC 22595299                Schoeman                                                                                                                                               AV                  00000001970000000000NOPNZAUBFMR          0  01-20 Monthly                                  
103C2020-01-02T09:14+02:00                                                                           118 20853 01-20 Monthly       00001OPNZA                                                      BAEC 3081472023583799        Meissenheimer                                                                                                                                          AV                  00000000580000000000NOPNZAMMDPS          0  01-20 Monthly                                  
103C2020-01-02T09:14+02:00                                                                           118 20899 01-20 Monthly       00001OPNZA                                                      BAEC 24080495                Theron                                                                                                                                                 AV                  00000000420000000000NOPNZAFIBRT          0  01-20 Monthly                                  
103C2020-01-02T09:14+02:00                                                                           118 20966 01-20 Monthly       00001OPNZA                                                      BAEC 98585487                Makalima                                                                                                                                               AV                  00000001970000000000NOPNZAFIBMR          0  01-20 Monthly                                  
103C2020-01-02T09:14+02:00                                                                           118 20653 01-20               00001OPNZA                                                      BAEC 23906846                Bonthuys                                                                                                                                               AV                  00000001970000000000NOPNZAUBFMR          7243 (R789 - 10Mbps Uncapped Fibre Data + Fibre Li
103C2020-01-02T09:14+02:00                                                                           118 21029 01-20 Monthly       00001OPNZA                                                      BAEC 24751479                Weber                                                                                                                                                  AV                  00000000900000000000NOPNZAMMDPS          0  01-20 Monthly                                  
103C2020-01-02T09:14+02:00                                                                           118 21102 01-20 Monthly       00001OPNZA                                                      BAEC 20210442                Bester                                                                                                                                                 AV                  00000000920000000000NOPNZAMMDPS          0  01-20 Monthly                                  
103C2020-01-02T09:14+02:00                                                                           118 21425 01-20 Monthly       00001OPNZA                                                      BAEC 15209015                Barnard                                                                                                                                                AV                  00000000600000000000NOPNZAMMDPS          0  01-20 Monthly                                  
103C2020-01-02T09:14+02:00                                                                           118 21691 01-20 Monthly       00001OPNZA                                                      BAEC 62549155                Jansen                                                                                                                                                 AV                  00000000930000000000NOPNZAFIBRT          0  01-20 Monthly                                  
103C2020-01-02T09:14+02:00                                                                           118 20431 01-20 Monthly       00001OPNZA                                                      BAEC 15508122                Africa                                                                                                                                                 AV                  00000000600000000000NOPNZAFIBRT          0  01-20 Monthly                                  
103C2020-01-02T09:14+02:00                                                                           118 19911 01-20 Monthly       00001OPNZA                                                      BAEC 45464915                Lopes                                                                                                                                                  AV                  00000003600000000000NOPNZAFIBMR          0  01-20 Monthly                                  
103C2020-01-02T09:14+02:00                                                                           118 21919 01-20 Monthly       00001OPNZA                                                      BAEC 18474548                Nel                                                                                                                                                    AV                  00000001370000000000NOPNZAFIBMR          0  01-20 Monthly                                  
90000002800000028000000000000000000004615