000301OPNZA00001ANAINP005602018-09-11T20:19+02:00
103C2018-09-11T20:19+02:00                                                                           62 20535 09-18 admin          00001OPNZA                                                      AVIOS3081471044556123        Brink                                                                                                                                                  AV                  00000020000000000000NOPNZAMMDPS          7777 admin reward 09-18 admin                     
103C2018-09-11T20:19+02:00                                                                           62 20536 09-18 admin          00001OPNZA                                                      AVIOS3081472006020710        Grootboom                                                                                                                                              AV                  00000020000000000000NOPNZAMMDPS          7777 admin reward 09-18 admin                     
103C2018-09-11T20:19+02:00                                                                           62 5911 09-18 admin           00001OPNZA                                                      BAEC 44250817                Adam                                                                                                                                                   AV                  00000020000000000000NOPNZAMMDPS          7777 admin reward 09-18 admin                     
103C2018-09-11T20:19+02:00                                                                           62 20541 09-18 admin          00001OPNZA                                                      AVIOS3081472020472988        Van Zyl                                                                                                                                                AV                  00000020000000000000NOPNZAMMDPS          7777 admin reward 09-18 admin                     
103C2018-09-11T20:19+02:00                                                                           62 20544 09-18 admin          00001OPNZA                                                      BAEC 14270517                Patel                                                                                                                                                  AV                  00000020000000000000NOPNZAMMDPS          7777 admin reward 09-18 admin                     
90000000500000005000000000000000000010000