000301OPNZA00001ANAINP013202020-08-03T10:10+02:00
103C2020-08-03T10:10+02:00                                                                           138 86 08-20                  00001OPNZA                                                      BAEC 61608378                Wright                                                                                                                                                 AV                  00000100000000000000NOPNZAFIBRT          7894 test 08-20                                   
103C2020-08-03T10:10+02:00                                                                           138 22631 08-20               00001OPNZA                                                      BAEC 27993974                Hartnick                                                                                                                                               AV                  00000000680000000000NOPNZAMMDPS          8002 Fabian Hartnick ( B Witbooi) (Reseller) (R180
103C2020-08-03T10:10+02:00                                                                           138 20244 08-20 Monthly       00001OPNZA                                                      BAEC 17715301                Nijland                                                                                                                                                AV                  00000000920000000000NOPNZAMMDPS          0  08-20 Monthly                                  
103C2020-08-03T10:10+02:00                                                                           138 19521 08-20               00001OPNZA                                                      BAEC 12570957                Wright                                                                                                                                                 AV                  00000003390000000000NOPNZAFIBMR          7194 R989 - 40Mbps Fibre Line Rental + 300GB Cappe
103C2020-08-03T10:10+02:00                                                                           138 20095 08-20               00001OPNZA                                                      BAEC 19569120                Coetzee                                                                                                                                                AV                  00000000900000000000NOPNZAMMDPS          7966 Johan Coetzee (R539 - 100GB LTE-A Mobile Wifi
103C2020-08-03T10:10+02:00                                                                           138 22157 08-20               00001OPNZA                                                      BAEC 3081471040373978        Greeff                                                                                                                                                 AV                  00000000580000000000NOPNZAMMDPS          7975 Dominique Greeff (R349 - 45GB Anytime + 45GB 
103C2020-08-03T10:10+02:00                                                                           138 19805 08-20               00001OPNZA                                                      BAEC Owen.clark              Clark                                                                                                                                                  AV                  00000000580000000000NOPNZAMMDPS          7967 Owen Clark (R345 - 50GB LTE-A Mobile Wifi) (D
103C2020-08-03T10:10+02:00                                                                           138 19448 08-20 Monthly       00001OPNZA                                                      BAEC 22595299                Schoeman                                                                                                                                               AV                  00000001970000000000NOPNZAUBFMR          0  08-20 Monthly                                  
103C2020-08-03T10:10+02:00                                                                           138 20966 08-20 Monthly       00001OPNZA                                                      BAEC 98585487                Makalima                                                                                                                                               AV                  00000001970000000000NOPNZAFIBMR          0  08-20 Monthly                                  
103C2020-08-03T10:10+02:00                                                                           138 21029 08-20 Monthly       00001OPNZA                                                      BAEC 24751479                Weber                                                                                                                                                  AV                  00000000900000000000NOPNZAMMDPS          0  08-20 Monthly                                  
103C2020-08-03T10:10+02:00                                                                           138 19911 08-20 Monthly       00001OPNZA                                                      BAEC 45464915                Lopes                                                                                                                                                  AV                  00000003600000000000NOPNZAFIBMR          0  08-20 Monthly                                  
103C2020-08-03T10:10+02:00                                                                           138 21919 08-20 Monthly       00001OPNZA                                                      BAEC 18474548                Nel                                                                                                                                                    AV                  00000001370000000000NOPNZAFIBMR          0  08-20 Monthly                                  
103C2020-08-03T10:10+02:00                                                                           138 20263 08-20 Monthly       00001OPNZA                                                      BAEC 24758050                Steyn                                                                                                                                                  AV                  00000001750000000000NOPNZAUBFMR          0  08-20 Monthly                                  
103C2020-08-03T10:10+02:00                                                                           138 20431 08-20               00001OPNZA                                                      BAEC 15508122                Africa                                                                                                                                                 AV                  00000002730000000000NOPNZAMMDPS          08-20                                             
103C2020-08-03T10:10+02:00                                                                           138 22357 08-20 Monthly       00001OPNZA                                                      BAEC 24926011                White                                                                                                                                                  AV                  00000001810000000000NOPNZAMMDPS          0  08-20 Monthly                                  
103C2020-08-03T10:10+02:00                                                                           138 20399 08-20 Monthly       00001OPNZA                                                      BAEC 17098787                Botes                                                                                                                                                  AV                  00000000920000000000NOPNZAMMDPS          0  08-20 Monthly                                  
103C2020-08-03T10:10+02:00                                                                           138 18611 08-20               00001OPNZA                                                      BAEC 27952680                Rogers                                                                                                                                                 AV                  00000000410000000000NOPNZAUBAMR          7782 Eugene Rogers (Client) (R289 - 4Mbps Premium 
103C2020-08-03T10:10+02:00                                                                           138 20011 08-20 Monthly       00001OPNZA                                                      BAEC 203168453               Kedian                                                                                                                                                 AV                  00000000450000000000NOPNZAMMDPS          0  08-20 Monthly                                  
103C2020-08-03T10:10+02:00                                                                           138 20150 08-20 Monthly       00001OPNZA                                                      BAEC 17666373                Swart                                                                                                                                                  AV                  00000000750000000000NOPNZAMMDPS          0  08-20 Monthly                                  
103C2020-08-03T10:10+02:00                                                                           138 20197 08-20 Monthly       00001OPNZA                                                      BAEC 61028655                Thrussell                                                                                                                                              AV                  00000000580000000000NOPNZAMMDPS          0  08-20 Monthly                                  
90000002000000020000000000000000000012626