000301OPNZA00001ANAINP010202019-09-03T08:33+02:00
103C2019-09-03T08:33+02:00                                                                           108 19410 09-19 Monthly       00001OPNZA                                                      BAEC 64809343                Wright                                                                                                                                                 AV                  00000007200000000000NOPNZAMMDPS          0  09-19 Monthly                                  
103C2019-09-03T08:33+02:00                                                                           108 20244 09-19 Monthly       00001OPNZA                                                      BAEC 17715301                Nijland                                                                                                                                                AV                  00000000920000000000NOPNZAMMDPS          0  09-19 Monthly                                  
103C2019-09-03T08:33+02:00                                                                           108 19348 09-19 Monthly       00001OPNZA                                                      BAEC 21273431                Thompson                                                                                                                                               AV                  00000001650000000000NOPNZAFIBRT          0  09-19 Monthly                                  
103C2019-09-03T08:33+02:00                                                                           108 19404 09-19 Monthly       00001OPNZA                                                      BAEC 26505918                Morland                                                                                                                                                AV                  00000001670000000000NOPNZAMMDPS          0  09-19 Monthly                                  
103C2019-09-03T08:33+02:00                                                                           108 19422 09-19               00001OPNZA                                                      BAEC 19282203                Steenkamp                                                                                                                                              AV                  00000000560000000000NOPNZAUBAMR          7038 4Mbps Premium Uncapped 09-19                 
103C2019-09-03T08:33+02:00                                                                           108 19521 09-19               00001OPNZA                                                      BAEC 12570957                Wright                                                                                                                                                 AV                  00000003390000000000NOPNZAFIBMR          7194 R989 - 40Mbps Fibre Line Rental + 300GB Cappe
103C2019-09-03T08:33+02:00                                                                           108 13046 09-19 Monthly       00001OPNZA                                                      BAEC 25922325                Barnard                                                                                                                                                AV                  00000004720000000000NOPNZAUBFMR          0  09-19 Monthly                                  
103C2019-09-03T08:33+02:00                                                                           108 19634 09-19 Monthly       00001OPNZA                                                      BAEC 15420269                Kyzer                                                                                                                                                  AV                  00000000920000000000NOPNZAMMDPS          0  09-19 Monthly                                  
103C2019-09-03T08:33+02:00                                                                           108 19850 09-19 Monthly       00001OPNZA                                                      BAEC 24270685                Hague                                                                                                                                                  AV                  00000001420000000000NOPNZAMMDPS          0  09-19 Monthly                                  
103C2019-09-03T08:33+02:00                                                                           108 13218 09-19 Monthly       00001OPNZA                                                      BAEC 49929245                Gold                                                                                                                                                   AV                  00000004470000000000NOPNZAUBFMR          0  09-19 Monthly                                  
103C2019-09-03T08:33+02:00                                                                           108 20011 09-19 Monthly       00001OPNZA                                                      BAEC 203168453               Kedian                                                                                                                                                 AV                  00000001670000000000NOPNZAMMDPS          0  09-19 Monthly                                  
103C2019-09-03T08:33+02:00                                                                           108 20095 09-19 Monthly       00001OPNZA                                                      BAEC 19569120                Coetzee                                                                                                                                                AV                  00000000900000000000NOPNZAMMDPS          0  09-19 Monthly                                  
103C2019-09-03T08:33+02:00                                                                           108 20173 09-19 Monthly       00001OPNZA                                                      BAEC 25488219                Pieterse                                                                                                                                               AV                  00000000900000000000NOPNZAMMDPS          0  09-19 Monthly                                  
103C2019-09-03T08:33+02:00                                                                           108 20240 09-19 Monthly       00001OPNZA                                                      BAEC 60277048                Myburgh                                                                                                                                                AV                  00000001420000000000NOPNZAMMDPS          0  09-19 Monthly                                  
103C2019-09-03T08:33+02:00                                                                           108 20399 09-19 Monthly       00001OPNZA                                                      BAEC 17098787                Botes                                                                                                                                                  AV                  00000000580000000000NOPNZAMMDPS          0  09-19 Monthly                                  
103C2019-09-03T08:33+02:00                                                                           108 19805 09-19 Monthly       00001OPNZA                                                      BAEC Owen.clark              Clark                                                                                                                                                  AV                  00000000580000000000NOPNZAMMDPS          0  09-19 Monthly                                  
103C2019-09-03T08:33+02:00                                                                           108 20197 09-19 Monthly       00001OPNZA                                                      BAEC 61028655                Thrussell                                                                                                                                              AV                  00000000920000000000NOPNZAMMDPS          0  09-19 Monthly                                  
103C2019-09-03T08:33+02:00                                                                           108 20544 09-19 Monthly       00001OPNZA                                                      BAEC 14270517                Patel                                                                                                                                                  AV                  00000000580000000000NOPNZAMMDPS          0  09-19 Monthly                                  
103C2019-09-03T08:33+02:00                                                                           108 20559 09-19 Monthly       00001OPNZA                                                      BAEC 30592397                Barker                                                                                                                                                 AV                  00000000580000000000NOPNZAMMDPS          0  09-19 Monthly                                  
103C2019-09-03T08:33+02:00                                                                           108 20589 09-19 Monthly       00001OPNZA                                                      BAEC 15973401                Daniels                                                                                                                                                AV                  00000000580000000000NOPNZAMMDPS          0  09-19 Monthly                                  
103C2019-09-03T08:33+02:00                                                                           108 20607 09-19 Monthly       00001OPNZA                                                      BAEC 24346930                Mbusi                                                                                                                                                  AV                  00000000900000000000NOPNZAMMDPS          0  09-19 Monthly                                  
103C2019-09-03T08:33+02:00                                                                           108 20657 09-19 Monthly       00001OPNZA                                                      BAEC 15055326                Nicolai (Greystone)                                                                                                                                    AV                  00000001420000000000NOPNZAMMDPS          0  09-19 Monthly                                  
103C2019-09-03T08:33+02:00                                                                           108 20676 09-19 Monthly       00001OPNZA                                                      BAEC 23562139                Klopper                                                                                                                                                AV                  00000000900000000000NOPNZAMMDPS          0  09-19 Monthly                                  
103C2019-09-03T08:33+02:00                                                                           108 19448 09-19 Monthly       00001OPNZA                                                      BAEC 22595299                Schoeman                                                                                                                                               AV                  00000001970000000000NOPNZAUBFMR          0  09-19 Monthly                                  
103C2019-09-03T08:33+02:00                                                                           108 20784 09-19 Monthly       00001OPNZA                                                      BAEC 628484401               Mincher                                                                                                                                                AV                  00000001420000000000NOPNZAFIBRT          0  09-19 Monthly                                  
103C2019-09-03T08:33+02:00                                                                           108 20827 09-19 Monthly       00001OPNZA                                                      BAEC 23965358                Le Roux                                                                                                                                                AV                  00000000900000000000NOPNZAMMDPS          0  09-19 Monthly                                  
103C2019-09-03T08:33+02:00                                                                           108 20853 09-19 Monthly       00001OPNZA                                                      BAEC 24581189                Meissenheimer                                                                                                                                          AV                  00000000580000000000NOPNZAMMDPS          0  09-19 Monthly                                  
103C2019-09-03T08:33+02:00                                                                           108 7473 09-19 Monthly        00001OPNZA                                                      BAEC 23888908                Zacks                                                                                                                                                  AV                  00000000900000000000NOPNZAMMDPS          0  09-19 Monthly                                  
103C2019-09-03T08:33+02:00                                                                           108 20899 09-19 Monthly       00001OPNZA                                                      BAEC 24080495                Theron                                                                                                                                                 AV                  00000000420000000000NOPNZAFIBRT          0  09-19 Monthly                                  
103C2019-09-03T08:33+02:00                                                                           108 20813 09-19 Monthly       00001OPNZA                                                      BAEC 24335373                Ikin                                                                                                                                                   AV                  00000001420000000000NOPNZAMMDPS          0  09-19 Monthly                                  
103C2019-09-03T08:33+02:00                                                                           108 20653 09-19               00001OPNZA                                                      BAEC 23906846                Bonthuys                                                                                                                                               AV                  00000001970000000000NOPNZAUBFMR          7243 (R789 - 10Mbps Uncapped Fibre Data + Fibre Li
103C2019-09-03T08:33+02:00                                                                           108 21029 09-19 Monthly       00001OPNZA                                                      BAEC 24751479                Weber                                                                                                                                                  AV                  00000000900000000000NOPNZAMMDPS          0  09-19 Monthly                                  
103C2019-09-03T08:33+02:00                                                                           108 21057 09-19 Monthly       00001OPNZA                                                      BAEC 13541250                Siko                                                                                                                                                   AV                  00000000580000000000NOPNZAMMDPS          0  09-19 Monthly                                  
103C2019-09-03T08:33+02:00                                                                           108 21081 09-19 Monthly       00001OPNZA                                                      BAEC 97594317                Marais                                                                                                                                                 AV                  00000000580000000000NOPNZAMMDPS          0  09-19 Monthly                                  
103C2019-09-03T08:33+02:00                                                                           108 21102 09-19 Monthly       00001OPNZA                                                      BAEC 20210442                Bester                                                                                                                                                 AV                  00000000920000000000NOPNZAMMDPS          0  09-19 Monthly                                  
103C2019-09-03T08:33+02:00                                                                           108 21425 09-19 Monthly       00001OPNZA                                                      BAEC 15209015                Barnard                                                                                                                                                AV                  00000000600000000000NOPNZAMMDPS          0  09-19 Monthly                                  
103C2019-09-03T08:33+02:00                                                                           108 21506 09-19 Monthly       00001OPNZA                                                      BAEC 25521336                Brazier                                                                                                                                                AV                  00000001420000000000NOPNZAFIBRT          0  09-19 Monthly                                  
103C2019-09-03T08:33+02:00                                                                           108 21080 09-19               00001OPNZA                                                      BAEC 24639846                Bodill                                                                                                                                                 AV                  00000002340000000000NOPNZAUBAMR          7537 Sherri-Ann Bodill (R549 - 20Mbps Premium Unca
103C2019-09-03T08:33+02:00                                                                           108 20431 09-19 Monthly       00001OPNZA                                                      BAEC 15508122                Africa                                                                                                                                                 AV                  00000000600000000000NOPNZAFIBRT          0  09-19 Monthly                                  
90000003900000039000000000000000000005637