000301OPNZA00001ANAINP004902018-08-09T09:28+02:00
103C2018-08-09T09:28+02:00                                                                           55 20240 08-18 Monthly        00001OPNZA                                                      BAEC 60277048                Myburgh                                                                                                                                                AV                  00000000900000000000NOPNZAMMDPS          0  08-18 Monthly                                  
103C2018-08-09T09:28+02:00                                                                           55 20261 08-18 Monthly        00001OPNZA                                                      AVIOS3081471042339985        Joseph                                                                                                                                                 AV                  00000001420000000000NOPNZAMMDPS          0  08-18 Monthly                                  
103C2018-08-09T09:28+02:00                                                                           55 20239 08-18                00001OPNZA                                                      AVIOS3081471041605485        Joubert                                                                                                                                                AV                  00000000410000000000NOPNZAFIBRT          7038 4Mbps Premium Uncapped 08-18                 
103C2018-08-09T09:28+02:00                                                                           55 18368 08-18                00001OPNZA                                                      AVIOS3081471021053177        (Pty) Ltd                                                                                                                                              AV                  00000000840000000000NOPNZAUBAMR          7039 8Mbps Premium Uncapped 08-18                 
103C2018-08-09T09:28+02:00                                                                           55 19410 08-18 Monthly        00001OPNZA                                                      BAEC 64809343                Wright                                                                                                                                                 AV                  00000007250000000000NOPNZAMMDPS          0  08-18 Monthly                                  
103C2018-08-09T09:28+02:00                                                                           55 20047 08-18 Monthly        00001OPNZA                                                      AVIOS3081472027733077        MAHOMEDY                                                                                                                                               AV                  00000002000000000000NOPNZAMMDPS          0  08-18 Monthly                                  
103C2018-08-09T09:28+02:00                                                                           55 20092 08-18 Monthly        00001OPNZA                                                      AVIOS3081471041603845        van Pype                                                                                                                                               AV                  00000000900000000000NOPNZAFIBRT          0  08-18 Monthly                                  
103C2018-08-09T09:28+02:00                                                                           55 20087 08-18 Monthly        00001OPNZA                                                      AVIOS3081471042287762        Mlotshwa                                                                                                                                               AV                  00000000900000000000NOPNZAFIBRT          0  08-18 Monthly                                  
103C2018-08-09T09:28+02:00                                                                           55 20334 08-18 Monthly        00001OPNZA                                                      AVIOS3081471142989754        Chemaly                                                                                                                                                AV                  00000002250000000000NOPNZAMMDPS          0  08-18 Monthly                                  
103C2018-08-09T09:28+02:00                                                                           55 20141 08-18 Monthly        00001OPNZA                                                      AVIOS3081471041899039        Henderson                                                                                                                                              AV                  00000002050000000000NOPNZAFIBRT          0  08-18 Monthly                                  
103C2018-08-09T09:28+02:00                                                                           55 19668 08-18 Monthly        00001OPNZA                                                      AVIOS3081472029688584        Smith                                                                                                                                                  AV                  00000000920000000000NOPNZAMMDPS          0  08-18 Monthly                                  
103C2018-08-09T09:28+02:00                                                                           55 12490 08-18                00001OPNZA                                                      BAEC 61128708                Croker                                                                                                                                                 AV                  00000000980000000000NOPNZAUBAMR          5111 4Mbps Home Uncapped Unshaped Premium 08-18   
103C2018-08-09T09:28+02:00                                                                           55 191 08-18 Monthly          00001OPNZA                                                      AVIOS1234562                 tew12                                                                                                                                                  AV                  00000000140000000000NOPNZAUBAMR          44 1Mbps Home Uncapped ADSL 08-18 Monthly         
103C2018-08-09T09:28+02:00                                                                           55 20320 08-18 Monthly        00001OPNZA                                                      AVIOS3081471043063212        Esterhuizen                                                                                                                                            AV                  00000000900000000000NOPNZAFIBRT          0  08-18 Monthly                                  
103C2018-08-09T09:28+02:00                                                                           55 4307 08-18 Monthly         00001OPNZA                                                      AVIOS3081471143686300        marillier                                                                                                                                              AV                  00000000580000000000NOPNZAMMDPS          0  08-18 Monthly                                  
103C2018-08-09T09:28+02:00                                                                           55 20244 08-18 Monthly        00001OPNZA                                                      BAEC 17715301                Nijland                                                                                                                                                AV                  00000000920000000000NOPNZAMMDPS          0  08-18 Monthly                                  
103C2018-08-09T09:28+02:00                                                                           55 20218 08-18                00001OPNZA                                                      AVIOS3081471029026811        Arendse                                                                                                                                                AV                  00000000410000000000NOPNZAUBAMR          7038 4Mbps Premium Uncapped 08-18                 
103C2018-08-09T09:28+02:00                                                                           55 15208 08-18 Monthly        00001OPNZA                                                      AVIOS3081471037262895        Badenhorst                                                                                                                                             AV                  00000001670000000000NOPNZAMMDPS          0  08-18 Monthly                                  
103C2018-08-09T09:28+02:00                                                                           55 19348 08-18 Monthly        00001OPNZA                                                      BAEC 21273431                Thompson                                                                                                                                               AV                  00000001650000000000NOPNZAUBFMR          0  08-18 Monthly                                  
103C2018-08-09T09:28+02:00                                                                           55 19358 08-18 Monthly        00001OPNZA                                                      AVIOS3081471042147339        Kruger                                                                                                                                                 AV                  00000002250000000000NOPNZAMMDPS          0  08-18 Monthly                                  
103C2018-08-09T09:28+02:00                                                                           55 19320 08-18 Monthly        00001OPNZA                                                      AVIOS3081471035552875        Pelzer                                                                                                                                                 AV                  00000001330000000000NOPNZAMMDPS          0  08-18 Monthly                                  
103C2018-08-09T09:28+02:00                                                                           55 19422 08-18                00001OPNZA                                                      BAEC 19282203                Steenkamp                                                                                                                                              AV                  00000000560000000000NOPNZAUBAMR          7038 4Mbps Premium Uncapped 08-18                 
103C2018-08-09T09:28+02:00                                                                           55 19521 08-18                00001OPNZA                                                      BAEC 12570957                Wright                                                                                                                                                 AV                  00000003390000000000NOPNZAFIBMR          7194 R989 - 40Mbps Fibre Line Rental + 300GB Cappe
103C2018-08-09T09:28+02:00                                                                           55 13046 08-18 Monthly        00001OPNZA                                                      BAEC 25922325                Barnard                                                                                                                                                AV                  00000004720000000000NOPNZAUBFMR          0  08-18 Monthly                                  
103C2018-08-09T09:28+02:00                                                                           55 17942 08-18 Monthly        00001OPNZA                                                      AVIOS3081472030080649        Venter                                                                                                                                                 AV                  00000000500000000000NOPNZAMMDPS          0  08-18 Monthly                                  
103C2018-08-09T09:28+02:00                                                                           55 19488 08-18 Monthly        00001OPNZA                                                      AVIOS3081472024934512        brink                                                                                                                                                  AV                  00000000500000000000NOPNZAMMDPS          0  08-18 Monthly                                  
103C2018-08-09T09:28+02:00                                                                           55 19154 08-18 Monthly        00001OPNZA                                                      AVIOS3081471040231200        Magee                                                                                                                                                  AV                  00000000500000000000NOPNZAMMDPS          0  08-18 Monthly                                  
103C2018-08-09T09:28+02:00                                                                           55 19266 08-18 Monthly        00001OPNZA                                                      AVIOS3081471036135324        Kubheka                                                                                                                                                AV                  00000000500000000000NOPNZAMMDPS          0  08-18 Monthly                                  
103C2018-08-09T09:28+02:00                                                                           55 19111 08-18 Monthly        00001OPNZA                                                      AVIOS3081471022641129        Sonbadhar                                                                                                                                              AV                  00000000920000000000NOPNZAMMDPS          0  08-18 Monthly                                  
103C2018-08-09T09:28+02:00                                                                           55 8524 08-18 Monthly         00001OPNZA                                                      AVIOS3081471037241238        Goncalves                                                                                                                                              AV                  00000001720000000000NOPNZAFIBMR          0  08-18 Monthly                                  
103C2018-08-09T09:28+02:00                                                                           55 19238 08-18 Monthly        00001OPNZA                                                      BAEC 18336986                Arnab                                                                                                                                                  AV                  00000001670000000000NOPNZAMMDPS          0  08-18 Monthly                                  
103C2018-08-09T09:28+02:00                                                                           55 19542 08-18 Monthly        00001OPNZA                                                      AVIOS3081472008507086        du Plessis                                                                                                                                             AV                  00000000500000000000NOPNZAMMDPS          0  08-18 Monthly                                  
103C2018-08-09T09:28+02:00                                                                           55 19634 08-18 Monthly        00001OPNZA                                                      BAEC 15420269                Kyzer                                                                                                                                                  AV                  00000000920000000000NOPNZAMMDPS          0  08-18 Monthly                                  
103C2018-08-09T09:28+02:00                                                                           55 19699 08-18 Monthly        00001OPNZA                                                      AVIOS3081471038661319        Blignaut                                                                                                                                               AV                  00000000900000000000NOPNZAMMDPS          0  08-18 Monthly                                  
103C2018-08-09T09:28+02:00                                                                           55 19717 08-18 Monthly        00001OPNZA                                                      AVIOS3081471042843416        waja                                                                                                                                                   AV                  00000000920000000000NOPNZAFIBRT          0  08-18 Monthly                                  
103C2018-08-09T09:28+02:00                                                                           55 19697 08-18 Monthly        00001OPNZA                                                      AVIOS3081471039203137        Ayoob                                                                                                                                                  AV                  00000000580000000000NOPNZAFIBRT          0  08-18 Monthly                                  
103C2018-08-09T09:28+02:00                                                                           55 19723 08-18 Monthly        00001OPNZA                                                      AVIOS3081471038860010        Le Roux                                                                                                                                                AV                  00000000920000000000NOPNZAMMDPS          0  08-18 Monthly                                  
103C2018-08-09T09:28+02:00                                                                           55 19708 08-18 Monthly        00001OPNZA                                                      AVIOS3081471039161616        Geel                                                                                                                                                   AV                  00000001650000000000NOPNZAMMDPS          0  08-18 Monthly                                  
103C2018-08-09T09:28+02:00                                                                           55 13292 08-18 Monthly        00001OPNZA                                                      BAEC 10428689                Nefdt                                                                                                                                                  AV                  00000001420000000000NOPNZAFIBRT          0  08-18 Monthly                                  
103C2018-08-09T09:28+02:00                                                                           55 19702 08-18 Monthly        00001OPNZA                                                      AVIOS3081471039103089        Ribombo                                                                                                                                                AV                  00000000500000000000NOPNZAMMDPS          0  08-18 Monthly                                  
103C2018-08-09T09:28+02:00                                                                           55 19758 08-18 Monthly        00001OPNZA                                                      AVIOS202943850               Pather                                                                                                                                                 AV                  00000000580000000000NOPNZAMMDPS          0  08-18 Monthly                                  
103C2018-08-09T09:28+02:00                                                                           55 19806 08-18 Monthly        00001OPNZA                                                      AVIOS3081471039665772        Jordan                                                                                                                                                 AV                  00000000580000000000NOPNZAMMDPS          0  08-18 Monthly                                  
103C2018-08-09T09:28+02:00                                                                           55 13218 08-18 Monthly        00001OPNZA                                                      BAEC 49929245                Kurgan                                                                                                                                                 AV                  00000004470000000000NOPNZAUBFMR          0  08-18 Monthly                                  
103C2018-08-09T09:28+02:00                                                                           55 19863 08-18 Monthly        00001OPNZA                                                      AVIOS3081471034482835        Paillard                                                                                                                                               AV                  00000000900000000000NOPNZAMMDPS          0  08-18 Monthly                                  
103C2018-08-09T09:28+02:00                                                                           55 19925 08-18 Monthly        00001OPNZA                                                      AVIOS3081471037418133        Williams                                                                                                                                               AV                  00000002670000000000NOPNZAMMDPS          0  08-18 Monthly                                  
103C2018-08-09T09:28+02:00                                                                           55 19949 08-18 Monthly        00001OPNZA                                                      AVIOS3081471039379036        Janse van Rensburg                                                                                                                                     AV                  00000002220000000000NOPNZAUBFMR          0  08-18 Monthly                                  
103C2018-08-09T09:28+02:00                                                                           55 20011 08-18 Monthly        00001OPNZA                                                      AVIOS203168453               Kedian                                                                                                                                                 AV                  00000001670000000000NOPNZAMMDPS          0  08-18 Monthly                                  
103C2018-08-09T09:28+02:00                                                                           55 20031 08-18                00001OPNZA                                                      AVIOS3081471038471198        Diedericks                                                                                                                                             AV                  00000000410000000000NOPNZAUBAMR          7038 4Mbps Premium Uncapped 08-18                 
103C2018-08-09T09:28+02:00                                                                           55 20069 08-18 Monthly        00001OPNZA                                                      AVIOS3081471040975905        Botha                                                                                                                                                  AV                  00000000900000000000NOPNZAFIBRT          0  08-18 Monthly                                  
103C2018-08-09T09:28+02:00                                                                           55 20070 08-18 Monthly        00001OPNZA                                                      AVIOS3081471041561159        Macaskill                                                                                                                                              AV                  00000000920000000000NOPNZAMMDPS          0  08-18 Monthly                                  
103C2018-08-09T09:28+02:00                                                                           55 20065 08-18 Monthly        00001OPNZA                                                      AVIOS3081471042246263        Kirby                                                                                                                                                  AV                  00000000900000000000NOPNZAMMDPS          0  08-18 Monthly                                  
103C2018-08-09T09:28+02:00                                                                           55 20080 08-18 Monthly        00001OPNZA                                                      AVIOS3081471041622431        Schoevers                                                                                                                                              AV                  00000000900000000000NOPNZAMMDPS          0  08-18 Monthly                                  
103C2018-08-09T09:28+02:00                                                                           55 16473 08-18                00001OPNZA                                                      BAEC 14073664                Riddle                                                                                                                                                 AV                  00000001260000000000NOPNZAUBAMR          7046 10Mbps Business Uncapped 08-18               
103C2018-08-09T09:28+02:00                                                                           55 20095 08-18 Monthly        00001OPNZA                                                      BAEC 19569120                Coetzee                                                                                                                                                AV                  00000000900000000000NOPNZAMMDPS          0  08-18 Monthly                                  
103C2018-08-09T09:28+02:00                                                                           55 20093 08-18                00001OPNZA                                                      AVIOS3081471041578088        Klinker                                                                                                                                                AV                  00000000630000000000NOPNZAUBAMR          7040 10Mbps Premium Uncapped 08-18                
103C2018-08-09T09:28+02:00                                                                           55 20109 08-18 Monthly        00001OPNZA                                                      AVIOS3081471209888196        Bowring                                                                                                                                                AV                  00000000900000000000NOPNZAMMDPS          0  08-18 Monthly                                  
103C2018-08-09T09:28+02:00                                                                           55 20112 08-18 Monthly        00001OPNZA                                                      BAEC 15842738                Banwell                                                                                                                                                AV                  00000000900000000000NOPNZAMMDPS          0  08-18 Monthly                                  
103C2018-08-09T09:28+02:00                                                                           55 20123 08-18 Monthly        00001OPNZA                                                      AVIOS3081471142756617        October                                                                                                                                                AV                  00000000900000000000NOPNZAFIBRT          0  08-18 Monthly                                  
103C2018-08-09T09:28+02:00                                                                           55 20126 08-18 Monthly        00001OPNZA                                                      AVIOS114353863               Wiener                                                                                                                                                 AV                  00000000580000000000NOPNZAMMDPS          0  08-18 Monthly                                  
103C2018-08-09T09:28+02:00                                                                           55 20127 08-18 Monthly        00001OPNZA                                                      AVIOS3081471041733501        Harris                                                                                                                                                 AV                  00000000580000000000NOPNZAMMDPS          0  08-18 Monthly                                  
103C2018-08-09T09:28+02:00                                                                           55 20140 08-18 Monthly        00001OPNZA                                                      AVIOS3081471042241983        Mcwatts                                                                                                                                                AV                  00000000580000000000NOPNZAMMDPS          0  08-18 Monthly                                  
103C2018-08-09T09:28+02:00                                                                           55 20150 08-18 Monthly        00001OPNZA                                                      BAEC 17666373                Swart                                                                                                                                                  AV                  00000000580000000000NOPNZAMMDPS          0  08-18 Monthly                                  
103C2018-08-09T09:28+02:00                                                                           55 20151 08-18 Monthly        00001OPNZA                                                      AVIOS3081471041970806        van Rooyen                                                                                                                                             AV                  00000001420000000000NOPNZAMMDPS          0  08-18 Monthly                                  
103C2018-08-09T09:28+02:00                                                                           55 20153 08-18 Monthly        00001OPNZA                                                      AVIOS3081471037202404        Hugo                                                                                                                                                   AV                  00000000580000000000NOPNZAMMDPS          0  08-18 Monthly                                  
103C2018-08-09T09:28+02:00                                                                           55 20164 08-18 Monthly        00001OPNZA                                                      AVIOS3081471042065671        Westley                                                                                                                                                AV                  00000000580000000000NOPNZAMMDPS          0  08-18 Monthly                                  
103C2018-08-09T09:28+02:00                                                                           55 20186 08-18 Monthly        00001OPNZA                                                      AVIOS3081471042178243        Loots                                                                                                                                                  AV                  00000000900000000000NOPNZAMMDPS          0  08-18 Monthly                                  
103C2018-08-09T09:28+02:00                                                                           55 20200 08-18 Monthly        00001OPNZA                                                      AVIOS3081472030503699        Logan                                                                                                                                                  AV                  00000000580000000000NOPNZAMMDPS          0  08-18 Monthly                                  
103C2018-08-09T09:28+02:00                                                                           55 20262 08-18 Monthly        00001OPNZA                                                      AVIOS3081471031097602        Aaron                                                                                                                                                  AV                  00000000580000000000NOPNZAMMDPS          0  08-18 Monthly                                  
103C2018-08-09T09:28+02:00                                                                           55 20263 08-18 Monthly        00001OPNZA                                                      AVIOS3081471042586114        Steyn                                                                                                                                                  AV                  00000000420000000000NOPNZAFIBRT          0  08-18 Monthly                                  
103C2018-08-09T09:28+02:00                                                                           55 20214 08-18 Monthly        00001OPNZA                                                      AVIOS3081471042032101        Ungerer                                                                                                                                                AV                  00000001900000000000NOPNZAMMDPS          0  08-18 Monthly                                  
103C2018-08-09T09:28+02:00                                                                           55 20220 08-18 Monthly        00001OPNZA                                                      AVIOS3081471042381466        Venter                                                                                                                                                 AV                  00000001420000000000NOPNZAFIBRT          0  08-18 Monthly                                  
103C2018-08-09T09:28+02:00                                                                           55 20197 08-18 Monthly        00001OPNZA                                                      BAEC 61028655                Thrussell                                                                                                                                              AV                  00000000900000000000NOPNZAMMDPS          0  08-18 Monthly                                  
103C2018-08-09T09:28+02:00                                                                           55 20049 08-18 Monthly        00001OPNZA                                                      AVIOS3081471041398883        van Wyk                                                                                                                                                AV                  00000003600000000000NOPNZAUBFMR          0  08-18 Monthly                                  
103C2018-08-09T09:28+02:00                                                                           55 20285 08-18 Monthly        00001OPNZA                                                      AVIOS3081471042743525        van Jaarsveld                                                                                                                                          AV                  00000000580000000000NOPNZAMMDPS          0  08-18 Monthly                                  
103C2018-08-09T09:28+02:00                                                                           55 20312 08-18                00001OPNZA                                                      AVIOS3081471148018988        Koekemoer                                                                                                                                              AV                  00000000560000000000NOPNZAUBAMR          7039 8Mbps Premium Uncapped 08-18                 
103C2018-08-09T09:28+02:00                                                                           55 20316 08-18 Monthly        00001OPNZA                                                      AVIOS3081471144532248        Zibula                                                                                                                                                 AV                  00000000420000000000NOPNZAMMDPS          0  08-18 Monthly                                  
103C2018-08-09T09:28+02:00                                                                           55 19821 08-18 Monthly        00001OPNZA                                                      AVIOS3081471042887967        Carreira                                                                                                                                               AV                  00000001700000000000NOPNZAUBFMR          0  08-18 Monthly                                  
103C2018-08-09T09:28+02:00                                                                           55 20345 08-18 Monthly        00001OPNZA                                                      BAEC 97901448                Cloete                                                                                                                                                 AV                  00000000900000000000NOPNZAMMDPS          0  08-18 Monthly                                  
103C2018-08-09T09:28+02:00                                                                           55 20346 08-18 Monthly        00001OPNZA                                                      AVIOS3081471210086079        Naidoo                                                                                                                                                 AV                  00000001420000000000NOPNZAMMDPS          0  08-18 Monthly                                  
103C2018-08-09T09:28+02:00                                                                           55 20347 08-18 Monthly        00001OPNZA                                                      AVIOS3081471043499945        Deolall                                                                                                                                                AV                  00000000500000000000NOPNZAMMDPS          0  08-18 Monthly                                  
103C2018-08-09T09:28+02:00                                                                           55 19439 08-18 Monthly        00001OPNZA                                                      AVIOS3081472024211697        Neve                                                                                                                                                   AV                  00000000920000000000NOPNZAFIBRT          0  08-18 Monthly                                  
103C2018-08-09T09:28+02:00                                                                           55 20382 08-18 Monthly        00001OPNZA                                                      AVIOS3081471026640010        Mtolo                                                                                                                                                  AV                  00000001420000000000NOPNZAMMDPS          0  08-18 Monthly                                  
103C2018-08-09T09:28+02:00                                                                           55 20386 08-18 admin          00001OPNZA                                                      AVIOS3081471043227031        Pretorius                                                                                                                                              AV                  00000020000000000000NOPNZAMMDPS          7777 admin reward 08-18 admin                     
103C2018-08-09T09:28+02:00                                                                           55 20399 08-18 admin          00001OPNZA                                                      AVIOS3081471019643930        Botes                                                                                                                                                  AV                  00000020000000000000NOPNZAMMDPS          7777 admin reward 08-18 admin                     
90000008400000084000000000000000000014019