000301OPNZA00001ANAINP012202020-05-02T13:55+02:00
103C2020-05-02T13:55+02:00                                                                           128 20244 05-20 Monthly       00001OPNZA                                                      BAEC 17715301                Nijland                                                                                                                                                AV                  00000000920000000000NOPNZAMMDPS          0  05-20 Monthly                                  
103C2020-05-02T13:55+02:00                                                                           128 19521 05-20               00001OPNZA                                                      BAEC 12570957                Wright                                                                                                                                                 AV                  00000003390000000000NOPNZAFIBMR          7194 R989 - 40Mbps Fibre Line Rental + 300GB Cappe
103C2020-05-02T13:55+02:00                                                                           128 20095 05-20 Monthly       00001OPNZA                                                      BAEC 19569120                Coetzee                                                                                                                                                AV                  00000000900000000000NOPNZAMMDPS          0  05-20 Monthly                                  
103C2020-05-02T13:55+02:00                                                                           128 20197 05-20 Monthly       00001OPNZA                                                      BAEC 61028655                Thrussell                                                                                                                                              AV                  00000000580000000000NOPNZAMMDPS          0  05-20 Monthly                                  
103C2020-05-02T13:55+02:00                                                                           128 19805 05-20 Monthly       00001OPNZA                                                      BAEC Owen.clark              Clark                                                                                                                                                  AV                  00000000580000000000NOPNZAMMDPS          0  05-20 Monthly                                  
103C2020-05-02T13:55+02:00                                                                           128 20559 05-20 Monthly       00001OPNZA                                                      BAEC 30592397                Barker                                                                                                                                                 AV                  00000000580000000000NOPNZAMMDPS          0  05-20 Monthly                                  
103C2020-05-02T13:55+02:00                                                                           128 20589 05-20 Monthly       00001OPNZA                                                      BAEC 15973401                Daniels                                                                                                                                                AV                  00000000580000000000NOPNZAMMDPS          0  05-20 Monthly                                  
103C2020-05-02T13:55+02:00                                                                           128 19448 05-20 Monthly       00001OPNZA                                                      BAEC 22595299                Schoeman                                                                                                                                               AV                  00000001970000000000NOPNZAUBFMR          0  05-20 Monthly                                  
103C2020-05-02T13:55+02:00                                                                           128 21029 05-20 Monthly       00001OPNZA                                                      BAEC 24751479                Weber                                                                                                                                                  AV                  00000000900000000000NOPNZAMMDPS          0  05-20 Monthly                                  
103C2020-05-02T13:55+02:00                                                                           128 22157 05-20 Monthly       00001OPNZA                                                      BAEC 3081471040373978        Greeff                                                                                                                                                 AV                  00000000580000000000NOPNZAFIBRT          0  05-20 Monthly                                  
103C2020-05-02T13:55+02:00                                                                           128 19911 05-20 Monthly       00001OPNZA                                                      BAEC 45464915                Lopes                                                                                                                                                  AV                  00000003600000000000NOPNZAFIBMR          0  05-20 Monthly                                  
103C2020-05-02T13:55+02:00                                                                           128 21919 05-20 Monthly       00001OPNZA                                                      BAEC 18474548                Nel                                                                                                                                                    AV                  00000001370000000000NOPNZAFIBMR          0  05-20 Monthly                                  
103C2020-05-02T13:55+02:00                                                                           128 20263 05-20 Monthly       00001OPNZA                                                      BAEC 24758050                Steyn                                                                                                                                                  AV                  00000001750000000000NOPNZAUBFMR          0  05-20 Monthly                                  
103C2020-05-02T13:55+02:00                                                                           128 21425 05-20 Monthly       00001OPNZA                                                      BAEC 15209015                Barnard                                                                                                                                                AV                  00000000580000000000NOPNZAMMDPS          0  05-20 Monthly                                  
103C2020-05-02T13:55+02:00                                                                           128 20399 05-20 Monthly       00001OPNZA                                                      BAEC 17098787                Botes                                                                                                                                                  AV                  00000000920000000000NOPNZAMMDPS          0  05-20 Monthly                                  
103C2020-05-02T13:55+02:00                                                                           128 22113 05-20 Monthly       00001OPNZA                                                      BAEC 73150052                Flatwell                                                                                                                                               AV                  00000000390000000000NOPNZAFIBRT          0  05-20 Monthly                                  
103C2020-05-02T13:55+02:00                                                                           128 22233 05-20 Monthly       00001OPNZA                                                      BAEC 27093338                Clarke                                                                                                                                                 AV                  00000000400000000000NOPNZAMMDPS          0  05-20 Monthly                                  
103C2020-05-02T13:55+02:00                                                                           128 20431 05-20 Monthly       00001OPNZA                                                      BAEC 15508122                Africa                                                                                                                                                 AV                  00000002480000000000NOPNZAFIBRT          0  05-20 Monthly                                  
103C2020-05-02T13:55+02:00                                                                           128 22244 05-20 Monthly       00001OPNZA                                                      BAEC 26093950                Barnard                                                                                                                                                AV                  00000001330000000000NOPNZAFIBRT          0  05-20 Monthly                                  
103C2020-05-02T13:55+02:00                                                                           128 22329 05-20 Monthly       00001OPNZA                                                      BAEC 92985545                Rodrigues                                                                                                                                              AV                  00000001500000000000NOPNZAMMDPS          0  05-20 Monthly                                  
103C2020-05-02T13:55+02:00                                                                           128 22357 05-20 Monthly       00001OPNZA                                                      BAEC 24926011                White                                                                                                                                                  AV                  00000001650000000000NOPNZAFIBRT          0  05-20 Monthly                                  
103C2020-05-02T13:55+02:00                                                                           128 21786 05-20 Monthly       00001OPNZA                                                      BAEC 26955632                Laas                                                                                                                                                   AV                  00000001330000000000NOPNZAFIBRT          0  05-20 Monthly                                  
103C2020-05-02T13:55+02:00                                                                           128 22370 05-20 Monthly       00001OPNZA                                                      BAEC 17923482                Mangweni                                                                                                                                               AV                  00000000670000000000NOPNZAMMDPS          0  05-20 Monthly                                  
103C2020-05-02T13:55+02:00                                                                           128 19390 05-20 Monthly       00001OPNZA                                                      BAEC 24191231                Grobler                                                                                                                                                AV                  00000000920000000000NOPNZAMMDPS          0  05-20 Monthly                                  
103C2020-05-02T13:55+02:00                                                                           128 19850 05-20 Monthly       00001OPNZA                                                      BAEC 24270685                Hague                                                                                                                                                  AV                  00000001500000000000NOPNZAMMDPS          0  05-20 Monthly                                  
103C2020-05-02T13:55+02:00                                                                           128 22476 05-20 Monthly       00001OPNZA                                                      BAEC 27940589                Ngwenya                                                                                                                                                AV                  00000000920000000000NOPNZAMMDPS          0  05-20 Monthly                                  
90000002600000026000000000000000000003229