000301OPNZA00001ANAINP004402018-07-17T19:23+02:00
103C2018-07-17T19:23+02:00                                                                           50 20320 07-18 admin          00001OPNZA                                                      AVIOS3081471043063212        Esterhuizen                                                                                                                                            AV                  00000020000000000000NOPNZAMMDPS          7777 admin reward 07-18 admin                     
103C2018-07-17T19:23+02:00                                                                           50 20186 07-18 admin          00001OPNZA                                                      AVIOS3081471042178243        Loots                                                                                                                                                  AV                  00000020000000000000NOPNZAMMDPS          7777 admin reward 07-18 admin                     
103C2018-07-17T19:23+02:00                                                                           50 20316 07-18 admin          00001OPNZA                                                      AVIOS3081471144532248        Zibula                                                                                                                                                 AV                  00000020000000000000NOPNZAMMDPS          7777 admin reward 07-18 admin                     
90000000300000003000000000000000000006000