000301OPNZA00001ANAINP011602020-03-02T09:04+02:00
103C2020-03-02T09:04+02:00                                                                           122 19410 03-20 Monthly       00001OPNZA                                                      BAEC 64809343                Wright                                                                                                                                                 AV                  00000007200000000000NOPNZAMMDPS          0  03-20 Monthly                                  
103C2020-03-02T09:04+02:00                                                                           122 21786 03-20 Monthly       00001OPNZA                                                      BAEC 26955632                Laas                                                                                                                                                   AV                  00000002500000000000NOPNZAMMDPS          0  03-20 Monthly                                  
103C2020-03-02T09:04+02:00                                                                           122 20244 03-20 Monthly       00001OPNZA                                                      BAEC 17715301                Nijland                                                                                                                                                AV                  00000000920000000000NOPNZAMMDPS          0  03-20 Monthly                                  
103C2020-03-02T09:04+02:00                                                                           122 19348 03-20 Monthly       00001OPNZA                                                      BAEC 21273431                Thompson                                                                                                                                               AV                  00000001650000000000NOPNZAFIBRT          0  03-20 Monthly                                  
103C2020-03-02T09:04+02:00                                                                           122 19422 03-20               00001OPNZA                                                      BAEC 19282203                Steenkamp                                                                                                                                              AV                  00000000560000000000NOPNZAUBAMR          7038 4Mbps Premium Uncapped 03-20                 
103C2020-03-02T09:04+02:00                                                                           122 19521 03-20               00001OPNZA                                                      BAEC 12570957                Wright                                                                                                                                                 AV                  00000003390000000000NOPNZAFIBMR          7194 R989 - 40Mbps Fibre Line Rental + 300GB Cappe
103C2020-03-02T09:04+02:00                                                                           122 13046 03-20 Monthly       00001OPNZA                                                      BAEC 25922325                Barnard                                                                                                                                                AV                  00000004720000000000NOPNZAUBFMR          0  03-20 Monthly                                  
103C2020-03-02T09:04+02:00                                                                           122 13218 03-20 Monthly       00001OPNZA                                                      BAEC 18423570                Gold                                                                                                                                                   AV                  00000004470000000000NOPNZAUBFMR          0  03-20 Monthly                                  
103C2020-03-02T09:04+02:00                                                                           122 20095 03-20 Monthly       00001OPNZA                                                      BAEC 19569120                Coetzee                                                                                                                                                AV                  00000000900000000000NOPNZAMMDPS          0  03-20 Monthly                                  
103C2020-03-02T09:04+02:00                                                                           122 20399 03-20 Monthly       00001OPNZA                                                      BAEC 17098787                Botes                                                                                                                                                  AV                  00000000580000000000NOPNZAMMDPS          0  03-20 Monthly                                  
103C2020-03-02T09:04+02:00                                                                           122 19805 03-20 Monthly       00001OPNZA                                                      BAEC Owen.clark              Clark                                                                                                                                                  AV                  00000000580000000000NOPNZAMMDPS          0  03-20 Monthly                                  
103C2020-03-02T09:04+02:00                                                                           122 20197 03-20 Monthly       00001OPNZA                                                      BAEC 61028655                Thrussell                                                                                                                                              AV                  00000000920000000000NOPNZAMMDPS          0  03-20 Monthly                                  
103C2020-03-02T09:04+02:00                                                                           122 20559 03-20 Monthly       00001OPNZA                                                      BAEC 30592397                Barker                                                                                                                                                 AV                  00000000580000000000NOPNZAMMDPS          0  03-20 Monthly                                  
103C2020-03-02T09:04+02:00                                                                           122 20589 03-20 Monthly       00001OPNZA                                                      BAEC 15973401                Daniels                                                                                                                                                AV                  00000000580000000000NOPNZAMMDPS          0  03-20 Monthly                                  
103C2020-03-02T09:04+02:00                                                                           122 19448 03-20 Monthly       00001OPNZA                                                      BAEC 22595299                Schoeman                                                                                                                                               AV                  00000001970000000000NOPNZAUBFMR          0  03-20 Monthly                                  
103C2020-03-02T09:04+02:00                                                                           122 20853 03-20 Monthly       00001OPNZA                                                      BAEC 3081472023583799        Meissenheimer                                                                                                                                          AV                  00000000580000000000NOPNZAMMDPS          0  03-20 Monthly                                  
103C2020-03-02T09:04+02:00                                                                           122 20653 03-20               00001OPNZA                                                      BAEC 23906846                Bonthuys                                                                                                                                               AV                  00000001970000000000NOPNZAUBFMR          7243 (R789 - 10Mbps Uncapped Fibre Data + Fibre Li
103C2020-03-02T09:04+02:00                                                                           122 21029 03-20 Monthly       00001OPNZA                                                      BAEC 24751479                Weber                                                                                                                                                  AV                  00000000900000000000NOPNZAMMDPS          0  03-20 Monthly                                  
103C2020-03-02T09:04+02:00                                                                           122 21102 03-20 Monthly       00001OPNZA                                                      BAEC 20210442                Bester                                                                                                                                                 AV                  00000000920000000000NOPNZAMMDPS          0  03-20 Monthly                                  
103C2020-03-02T09:04+02:00                                                                           122 22157 03-20 Monthly       00001OPNZA                                                      BAEC 3081471040373978        Greeff                                                                                                                                                 AV                  00000000580000000000NOPNZAFIBRT          0  03-20 Monthly                                  
103C2020-03-02T09:04+02:00                                                                           122 19911 03-20 Monthly       00001OPNZA                                                      BAEC 45464915                Lopes                                                                                                                                                  AV                  00000003600000000000NOPNZAFIBMR          0  03-20 Monthly                                  
103C2020-03-02T09:04+02:00                                                                           122 21919 03-20 Monthly       00001OPNZA                                                      BAEC 18474548                Nel                                                                                                                                                    AV                  00000001370000000000NOPNZAFIBMR          0  03-20 Monthly                                  
103C2020-03-02T09:04+02:00                                                                           122 19850 03-20 Monthly       00001OPNZA                                                      BAEC 24270685                Hague                                                                                                                                                  AV                  00000000750000000000NOPNZAMMDPS          0  03-20 Monthly                                  
103C2020-03-02T09:04+02:00                                                                           122 20263 03-20 Monthly       00001OPNZA                                                      BAEC 24758050                Steyn                                                                                                                                                  AV                  00000001750000000000NOPNZAUBFMR          0  03-20 Monthly                                  
103C2020-03-02T09:04+02:00                                                                           122 21425 03-20 Monthly       00001OPNZA                                                      BAEC 15209015                Barnard                                                                                                                                                AV                  00000000580000000000NOPNZAMMDPS          0  03-20 Monthly                                  
103C2020-03-02T09:04+02:00                                                                           122 22113 03-20 Monthly       00001OPNZA                                                      BAEC 73150052                Flatwell                                                                                                                                               AV                  00000000400000000000NOPNZAFIBRT          0  03-20 Monthly                                  
103C2020-03-02T09:04+02:00                                                                           122 20011 03-20 Monthly       00001OPNZA                                                      BAEC 203168453               Kedian                                                                                                                                                 AV                  00000001670000000000NOPNZAMMDPS          0  03-20 Monthly                                  
103C2020-03-02T09:04+02:00                                                                           122 22233 03-20 Monthly       00001OPNZA                                                      BAEC 27093338                Clarke                                                                                                                                                 AV                  00000000200000000000NOPNZAFIBRT          0  03-20 Monthly                                  
103C2020-03-02T09:04+02:00                                                                           122 20431 03-20 Monthly       00001OPNZA                                                      BAEC 15508122                Africa                                                                                                                                                 AV                  00000000850000000000NOPNZAFIBRT          0  03-20 Monthly                                  
103C2020-03-02T09:04+02:00                                                                           122 22244 03-20 Monthly       00001OPNZA                                                      BAEC 26093950                Barnard                                                                                                                                                AV                  00000000440000000000NOPNZAFIBRT          0  03-20 Monthly                                  
90000003000000030000000000000000000004808