000301OPNZA00001ANAINP002302018-05-02T19:23+02:00
103C2018-05-02T19:23+02:00                                                                           29 18368 05-18                00001OPNZA                                                      AVIOS3081471021053177        (Pty) Ltd                                                                                                                                              AV                  00000000840000000000NOPNZAUBAMR          7039 8Mbps Premium Uncapped 05-18                 
103C2018-05-02T19:23+02:00                                                                           29 15208 05-18 Monthly        00001OPNZA                                                      AVIOS3081471037262895        Badenhorst                                                                                                                                             AV                  00000001670000000000NOPNZAMMDPS          0  05-18 Monthly                                  
103C2018-05-02T19:23+02:00                                                                           29 19348 05-18                00001OPNZA                                                      BAEC 21273431                Thompson                                                                                                                                               AV                  00000001650000000000NOPNZAFIBMR          05-18                                             
103C2018-05-02T19:23+02:00                                                                           29 19439 05-18 Monthly        00001OPNZA                                                      AVIOS3081472024211697        Neve                                                                                                                                                   AV                  00000000920000000000NOPNZAMMDPS          0  05-18 Monthly                                  
103C2018-05-02T19:23+02:00                                                                           29 19320 05-18 Monthly        00001OPNZA                                                      AVIOS3081471035552875        Pelzer                                                                                                                                                 AV                  00000001330000000000NOPNZAMMDPS          0  05-18 Monthly                                  
103C2018-05-02T19:23+02:00                                                                           29 19410 05-18 Monthly        00001OPNZA                                                      BAEC 64809343                Wright                                                                                                                                                 AV                  00000005000000000000NOPNZAFIBMR          0  05-18 Monthly                                  
103C2018-05-02T19:23+02:00                                                                           29 19422 05-18                00001OPNZA                                                      BAEC 19282203                Steenkamp                                                                                                                                              AV                  00000000560000000000NOPNZAUBAMR          7038 4Mbps Premium Uncapped 05-18                 
103C2018-05-02T19:23+02:00                                                                           29 19521 05-18 Monthly        00001OPNZA                                                      BAEC 12570957                Wright                                                                                                                                                 AV                  00000003220000000000NOPNZAFIBMR          0  05-18 Monthly                                  
103C2018-05-02T19:23+02:00                                                                           29 13046 05-18 Monthly        00001OPNZA                                                      BAEC 25922325                Barnard                                                                                                                                                AV                  00000004720000000000NOPNZAUBFMR          0  05-18 Monthly                                  
103C2018-05-02T19:23+02:00                                                                           29 19238 05-18                00001OPNZA                                                      BAEC 18336986                Arnab                                                                                                                                                  AV                  00000001670000000000NOPNZAMMDPS          05-18                                             
103C2018-05-02T19:23+02:00                                                                           29 17942 05-18 Monthly        00001OPNZA                                                      AVIOS3081472030080649        Venter                                                                                                                                                 AV                  00000000500000000000NOPNZAMMDPS          0  05-18 Monthly                                  
103C2018-05-02T19:23+02:00                                                                           29 19477 05-18 Monthly        00001OPNZA                                                      AVIOS7706105203082           Earle                                                                                                                                                  AV                  00000000400000000000NOPNZAUBAMR          5110 2Mbps Home Uncapped Unshaped Premium 05-18 Mo
103C2018-05-02T19:23+02:00                                                                           29 19488 05-18 Monthly        00001OPNZA                                                      AVIOS3081472024934512        brink                                                                                                                                                  AV                  00000000500000000000NOPNZAMMDPS          0  05-18 Monthly                                  
103C2018-05-02T19:23+02:00                                                                           29 19154 05-18 Monthly        00001OPNZA                                                      AVIOS3081471040231200        Magee                                                                                                                                                  AV                  00000000500000000000NOPNZAMMDPS          0  05-18 Monthly                                  
103C2018-05-02T19:23+02:00                                                                           29 19266 05-18 Monthly        00001OPNZA                                                      AVIOS3081471036135324        Kubheka                                                                                                                                                AV                  00000000500000000000NOPNZAMMDPS          0  05-18 Monthly                                  
103C2018-05-02T19:23+02:00                                                                           29 19111 05-18 Monthly        00001OPNZA                                                      AVIOS3081471022641129        Sonbadhar                                                                                                                                              AV                  00000000920000000000NOPNZAMMDPS          0  05-18 Monthly                                  
103C2018-05-02T19:23+02:00                                                                           29 8524 05-18 Monthly         00001OPNZA                                                      AVIOS3081471037241238        Goncalves                                                                                                                                              AV                  00000001720000000000NOPNZAFIBMR          0  05-18 Monthly                                  
103C2018-05-02T19:23+02:00                                                                           29 13047 05-18 Monthly        00001OPNZA                                                      BAEC 19082400                Storer                                                                                                                                                 AV                  00000000560000000000NOPNZAUBAMR          7038 4Mbps Premium Uncapped 05-18 Monthly         
103C2018-05-02T19:23+02:00                                                                           29 19634 05-18 Monthly        00001OPNZA                                                      BAEC 15420269                Kyzer                                                                                                                                                  AV                  00000000920000000000NOPNZAMMDPS          0  05-18 Monthly                                  
103C2018-05-02T19:23+02:00                                                                           29 19651 05-18                00001OPNZA                                                      BAEC 202428297               Mqingwana                                                                                                                                              AV                  00000000400000000000NOPNZAUBAMR          7038 4Mbps Premium Uncapped 05-18                 
103C2018-05-02T19:23+02:00                                                                           29 19661 05-18                00001OPNZA                                                      AVIOS202497855               Richards                                                                                                                                               AV                  00000000580000000000NOPNZAUBAMR          7040 10Mbps Premium Uncapped 05-18                
103C2018-05-02T19:23+02:00                                                                           29 19699 05-18 Monthly        00001OPNZA                                                      AVIOS3081471038661319        Blignaut                                                                                                                                               AV                  00000000900000000000NOPNZAMMDPS          0  05-18 Monthly                                  
103C2018-05-02T19:23+02:00                                                                           29 191 05-18 Monthly          00001OPNZA                                                      AVIOS123456                  tew12                                                                                                                                                  AV                  00000010110000000000NOPNZAUBFMR          0  05-18 Monthly                                  
103C2018-05-02T19:23+02:00                                                                           29 19697 05-18 Monthly        00001OPNZA                                                      AVIOS3081471039203137        Ayoob                                                                                                                                                  AV                  00000000580000000000NOPNZAMMDPS          0  05-18 Monthly                                  
103C2018-05-02T19:23+02:00                                                                           29 19723 05-18 Monthly        00001OPNZA                                                      AVIOS3081471038860010        Le Roux                                                                                                                                                AV                  00000000920000000000NOPNZAMMDPS          0  05-18 Monthly                                  
103C2018-05-02T19:23+02:00                                                                           29 2101 05-18 Monthly         00001OPNZA                                                      AVIOS202773307               Singh                                                                                                                                                  AV                  00000000900000000000NOPNZAMMDPS          0  05-18 Monthly                                  
103C2018-05-02T19:23+02:00                                                                           29 19708 05-18 Monthly        00001OPNZA                                                      AVIOS3081471039161616        Geel                                                                                                                                                   AV                  00000000900000000000NOPNZAMMDPS          0  05-18 Monthly                                  
103C2018-05-02T19:23+02:00                                                                           29 13292 05-18 Monthly        00001OPNZA                                                      BAEC 10428689                Nefdt                                                                                                                                                  AV                  00000001420000000000NOPNZAMMDPS          0  05-18 Monthly                                  
103C2018-05-02T19:23+02:00                                                                           29 19702 05-18 Monthly        00001OPNZA                                                      AVIOS3081471039103089        Ribombo                                                                                                                                                AV                  00000000500000000000NOPNZAMMDPS          0  05-18 Monthly                                  
103C2018-05-02T19:23+02:00                                                                           29 19758 05-18 Monthly        00001OPNZA                                                      AVIOS202943850               Pather                                                                                                                                                 AV                  00000000580000000000NOPNZAMMDPS          0  05-18 Monthly                                  
103C2018-05-02T19:23+02:00                                                                           29 19806 05-18 Monthly        00001OPNZA                                                      AVIOS3081471039665772        Jordan                                                                                                                                                 AV                  00000000580000000000NOPNZAMMDPS          0  05-18 Monthly                                  
103C2018-05-02T19:23+02:00                                                                           29 19824 05-18                00001OPNZA                                                      AVIOS3081471039828156        titus                                                                                                                                                  AV                  00000000560000000000NOPNZAUBAMR          7039 8Mbps Premium Uncapped 05-18                 
103C2018-05-02T19:23+02:00                                                                           29 12431 05-18                00001OPNZA                                                      AVIOS3081471039980155        Land                                                                                                                                                   AV                  00000000180000000000NOPNZAUBAMR          7016 4Mbps Home Uncapped Special 05-18            
103C2018-05-02T19:23+02:00                                                                           29 12344 05-18                00001OPNZA                                                      AVIOS3081472025220598        Naidoo                                                                                                                                                 AV                  00000000110000000000NOPNZAUBAMR          7167 100GB Capped Unshaped 05-18                  
103C2018-05-02T19:23+02:00                                                                           29 13218 05-18 Monthly        00001OPNZA                                                      BAEC 49929245                Gold                                                                                                                                                   AV                  00000004470000000000NOPNZAUBFMR          0  05-18 Monthly                                  
103C2018-05-02T19:23+02:00                                                                           29 7752 05-18                 00001OPNZA                                                      AVIOS3081471021130595        Howatt                                                                                                                                                 AV                  00000000410000000000NOPNZAUBAMR          7038 4Mbps Premium Uncapped 05-18                 
103C2018-05-02T19:23+02:00                                                                           29 19863 05-18 Monthly        00001OPNZA                                                      AVIOS3081471034482835        Paillard                                                                                                                                               AV                  00000000900000000000NOPNZAMMDPS          0  05-18 Monthly                                  
103C2018-05-02T19:23+02:00                                                                           29 19911 05-18                00001OPNZA                                                      BAEC 45464915                Lopes                                                                                                                                                  AV                  00000001430000000000NOPNZAUBAMR          7186 premium 05-18                                
103C2018-05-02T19:23+02:00                                                                           29 15614 05-18                00001OPNZA                                                      AVIOS203449683               Mohamed                                                                                                                                                AV                  00000000330000000000NOPNZAUBAMR          7018 10Mbps Home Uncapped Special 05-18           
103C2018-05-02T19:23+02:00                                                                           29 19921 05-18                00001OPNZA                                                      AVIOS114420148               Potgieter                                                                                                                                              AV                  00000000180000000000NOPNZAUBAMR          7016 4Mbps Home Uncapped Special 05-18            
103C2018-05-02T19:23+02:00                                                                           29 19925 05-18 Monthly        00001OPNZA                                                      AVIOS3081471037418133        Williams                                                                                                                                               AV                  00000002670000000000NOPNZAMMDPS          0  05-18 Monthly                                  
103C2018-05-02T19:23+02:00                                                                           29 9715 05-18 admin           00001OPNZA                                                      BAEC 61939351                Grobler                                                                                                                                                AV                  00000285140000000000NOPNZAMMDPS          7777 admin reward 05-18 admin                     
90000004200000042000000000000000000034285