000301OPNZA00001ANAINP005502018-09-04T09:07+02:00
103C2018-09-04T09:07+02:00                                                                           61 20240 09-18 Monthly        00001OPNZA                                                      BAEC 60277048                Myburgh                                                                                                                                                AV                  00000000900000000000NOPNZAMMDPS          0  09-18 Monthly                                  
103C2018-09-04T09:07+02:00                                                                           61 20239 09-18                00001OPNZA                                                      AVIOS3081471041605485        Joubert                                                                                                                                                AV                  00000000860000000000NOPNZAUBAMR          7038 4Mbps Premium Uncapped 09-18                 
103C2018-09-04T09:07+02:00                                                                           61 14785 09-18 Monthly        00001OPNZA                                                      AVIOS3081471038971916        Tsironis                                                                                                                                               AV                  00000009790000000000NOPNZAFIBRT          0  09-18 Monthly                                  
103C2018-09-04T09:07+02:00                                                                           61 18368 09-18                00001OPNZA                                                      AVIOS3081471021053177        (Pty) Ltd                                                                                                                                              AV                  00000000840000000000NOPNZAUBAMR          7039 8Mbps Premium Uncapped 09-18                 
103C2018-09-04T09:07+02:00                                                                           61 19410 09-18 Monthly        00001OPNZA                                                      BAEC 64809343                Wright                                                                                                                                                 AV                  00000007250000000000NOPNZAMMDPS          0  09-18 Monthly                                  
103C2018-09-04T09:07+02:00                                                                           61 20047 09-18 Monthly        00001OPNZA                                                      AVIOS3081472027733077        MAHOMEDY                                                                                                                                               AV                  00000002000000000000NOPNZAMMDPS          0  09-18 Monthly                                  
103C2018-09-04T09:07+02:00                                                                           61 20092 09-18 Monthly        00001OPNZA                                                      AVIOS3081471041603845        van Pype                                                                                                                                               AV                  00000000890000000000NOPNZAFIBRT          0  09-18 Monthly                                  
103C2018-09-04T09:07+02:00                                                                           61 20087 09-18 Monthly        00001OPNZA                                                      AVIOS3081471042287762        Mlotshwa                                                                                                                                               AV                  00000000890000000000NOPNZAFIBRT          0  09-18 Monthly                                  
103C2018-09-04T09:07+02:00                                                                           61 20334 09-18 Monthly        00001OPNZA                                                      AVIOS3081471142989754        Chemaly                                                                                                                                                AV                  00000002250000000000NOPNZAMMDPS          0  09-18 Monthly                                  
103C2018-09-04T09:07+02:00                                                                           61 19668 09-18 Monthly        00001OPNZA                                                      AVIOS3081472029688584        Smith                                                                                                                                                  AV                  00000000920000000000NOPNZAMMDPS          0  09-18 Monthly                                  
103C2018-09-04T09:07+02:00                                                                           61 12490 09-18                00001OPNZA                                                      BAEC 61128708                Croker                                                                                                                                                 AV                  00000000980000000000NOPNZAUBAMR          5111 4Mbps Home Uncapped Unshaped Premium 09-18   
103C2018-09-04T09:07+02:00                                                                           61 191 09-18 Monthly          00001OPNZA                                                      AVIOS1234562                 tew12                                                                                                                                                  AV                  00000000250000000000NOPNZAUBFMR          0  09-18 Monthly                                  
103C2018-09-04T09:07+02:00                                                                           61 18996 09-18                00001OPNZA                                                      AVIOS3081471021215214        Vawda                                                                                                                                                  AV                  00000000560000000000NOPNZAUBAMR          7039 8Mbps Premium Uncapped 09-18                 
103C2018-09-04T09:07+02:00                                                                           61 20320 09-18 Monthly        00001OPNZA                                                      AVIOS3081471043063212        Esterhuizen                                                                                                                                            AV                  00000000890000000000NOPNZAFIBRT          0  09-18 Monthly                                  
103C2018-09-04T09:07+02:00                                                                           61 19981 09-18 Monthly        00001OPNZA                                                      AVIOS3081471040873464        Cronje                                                                                                                                                 AV                  00000000580000000000NOPNZAMMDPS          0  09-18 Monthly                                  
103C2018-09-04T09:07+02:00                                                                           61 20244 09-18 Monthly        00001OPNZA                                                      BAEC 17715301                Nijland                                                                                                                                                AV                  00000000920000000000NOPNZAMMDPS          0  09-18 Monthly                                  
103C2018-09-04T09:07+02:00                                                                           61 20218 09-18                00001OPNZA                                                      AVIOS3081471029026811        Arendse                                                                                                                                                AV                  00000000410000000000NOPNZAUBAMR          7038 4Mbps Premium Uncapped 09-18                 
103C2018-09-04T09:07+02:00                                                                           61 15208 09-18 Monthly        00001OPNZA                                                      AVIOS3081471037262895        Badenhorst                                                                                                                                             AV                  00000001670000000000NOPNZAMMDPS          0  09-18 Monthly                                  
103C2018-09-04T09:07+02:00                                                                           61 19348 09-18 Monthly        00001OPNZA                                                      BAEC 21273431                Thompson                                                                                                                                               AV                  00000001650000000000NOPNZAUBFMR          0  09-18 Monthly                                  
103C2018-09-04T09:07+02:00                                                                           61 19320 09-18 Monthly        00001OPNZA                                                      AVIOS3081471035552875        Pelzer                                                                                                                                                 AV                  00000001330000000000NOPNZAMMDPS          0  09-18 Monthly                                  
103C2018-09-04T09:07+02:00                                                                           61 19422 09-18                00001OPNZA                                                      BAEC 19282203                Steenkamp                                                                                                                                              AV                  00000000560000000000NOPNZAUBAMR          7038 4Mbps Premium Uncapped 09-18                 
103C2018-09-04T09:07+02:00                                                                           61 19521 09-18                00001OPNZA                                                      BAEC 12570957                Wright                                                                                                                                                 AV                  00000003390000000000NOPNZAFIBMR          7194 R989 - 40Mbps Fibre Line Rental + 300GB Cappe
103C2018-09-04T09:07+02:00                                                                           61 13046 09-18 Monthly        00001OPNZA                                                      BAEC 25922325                Barnard                                                                                                                                                AV                  00000004720000000000NOPNZAUBFMR          0  09-18 Monthly                                  
103C2018-09-04T09:07+02:00                                                                           61 17942 09-18 Monthly        00001OPNZA                                                      AVIOS3081472030080649        Venter                                                                                                                                                 AV                  00000000500000000000NOPNZAMMDPS          0  09-18 Monthly                                  
103C2018-09-04T09:07+02:00                                                                           61 19488 09-18 Monthly        00001OPNZA                                                      AVIOS3081472024934512        brink                                                                                                                                                  AV                  00000000500000000000NOPNZAMMDPS          0  09-18 Monthly                                  
103C2018-09-04T09:07+02:00                                                                           61 19154 09-18 Monthly        00001OPNZA                                                      AVIOS3081471040231200        Magee                                                                                                                                                  AV                  00000000500000000000NOPNZAMMDPS          0  09-18 Monthly                                  
103C2018-09-04T09:07+02:00                                                                           61 19266 09-18 Monthly        00001OPNZA                                                      AVIOS3081471036135324        Kubheka                                                                                                                                                AV                  00000000500000000000NOPNZAMMDPS          0  09-18 Monthly                                  
103C2018-09-04T09:07+02:00                                                                           61 19111 09-18 Monthly        00001OPNZA                                                      AVIOS3081471022641129        Sonbadhar                                                                                                                                              AV                  00000000920000000000NOPNZAMMDPS          0  09-18 Monthly                                  
103C2018-09-04T09:07+02:00                                                                           61 8524 09-18 Monthly         00001OPNZA                                                      AVIOS3081471037241238        Goncalves                                                                                                                                              AV                  00000001720000000000NOPNZAFIBMR          0  09-18 Monthly                                  
103C2018-09-04T09:07+02:00                                                                           61 19238 09-18 Monthly        00001OPNZA                                                      BAEC 18336986                Arnab                                                                                                                                                  AV                  00000001670000000000NOPNZAMMDPS          0  09-18 Monthly                                  
103C2018-09-04T09:07+02:00                                                                           61 19542 09-18 Monthly        00001OPNZA                                                      AVIOS3081472008507086        du Plessis                                                                                                                                             AV                  00000000500000000000NOPNZAMMDPS          0  09-18 Monthly                                  
103C2018-09-04T09:07+02:00                                                                           61 13047 09-18 Monthly        00001OPNZA                                                      BAEC 19082400                Storer                                                                                                                                                 AV                  00000000560000000000NOPNZAUBAMR          7038 4Mbps Premium Uncapped 09-18 Monthly         
103C2018-09-04T09:07+02:00                                                                           61 19634 09-18 Monthly        00001OPNZA                                                      BAEC 15420269                Kyzer                                                                                                                                                  AV                  00000000920000000000NOPNZAMMDPS          0  09-18 Monthly                                  
103C2018-09-04T09:07+02:00                                                                           61 19699 09-18 Monthly        00001OPNZA                                                      AVIOS3081471038661319        Blignaut                                                                                                                                               AV                  00000000900000000000NOPNZAMMDPS          0  09-18 Monthly                                  
103C2018-09-04T09:07+02:00                                                                           61 19717 09-18 Monthly        00001OPNZA                                                      AVIOS3081471042843416        waja                                                                                                                                                   AV                  00000000920000000000NOPNZAFIBRT          0  09-18 Monthly                                  
103C2018-09-04T09:07+02:00                                                                           61 19697 09-18 Monthly        00001OPNZA                                                      AVIOS3081471039203137        Ayoob                                                                                                                                                  AV                  00000000580000000000NOPNZAFIBRT          0  09-18 Monthly                                  
103C2018-09-04T09:07+02:00                                                                           61 19237 09-18 Monthly        00001OPNZA                                                      AVIOS3081471043993590        Wahlstrand                                                                                                                                             AV                  00000000500000000000NOPNZAMMDPS          0  09-18 Monthly                                  
103C2018-09-04T09:07+02:00                                                                           61 19723 09-18 Monthly        00001OPNZA                                                      AVIOS3081471038860010        Le Roux                                                                                                                                                AV                  00000000920000000000NOPNZAMMDPS          0  09-18 Monthly                                  
103C2018-09-04T09:07+02:00                                                                           61 19708 09-18 Monthly        00001OPNZA                                                      AVIOS3081471039161616        Geel                                                                                                                                                   AV                  00000001650000000000NOPNZAMMDPS          0  09-18 Monthly                                  
103C2018-09-04T09:07+02:00                                                                           61 13292 09-18 Monthly        00001OPNZA                                                      BAEC 10428689                Nefdt                                                                                                                                                  AV                  00000001420000000000NOPNZAFIBRT          0  09-18 Monthly                                  
103C2018-09-04T09:07+02:00                                                                           61 19702 09-18 Monthly        00001OPNZA                                                      AVIOS3081471039103089        Ribombo                                                                                                                                                AV                  00000000500000000000NOPNZAMMDPS          0  09-18 Monthly                                  
103C2018-09-04T09:07+02:00                                                                           61 19758 09-18 Monthly        00001OPNZA                                                      AVIOS202943850               Pather                                                                                                                                                 AV                  00000000580000000000NOPNZAMMDPS          0  09-18 Monthly                                  
103C2018-09-04T09:07+02:00                                                                           61 19806 09-18 Monthly        00001OPNZA                                                      AVIOS3081471039665772        Jordan                                                                                                                                                 AV                  00000000580000000000NOPNZAMMDPS          0  09-18 Monthly                                  
103C2018-09-04T09:07+02:00                                                                           61 13218 09-18 Monthly        00001OPNZA                                                      BAEC 49929245                Kurgan                                                                                                                                                 AV                  00000004470000000000NOPNZAUBFMR          0  09-18 Monthly                                  
103C2018-09-04T09:07+02:00                                                                           61 7752 09-18                 00001OPNZA                                                      AVIOS3081471021130595        Howatt                                                                                                                                                 AV                  00000000860000000000NOPNZAUBAMR          7038 4Mbps Premium Uncapped 09-18                 
103C2018-09-04T09:07+02:00                                                                           61 19863 09-18 Monthly        00001OPNZA                                                      AVIOS3081471034482835        Paillard                                                                                                                                               AV                  00000000900000000000NOPNZAMMDPS          0  09-18 Monthly                                  
103C2018-09-04T09:07+02:00                                                                           61 19925 09-18 Monthly        00001OPNZA                                                      AVIOS3081471037418133        Williams                                                                                                                                               AV                  00000002670000000000NOPNZAMMDPS          0  09-18 Monthly                                  
103C2018-09-04T09:07+02:00                                                                           61 19935 09-18                00001OPNZA                                                      AVIOS3081471037262309        Martins                                                                                                                                                AV                  00000000980000000000NOPNZAUBAMR          7188 4Mbps Business Uncapped + 1 Static IP 09-18  
103C2018-09-04T09:07+02:00                                                                           61 19944 09-18 Monthly        00001OPNZA                                                      AVIOS3081471041410746        Slabber                                                                                                                                                AV                  00000001150000000000NOPNZAMMDPS          0  09-18 Monthly                                  
103C2018-09-04T09:07+02:00                                                                           61 19949 09-18 Monthly        00001OPNZA                                                      AVIOS3081471039379036        Janse van Rensburg                                                                                                                                     AV                  00000002220000000000NOPNZAUBFMR          0  09-18 Monthly                                  
103C2018-09-04T09:07+02:00                                                                           61 19970 09-18 Monthly        00001OPNZA                                                      AVIOS3081471044111879        Duffy                                                                                                                                                  AV                  00000000580000000000NOPNZAMMDPS          0  09-18 Monthly                                  
103C2018-09-04T09:07+02:00                                                                           61 20011 09-18 Monthly        00001OPNZA                                                      AVIOS203168453               Kedian                                                                                                                                                 AV                  00000001670000000000NOPNZAMMDPS          0  09-18 Monthly                                  
103C2018-09-04T09:07+02:00                                                                           61 20031 09-18                00001OPNZA                                                      AVIOS3081471038471198        Diedericks                                                                                                                                             AV                  00000000410000000000NOPNZAUBAMR          7038 4Mbps Premium Uncapped 09-18                 
103C2018-09-04T09:07+02:00                                                                           61 20042 09-18 Monthly        00001OPNZA                                                      AVIOS3081471041387167        Swanepoel                                                                                                                                              AV                  00000000580000000000NOPNZAFIBRT          0  09-18 Monthly                                  
103C2018-09-04T09:07+02:00                                                                           61 4177 09-18                 00001OPNZA                                                      AVIOS3081471020240361        langa                                                                                                                                                  AV                  00000000770000000000NOPNZAUBAMR          7016 4Mbps Home Uncapped Special 09-18            
103C2018-09-04T09:07+02:00                                                                           61 20069 09-18 Monthly        00001OPNZA                                                      AVIOS3081471040975905        Botha                                                                                                                                                  AV                  00000001130000000000NOPNZAMMDPS          0  09-18 Monthly                                  
103C2018-09-04T09:07+02:00                                                                           61 20070 09-18 Monthly        00001OPNZA                                                      AVIOS3081471041561159        Macaskill                                                                                                                                              AV                  00000000920000000000NOPNZAMMDPS          0  09-18 Monthly                                  
103C2018-09-04T09:07+02:00                                                                           61 20065 09-18 Monthly        00001OPNZA                                                      AVIOS3081471042246263        Kirby                                                                                                                                                  AV                  00000000900000000000NOPNZAMMDPS          0  09-18 Monthly                                  
103C2018-09-04T09:07+02:00                                                                           61 20080 09-18 Monthly        00001OPNZA                                                      AVIOS3081471041622431        Schoevers                                                                                                                                              AV                  00000000900000000000NOPNZAMMDPS          0  09-18 Monthly                                  
103C2018-09-04T09:07+02:00                                                                           61 16473 09-18                00001OPNZA                                                      BAEC 14073664                Riddle                                                                                                                                                 AV                  00000001260000000000NOPNZAUBAMR          7046 10Mbps Business Uncapped 09-18               
103C2018-09-04T09:07+02:00                                                                           61 20095 09-18 Monthly        00001OPNZA                                                      BAEC 19569120                Coetzee                                                                                                                                                AV                  00000000900000000000NOPNZAMMDPS          0  09-18 Monthly                                  
103C2018-09-04T09:07+02:00                                                                           61 20093 09-18                00001OPNZA                                                      AVIOS3081471041578088        Klinker                                                                                                                                                AV                  00000000630000000000NOPNZAUBAMR          7040 10Mbps Premium Uncapped 09-18                
103C2018-09-04T09:07+02:00                                                                           61 20123 09-18 Monthly        00001OPNZA                                                      AVIOS3081471142756617        October                                                                                                                                                AV                  00000001130000000000NOPNZAMMDPS          0  09-18 Monthly                                  
103C2018-09-04T09:07+02:00                                                                           61 20127 09-18 Monthly        00001OPNZA                                                      AVIOS3081471041733501        Harris                                                                                                                                                 AV                  00000000580000000000NOPNZAMMDPS          0  09-18 Monthly                                  
103C2018-09-04T09:07+02:00                                                                           61 20140 09-18 Monthly        00001OPNZA                                                      AVIOS3081471042241983        Mcwatts                                                                                                                                                AV                  00000000580000000000NOPNZAMMDPS          0  09-18 Monthly                                  
103C2018-09-04T09:07+02:00                                                                           61 20141 09-18 Monthly        00001OPNZA                                                      AVIOS3081471041899039        Henderson                                                                                                                                              AV                  00000001150000000000NOPNZAMMDPS          0  09-18 Monthly                                  
103C2018-09-04T09:07+02:00                                                                           61 20150 09-18 Monthly        00001OPNZA                                                      BAEC 17666373                Swart                                                                                                                                                  AV                  00000000580000000000NOPNZAMMDPS          0  09-18 Monthly                                  
103C2018-09-04T09:07+02:00                                                                           61 20151 09-18 Monthly        00001OPNZA                                                      AVIOS3081471041970806        van Rooyen                                                                                                                                             AV                  00000001420000000000NOPNZAMMDPS          0  09-18 Monthly                                  
103C2018-09-04T09:07+02:00                                                                           61 20153 09-18 Monthly        00001OPNZA                                                      AVIOS3081471037202404        Hugo                                                                                                                                                   AV                  00000000580000000000NOPNZAMMDPS          0  09-18 Monthly                                  
103C2018-09-04T09:07+02:00                                                                           61 20164 09-18 Monthly        00001OPNZA                                                      AVIOS3081471042065671        Westley                                                                                                                                                AV                  00000000580000000000NOPNZAMMDPS          0  09-18 Monthly                                  
103C2018-09-04T09:07+02:00                                                                           61 20186 09-18 Monthly        00001OPNZA                                                      AVIOS3081471042178243        Loots                                                                                                                                                  AV                  00000000900000000000NOPNZAMMDPS          0  09-18 Monthly                                  
103C2018-09-04T09:07+02:00                                                                           61 20200 09-18 Monthly        00001OPNZA                                                      AVIOS3081472030503699        Logan                                                                                                                                                  AV                  00000000580000000000NOPNZAMMDPS          0  09-18 Monthly                                  
103C2018-09-04T09:07+02:00                                                                           61 20263 09-18 Monthly        00001OPNZA                                                      AVIOS3081471042586114        Steyn                                                                                                                                                  AV                  00000000580000000000NOPNZAFIBRT          0  09-18 Monthly                                  
103C2018-09-04T09:07+02:00                                                                           61 20214 09-18 Monthly        00001OPNZA                                                      AVIOS3081471042032101        Ungerer                                                                                                                                                AV                  00000002480000000000NOPNZAMMDPS          0  09-18 Monthly                                  
103C2018-09-04T09:07+02:00                                                                           61 20220 09-18 Monthly        00001OPNZA                                                      AVIOS3081471042381466        Venter                                                                                                                                                 AV                  00000001640000000000NOPNZAFIBRT          0  09-18 Monthly                                  
103C2018-09-04T09:07+02:00                                                                           61 20049 09-18 Monthly        00001OPNZA                                                      AVIOS3081471041398883        van Wyk                                                                                                                                                AV                  00000003600000000000NOPNZAUBFMR          0  09-18 Monthly                                  
103C2018-09-04T09:07+02:00                                                                           61 20386 09-18 Monthly        00001OPNZA                                                      AVIOS3081471043227031        Pretorius                                                                                                                                              AV                  00000000900000000000NOPNZAFIBRT          0  09-18 Monthly                                  
103C2018-09-04T09:07+02:00                                                                           61 20285 09-18 Monthly        00001OPNZA                                                      AVIOS3081471042743525        van Jaarsveld                                                                                                                                          AV                  00000000900000000000NOPNZAMMDPS          0  09-18 Monthly                                  
103C2018-09-04T09:07+02:00                                                                           61 20316 09-18 Monthly        00001OPNZA                                                      AVIOS3081471144532248        Zibula                                                                                                                                                 AV                  00000001580000000000NOPNZAMMDPS          0  09-18 Monthly                                  
103C2018-09-04T09:07+02:00                                                                           61 19821 09-18 Monthly        00001OPNZA                                                      AVIOS3081471042887967        Carreira                                                                                                                                               AV                  00000001700000000000NOPNZAUBFMR          0  09-18 Monthly                                  
103C2018-09-04T09:07+02:00                                                                           61 20345 09-18 Monthly        00001OPNZA                                                      BAEC 97901448                Cloete                                                                                                                                                 AV                  00000000900000000000NOPNZAMMDPS          0  09-18 Monthly                                  
103C2018-09-04T09:07+02:00                                                                           61 20346 09-18 Monthly        00001OPNZA                                                      AVIOS3081471210086079        Naidoo                                                                                                                                                 AV                  00000001420000000000NOPNZAMMDPS          0  09-18 Monthly                                  
103C2018-09-04T09:07+02:00                                                                           61 20347 09-18 Monthly        00001OPNZA                                                      AVIOS3081471043499945        Deolall                                                                                                                                                AV                  00000000500000000000NOPNZAMMDPS          0  09-18 Monthly                                  
103C2018-09-04T09:07+02:00                                                                           61 20354 09-18 Monthly        00001OPNZA                                                      AVIOS3081471044306735        Zeelie                                                                                                                                                 AV                  00000002420000000000NOPNZAMMDPS          0  09-18 Monthly                                  
103C2018-09-04T09:07+02:00                                                                           61 19439 09-18 Monthly        00001OPNZA                                                      AVIOS3081472024211697        Neve                                                                                                                                                   AV                  00000000920000000000NOPNZAFIBRT          0  09-18 Monthly                                  
103C2018-09-04T09:07+02:00                                                                           61 20382 09-18 Monthly        00001OPNZA                                                      AVIOS3081471026640010        Mtolo                                                                                                                                                  AV                  00000001420000000000NOPNZAMMDPS          0  09-18 Monthly                                  
103C2018-09-04T09:07+02:00                                                                           61 20399 09-18 Monthly        00001OPNZA                                                      AVIOS3081471019643930        Botes                                                                                                                                                  AV                  00000000580000000000NOPNZAMMDPS          0  09-18 Monthly                                  
103C2018-09-04T09:07+02:00                                                                           61 20400 09-18 Monthly        00001OPNZA                                                      AVIOS3081471044212347        Jordaan                                                                                                                                                AV                  00000000580000000000NOPNZAMMDPS          0  09-18 Monthly                                  
103C2018-09-04T09:07+02:00                                                                           61 20401 09-18 Monthly        00001OPNZA                                                      AVIOS3081471044023215        Muller                                                                                                                                                 AV                  00000000580000000000NOPNZAMMDPS          0  09-18 Monthly                                  
103C2018-09-04T09:07+02:00                                                                           61 20402 09-18 Monthly        00001OPNZA                                                      AVIOS3081472028838677        Fakoe                                                                                                                                                  AV                  00000000580000000000NOPNZAMMDPS          0  09-18 Monthly                                  
103C2018-09-04T09:07+02:00                                                                           61 20409 09-18                00001OPNZA                                                      AVIOS102525341               Botha                                                                                                                                                  AV                  00000000560000000000NOPNZAUBAMR          7039 8Mbps Premium Uncapped 09-18                 
103C2018-09-04T09:07+02:00                                                                           61 20097 09-18 Monthly        00001OPNZA                                                      AVIOS3081471028544178        Marais                                                                                                                                                 AV                  00000001970000000000NOPNZAUBFMR          0  09-18 Monthly                                  
103C2018-09-04T09:07+02:00                                                                           61 20431 09-18 Monthly        00001OPNZA                                                      BAEC 15508122                Africa                                                                                                                                                 AV                  00000000420000000000NOPNZAFIBRT          0  09-18 Monthly                                  
103C2018-09-04T09:07+02:00                                                                           61 20435 09-18 Monthly        00001OPNZA                                                      AVIOS3081471043915205        LeRoux                                                                                                                                                 AV                  00000000580000000000NOPNZAFIBRT          0  09-18 Monthly                                  
103C2018-09-04T09:07+02:00                                                                           61 20460 09-18                00001OPNZA                                                      AVIOS3081471044187630        Schepetin                                                                                                                                              AV                  00000000400000000000NOPNZAUBAMR          7016 4Mbps Home Uncapped Special 09-18            
103C2018-09-04T09:07+02:00                                                                           61 19805 09-18 Monthly        00001OPNZA                                                      AVIOSOwen.clark              Clark                                                                                                                                                  AV                  00000000580000000000NOPNZAFIBRT          0  09-18 Monthly                                  
103C2018-09-04T09:07+02:00                                                                           61 20197 09-18 Monthly        00001OPNZA                                                      BAEC 61028655                Thrussell                                                                                                                                              AV                  00000000920000000000NOPNZAMMDPS          0  09-18 Monthly                                  
103C2018-09-04T09:07+02:00                                                                           61 20495 09-18 Monthly        00001OPNZA                                                      AVIOS3081471023839383        Govender                                                                                                                                               AV                  00000000580000000000NOPNZAMMDPS          0  09-18 Monthly                                  
90000009800000098000000000000000000012261