000301OPNZA00001ANAINP011002019-11-01T19:14+02:00
103C2019-11-01T19:14+02:00                                                                           116 19410 11-19 Monthly       00001OPNZA                                                      BAEC 64809343                Wright                                                                                                                                                 AV                  00000006920000000000NOPNZAMMDPS          0  11-19 Monthly                                  
103C2019-11-01T19:14+02:00                                                                           116 21786 11-19 Monthly       00001OPNZA                                                      BAEC 26955632                Laas                                                                                                                                                   AV                  00000002500000000000NOPNZAMMDPS          0  11-19 Monthly                                  
103C2019-11-01T19:14+02:00                                                                           116 21271 11-19 Monthly       00001OPNZA                                                      BAEC 25235434                de klerk                                                                                                                                               AV                  00000002670000000000NOPNZAUBFMR          0  11-19 Monthly                                  
103C2019-11-01T19:14+02:00                                                                           116 20244 11-19 Monthly       00001OPNZA                                                      BAEC 17715301                Nijland                                                                                                                                                AV                  00000000920000000000NOPNZAMMDPS          0  11-19 Monthly                                  
103C2019-11-01T19:14+02:00                                                                           116 19348 11-19 Monthly       00001OPNZA                                                      BAEC 21273431                Thompson                                                                                                                                               AV                  00000001640000000000NOPNZAFIBRT          0  11-19 Monthly                                  
103C2019-11-01T19:14+02:00                                                                           116 19404 11-19 Monthly       00001OPNZA                                                      BAEC 26505918                Morland                                                                                                                                                AV                  00000001670000000000NOPNZAMMDPS          0  11-19 Monthly                                  
103C2019-11-01T19:14+02:00                                                                           116 19422 11-19               00001OPNZA                                                      BAEC 19282203                Steenkamp                                                                                                                                              AV                  00000000560000000000NOPNZAUBAMR          7038 4Mbps Premium Uncapped 11-19                 
103C2019-11-01T19:14+02:00                                                                           116 19521 11-19               00001OPNZA                                                      BAEC 12570957                Wright                                                                                                                                                 AV                  00000003390000000000NOPNZAFIBMR          7194 R989 - 40Mbps Fibre Line Rental + 300GB Cappe
103C2019-11-01T19:14+02:00                                                                           116 19634 11-19 Monthly       00001OPNZA                                                      BAEC 15420269                Kyzer                                                                                                                                                  AV                  00000000920000000000NOPNZAMMDPS          0  11-19 Monthly                                  
103C2019-11-01T19:14+02:00                                                                           116 19850 11-19 Monthly       00001OPNZA                                                      BAEC 24270685                Hague                                                                                                                                                  AV                  00000001420000000000NOPNZAMMDPS          0  11-19 Monthly                                  
103C2019-11-01T19:14+02:00                                                                           116 13218 11-19 Monthly       00001OPNZA                                                      BAEC 18423570                Gold                                                                                                                                                   AV                  00000004470000000000NOPNZAUBFMR          0  11-19 Monthly                                  
103C2019-11-01T19:14+02:00                                                                           116 20011 11-19 Monthly       00001OPNZA                                                      BAEC 203168453               Kedian                                                                                                                                                 AV                  00000001670000000000NOPNZAMMDPS          0  11-19 Monthly                                  
103C2019-11-01T19:14+02:00                                                                           116 20095 11-19 Monthly       00001OPNZA                                                      BAEC 19569120                Coetzee                                                                                                                                                AV                  00000000900000000000NOPNZAMMDPS          0  11-19 Monthly                                  
103C2019-11-01T19:14+02:00                                                                           116 20173 11-19 Monthly       00001OPNZA                                                      BAEC 25488219                Pieterse                                                                                                                                               AV                  00000000900000000000NOPNZAMMDPS          0  11-19 Monthly                                  
103C2019-11-01T19:14+02:00                                                                           116 20240 11-19 Monthly       00001OPNZA                                                      BAEC 60277048                Myburgh                                                                                                                                                AV                  00000001420000000000NOPNZAMMDPS          0  11-19 Monthly                                  
103C2019-11-01T19:14+02:00                                                                           116 20399 11-19 Monthly       00001OPNZA                                                      BAEC 17098787                Botes                                                                                                                                                  AV                  00000000580000000000NOPNZAMMDPS          0  11-19 Monthly                                  
103C2019-11-01T19:14+02:00                                                                           116 19805 11-19 Monthly       00001OPNZA                                                      BAEC Owen.clark              Clark                                                                                                                                                  AV                  00000000580000000000NOPNZAMMDPS          0  11-19 Monthly                                  
103C2019-11-01T19:14+02:00                                                                           116 20197 11-19 Monthly       00001OPNZA                                                      BAEC 61028655                Thrussell                                                                                                                                              AV                  00000000920000000000NOPNZAMMDPS          0  11-19 Monthly                                  
103C2019-11-01T19:14+02:00                                                                           116 20544 11-19 Monthly       00001OPNZA                                                      BAEC 14270517                Patel                                                                                                                                                  AV                  00000000580000000000NOPNZAMMDPS          0  11-19 Monthly                                  
103C2019-11-01T19:14+02:00                                                                           116 20559 11-19 Monthly       00001OPNZA                                                      BAEC 30592397                Barker                                                                                                                                                 AV                  00000000580000000000NOPNZAMMDPS          0  11-19 Monthly                                  
103C2019-11-01T19:14+02:00                                                                           116 20589 11-19 Monthly       00001OPNZA                                                      BAEC 15973401                Daniels                                                                                                                                                AV                  00000000580000000000NOPNZAMMDPS          0  11-19 Monthly                                  
103C2019-11-01T19:14+02:00                                                                           116 20607 11-19 Monthly       00001OPNZA                                                      BAEC 24346930                Mbusi                                                                                                                                                  AV                  00000000900000000000NOPNZAMMDPS          0  11-19 Monthly                                  
103C2019-11-01T19:14+02:00                                                                           116 20657 11-19 Monthly       00001OPNZA                                                      BAEC 15055326                Nicolai (Greystone)                                                                                                                                    AV                  00000001420000000000NOPNZAMMDPS          0  11-19 Monthly                                  
103C2019-11-01T19:14+02:00                                                                           116 20676 11-19 Monthly       00001OPNZA                                                      BAEC 23562139                Klopper                                                                                                                                                AV                  00000000900000000000NOPNZAMMDPS          0  11-19 Monthly                                  
103C2019-11-01T19:14+02:00                                                                           116 19448 11-19 Monthly       00001OPNZA                                                      BAEC 22595299                Schoeman                                                                                                                                               AV                  00000001970000000000NOPNZAUBFMR          0  11-19 Monthly                                  
103C2019-11-01T19:14+02:00                                                                           116 20853 11-19 Monthly       00001OPNZA                                                      BAEC 3081472023583799        Meissenheimer                                                                                                                                          AV                  00000000580000000000NOPNZAMMDPS          0  11-19 Monthly                                  
103C2019-11-01T19:14+02:00                                                                           116 7473 11-19 Monthly        00001OPNZA                                                      BAEC 23888908                Zacks                                                                                                                                                  AV                  00000000900000000000NOPNZAMMDPS          0  11-19 Monthly                                  
103C2019-11-01T19:14+02:00                                                                           116 20899 11-19 Monthly       00001OPNZA                                                      BAEC 24080495                Theron                                                                                                                                                 AV                  00000000420000000000NOPNZAFIBRT          0  11-19 Monthly                                  
103C2019-11-01T19:14+02:00                                                                           116 20653 11-19               00001OPNZA                                                      BAEC 23906846                Bonthuys                                                                                                                                               AV                  00000001970000000000NOPNZAUBFMR          7243 (R789 - 10Mbps Uncapped Fibre Data + Fibre Li
103C2019-11-01T19:14+02:00                                                                           116 21029 11-19 Monthly       00001OPNZA                                                      BAEC 24751479                Weber                                                                                                                                                  AV                  00000000900000000000NOPNZAMMDPS          0  11-19 Monthly                                  
103C2019-11-01T19:14+02:00                                                                           116 21102 11-19 Monthly       00001OPNZA                                                      BAEC 20210442                Bester                                                                                                                                                 AV                  00000000920000000000NOPNZAMMDPS          0  11-19 Monthly                                  
103C2019-11-01T19:14+02:00                                                                           116 21425 11-19 Monthly       00001OPNZA                                                      BAEC 15209015                Barnard                                                                                                                                                AV                  00000000600000000000NOPNZAMMDPS          0  11-19 Monthly                                  
103C2019-11-01T19:14+02:00                                                                           116 21506 11-19 Monthly       00001OPNZA                                                      BAEC 25521336                Brazier                                                                                                                                                AV                  00000001420000000000NOPNZAFIBRT          0  11-19 Monthly                                  
103C2019-11-01T19:14+02:00                                                                           116 20431 11-19 Monthly       00001OPNZA                                                      BAEC 15508122                Africa                                                                                                                                                 AV                  00000000600000000000NOPNZAFIBRT          0  11-19 Monthly                                  
103C2019-11-01T19:14+02:00                                                                           116 19911 11-19 Monthly       00001OPNZA                                                      BAEC 45464915                Lopes                                                                                                                                                  AV                  00000003600000000000NOPNZAFIBMR          0  11-19 Monthly                                  
103C2019-11-01T19:14+02:00                                                                           116 20813 11-19 Monthly       00001OPNZA                                                      BAEC 24335373                Ikin                                                                                                                                                   AV                  00000001420000000000NOPNZAMMDPS          0  11-19 Monthly                                  
90000003600000036000000000000000000005431