000301OPNZA00001ANAINP011402020-02-02T10:41+02:00
103C2020-02-02T10:41+02:00                                                                           120 19410 02-20 Monthly       00001OPNZA                                                      BAEC 64809343                Wright                                                                                                                                                 AV                  00000007200000000000NOPNZAMMDPS          0  02-20 Monthly                                  
103C2020-02-02T10:41+02:00                                                                           120 21786 02-20 Monthly       00001OPNZA                                                      BAEC 26955632                Laas                                                                                                                                                   AV                  00000002500000000000NOPNZAMMDPS          0  02-20 Monthly                                  
103C2020-02-02T10:41+02:00                                                                           120 20244 02-20 Monthly       00001OPNZA                                                      BAEC 17715301                Nijland                                                                                                                                                AV                  00000000920000000000NOPNZAMMDPS          0  02-20 Monthly                                  
103C2020-02-02T10:41+02:00                                                                           120 19348 02-20 Monthly       00001OPNZA                                                      BAEC 21273431                Thompson                                                                                                                                               AV                  00000001640000000000NOPNZAFIBRT          0  02-20 Monthly                                  
103C2020-02-02T10:41+02:00                                                                           120 19521 02-20               00001OPNZA                                                      BAEC 12570957                Wright                                                                                                                                                 AV                  00000003390000000000NOPNZAFIBMR          7194 R989 - 40Mbps Fibre Line Rental + 300GB Cappe
103C2020-02-02T10:41+02:00                                                                           120 13046 02-20 Monthly       00001OPNZA                                                      BAEC 25922325                Barnard                                                                                                                                                AV                  00000004720000000000NOPNZAUBFMR          0  02-20 Monthly                                  
103C2020-02-02T10:41+02:00                                                                           120 19634 02-20 Monthly       00001OPNZA                                                      BAEC 15420269                Kyzer                                                                                                                                                  AV                  00000000920000000000NOPNZAMMDPS          0  02-20 Monthly                                  
103C2020-02-02T10:41+02:00                                                                           120 19850 02-20 Monthly       00001OPNZA                                                      BAEC 24270685                Hague                                                                                                                                                  AV                  00000000750000000000NOPNZAFIBRT          0  02-20 Monthly                                  
103C2020-02-02T10:41+02:00                                                                           120 13218 02-20 Monthly       00001OPNZA                                                      BAEC 18423570                Gold                                                                                                                                                   AV                  00000004470000000000NOPNZAUBFMR          0  02-20 Monthly                                  
103C2020-02-02T10:41+02:00                                                                           120 20095 02-20 Monthly       00001OPNZA                                                      BAEC 19569120                Coetzee                                                                                                                                                AV                  00000000900000000000NOPNZAMMDPS          0  02-20 Monthly                                  
103C2020-02-02T10:41+02:00                                                                           120 20263 02-20 Monthly       00001OPNZA                                                      BAEC 24758050                Steyn                                                                                                                                                  AV                  00000000900000000000NOPNZAFIBRT          0  02-20 Monthly                                  
103C2020-02-02T10:41+02:00                                                                           120 20399 02-20 Monthly       00001OPNZA                                                      BAEC 17098787                Botes                                                                                                                                                  AV                  00000000580000000000NOPNZAMMDPS          0  02-20 Monthly                                  
103C2020-02-02T10:41+02:00                                                                           120 19805 02-20 Monthly       00001OPNZA                                                      BAEC Owen.clark              Clark                                                                                                                                                  AV                  00000000580000000000NOPNZAMMDPS          0  02-20 Monthly                                  
103C2020-02-02T10:41+02:00                                                                           120 20197 02-20 Monthly       00001OPNZA                                                      BAEC 61028655                Thrussell                                                                                                                                              AV                  00000000920000000000NOPNZAMMDPS          0  02-20 Monthly                                  
103C2020-02-02T10:41+02:00                                                                           120 20544 02-20 Monthly       00001OPNZA                                                      BAEC 14270517                Patel                                                                                                                                                  AV                  00000000580000000000NOPNZAMMDPS          0  02-20 Monthly                                  
103C2020-02-02T10:41+02:00                                                                           120 20559 02-20 Monthly       00001OPNZA                                                      BAEC 30592397                Barker                                                                                                                                                 AV                  00000000580000000000NOPNZAMMDPS          0  02-20 Monthly                                  
103C2020-02-02T10:41+02:00                                                                           120 20589 02-20 Monthly       00001OPNZA                                                      BAEC 15973401                Daniels                                                                                                                                                AV                  00000000580000000000NOPNZAMMDPS          0  02-20 Monthly                                  
103C2020-02-02T10:41+02:00                                                                           120 19448 02-20 Monthly       00001OPNZA                                                      BAEC 22595299                Schoeman                                                                                                                                               AV                  00000001970000000000NOPNZAUBFMR          0  02-20 Monthly                                  
103C2020-02-02T10:41+02:00                                                                           120 20853 02-20 Monthly       00001OPNZA                                                      BAEC 3081472023583799        Meissenheimer                                                                                                                                          AV                  00000000580000000000NOPNZAMMDPS          0  02-20 Monthly                                  
103C2020-02-02T10:41+02:00                                                                           120 20966 02-20 Monthly       00001OPNZA                                                      BAEC 98585487                Makalima                                                                                                                                               AV                  00000001970000000000NOPNZAFIBMR          0  02-20 Monthly                                  
103C2020-02-02T10:41+02:00                                                                           120 20653 02-20               00001OPNZA                                                      BAEC 23906846                Bonthuys                                                                                                                                               AV                  00000001970000000000NOPNZAUBFMR          7243 (R789 - 10Mbps Uncapped Fibre Data + Fibre Li
103C2020-02-02T10:41+02:00                                                                           120 21029 02-20 Monthly       00001OPNZA                                                      BAEC 24751479                Weber                                                                                                                                                  AV                  00000000900000000000NOPNZAMMDPS          0  02-20 Monthly                                  
103C2020-02-02T10:41+02:00                                                                           120 21102 02-20 Monthly       00001OPNZA                                                      BAEC 20210442                Bester                                                                                                                                                 AV                  00000000920000000000NOPNZAMMDPS          0  02-20 Monthly                                  
103C2020-02-02T10:41+02:00                                                                           120 21425 02-20 Monthly       00001OPNZA                                                      BAEC 15209015                Barnard                                                                                                                                                AV                  00000000600000000000NOPNZAMMDPS          0  02-20 Monthly                                  
103C2020-02-02T10:41+02:00                                                                           120 22157 02-20 Monthly       00001OPNZA                                                      BAEC 3081471040373978        Greeff                                                                                                                                                 AV                  00000000580000000000NOPNZAFIBRT          0  02-20 Monthly                                  
103C2020-02-02T10:41+02:00                                                                           120 21691 02-20 Monthly       00001OPNZA                                                      BAEC 62549155                Jansen                                                                                                                                                 AV                  00000000930000000000NOPNZAFIBRT          0  02-20 Monthly                                  
103C2020-02-02T10:41+02:00                                                                           120 20431 02-20 Monthly       00001OPNZA                                                      BAEC 15508122                Africa                                                                                                                                                 AV                  00000000600000000000NOPNZAFIBRT          0  02-20 Monthly                                  
103C2020-02-02T10:41+02:00                                                                           120 19911 02-20 Monthly       00001OPNZA                                                      BAEC 45464915                Lopes                                                                                                                                                  AV                  00000003600000000000NOPNZAFIBMR          0  02-20 Monthly                                  
103C2020-02-02T10:41+02:00                                                                           120 21919 02-20 Monthly       00001OPNZA                                                      BAEC 18474548                Nel                                                                                                                                                    AV                  00000001370000000000NOPNZAFIBMR          0  02-20 Monthly                                  
90000002900000029000000000000000000004812