000301OPNZA00001ANAINP004102018-07-03T10:29+02:00
103C2018-07-03T10:29+02:00                                                                           47 20240 07-18 Monthly        00001OPNZA                                                      BAEC 60277048                Myburgh                                                                                                                                                AV                  00000000580000000000NOPNZAMMDPS          0  07-18 Monthly                                  
103C2018-07-03T10:29+02:00                                                                           47 20239 07-18                00001OPNZA                                                      AVIOS3081471041605485        Joubert                                                                                                                                                AV                  00000000410000000000NOPNZAUBAMR          7038 4Mbps Premium Uncapped 07-18                 
103C2018-07-03T10:29+02:00                                                                           47 20214 07-18 Monthly        00001OPNZA                                                      AVIOS3081471042032101        Ungerer                                                                                                                                                AV                  00000001900000000000NOPNZAMMDPS          0  07-18 Monthly                                  
103C2018-07-03T10:29+02:00                                                                           47 18368 07-18                00001OPNZA                                                      AVIOS3081471021053177        (Pty) Ltd                                                                                                                                              AV                  00000000840000000000NOPNZAUBAMR          7039 8Mbps Premium Uncapped 07-18                 
103C2018-07-03T10:29+02:00                                                                           47 19410 07-18 Monthly        00001OPNZA                                                      BAEC 64809343                Wright                                                                                                                                                 AV                  00000007250000000000NOPNZAMMDPS          0  07-18 Monthly                                  
103C2018-07-03T10:29+02:00                                                                           47 20047 07-18 Monthly        00001OPNZA                                                      AVIOS3081472027733077        MAHOMEDY                                                                                                                                               AV                  00000001420000000000NOPNZAMMDPS          0  07-18 Monthly                                  
103C2018-07-03T10:29+02:00                                                                           47 20092 07-18 Monthly        00001OPNZA                                                      AVIOS3081471041603845        van Pype                                                                                                                                               AV                  00000001150000000000NOPNZAMMDPS          0  07-18 Monthly                                  
103C2018-07-03T10:29+02:00                                                                           47 12490 07-18                00001OPNZA                                                      BAEC 61128708                Croker                                                                                                                                                 AV                  00000000980000000000NOPNZAUBAMR          5111 4Mbps Home Uncapped Unshaped Premium 07-18   
103C2018-07-03T10:29+02:00                                                                           47 191 07-18 Monthly          00001OPNZA                                                      AVIOS1234562                 tew12                                                                                                                                                  AV                  00000000250000000000NOPNZAUBFMR          0  07-18 Monthly                                  
103C2018-07-03T10:29+02:00                                                                           47 19981 07-18 Monthly        00001OPNZA                                                      AVIOS3081471040873464        Cronje                                                                                                                                                 AV                  00000000580000000000NOPNZAMMDPS          0  07-18 Monthly                                  
103C2018-07-03T10:29+02:00                                                                           47 4307 07-18 Monthly         00001OPNZA                                                      AVIOS3081471143686300        marillier                                                                                                                                              AV                  00000000580000000000NOPNZAMMDPS          0  07-18 Monthly                                  
103C2018-07-03T10:29+02:00                                                                           47 20244 07-18 Monthly        00001OPNZA                                                      BAEC 17715301                Nijland                                                                                                                                                AV                  00000000920000000000NOPNZAMMDPS          0  07-18 Monthly                                  
103C2018-07-03T10:29+02:00                                                                           47 20218 07-18                00001OPNZA                                                      AVIOS3081471029026811        Arendse                                                                                                                                                AV                  00000000410000000000NOPNZAUBAMR          7038 4Mbps Premium Uncapped 07-18                 
103C2018-07-03T10:29+02:00                                                                           47 15208 07-18 Monthly        00001OPNZA                                                      AVIOS3081471037262895        Badenhorst                                                                                                                                             AV                  00000001670000000000NOPNZAMMDPS          0  07-18 Monthly                                  
103C2018-07-03T10:29+02:00                                                                           47 19348 07-18 Monthly        00001OPNZA                                                      BAEC 21273431                Thompson                                                                                                                                               AV                  00000001650000000000NOPNZAUBFMR          0  07-18 Monthly                                  
103C2018-07-03T10:29+02:00                                                                           47 19358 07-18 Monthly        00001OPNZA                                                      AVIOS3081471042147339        Kruger                                                                                                                                                 AV                  00000002250000000000NOPNZAMMDPS          0  07-18 Monthly                                  
103C2018-07-03T10:29+02:00                                                                           47 19439 07-18 Monthly        00001OPNZA                                                      AVIOS3081472024211697        Neve                                                                                                                                                   AV                  00000001120000000000NOPNZAFIBRT          0  07-18 Monthly                                  
103C2018-07-03T10:29+02:00                                                                           47 19320 07-18 Monthly        00001OPNZA                                                      AVIOS3081471035552875        Pelzer                                                                                                                                                 AV                  00000001330000000000NOPNZAMMDPS          0  07-18 Monthly                                  
103C2018-07-03T10:29+02:00                                                                           47 19422 07-18                00001OPNZA                                                      BAEC 19282203                Steenkamp                                                                                                                                              AV                  00000000560000000000NOPNZAUBAMR          7038 4Mbps Premium Uncapped 07-18                 
103C2018-07-03T10:29+02:00                                                                           47 19521 07-18 Monthly        00001OPNZA                                                      BAEC 12570957                Wright                                                                                                                                                 AV                  00000003220000000000NOPNZAFIBMR          0  07-18 Monthly                                  
103C2018-07-03T10:29+02:00                                                                           47 13046 07-18 Monthly        00001OPNZA                                                      BAEC 25922325                Barnard                                                                                                                                                AV                  00000004720000000000NOPNZAUBFMR          0  07-18 Monthly                                  
103C2018-07-03T10:29+02:00                                                                           47 17942 07-18 Monthly        00001OPNZA                                                      AVIOS3081472030080649        Venter                                                                                                                                                 AV                  00000000500000000000NOPNZAMMDPS          0  07-18 Monthly                                  
103C2018-07-03T10:29+02:00                                                                           47 19488 07-18 Monthly        00001OPNZA                                                      AVIOS3081472024934512        brink                                                                                                                                                  AV                  00000000500000000000NOPNZAMMDPS          0  07-18 Monthly                                  
103C2018-07-03T10:29+02:00                                                                           47 19154 07-18 Monthly        00001OPNZA                                                      AVIOS3081471040231200        Magee                                                                                                                                                  AV                  00000000500000000000NOPNZAMMDPS          0  07-18 Monthly                                  
103C2018-07-03T10:29+02:00                                                                           47 19266 07-18 Monthly        00001OPNZA                                                      AVIOS3081471036135324        Kubheka                                                                                                                                                AV                  00000000500000000000NOPNZAMMDPS          0  07-18 Monthly                                  
103C2018-07-03T10:29+02:00                                                                           47 19111 07-18 Monthly        00001OPNZA                                                      AVIOS3081471022641129        Sonbadhar                                                                                                                                              AV                  00000000920000000000NOPNZAMMDPS          0  07-18 Monthly                                  
103C2018-07-03T10:29+02:00                                                                           47 8524 07-18 Monthly         00001OPNZA                                                      AVIOS3081471037241238        Goncalves                                                                                                                                              AV                  00000001720000000000NOPNZAFIBMR          0  07-18 Monthly                                  
103C2018-07-03T10:29+02:00                                                                           47 19238 07-18 Monthly        00001OPNZA                                                      BAEC 18336986                Arnab                                                                                                                                                  AV                  00000001670000000000NOPNZAMMDPS          0  07-18 Monthly                                  
103C2018-07-03T10:29+02:00                                                                           47 19542 07-18 Monthly        00001OPNZA                                                      AVIOS3081472008507086        du Plessis                                                                                                                                             AV                  00000000500000000000NOPNZAMMDPS          0  07-18 Monthly                                  
103C2018-07-03T10:29+02:00                                                                           47 13047 07-18 Monthly        00001OPNZA                                                      BAEC 19082400                Storer                                                                                                                                                 AV                  00000000560000000000NOPNZAUBAMR          7038 4Mbps Premium Uncapped 07-18 Monthly         
103C2018-07-03T10:29+02:00                                                                           47 19597 07-18 Monthly        00001OPNZA                                                      AVIOS3081471041820852        Saayman                                                                                                                                                AV                  00000000650000000000NOPNZAFIBRT          0  07-18 Monthly                                  
103C2018-07-03T10:29+02:00                                                                           47 19634 07-18 Monthly        00001OPNZA                                                      BAEC 15420269                Kyzer                                                                                                                                                  AV                  00000000920000000000NOPNZAMMDPS          0  07-18 Monthly                                  
103C2018-07-03T10:29+02:00                                                                           47 19661 07-18                00001OPNZA                                                      AVIOS202497855               Richards                                                                                                                                               AV                  00000000580000000000NOPNZAUBAMR          7040 10Mbps Premium Uncapped 07-18                
103C2018-07-03T10:29+02:00                                                                           47 19699 07-18 Monthly        00001OPNZA                                                      AVIOS3081471038661319        Blignaut                                                                                                                                               AV                  00000000900000000000NOPNZAMMDPS          0  07-18 Monthly                                  
103C2018-07-03T10:29+02:00                                                                           47 19697 07-18 Monthly        00001OPNZA                                                      AVIOS3081471039203137        Ayoob                                                                                                                                                  AV                  00000000820000000000NOPNZAMMDPS          0  07-18 Monthly                                  
103C2018-07-03T10:29+02:00                                                                           47 19723 07-18 Monthly        00001OPNZA                                                      AVIOS3081471038860010        Le Roux                                                                                                                                                AV                  00000000920000000000NOPNZAMMDPS          0  07-18 Monthly                                  
103C2018-07-03T10:29+02:00                                                                           47 19708 07-18 Monthly        00001OPNZA                                                      AVIOS3081471039161616        Geel                                                                                                                                                   AV                  00000001130000000000NOPNZAMMDPS          0  07-18 Monthly                                  
103C2018-07-03T10:29+02:00                                                                           47 13292 07-18 Monthly        00001OPNZA                                                      BAEC 10428689                Nefdt                                                                                                                                                  AV                  00000001660000000000NOPNZAMMDPS          0  07-18 Monthly                                  
103C2018-07-03T10:29+02:00                                                                           47 19702 07-18 Monthly        00001OPNZA                                                      AVIOS3081471039103089        Ribombo                                                                                                                                                AV                  00000000500000000000NOPNZAMMDPS          0  07-18 Monthly                                  
103C2018-07-03T10:29+02:00                                                                           47 19758 07-18 Monthly        00001OPNZA                                                      AVIOS202943850               Pather                                                                                                                                                 AV                  00000000580000000000NOPNZAMMDPS          0  07-18 Monthly                                  
103C2018-07-03T10:29+02:00                                                                           47 19806 07-18 Monthly        00001OPNZA                                                      AVIOS3081471039665772        Jordan                                                                                                                                                 AV                  00000000580000000000NOPNZAMMDPS          0  07-18 Monthly                                  
103C2018-07-03T10:29+02:00                                                                           47 13218 07-18 Monthly        00001OPNZA                                                      BAEC 49929245                Kurgan                                                                                                                                                 AV                  00000004470000000000NOPNZAUBFMR          0  07-18 Monthly                                  
103C2018-07-03T10:29+02:00                                                                           47 7752 07-18                 00001OPNZA                                                      AVIOS3081471021130595        Howatt                                                                                                                                                 AV                  00000000860000000000NOPNZAUBAMR          7038 4Mbps Premium Uncapped 07-18                 
103C2018-07-03T10:29+02:00                                                                           47 19863 07-18 Monthly        00001OPNZA                                                      AVIOS3081471034482835        Paillard                                                                                                                                               AV                  00000000900000000000NOPNZAMMDPS          0  07-18 Monthly                                  
103C2018-07-03T10:29+02:00                                                                           47 19925 07-18 Monthly        00001OPNZA                                                      AVIOS3081471037418133        Williams                                                                                                                                               AV                  00000002670000000000NOPNZAMMDPS          0  07-18 Monthly                                  
103C2018-07-03T10:29+02:00                                                                           47 19944 07-18 Monthly        00001OPNZA                                                      AVIOS3081471041410746        Slabber                                                                                                                                                AV                  00000001150000000000NOPNZAMMDPS          0  07-18 Monthly                                  
103C2018-07-03T10:29+02:00                                                                           47 19851 07-18 Monthly        00001OPNZA                                                      AVIOS3081471038860341        van Jaarsveld                                                                                                                                          AV                  00000001970000000000NOPNZAFIBRT          0  07-18 Monthly                                  
103C2018-07-03T10:29+02:00                                                                           47 12344 07-18 Monthly        00001OPNZA                                                      AVIOS3081472025220598        Naidoo                                                                                                                                                 AV                  00000000110000000000NOPNZAUBAMR          7167 100GB Capped Unshaped 07-18 Monthly          
103C2018-07-03T10:29+02:00                                                                           47 20031 07-18                00001OPNZA                                                      AVIOS3081471038471198        Diedericks                                                                                                                                             AV                  00000000410000000000NOPNZAUBAMR          7038 4Mbps Premium Uncapped 07-18                 
103C2018-07-03T10:29+02:00                                                                           47 20042 07-18 Monthly        00001OPNZA                                                      AVIOS3081471041387167        Swanepoel                                                                                                                                              AV                  00000001230000000000NOPNZAFIBRT          0  07-18 Monthly                                  
103C2018-07-03T10:29+02:00                                                                           47 20067 07-18 Monthly        00001OPNZA                                                      AVIOS3081471041455568        Draghoender                                                                                                                                            AV                  00000000580000000000NOPNZAMMDPS          0  07-18 Monthly                                  
103C2018-07-03T10:29+02:00                                                                           47 20069 07-18 Monthly        00001OPNZA                                                      AVIOS3081471040975905        Botha                                                                                                                                                  AV                  00000001130000000000NOPNZAMMDPS          0  07-18 Monthly                                  
103C2018-07-03T10:29+02:00                                                                           47 20070 07-18 Monthly        00001OPNZA                                                      AVIOS3081471041561159        Macaskill                                                                                                                                              AV                  00000000920000000000NOPNZAMMDPS          0  07-18 Monthly                                  
103C2018-07-03T10:29+02:00                                                                           47 20080 07-18 Monthly        00001OPNZA                                                      AVIOS3081471041622431        Schoevers                                                                                                                                              AV                  00000000900000000000NOPNZAMMDPS          0  07-18 Monthly                                  
103C2018-07-03T10:29+02:00                                                                           47 20087 07-18 Monthly        00001OPNZA                                                      AVIOS3081471042287762        Mlotshwa                                                                                                                                               AV                  00000000820000000000NOPNZAMMDPS          0  07-18 Monthly                                  
103C2018-07-03T10:29+02:00                                                                           47 20088 07-18                00001OPNZA                                                      AVIOS3081471020431697        Singh                                                                                                                                                  AV                  00000000410000000000NOPNZAUBAMR          7038 4Mbps Premium Uncapped 07-18                 
103C2018-07-03T10:29+02:00                                                                           47 16473 07-18                00001OPNZA                                                      BAEC 14073664                Riddle                                                                                                                                                 AV                  00000001260000000000NOPNZAUBAMR          7046 10Mbps Business Uncapped 07-18               
103C2018-07-03T10:29+02:00                                                                           47 20095 07-18 Monthly        00001OPNZA                                                      BAEC 19569120                Coetzee                                                                                                                                                AV                  00000000900000000000NOPNZAMMDPS          0  07-18 Monthly                                  
103C2018-07-03T10:29+02:00                                                                           47 20093 07-18                00001OPNZA                                                      AVIOS3081471041578088        Klinker                                                                                                                                                AV                  00000000630000000000NOPNZAUBAMR          7040 10Mbps Premium Uncapped 07-18                
103C2018-07-03T10:29+02:00                                                                           47 20109 07-18 Monthly        00001OPNZA                                                      AVIOS3081471209888196        Bowring                                                                                                                                                AV                  00000000900000000000NOPNZAMMDPS          0  07-18 Monthly                                  
103C2018-07-03T10:29+02:00                                                                           47 20112 07-18 Monthly        00001OPNZA                                                      BAEC 15842738                Banwell                                                                                                                                                AV                  00000000900000000000NOPNZAMMDPS          0  07-18 Monthly                                  
103C2018-07-03T10:29+02:00                                                                           47 20123 07-18 Monthly        00001OPNZA                                                      AVIOS3081471142756617        October                                                                                                                                                AV                  00000001370000000000NOPNZAFIBRT          0  07-18 Monthly                                  
103C2018-07-03T10:29+02:00                                                                           47 20126 07-18 Monthly        00001OPNZA                                                      AVIOS114353863               Wiener                                                                                                                                                 AV                  00000000580000000000NOPNZAMMDPS          0  07-18 Monthly                                  
103C2018-07-03T10:29+02:00                                                                           47 20127 07-18 Monthly        00001OPNZA                                                      AVIOS3081471041733501        Harris                                                                                                                                                 AV                  00000000580000000000NOPNZAMMDPS          0  07-18 Monthly                                  
103C2018-07-03T10:29+02:00                                                                           47 20140 07-18 Monthly        00001OPNZA                                                      AVIOS3081471042241983        Mcwatts                                                                                                                                                AV                  00000000580000000000NOPNZAMMDPS          0  07-18 Monthly                                  
103C2018-07-03T10:29+02:00                                                                           47 20141 07-18 Monthly        00001OPNZA                                                      AVIOS3081471041899039        Henderson                                                                                                                                              AV                  00000001150000000000NOPNZAMMDPS          0  07-18 Monthly                                  
103C2018-07-03T10:29+02:00                                                                           47 20150 07-18 Monthly        00001OPNZA                                                      BAEC 17666373                Swart                                                                                                                                                  AV                  00000000580000000000NOPNZAMMDPS          0  07-18 Monthly                                  
103C2018-07-03T10:29+02:00                                                                           47 20151 07-18 Monthly        00001OPNZA                                                      AVIOS3081471041970806        van Rooyen                                                                                                                                             AV                  00000000580000000000NOPNZAMMDPS          0  07-18 Monthly                                  
103C2018-07-03T10:29+02:00                                                                           47 20153 07-18 Monthly        00001OPNZA                                                      AVIOS3081471037202404        Hugo                                                                                                                                                   AV                  00000000580000000000NOPNZAMMDPS          0  07-18 Monthly                                  
103C2018-07-03T10:29+02:00                                                                           47 20164 07-18 Monthly        00001OPNZA                                                      AVIOS3081471042065671        Westley                                                                                                                                                AV                  00000000580000000000NOPNZAMMDPS          0  07-18 Monthly                                  
103C2018-07-03T10:29+02:00                                                                           47 20186 07-18 Monthly        00001OPNZA                                                      AVIOS3081471042178243        Loots                                                                                                                                                  AV                  00000000900000000000NOPNZAMMDPS          0  07-18 Monthly                                  
103C2018-07-03T10:29+02:00                                                                           47 20197 07-18 Monthly        00001OPNZA                                                      BAEC 61028655                Thrussell                                                                                                                                              AV                  00000000900000000000NOPNZAMMDPS          0  07-18 Monthly                                  
103C2018-07-03T10:29+02:00                                                                           47 20200 07-18 Monthly        00001OPNZA                                                      AVIOS3081472030503699        Logan                                                                                                                                                  AV                  00000000580000000000NOPNZAMMDPS          0  07-18 Monthly                                  
103C2018-07-03T10:29+02:00                                                                           47 20263 07-18 admin          00001OPNZA                                                      AVIOS3081471042586114        Steyn                                                                                                                                                  AV                  00000020000000002000NOPNZAMMDPSOPNZABONUS7777 admin reward 07-18 admin                     
103C2018-07-03T10:29+02:00                                                                           47 20261 07-18 admin          00001OPNZA                                                      AVIOS3081471042339985        Joseph                                                                                                                                                 AV                  00000020000000002000NOPNZAMMDPSOPNZABONUS7777 admin reward 07-18 admin                     
103C2018-07-03T10:29+02:00                                                                           47 20262 07-18 admin          00001OPNZA                                                      AVIOS3081471031097602        Aaron                                                                                                                                                  AV                  00000020000000002000NOPNZAMMDPSOPNZABONUS7777 admin reward 07-18 admin                     
90000007600000076000000006000000000014248