000301OPNZA00001ANAINP003402018-06-05T15:42+02:00
103C2018-06-05T15:42+02:00                                                                           40 12490 06-18                00001OPNZA                                                      BAEC 61128708                Croker                                                                                                                                                 AV                  00000000980000000000NOPNZAUBAMR          5111 4Mbps Home Uncapped Unshaped Premium 06-18   
103C2018-06-05T15:42+02:00                                                                           40 7779 06-18                 00001OPNZA                                                      AVIOS3081471037381265        de Wit                                                                                                                                                 AV                  00000000690000000000NOPNZAFIBRT          7061 200GB Capped Unshaped 06-18                  
103C2018-06-05T15:42+02:00                                                                           40 20047 06-18 Monthly        00001OPNZA                                                      AVIOS3081472027733077        MAHOMEDY                                                                                                                                               AV                  00000001420000000000NOPNZAMMDPS          0  06-18 Monthly                                  
103C2018-06-05T15:42+02:00                                                                           40 19410 06-18 Monthly        00001OPNZA                                                      BAEC 64809343                Wright                                                                                                                                                 AV                  00000007250000000000NOPNZAMMDPS          0  06-18 Monthly                                  
103C2018-06-05T15:42+02:00                                                                           40 18368 06-18                00001OPNZA                                                      AVIOS3081471021053177        (Pty) Ltd                                                                                                                                              AV                  00000000840000000000NOPNZAFIBRT          7039 8Mbps Premium Uncapped 06-18                 
103C2018-06-05T15:42+02:00                                                                           40 15208 06-18 Monthly        00001OPNZA                                                      AVIOS3081471037262895        Badenhorst                                                                                                                                             AV                  00000001670000000000NOPNZAFIBRT          0  06-18 Monthly                                  
103C2018-06-05T15:42+02:00                                                                           40 19348 06-18 Monthly        00001OPNZA                                                      BAEC 21273431                Thompson                                                                                                                                               AV                  00000001650000000000NOPNZAUBFMR          0  06-18 Monthly                                  
103C2018-06-05T15:42+02:00                                                                           40 19439 06-18 Monthly        00001OPNZA                                                      AVIOS3081472024211697        Neve                                                                                                                                                   AV                  00000000910000000000NOPNZAFIBRT          0  06-18 Monthly                                  
103C2018-06-05T15:42+02:00                                                                           40 19320 06-18 Monthly        00001OPNZA                                                      AVIOS3081471035552875        Pelzer                                                                                                                                                 AV                  00000001330000000000NOPNZAMMDPS          0  06-18 Monthly                                  
103C2018-06-05T15:42+02:00                                                                           40 19422 06-18                00001OPNZA                                                      BAEC 19282203                Steenkamp                                                                                                                                              AV                  00000000560000000000NOPNZAUBAMR          7038 4Mbps Premium Uncapped 06-18                 
103C2018-06-05T15:42+02:00                                                                           40 19521 06-18 Monthly        00001OPNZA                                                      BAEC 12570957                Wright                                                                                                                                                 AV                  00000003220000000000NOPNZAFIBMR          0  06-18 Monthly                                  
103C2018-06-05T15:42+02:00                                                                           40 13046 06-18 Monthly        00001OPNZA                                                      BAEC 25922325                Barnard                                                                                                                                                AV                  00000004720000000000NOPNZAUBFMR          0  06-18 Monthly                                  
103C2018-06-05T15:42+02:00                                                                           40 17942 06-18 Monthly        00001OPNZA                                                      AVIOS3081472030080649        Venter                                                                                                                                                 AV                  00000000500000000000NOPNZAMMDPS          0  06-18 Monthly                                  
103C2018-06-05T15:42+02:00                                                                           40 19477 06-18 Monthly        00001OPNZA                                                      AVIOS7706105203082           Earle                                                                                                                                                  AV                  00000000570000000000NOPNZAUBAMR          5110 2Mbps Home Uncapped Unshaped Premium 06-18 Mo
103C2018-06-05T15:42+02:00                                                                           40 19488 06-18 Monthly        00001OPNZA                                                      AVIOS3081472024934512        brink                                                                                                                                                  AV                  00000000500000000000NOPNZAMMDPS          0  06-18 Monthly                                  
103C2018-06-05T15:42+02:00                                                                           40 19154 06-18 Monthly        00001OPNZA                                                      AVIOS3081471040231200        Magee                                                                                                                                                  AV                  00000000500000000000NOPNZAMMDPS          0  06-18 Monthly                                  
103C2018-06-05T15:42+02:00                                                                           40 19266 06-18 Monthly        00001OPNZA                                                      AVIOS3081471036135324        Kubheka                                                                                                                                                AV                  00000000500000000000NOPNZAMMDPS          0  06-18 Monthly                                  
103C2018-06-05T15:42+02:00                                                                           40 19111 06-18 Monthly        00001OPNZA                                                      AVIOS3081471022641129        Sonbadhar                                                                                                                                              AV                  00000000920000000000NOPNZAMMDPS          0  06-18 Monthly                                  
103C2018-06-05T15:42+02:00                                                                           40 8524 06-18 Monthly         00001OPNZA                                                      AVIOS3081471037241238        Goncalves                                                                                                                                              AV                  00000001720000000000NOPNZAFIBMR          0  06-18 Monthly                                  
103C2018-06-05T15:42+02:00                                                                           40 19238 06-18 Monthly        00001OPNZA                                                      BAEC 18336986                Arnab                                                                                                                                                  AV                  00000001670000000000NOPNZAMMDPS          0  06-18 Monthly                                  
103C2018-06-05T15:42+02:00                                                                           40 13047 06-18 Monthly        00001OPNZA                                                      BAEC 19082400                Storer                                                                                                                                                 AV                  00000000560000000000NOPNZAUBAMR          7038 4Mbps Premium Uncapped 06-18 Monthly         
103C2018-06-05T15:42+02:00                                                                           40 19634 06-18 Monthly        00001OPNZA                                                      BAEC 15420269                Kyzer                                                                                                                                                  AV                  00000000920000000000NOPNZAMMDPS          0  06-18 Monthly                                  
103C2018-06-05T15:42+02:00                                                                           40 19651 06-18                00001OPNZA                                                      BAEC 202428297               Mqingwana                                                                                                                                              AV                  00000000400000000000NOPNZAUBAMR          7038 4Mbps Premium Uncapped 06-18                 
103C2018-06-05T15:42+02:00                                                                           40 19661 06-18                00001OPNZA                                                      AVIOS202497855               Richards                                                                                                                                               AV                  00000000580000000000NOPNZAUBAMR          7040 10Mbps Premium Uncapped 06-18                
103C2018-06-05T15:42+02:00                                                                           40 19699 06-18                00001OPNZA                                                      AVIOS3081471038661319        Blignaut                                                                                                                                               AV                  00000000900000000000NOPNZAMMDPS          06-18                                             
103C2018-06-05T15:42+02:00                                                                           40 191 06-18 Monthly          00001OPNZA                                                      AVIOS1234562                 tew12                                                                                                                                                  AV                  00000010250000000000NOPNZAUBFMR          0  06-18 Monthly                                  
103C2018-06-05T15:42+02:00                                                                           40 19697 06-18 Monthly        00001OPNZA                                                      AVIOS3081471039203137        Ayoob                                                                                                                                                  AV                  00000000820000000000NOPNZAMMDPS          0  06-18 Monthly                                  
103C2018-06-05T15:42+02:00                                                                           40 19723 06-18 Monthly        00001OPNZA                                                      AVIOS3081471038860010        Le Roux                                                                                                                                                AV                  00000000920000000000NOPNZAMMDPS          0  06-18 Monthly                                  
103C2018-06-05T15:42+02:00                                                                           40 2101 06-18 Monthly         00001OPNZA                                                      AVIOS202773307               Singh                                                                                                                                                  AV                  00000000900000000000NOPNZAMMDPS          0  06-18 Monthly                                  
103C2018-06-05T15:42+02:00                                                                           40 19708 06-18 Monthly        00001OPNZA                                                      AVIOS3081471039161616        Geel                                                                                                                                                   AV                  00000001130000000000NOPNZAMMDPS          0  06-18 Monthly                                  
103C2018-06-05T15:42+02:00                                                                           40 13292 06-18 Monthly        00001OPNZA                                                      BAEC 10428689                Nefdt                                                                                                                                                  AV                  00000001660000000000NOPNZAMMDPS          0  06-18 Monthly                                  
103C2018-06-05T15:42+02:00                                                                           40 19702 06-18 Monthly        00001OPNZA                                                      AVIOS3081471039103089        Ribombo                                                                                                                                                AV                  00000000500000000000NOPNZAMMDPS          0  06-18 Monthly                                  
103C2018-06-05T15:42+02:00                                                                           40 19758 06-18 Monthly        00001OPNZA                                                      AVIOS202943850               Pather                                                                                                                                                 AV                  00000000580000000000NOPNZAMMDPS          0  06-18 Monthly                                  
103C2018-06-05T15:42+02:00                                                                           40 19806 06-18 Monthly        00001OPNZA                                                      AVIOS3081471039665772        Jordan                                                                                                                                                 AV                  00000000580000000000NOPNZAMMDPS          0  06-18 Monthly                                  
103C2018-06-05T15:42+02:00                                                                           40 19824 06-18                00001OPNZA                                                      AVIOS3081471039828156        titus                                                                                                                                                  AV                  00000001120000000000NOPNZAUBAMR          7039 8Mbps Premium Uncapped 06-18                 
103C2018-06-05T15:42+02:00                                                                           40 12431 06-18                00001OPNZA                                                      AVIOS3081471039980155        Land                                                                                                                                                   AV                  00000000180000000000NOPNZAUBAMR          7016 4Mbps Home Uncapped Special 06-18            
103C2018-06-05T15:42+02:00                                                                           40 13218 06-18 Monthly        00001OPNZA                                                      BAEC 49929245                Kurgan                                                                                                                                                 AV                  00000004470000000000NOPNZAUBFMR          0  06-18 Monthly                                  
103C2018-06-05T15:42+02:00                                                                           40 7752 06-18                 00001OPNZA                                                      AVIOS3081471021130595        Howatt                                                                                                                                                 AV                  00000000860000000000NOPNZAUBAMR          7038 4Mbps Premium Uncapped 06-18                 
103C2018-06-05T15:42+02:00                                                                           40 19863 06-18 Monthly        00001OPNZA                                                      AVIOS3081471034482835        Paillard                                                                                                                                               AV                  00000000900000000000NOPNZAMMDPS          0  06-18 Monthly                                  
103C2018-06-05T15:42+02:00                                                                           40 19907 06-18                00001OPNZA                                                      AVIOS3081472030892852        Zaayman                                                                                                                                                AV                  00000000180000000000NOPNZAUBAMR          7016 4Mbps Home Uncapped Special 06-18            
103C2018-06-05T15:42+02:00                                                                           40 19911 06-18                00001OPNZA                                                      BAEC 45464915                Lopes                                                                                                                                                  AV                  00000001430000000000NOPNZAUBAMR          7186 premium 06-18                                
103C2018-06-05T15:42+02:00                                                                           40 15614 06-18                00001OPNZA                                                      AVIOS203449683               Mohamed                                                                                                                                                AV                  00000000330000000000NOPNZAUBAMR          7018 10Mbps Home Uncapped Special 06-18           
103C2018-06-05T15:42+02:00                                                                           40 19925 06-18 Monthly        00001OPNZA                                                      AVIOS3081471037418133        Williams                                                                                                                                               AV                  00000002670000000000NOPNZAMMDPS          0  06-18 Monthly                                  
103C2018-06-05T15:42+02:00                                                                           40 19944 06-18 Monthly        00001OPNZA                                                      AVIOS3081471041410746        Slabber                                                                                                                                                AV                  00000001150000000000NOPNZAMMDPS          0  06-18 Monthly                                  
103C2018-06-05T15:42+02:00                                                                           40 19949 06-18 Monthly        00001OPNZA                                                      AVIOS3081471039379036        Janse van Rensburg                                                                                                                                     AV                  00000002220000000000NOPNZAUBFMR          0  06-18 Monthly                                  
103C2018-06-05T15:42+02:00                                                                           40 19336 06-18                00001OPNZA                                                      BAEC 202616686               Mashugane                                                                                                                                              AV                  00000000210000000000NOPNZAUBAMR          7016 4Mbps Home Uncapped Special 06-18            
103C2018-06-05T15:42+02:00                                                                           40 19955 06-18 Monthly        00001OPNZA                                                      AVIOS3081471040312034        Minnaar                                                                                                                                                AV                  00000001150000000000NOPNZAMMDPS          0  06-18 Monthly                                  
103C2018-06-05T15:42+02:00                                                                           40 20003 06-18 Monthly        00001OPNZA                                                      AVIOS3081471040588450        Cherry                                                                                                                                                 AV                  00000000580000000000NOPNZAMMDPS          0  06-18 Monthly                                  
103C2018-06-05T15:42+02:00                                                                           40 20008 06-18                00001OPNZA                                                      AVIOS3081471147450679        Steyn                                                                                                                                                  AV                  00000000040000000000NOPNZAUBAMR          7016 4Mbps Home Uncapped Special 06-18            
103C2018-06-05T15:42+02:00                                                                           40 20011 06-18 Monthly        00001OPNZA                                                      AVIOS203168453               Kedian                                                                                                                                                 AV                  00000001670000000000NOPNZAMMDPS          0  06-18 Monthly                                  
103C2018-06-05T15:42+02:00                                                                           40 19851 06-18                00001OPNZA                                                      AVIOS3081471038860341        van Jaarsveld                                                                                                                                          AV                  00000001450000000000NOPNZAFIBMR          06-18                                             
103C2018-06-05T15:42+02:00                                                                           40 20031 06-18                00001OPNZA                                                      AVIOS3081471038471198        Diedericks                                                                                                                                             AV                  00000000410000000000NOPNZAUBAMR          7038 4Mbps Premium Uncapped 06-18                 
103C2018-06-05T15:42+02:00                                                                           40 20042 06-18 Monthly        00001OPNZA                                                      AVIOS3081471041387167        Swanepoel                                                                                                                                              AV                  00000000820000000000NOPNZAMMDPS          0  06-18 Monthly                                  
103C2018-06-05T15:42+02:00                                                                           40 4177 06-18                 00001OPNZA                                                      AVIOS3081471020240361        langa                                                                                                                                                  AV                  00000000210000000000NOPNZAUBAMR          7016 4Mbps Home Uncapped Special 06-18            
103C2018-06-05T15:42+02:00                                                                           40 20068 06-18                00001OPNZA                                                      AVIOS3081471041535963        Beukes                                                                                                                                                 AV                  00000000330000000000NOPNZAUBAMR          7018 10Mbps Home Uncapped Special 06-18           
103C2018-06-05T15:42+02:00                                                                           40 19997 06-18 Monthly        00001OPNZA                                                      BAEC 14711507                Van Niekerk                                                                                                                                            AV                  00000000820000000000NOPNZAMMDPS          0  06-18 Monthly                                  
103C2018-06-05T15:42+02:00                                                                           40 20067 06-18 Monthly        00001OPNZA                                                      AVIOS3081471041455568        Draghoender                                                                                                                                            AV                  00000000580000000000NOPNZAMMDPS          0  06-18 Monthly                                  
103C2018-06-05T15:42+02:00                                                                           40 20069 06-18 Monthly        00001OPNZA                                                      AVIOS3081471040975905        Botha                                                                                                                                                  AV                  00000001130000000000NOPNZAMMDPS          0  06-18 Monthly                                  
103C2018-06-05T15:42+02:00                                                                           40 20070 06-18 Monthly        00001OPNZA                                                      AVIOS3081471041561159        Macaskill                                                                                                                                              AV                  00000000920000000000NOPNZAMMDPS          0  06-18 Monthly                                  
103C2018-06-05T15:42+02:00                                                                           40 20080 06-18 Monthly        00001OPNZA                                                      AVIOS3081471041622431        Schoevers                                                                                                                                              AV                  00000000900000000000NOPNZAMMDPS          0  06-18 Monthly                                  
103C2018-06-05T15:42+02:00                                                                           40 20088 06-18                00001OPNZA                                                      AVIOS3081471020431697        Singh                                                                                                                                                  AV                  00000000410000000000NOPNZAUBAMR          7038 4Mbps Premium Uncapped 06-18                 
103C2018-06-05T15:42+02:00                                                                           40 16473 06-18                00001OPNZA                                                      BAEC 14073664                Riddle                                                                                                                                                 AV                  00000000880000000000NOPNZAFIBRT          7046 10Mbps Business Uncapped 06-18               
103C2018-06-05T15:42+02:00                                                                           40 86 06-18 admin             00001OPNZA                                                      BAEC 61608378                Wright                                                                                                                                                 AV                  00000365210000000000NOPNZAMMDPS          7777 admin reward 06-18 admin                     
103C2018-06-05T15:42+02:00                                                                           40 20112 06-18 admin          00001OPNZA                                                      BAEC 15842738                Banwell                                                                                                                                                AV                  00000020000000002000NOPNZAMMDPSOPNZABONUS7777 admin reward 06-18 admin                     
90000006400000064000000002000000000046605