000301OPNZA00001ANAINP009102019-06-02T14:40+02:00
103C2019-06-02T14:40+02:00                                                                           97 19410 06-19 Monthly        00001OPNZA                                                      BAEC 64809343                Wright                                                                                                                                                 AV                  00000007250000000000NOPNZAMMDPS          0  06-19 Monthly                                  
103C2019-06-02T14:40+02:00                                                                           97 21271 06-19 Monthly        00001OPNZA                                                      BAEC 25235434                de klerk                                                                                                                                               AV                  00000000900000000000NOPNZAMMDPS          0  06-19 Monthly                                  
103C2019-06-02T14:40+02:00                                                                           97 20244 06-19 Monthly        00001OPNZA                                                      BAEC 17715301                Nijland                                                                                                                                                AV                  00000000920000000000NOPNZAMMDPS          0  06-19 Monthly                                  
103C2019-06-02T14:40+02:00                                                                           97 19348 06-19 Monthly        00001OPNZA                                                      BAEC 21273431                Thompson                                                                                                                                               AV                  00000001650000000000NOPNZAFIBRT          0  06-19 Monthly                                  
103C2019-06-02T14:40+02:00                                                                           97 19422 06-19                00001OPNZA                                                      BAEC 19282203                Steenkamp                                                                                                                                              AV                  00000000560000000000NOPNZAUBAMR          7038 4Mbps Premium Uncapped 06-19                 
103C2019-06-02T14:40+02:00                                                                           97 19521 06-19                00001OPNZA                                                      BAEC 12570957                Wright                                                                                                                                                 AV                  00000003390000000000NOPNZAFIBMR          7194 R989 - 40Mbps Fibre Line Rental + 300GB Cappe
103C2019-06-02T14:40+02:00                                                                           97 13046 06-19 Monthly        00001OPNZA                                                      BAEC 25922325                Barnard                                                                                                                                                AV                  00000004720000000000NOPNZAUBFMR          0  06-19 Monthly                                  
103C2019-06-02T14:40+02:00                                                                           97 19206 06-19 Monthly        00001OPNZA                                                      BAEC 24286035                McPhail                                                                                                                                                AV                  00000000920000000000NOPNZAMMDPS          0  06-19 Monthly                                  
103C2019-06-02T14:40+02:00                                                                           97 19238 06-19 Monthly        00001OPNZA                                                      BAEC 18336986                Arnab                                                                                                                                                  AV                  00000001670000000000NOPNZAMMDPS          0  06-19 Monthly                                  
103C2019-06-02T14:40+02:00                                                                           97 19634 06-19 Monthly        00001OPNZA                                                      BAEC 15420269                Kyzer                                                                                                                                                  AV                  00000000920000000000NOPNZAMMDPS          0  06-19 Monthly                                  
103C2019-06-02T14:40+02:00                                                                           97 19850 06-19 Monthly        00001OPNZA                                                      BAEC 24270685                Hague                                                                                                                                                  AV                  00000001420000000000NOPNZAMMDPS          0  06-19 Monthly                                  
103C2019-06-02T14:40+02:00                                                                           97 13218 06-19 Monthly        00001OPNZA                                                      BAEC 49929245                Kurgan                                                                                                                                                 AV                  00000004470000000000NOPNZAUBFMR          0  06-19 Monthly                                  
103C2019-06-02T14:40+02:00                                                                           97 20095 06-19 Monthly        00001OPNZA                                                      BAEC 19569120                Coetzee                                                                                                                                                AV                  00000000900000000000NOPNZAMMDPS          0  06-19 Monthly                                  
103C2019-06-02T14:40+02:00                                                                           97 20150 06-19 Monthly        00001OPNZA                                                      BAEC 17666373                Swart                                                                                                                                                  AV                  00000000580000000000NOPNZAMMDPS          0  06-19 Monthly                                  
103C2019-06-02T14:40+02:00                                                                           97 20240 06-19 Monthly        00001OPNZA                                                      BAEC 60277048                Myburgh                                                                                                                                                AV                  00000001420000000000NOPNZAMMDPS          0  06-19 Monthly                                  
103C2019-06-02T14:40+02:00                                                                           97 20399 06-19 Monthly        00001OPNZA                                                      BAEC 17098787                Botes                                                                                                                                                  AV                  00000000580000000000NOPNZAMMDPS          0  06-19 Monthly                                  
103C2019-06-02T14:40+02:00                                                                           97 20431 06-19 Monthly        00001OPNZA                                                      BAEC 15508122                Africa                                                                                                                                                 AV                  00000000430000000000NOPNZAFIBRT          0  06-19 Monthly                                  
103C2019-06-02T14:40+02:00                                                                           97 19805 06-19 Monthly        00001OPNZA                                                      AVIOSOwen.clark              Clark                                                                                                                                                  AV                  00000000580000000000NOPNZAMMDPS          0  06-19 Monthly                                  
103C2019-06-02T14:40+02:00                                                                           97 20197 06-19 Monthly        00001OPNZA                                                      BAEC 61028655                Thrussell                                                                                                                                              AV                  00000000920000000000NOPNZAMMDPS          0  06-19 Monthly                                  
103C2019-06-02T14:40+02:00                                                                           97 20544 06-19 Monthly        00001OPNZA                                                      BAEC 14270517                Patel                                                                                                                                                  AV                  00000000580000000000NOPNZAMMDPS          0  06-19 Monthly                                  
103C2019-06-02T14:40+02:00                                                                           97 20559 06-19 Monthly        00001OPNZA                                                      BAEC 30592397                Barker                                                                                                                                                 AV                  00000000580000000000NOPNZAMMDPS          0  06-19 Monthly                                  
103C2019-06-02T14:40+02:00                                                                           97 20589 06-19 Monthly        00001OPNZA                                                      BAEC 15973401                Daniels                                                                                                                                                AV                  00000000580000000000NOPNZAMMDPS          0  06-19 Monthly                                  
103C2019-06-02T14:40+02:00                                                                           97 20607 06-19 Monthly        00001OPNZA                                                      BAEC 24346930                Mbusi                                                                                                                                                  AV                  00000000900000000000NOPNZAMMDPS          0  06-19 Monthly                                  
103C2019-06-02T14:40+02:00                                                                           97 20657 06-19 Monthly        00001OPNZA                                                      BAEC 15055326                Nicolai (Greystone)                                                                                                                                    AV                  00000001420000000000NOPNZAMMDPS          0  06-19 Monthly                                  
103C2019-06-02T14:40+02:00                                                                           97 20676 06-19 Monthly        00001OPNZA                                                      BAEC 23562139                Klopper                                                                                                                                                AV                  00000000900000000000NOPNZAMMDPS          0  06-19 Monthly                                  
103C2019-06-02T14:40+02:00                                                                           97 20784 06-19 Monthly        00001OPNZA                                                      BAEC 628484401               Mincher                                                                                                                                                AV                  00000000900000000000NOPNZAFIBRT          0  06-19 Monthly                                  
103C2019-06-02T14:40+02:00                                                                           97 20827 06-19 Monthly        00001OPNZA                                                      BAEC 23965358                Le Roux                                                                                                                                                AV                  00000000900000000000NOPNZAMMDPS          0  06-19 Monthly                                  
103C2019-06-02T14:40+02:00                                                                           97 7473 06-19 Monthly         00001OPNZA                                                      BAEC 23888908                Zacks                                                                                                                                                  AV                  00000000900000000000NOPNZAMMDPS          0  06-19 Monthly                                  
103C2019-06-02T14:40+02:00                                                                           97 20899 06-19 Monthly        00001OPNZA                                                      BAEC 24080495                Theron                                                                                                                                                 AV                  00000000430000000000NOPNZAFIBRT          0  06-19 Monthly                                  
103C2019-06-02T14:40+02:00                                                                           97 20966 06-19 Monthly        00001OPNZA                                                      BAEC 98585487                Makalima                                                                                                                                               AV                  00000001970000000000NOPNZAFIBMR          0  06-19 Monthly                                  
103C2019-06-02T14:40+02:00                                                                           97 20813 06-19 Monthly        00001OPNZA                                                      BAEC 24335373                Ikin                                                                                                                                                   AV                  00000001420000000000NOPNZAMMDPS          0  06-19 Monthly                                  
103C2019-06-02T14:40+02:00                                                                           97 21029 06-19 Monthly        00001OPNZA                                                      BAEC 24751479                Weber                                                                                                                                                  AV                  00000000900000000000NOPNZAMMDPS          0  06-19 Monthly                                  
103C2019-06-02T14:40+02:00                                                                           97 21057 06-19 Monthly        00001OPNZA                                                      BAEC 13541250                Siko                                                                                                                                                   AV                  00000000580000000000NOPNZAMMDPS          0  06-19 Monthly                                  
103C2019-06-02T14:40+02:00                                                                           97 21081 06-19 Monthly        00001OPNZA                                                      BAEC 97594317                Marais                                                                                                                                                 AV                  00000000580000000000NOPNZAMMDPS          0  06-19 Monthly                                  
103C2019-06-02T14:40+02:00                                                                           97 21102 06-19 Monthly        00001OPNZA                                                      BAEC 20210442                Bester                                                                                                                                                 AV                  00000000920000000000NOPNZAMMDPS          0  06-19 Monthly                                  
103C2019-06-02T14:40+02:00                                                                           97 13292 06-19 Monthly        00001OPNZA                                                      BAEC 10428689                Nefdt                                                                                                                                                  AV                  00000001420000000000NOPNZAMMDPS          0  06-19 Monthly                                  
103C2019-06-02T14:40+02:00                                                                           97 13047 06-19                00001OPNZA                                                      BAEC 19082400                Storer                                                                                                                                                 AV                  00000000630000000000NOPNZAUBAMR          7408 Mark Storer (Client) (R439 - 10Mbps Premium U
103C2019-06-02T14:40+02:00                                                                           97 21080 06-19                00001OPNZA                                                      BAEC 24639846                Bodill                                                                                                                                                 AV                  00000002760000000000NOPNZAFIBRT          7413 Sherri-Ann Bodill (R549 - 20Mbps Premium Unca
103C2019-06-02T14:40+02:00                                                                           97 21376 06-19                00001OPNZA                                                      BAEC 25587028                Pillay                                                                                                                                                 AV                  00000000930000000000NOPNZAFIBRT          06-19                                             
103C2019-06-02T14:40+02:00                                                                           97 21385 06-19 Monthly        00001OPNZA                                                      BAEC 18764680                Govender                                                                                                                                               AV                  00000000430000000000NOPNZAFIBRT          0  06-19 Monthly                                  
90000004000000040000000000000000000005483